{
	"contracts/Betting.sol": {
		"Betting": {
			"abi": [
				{
					"inputs": [],
					"stateMutability": "nonpayable",
					"type": "constructor"
				},
				{
					"inputs": [
						{
							"internalType": "uint8",
							"name": "_teamSelected",
							"type": "uint8"
						}
					],
					"name": "bet",
					"outputs": [],
					"stateMutability": "payable",
					"type": "function"
				},
				{
					"inputs": [
						{
							"internalType": "address",
							"name": "player",
							"type": "address"
						}
					],
					"name": "checkPlayerExists",
					"outputs": [
						{
							"internalType": "bool",
							"name": "",
							"type": "bool"
						}
					],
					"stateMutability": "view",
					"type": "function"
				},
				{
					"inputs": [],
					"name": "minimumBet",
					"outputs": [
						{
							"internalType": "uint256",
							"name": "",
							"type": "uint256"
						}
					],
					"stateMutability": "view",
					"type": "function"
				},
				{
					"inputs": [],
					"name": "numberOfBets",
					"outputs": [
						{
							"internalType": "uint256",
							"name": "",
							"type": "uint256"
						}
					],
					"stateMutability": "view",
					"type": "function"
				},
				{
					"inputs": [
						{
							"internalType": "address",
							"name": "",
							"type": "address"
						}
					],
					"name": "playerInfo",
					"outputs": [
						{
							"internalType": "uint256",
							"name": "amountBet",
							"type": "uint256"
						},
						{
							"internalType": "uint16",
							"name": "teamSelected",
							"type": "uint16"
						}
					],
					"stateMutability": "view",
					"type": "function"
				},
				{
					"inputs": [
						{
							"internalType": "uint256",
							"name": "",
							"type": "uint256"
						}
					],
					"name": "players",
					"outputs": [
						{
							"internalType": "address payable",
							"name": "",
							"type": "address"
						}
					],
					"stateMutability": "view",
					"type": "function"
				},
				{
					"inputs": [],
					"name": "totalBetOne",
					"outputs": [
						{
							"internalType": "uint256",
							"name": "",
							"type": "uint256"
						}
					],
					"stateMutability": "view",
					"type": "function"
				},
				{
					"inputs": [],
					"name": "totalBetTwo",
					"outputs": [
						{
							"internalType": "uint256",
							"name": "",
							"type": "uint256"
						}
					],
					"stateMutability": "view",
					"type": "function"
				}
			],
			"devdoc": {
				"kind": "dev",
				"methods": {},
				"version": 1
			},
			"evm": {
				"assembly": "    /* \"contracts/Betting.sol\":70:1516  contract Betting {... */\n  mstore(0x40, 0x80)\n    /* \"contracts/Betting.sol\":448:512  constructor() {... */\n  callvalue\n  dup1\n  iszero\n  tag_1\n  jumpi\n  0x00\n  dup1\n  revert\ntag_1:\n  pop\n    /* \"contracts/Betting.sol\":485:486  1 */\n  0x01\n    /* \"contracts/Betting.sol\":472:482  minimumBet */\n  0x00\n    /* \"contracts/Betting.sol\":472:486  minimumBet = 1 */\n  sstore\n    /* \"contracts/Betting.sol\":70:1516  contract Betting {... */\n  dataSize(sub_0)\n  dup1\n  dataOffset(sub_0)\n  0x00\n  codecopy\n  0x00\n  return\nstop\n\nsub_0: assembly {\n        /* \"contracts/Betting.sol\":70:1516  contract Betting {... */\n      mstore(0x40, 0x80)\n      jumpi(tag_1, lt(calldatasize, 0x04))\n      shr(0xe0, calldataload(0x00))\n      dup1\n      0xc2b5a504\n      gt\n      tag_10\n      jumpi\n      dup1\n      0xc2b5a504\n      eq\n      tag_6\n      jumpi\n      dup1\n      0xc38a8afd\n      eq\n      tag_7\n      jumpi\n      dup1\n      0xd0821b0e\n      eq\n      tag_8\n      jumpi\n      dup1\n      0xf71d96cb\n      eq\n      tag_9\n      jumpi\n      0x00\n      dup1\n      revert\n    tag_10:\n      dup1\n      0x2ca8c6d3\n      eq\n      tag_2\n      jumpi\n      dup1\n      0x4081d916\n      eq\n      tag_3\n      jumpi\n      dup1\n      0x4b114691\n      eq\n      tag_4\n      jumpi\n      dup1\n      0x7863117e\n      eq\n      tag_5\n      jumpi\n    tag_1:\n      0x00\n      dup1\n      revert\n        /* \"contracts/Betting.sol\":188:215  uint256 public numberOfBets */\n    tag_2:\n      callvalue\n      dup1\n      iszero\n      tag_11\n      jumpi\n      0x00\n      dup1\n      revert\n    tag_11:\n      pop\n      tag_12\n      sload(0x03)\n      dup2\n      jump\n    tag_12:\n      mload(0x40)\n        /* \"#utility.yul\":160:185   */\n      swap1\n      dup2\n      mstore\n        /* \"#utility.yul\":148:150   */\n      0x20\n        /* \"#utility.yul\":133:151   */\n      add\n        /* \"contracts/Betting.sol\":188:215  uint256 public numberOfBets */\n    tag_14:\n      mload(0x40)\n      dup1\n      swap2\n      sub\n      swap1\n      return\n        /* \"contracts/Betting.sol\":556:766  function checkPlayerExists(address player) public view returns(bool){... */\n    tag_3:\n      callvalue\n      dup1\n      iszero\n      tag_16\n      jumpi\n      0x00\n      dup1\n      revert\n    tag_16:\n      pop\n      tag_17\n      tag_18\n      calldatasize\n      0x04\n      tag_19\n      jump\t// in\n    tag_18:\n      tag_20\n      jump\t// in\n    tag_17:\n      mload(0x40)\n        /* \"#utility.yul\":652:666   */\n      swap1\n      iszero\n        /* \"#utility.yul\":645:667   */\n      iszero\n        /* \"#utility.yul\":627:668   */\n      dup2\n      mstore\n        /* \"#utility.yul\":615:617   */\n      0x20\n        /* \"#utility.yul\":600:618   */\n      add\n        /* \"contracts/Betting.sol\":556:766  function checkPlayerExists(address player) public view returns(bool){... */\n      tag_14\n        /* \"#utility.yul\":487:674   */\n      jump\n        /* \"contracts/Betting.sol\":397:441  mapping(address => Player) public playerInfo */\n    tag_4:\n      callvalue\n      dup1\n      iszero\n      tag_23\n      jumpi\n      0x00\n      dup1\n      revert\n    tag_23:\n      pop\n      tag_24\n      tag_25\n      calldatasize\n      0x04\n      tag_19\n      jump\t// in\n    tag_25:\n      mstore(0x20, 0x05)\n      0x00\n      swap1\n      dup2\n      mstore\n      0x40\n      swap1\n      keccak256\n      dup1\n      sload\n      0x01\n      swap1\n      swap2\n      add\n      sload\n      0xffff\n      and\n      dup3\n      jump\n    tag_24:\n      0x40\n      dup1\n      mload\n        /* \"#utility.yul\":851:876   */\n      swap3\n      dup4\n      mstore\n        /* \"#utility.yul\":924:930   */\n      0xffff\n        /* \"#utility.yul\":912:931   */\n      swap1\n      swap2\n      and\n        /* \"#utility.yul\":907:909   */\n      0x20\n        /* \"#utility.yul\":892:910   */\n      dup4\n      add\n        /* \"#utility.yul\":885:932   */\n      mstore\n        /* \"#utility.yul\":824:842   */\n      add\n        /* \"contracts/Betting.sol\":397:441  mapping(address => Player) public playerInfo */\n      tag_14\n        /* \"#utility.yul\":679:938   */\n      jump\n        /* \"contracts/Betting.sol\":124:150  uint256 public totalBetOne */\n    tag_5:\n      callvalue\n      dup1\n      iszero\n      tag_29\n      jumpi\n      0x00\n      dup1\n      revert\n    tag_29:\n      pop\n      tag_12\n      sload(0x01)\n      dup2\n      jump\n        /* \"contracts/Betting.sol\":156:182  uint256 public totalBetTwo */\n    tag_6:\n      callvalue\n      dup1\n      iszero\n      tag_33\n      jumpi\n      0x00\n      dup1\n      revert\n    tag_33:\n      pop\n      tag_12\n      sload(0x02)\n      dup2\n      jump\n        /* \"contracts/Betting.sol\":93:118  uint256 public minimumBet */\n    tag_7:\n      callvalue\n      dup1\n      iszero\n      tag_37\n      jumpi\n      0x00\n      dup1\n      revert\n    tag_37:\n      pop\n      tag_12\n      sload(0x00)\n      dup2\n      jump\n        /* \"contracts/Betting.sol\":772:1513  function bet(uint8 _teamSelected) public payable {... */\n    tag_8:\n      tag_41\n      tag_42\n      calldatasize\n      0x04\n      tag_43\n      jump\t// in\n    tag_42:\n      tag_44\n      jump\t// in\n    tag_41:\n      stop\n        /* \"contracts/Betting.sol\":222:254  address payable[] public players */\n    tag_9:\n      callvalue\n      dup1\n      iszero\n      tag_45\n      jumpi\n      0x00\n      dup1\n      revert\n    tag_45:\n      pop\n      tag_46\n      tag_47\n      calldatasize\n      0x04\n      tag_48\n      jump\t// in\n    tag_47:\n      tag_49\n      jump\t// in\n    tag_46:\n      mload(0x40)\n      sub(shl(0xa0, 0x01), 0x01)\n        /* \"#utility.yul\":1582:1614   */\n      swap1\n      swap2\n      and\n        /* \"#utility.yul\":1564:1615   */\n      dup2\n      mstore\n        /* \"#utility.yul\":1552:1554   */\n      0x20\n        /* \"#utility.yul\":1537:1555   */\n      add\n        /* \"contracts/Betting.sol\":222:254  address payable[] public players */\n      tag_14\n        /* \"#utility.yul\":1402:1621   */\n      jump\n        /* \"contracts/Betting.sol\":556:766  function checkPlayerExists(address player) public view returns(bool){... */\n    tag_20:\n        /* \"contracts/Betting.sol\":619:623  bool */\n      0x00\n      dup1\n        /* \"contracts/Betting.sol\":634:738  for(uint256 i = 0; i < players.length; i++){... */\n    tag_53:\n        /* \"contracts/Betting.sol\":657:664  players */\n      0x04\n        /* \"contracts/Betting.sol\":657:671  players.length */\n      sload\n        /* \"contracts/Betting.sol\":653:671  i < players.length */\n      dup2\n      lt\n        /* \"contracts/Betting.sol\":634:738  for(uint256 i = 0; i < players.length; i++){... */\n      iszero\n      tag_54\n      jumpi\n        /* \"contracts/Betting.sol\":708:714  player */\n      dup3\n      sub(shl(0xa0, 0x01), 0x01)\n        /* \"contracts/Betting.sol\":694:714  players[i] == player */\n      and\n        /* \"contracts/Betting.sol\":694:701  players */\n      0x04\n        /* \"contracts/Betting.sol\":702:703  i */\n      dup3\n        /* \"contracts/Betting.sol\":694:704  players[i] */\n      dup2\n      sload\n      dup2\n      lt\n      tag_57\n      jumpi\n      tag_57\n      tag_58\n      jump\t// in\n    tag_57:\n      0x00\n      swap2\n      dup3\n      mstore\n      0x20\n      swap1\n      swap2\n      keccak256\n      add\n      sload\n      sub(shl(0xa0, 0x01), 0x01)\n      and\n        /* \"contracts/Betting.sol\":694:714  players[i] == player */\n      sub\n        /* \"contracts/Betting.sol\":691:727  if(players[i] == player) return true */\n      tag_60\n      jumpi\n      pop\n        /* \"contracts/Betting.sol\":723:727  true */\n      0x01\n      swap3\n        /* \"contracts/Betting.sol\":556:766  function checkPlayerExists(address player) public view returns(bool){... */\n      swap2\n      pop\n      pop\n      jump\t// out\n        /* \"contracts/Betting.sol\":691:727  if(players[i] == player) return true */\n    tag_60:\n        /* \"contracts/Betting.sol\":673:676  i++ */\n      0x01\n      add\n        /* \"contracts/Betting.sol\":634:738  for(uint256 i = 0; i < players.length; i++){... */\n      jump(tag_53)\n    tag_54:\n      pop\n        /* \"contracts/Betting.sol\":754:759  false */\n      0x00\n      swap3\n        /* \"contracts/Betting.sol\":556:766  function checkPlayerExists(address player) public view returns(bool){... */\n      swap2\n      pop\n      pop\n      jump\t// out\n        /* \"contracts/Betting.sol\":772:1513  function bet(uint8 _teamSelected) public payable {... */\n    tag_44:\n        /* \"contracts/Betting.sol\":884:913  checkPlayerExists(msg.sender) */\n      tag_62\n        /* \"contracts/Betting.sol\":902:912  msg.sender */\n      caller\n        /* \"contracts/Betting.sol\":884:901  checkPlayerExists */\n      tag_20\n        /* \"contracts/Betting.sol\":884:913  checkPlayerExists(msg.sender) */\n      jump\t// in\n    tag_62:\n        /* \"contracts/Betting.sol\":883:913  !checkPlayerExists(msg.sender) */\n      iszero\n        /* \"contracts/Betting.sol\":875:914  require(!checkPlayerExists(msg.sender)) */\n      tag_63\n      jumpi\n      0x00\n      dup1\n      revert\n    tag_63:\n        /* \"contracts/Betting.sol\":986:996  minimumBet */\n      sload(0x00)\n        /* \"contracts/Betting.sol\":973:982  msg.value */\n      callvalue\n        /* \"contracts/Betting.sol\":973:996  msg.value >= minimumBet */\n      lt\n      iszero\n        /* \"contracts/Betting.sol\":965:997  require(msg.value >= minimumBet) */\n      tag_64\n      jumpi\n      0x00\n      dup1\n      revert\n    tag_64:\n        /* \"contracts/Betting.sol\":1099:1109  msg.sender */\n      caller\n        /* \"contracts/Betting.sol\":1088:1110  playerInfo[msg.sender] */\n      0x00\n      swap1\n      dup2\n      mstore\n        /* \"contracts/Betting.sol\":1088:1098  playerInfo */\n      0x05\n        /* \"contracts/Betting.sol\":1088:1110  playerInfo[msg.sender] */\n      0x20\n      mstore\n      0x40\n      swap1\n      keccak256\n        /* \"contracts/Betting.sol\":1123:1132  msg.value */\n      callvalue\n        /* \"contracts/Betting.sol\":1088:1132  playerInfo[msg.sender].amountBet = msg.value */\n      dup2\n      sstore\n        /* \"contracts/Betting.sol\":1142:1177  playerInfo[msg.sender].teamSelected */\n      0x01\n      swap1\n      dup2\n      add\n        /* \"contracts/Betting.sol\":1142:1193  playerInfo[msg.sender].teamSelected = _teamSelected */\n      dup1\n      sload\n      not(0xffff)\n      and\n      0xff\n      dup5\n      and\n      swap1\n      dup2\n      or\n      swap1\n      swap2\n      sstore\n        /* \"contracts/Betting.sol\":1377:1395  _teamSelected == 1 */\n      swap1\n      sub\n        /* \"contracts/Betting.sol\":1372:1508  if ( _teamSelected == 1){... */\n      tag_65\n      jumpi\n        /* \"contracts/Betting.sol\":1425:1434  msg.value */\n      callvalue\n        /* \"contracts/Betting.sol\":1410:1421  totalBetOne */\n      0x01\n      0x00\n        /* \"contracts/Betting.sol\":1410:1434  totalBetOne += msg.value */\n      dup3\n      dup3\n      sload\n      tag_66\n      swap2\n      swap1\n      tag_67\n      jump\t// in\n    tag_66:\n      swap1\n      swap2\n      sstore\n      pop\n        /* \"contracts/Betting.sol\":1372:1508  if ( _teamSelected == 1){... */\n      tag_68\n      swap1\n      pop\n      jump\n    tag_65:\n        /* \"contracts/Betting.sol\":1488:1497  msg.value */\n      callvalue\n        /* \"contracts/Betting.sol\":1473:1484  totalBetTwo */\n      0x02\n      0x00\n        /* \"contracts/Betting.sol\":1473:1497  totalBetTwo += msg.value */\n      dup3\n      dup3\n      sload\n      tag_69\n      swap2\n      swap1\n      tag_67\n      jump\t// in\n    tag_69:\n      swap1\n      swap2\n      sstore\n      pop\n      pop\n        /* \"contracts/Betting.sol\":1372:1508  if ( _teamSelected == 1){... */\n    tag_68:\n        /* \"contracts/Betting.sol\":772:1513  function bet(uint8 _teamSelected) public payable {... */\n      pop\n      jump\t// out\n        /* \"contracts/Betting.sol\":222:254  address payable[] public players */\n    tag_49:\n      0x04\n      dup2\n      dup2\n      sload\n      dup2\n      lt\n      tag_70\n      jumpi\n      0x00\n      dup1\n      revert\n    tag_70:\n      0x00\n      swap2\n      dup3\n      mstore\n      0x20\n      swap1\n      swap2\n      keccak256\n      add\n      sload\n      sub(shl(0xa0, 0x01), 0x01)\n      and\n      swap1\n      pop\n      dup2\n      jump\t// out\n        /* \"#utility.yul\":196:482   */\n    tag_19:\n        /* \"#utility.yul\":255:261   */\n      0x00\n        /* \"#utility.yul\":308:310   */\n      0x20\n        /* \"#utility.yul\":296:305   */\n      dup3\n        /* \"#utility.yul\":287:294   */\n      dup5\n        /* \"#utility.yul\":283:306   */\n      sub\n        /* \"#utility.yul\":279:311   */\n      slt\n        /* \"#utility.yul\":276:328   */\n      iszero\n      tag_75\n      jumpi\n        /* \"#utility.yul\":324:325   */\n      0x00\n        /* \"#utility.yul\":321:322   */\n      dup1\n        /* \"#utility.yul\":314:326   */\n      revert\n        /* \"#utility.yul\":276:328   */\n    tag_75:\n        /* \"#utility.yul\":350:373   */\n      dup2\n      calldataload\n      sub(shl(0xa0, 0x01), 0x01)\n        /* \"#utility.yul\":402:433   */\n      dup2\n      and\n        /* \"#utility.yul\":392:434   */\n      dup2\n      eq\n        /* \"#utility.yul\":382:452   */\n      tag_76\n      jumpi\n        /* \"#utility.yul\":448:449   */\n      0x00\n        /* \"#utility.yul\":445:446   */\n      dup1\n        /* \"#utility.yul\":438:450   */\n      revert\n        /* \"#utility.yul\":382:452   */\n    tag_76:\n        /* \"#utility.yul\":471:476   */\n      swap4\n        /* \"#utility.yul\":196:482   */\n      swap3\n      pop\n      pop\n      pop\n      jump\t// out\n        /* \"#utility.yul\":943:1212   */\n    tag_43:\n        /* \"#utility.yul\":1000:1006   */\n      0x00\n        /* \"#utility.yul\":1053:1055   */\n      0x20\n        /* \"#utility.yul\":1041:1050   */\n      dup3\n        /* \"#utility.yul\":1032:1039   */\n      dup5\n        /* \"#utility.yul\":1028:1051   */\n      sub\n        /* \"#utility.yul\":1024:1056   */\n      slt\n        /* \"#utility.yul\":1021:1073   */\n      iszero\n      tag_80\n      jumpi\n        /* \"#utility.yul\":1069:1070   */\n      0x00\n        /* \"#utility.yul\":1066:1067   */\n      dup1\n        /* \"#utility.yul\":1059:1071   */\n      revert\n        /* \"#utility.yul\":1021:1073   */\n    tag_80:\n        /* \"#utility.yul\":1108:1117   */\n      dup2\n        /* \"#utility.yul\":1095:1118   */\n      calldataload\n        /* \"#utility.yul\":1158:1162   */\n      0xff\n        /* \"#utility.yul\":1151:1156   */\n      dup2\n        /* \"#utility.yul\":1147:1163   */\n      and\n        /* \"#utility.yul\":1140:1145   */\n      dup2\n        /* \"#utility.yul\":1137:1164   */\n      eq\n        /* \"#utility.yul\":1127:1182   */\n      tag_76\n      jumpi\n        /* \"#utility.yul\":1178:1179   */\n      0x00\n        /* \"#utility.yul\":1175:1176   */\n      dup1\n        /* \"#utility.yul\":1168:1180   */\n      revert\n        /* \"#utility.yul\":1217:1397   */\n    tag_48:\n        /* \"#utility.yul\":1276:1282   */\n      0x00\n        /* \"#utility.yul\":1329:1331   */\n      0x20\n        /* \"#utility.yul\":1317:1326   */\n      dup3\n        /* \"#utility.yul\":1308:1315   */\n      dup5\n        /* \"#utility.yul\":1304:1327   */\n      sub\n        /* \"#utility.yul\":1300:1332   */\n      slt\n        /* \"#utility.yul\":1297:1349   */\n      iszero\n      tag_83\n      jumpi\n        /* \"#utility.yul\":1345:1346   */\n      0x00\n        /* \"#utility.yul\":1342:1343   */\n      dup1\n        /* \"#utility.yul\":1335:1347   */\n      revert\n        /* \"#utility.yul\":1297:1349   */\n    tag_83:\n      pop\n        /* \"#utility.yul\":1368:1391   */\n      calldataload\n      swap2\n        /* \"#utility.yul\":1217:1397   */\n      swap1\n      pop\n      jump\t// out\n        /* \"#utility.yul\":1626:1753   */\n    tag_58:\n        /* \"#utility.yul\":1687:1697   */\n      0x4e487b71\n        /* \"#utility.yul\":1682:1685   */\n      0xe0\n        /* \"#utility.yul\":1678:1698   */\n      shl\n        /* \"#utility.yul\":1675:1676   */\n      0x00\n        /* \"#utility.yul\":1668:1699   */\n      mstore\n        /* \"#utility.yul\":1718:1722   */\n      0x32\n        /* \"#utility.yul\":1715:1716   */\n      0x04\n        /* \"#utility.yul\":1708:1723   */\n      mstore\n        /* \"#utility.yul\":1742:1746   */\n      0x24\n        /* \"#utility.yul\":1739:1740   */\n      0x00\n        /* \"#utility.yul\":1732:1747   */\n      revert\n        /* \"#utility.yul\":1758:1980   */\n    tag_67:\n        /* \"#utility.yul\":1823:1832   */\n      dup1\n      dup3\n      add\n        /* \"#utility.yul\":1844:1854   */\n      dup1\n      dup3\n      gt\n        /* \"#utility.yul\":1841:1974   */\n      iszero\n      tag_87\n      jumpi\n        /* \"#utility.yul\":1896:1906   */\n      0x4e487b71\n        /* \"#utility.yul\":1891:1894   */\n      0xe0\n        /* \"#utility.yul\":1887:1907   */\n      shl\n        /* \"#utility.yul\":1884:1885   */\n      0x00\n        /* \"#utility.yul\":1877:1908   */\n      mstore\n        /* \"#utility.yul\":1931:1935   */\n      0x11\n        /* \"#utility.yul\":1928:1929   */\n      0x04\n        /* \"#utility.yul\":1921:1936   */\n      mstore\n        /* \"#utility.yul\":1959:1963   */\n      0x24\n        /* \"#utility.yul\":1956:1957   */\n      0x00\n        /* \"#utility.yul\":1949:1964   */\n      revert\n        /* \"#utility.yul\":1841:1974   */\n    tag_87:\n        /* \"#utility.yul\":1758:1980   */\n      swap3\n      swap2\n      pop\n      pop\n      jump\t// out\n\n    auxdata: 0xa2646970667358221220ca2e41e717bba651b523f8614514ff7b73101ced1908d944a3253398a5ba5cc864736f6c63430008170033\n}\n",
				"bytecode": {
					"linkReferences": {},
					"object": "608060405234801561000f575f80fd5b5060015f55610385806100215f395ff3fe608060405260043610610079575f3560e01c8063c2b5a5041161004c578063c2b5a50414610137578063c38a8afd1461014c578063d0821b0e14610160578063f71d96cb14610175575f80fd5b80632ca8c6d31461007d5780634081d916146100a55780634b114691146100d45780637863117e14610122575b5f80fd5b348015610088575f80fd5b5061009260035481565b6040519081526020015b60405180910390f35b3480156100b0575f80fd5b506100c46100bf3660046102b2565b6101ac565b604051901515815260200161009c565b3480156100df575f80fd5b5061010a6100ee3660046102b2565b60056020525f90815260409020805460019091015461ffff1682565b6040805192835261ffff90911660208301520161009c565b34801561012d575f80fd5b5061009260015481565b348015610142575f80fd5b5061009260025481565b348015610157575f80fd5b506100925f5481565b61017361016e3660046102df565b610208565b005b348015610180575f80fd5b5061019461018f3660046102ff565b61028a565b6040516001600160a01b03909116815260200161009c565b5f805b60045481101561020057826001600160a01b0316600482815481106101d6576101d6610316565b5f918252602090912001546001600160a01b0316036101f85750600192915050565b6001016101af565b505f92915050565b610211336101ac565b1561021a575f80fd5b5f54341015610227575f80fd5b335f9081526005602052604090203481556001908101805461ffff191660ff84169081179091559003610270573460015f828254610265919061032a565b909155506102879050565b3460025f828254610281919061032a565b90915550505b50565b60048181548110610299575f80fd5b5f918252602090912001546001600160a01b0316905081565b5f602082840312156102c2575f80fd5b81356001600160a01b03811681146102d8575f80fd5b9392505050565b5f602082840312156102ef575f80fd5b813560ff811681146102d8575f80fd5b5f6020828403121561030f575f80fd5b5035919050565b634e487b7160e01b5f52603260045260245ffd5b8082018082111561034957634e487b7160e01b5f52601160045260245ffd5b9291505056fea2646970667358221220ca2e41e717bba651b523f8614514ff7b73101ced1908d944a3253398a5ba5cc864736f6c63430008170033",
					"opcodes": "PUSH1 0x80 PUSH1 0x40 MSTORE CALLVALUE DUP1 ISZERO PUSH2 0xF JUMPI PUSH0 DUP1 REVERT JUMPDEST POP PUSH1 0x1 PUSH0 SSTORE PUSH2 0x385 DUP1 PUSH2 0x21 PUSH0 CODECOPY PUSH0 RETURN INVALID PUSH1 0x80 PUSH1 0x40 MSTORE PUSH1 0x4 CALLDATASIZE LT PUSH2 0x79 JUMPI PUSH0 CALLDATALOAD PUSH1 0xE0 SHR DUP1 PUSH4 0xC2B5A504 GT PUSH2 0x4C JUMPI DUP1 PUSH4 0xC2B5A504 EQ PUSH2 0x137 JUMPI DUP1 PUSH4 0xC38A8AFD EQ PUSH2 0x14C JUMPI DUP1 PUSH4 0xD0821B0E EQ PUSH2 0x160 JUMPI DUP1 PUSH4 0xF71D96CB EQ PUSH2 0x175 JUMPI PUSH0 DUP1 REVERT JUMPDEST DUP1 PUSH4 0x2CA8C6D3 EQ PUSH2 0x7D JUMPI DUP1 PUSH4 0x4081D916 EQ PUSH2 0xA5 JUMPI DUP1 PUSH4 0x4B114691 EQ PUSH2 0xD4 JUMPI DUP1 PUSH4 0x7863117E EQ PUSH2 0x122 JUMPI JUMPDEST PUSH0 DUP1 REVERT JUMPDEST CALLVALUE DUP1 ISZERO PUSH2 0x88 JUMPI PUSH0 DUP1 REVERT JUMPDEST POP PUSH2 0x92 PUSH1 0x3 SLOAD DUP2 JUMP JUMPDEST PUSH1 0x40 MLOAD SWAP1 DUP2 MSTORE PUSH1 0x20 ADD JUMPDEST PUSH1 0x40 MLOAD DUP1 SWAP2 SUB SWAP1 RETURN JUMPDEST CALLVALUE DUP1 ISZERO PUSH2 0xB0 JUMPI PUSH0 DUP1 REVERT JUMPDEST POP PUSH2 0xC4 PUSH2 0xBF CALLDATASIZE PUSH1 0x4 PUSH2 0x2B2 JUMP JUMPDEST PUSH2 0x1AC JUMP JUMPDEST PUSH1 0x40 MLOAD SWAP1 ISZERO ISZERO DUP2 MSTORE PUSH1 0x20 ADD PUSH2 0x9C JUMP JUMPDEST CALLVALUE DUP1 ISZERO PUSH2 0xDF JUMPI PUSH0 DUP1 REVERT JUMPDEST POP PUSH2 0x10A PUSH2 0xEE CALLDATASIZE PUSH1 0x4 PUSH2 0x2B2 JUMP JUMPDEST PUSH1 0x5 PUSH1 0x20 MSTORE PUSH0 SWAP1 DUP2 MSTORE PUSH1 0x40 SWAP1 KECCAK256 DUP1 SLOAD PUSH1 0x1 SWAP1 SWAP2 ADD SLOAD PUSH2 0xFFFF AND DUP3 JUMP JUMPDEST PUSH1 0x40 DUP1 MLOAD SWAP3 DUP4 MSTORE PUSH2 0xFFFF SWAP1 SWAP2 AND PUSH1 0x20 DUP4 ADD MSTORE ADD PUSH2 0x9C JUMP JUMPDEST CALLVALUE DUP1 ISZERO PUSH2 0x12D JUMPI PUSH0 DUP1 REVERT JUMPDEST POP PUSH2 0x92 PUSH1 0x1 SLOAD DUP2 JUMP JUMPDEST CALLVALUE DUP1 ISZERO PUSH2 0x142 JUMPI PUSH0 DUP1 REVERT JUMPDEST POP PUSH2 0x92 PUSH1 0x2 SLOAD DUP2 JUMP JUMPDEST CALLVALUE DUP1 ISZERO PUSH2 0x157 JUMPI PUSH0 DUP1 REVERT JUMPDEST POP PUSH2 0x92 PUSH0 SLOAD DUP2 JUMP JUMPDEST PUSH2 0x173 PUSH2 0x16E CALLDATASIZE PUSH1 0x4 PUSH2 0x2DF JUMP JUMPDEST PUSH2 0x208 JUMP JUMPDEST STOP JUMPDEST CALLVALUE DUP1 ISZERO PUSH2 0x180 JUMPI PUSH0 DUP1 REVERT JUMPDEST POP PUSH2 0x194 PUSH2 0x18F CALLDATASIZE PUSH1 0x4 PUSH2 0x2FF JUMP JUMPDEST PUSH2 0x28A JUMP JUMPDEST PUSH1 0x40 MLOAD PUSH1 0x1 PUSH1 0x1 PUSH1 0xA0 SHL SUB SWAP1 SWAP2 AND DUP2 MSTORE PUSH1 0x20 ADD PUSH2 0x9C JUMP JUMPDEST PUSH0 DUP1 JUMPDEST PUSH1 0x4 SLOAD DUP2 LT ISZERO PUSH2 0x200 JUMPI DUP3 PUSH1 0x1 PUSH1 0x1 PUSH1 0xA0 SHL SUB AND PUSH1 0x4 DUP3 DUP2 SLOAD DUP2 LT PUSH2 0x1D6 JUMPI PUSH2 0x1D6 PUSH2 0x316 JUMP JUMPDEST PUSH0 SWAP2 DUP3 MSTORE PUSH1 0x20 SWAP1 SWAP2 KECCAK256 ADD SLOAD PUSH1 0x1 PUSH1 0x1 PUSH1 0xA0 SHL SUB AND SUB PUSH2 0x1F8 JUMPI POP PUSH1 0x1 SWAP3 SWAP2 POP POP JUMP JUMPDEST PUSH1 0x1 ADD PUSH2 0x1AF JUMP JUMPDEST POP PUSH0 SWAP3 SWAP2 POP POP JUMP JUMPDEST PUSH2 0x211 CALLER PUSH2 0x1AC JUMP JUMPDEST ISZERO PUSH2 0x21A JUMPI PUSH0 DUP1 REVERT JUMPDEST PUSH0 SLOAD CALLVALUE LT ISZERO PUSH2 0x227 JUMPI PUSH0 DUP1 REVERT JUMPDEST CALLER PUSH0 SWAP1 DUP2 MSTORE PUSH1 0x5 PUSH1 0x20 MSTORE PUSH1 0x40 SWAP1 KECCAK256 CALLVALUE DUP2 SSTORE PUSH1 0x1 SWAP1 DUP2 ADD DUP1 SLOAD PUSH2 0xFFFF NOT AND PUSH1 0xFF DUP5 AND SWAP1 DUP2 OR SWAP1 SWAP2 SSTORE SWAP1 SUB PUSH2 0x270 JUMPI CALLVALUE PUSH1 0x1 PUSH0 DUP3 DUP3 SLOAD PUSH2 0x265 SWAP2 SWAP1 PUSH2 0x32A JUMP JUMPDEST SWAP1 SWAP2 SSTORE POP PUSH2 0x287 SWAP1 POP JUMP JUMPDEST CALLVALUE PUSH1 0x2 PUSH0 DUP3 DUP3 SLOAD PUSH2 0x281 SWAP2 SWAP1 PUSH2 0x32A JUMP JUMPDEST SWAP1 SWAP2 SSTORE POP POP JUMPDEST POP JUMP JUMPDEST PUSH1 0x4 DUP2 DUP2 SLOAD DUP2 LT PUSH2 0x299 JUMPI PUSH0 DUP1 REVERT JUMPDEST PUSH0 SWAP2 DUP3 MSTORE PUSH1 0x20 SWAP1 SWAP2 KECCAK256 ADD SLOAD PUSH1 0x1 PUSH1 0x1 PUSH1 0xA0 SHL SUB AND SWAP1 POP DUP2 JUMP JUMPDEST PUSH0 PUSH1 0x20 DUP3 DUP5 SUB SLT ISZERO PUSH2 0x2C2 JUMPI PUSH0 DUP1 REVERT JUMPDEST DUP2 CALLDATALOAD PUSH1 0x1 PUSH1 0x1 PUSH1 0xA0 SHL SUB DUP2 AND DUP2 EQ PUSH2 0x2D8 JUMPI PUSH0 DUP1 REVERT JUMPDEST SWAP4 SWAP3 POP POP POP JUMP JUMPDEST PUSH0 PUSH1 0x20 DUP3 DUP5 SUB SLT ISZERO PUSH2 0x2EF JUMPI PUSH0 DUP1 REVERT JUMPDEST DUP2 CALLDATALOAD PUSH1 0xFF DUP2 AND DUP2 EQ PUSH2 0x2D8 JUMPI PUSH0 DUP1 REVERT JUMPDEST PUSH0 PUSH1 0x20 DUP3 DUP5 SUB SLT ISZERO PUSH2 0x30F JUMPI PUSH0 DUP1 REVERT JUMPDEST POP CALLDATALOAD SWAP2 SWAP1 POP JUMP JUMPDEST PUSH4 0x4E487B71 PUSH1 0xE0 SHL PUSH0 MSTORE PUSH1 0x32 PUSH1 0x4 MSTORE PUSH1 0x24 PUSH0 REVERT JUMPDEST DUP1 DUP3 ADD DUP1 DUP3 GT ISZERO PUSH2 0x349 JUMPI PUSH4 0x4E487B71 PUSH1 0xE0 SHL PUSH0 MSTORE PUSH1 0x11 PUSH1 0x4 MSTORE PUSH1 0x24 PUSH0 REVERT JUMPDEST SWAP3 SWAP2 POP POP JUMP INVALID LOG2 PUSH5 0x6970667358 0x22 SLT KECCAK256 0xCA 0x2E COINBASE 0xE7 OR 0xBB 0xA6 MLOAD 0xB5 0x23 0xF8 PUSH2 0x4514 SELFDESTRUCT PUSH28 0x73101CED1908D944A3253398A5BA5CC864736F6C6343000817003300 "
				},
				"gasEstimates": {
					"creation": {
						"codeDepositCost": "180200",
						"executionCost": "22329",
						"totalCost": "202529"
					},
					"external": {
						"bet(uint8)": "infinite",
						"checkPlayerExists(address)": "infinite",
						"minimumBet()": "2304",
						"numberOfBets()": "2284",
						"playerInfo(address)": "4674",
						"players(uint256)": "4677",
						"totalBetOne()": "2350",
						"totalBetTwo()": "2283"
					}
				},
				"methodIdentifiers": {
					"bet(uint8)": "d0821b0e",
					"checkPlayerExists(address)": "4081d916",
					"minimumBet()": "c38a8afd",
					"numberOfBets()": "2ca8c6d3",
					"playerInfo(address)": "4b114691",
					"players(uint256)": "f71d96cb",
					"totalBetOne()": "7863117e",
					"totalBetTwo()": "c2b5a504"
				}
			},
			"storageLayout": {
				"storage": [
					{
						"astId": 3,
						"contract": "contracts/Betting.sol:Betting",
						"label": "minimumBet",
						"offset": 0,
						"slot": "0",
						"type": "t_uint256"
					},
					{
						"astId": 5,
						"contract": "contracts/Betting.sol:Betting",
						"label": "totalBetOne",
						"offset": 0,
						"slot": "1",
						"type": "t_uint256"
					},
					{
						"astId": 7,
						"contract": "contracts/Betting.sol:Betting",
						"label": "totalBetTwo",
						"offset": 0,
						"slot": "2",
						"type": "t_uint256"
					},
					{
						"astId": 9,
						"contract": "contracts/Betting.sol:Betting",
						"label": "numberOfBets",
						"offset": 0,
						"slot": "3",
						"type": "t_uint256"
					},
					{
						"astId": 12,
						"contract": "contracts/Betting.sol:Betting",
						"label": "players",
						"offset": 0,
						"slot": "4",
						"type": "t_array(t_address_payable)dyn_storage"
					},
					{
						"astId": 22,
						"contract": "contracts/Betting.sol:Betting",
						"label": "playerInfo",
						"offset": 0,
						"slot": "5",
						"type": "t_mapping(t_address,t_struct(Player)17_storage)"
					}
				],
				"types": {
					"t_address": {
						"encoding": "inplace",
						"label": "address",
						"numberOfBytes": "20"
					},
					"t_address_payable": {
						"encoding": "inplace",
						"label": "address payable",
						"numberOfBytes": "20"
					},
					"t_array(t_address_payable)dyn_storage": {
						"base": "t_address_payable",
						"encoding": "dynamic_array",
						"label": "address payable[]",
						"numberOfBytes": "32"
					},
					"t_mapping(t_address,t_struct(Player)17_storage)": {
						"encoding": "mapping",
						"key": "t_address",
						"label": "mapping(address => struct Betting.Player)",
						"numberOfBytes": "32",
						"value": "t_struct(Player)17_storage"
					},
					"t_struct(Player)17_storage": {
						"encoding": "inplace",
						"label": "struct Betting.Player",
						"members": [
							{
								"astId": 14,
								"contract": "contracts/Betting.sol:Betting",
								"label": "amountBet",
								"offset": 0,
								"slot": "0",
								"type": "t_uint256"
							},
							{
								"astId": 16,
								"contract": "contracts/Betting.sol:Betting",
								"label": "teamSelected",
								"offset": 0,
								"slot": "1",
								"type": "t_uint16"
							}
						],
						"numberOfBytes": "64"
					},
					"t_uint16": {
						"encoding": "inplace",
						"label": "uint16",
						"numberOfBytes": "2"
					},
					"t_uint256": {
						"encoding": "inplace",
						"label": "uint256",
						"numberOfBytes": "32"
					}
				}
			},
			"userdoc": {
				"kind": "user",
				"methods": {},
				"version": 1
			}
		}
	}
}