{
	"contracts/BetContract.sol": {
		"BetContract": {
			"abi": [
				{
					"inputs": [],
					"stateMutability": "nonpayable",
					"type": "constructor"
				},
				{
					"inputs": [
						{
							"internalType": "uint8",
							"name": "_winPrediction",
							"type": "uint8"
						}
					],
					"name": "addBet",
					"outputs": [],
					"stateMutability": "payable",
					"type": "function"
				},
				{
					"inputs": [
						{
							"internalType": "string",
							"name": "_name",
							"type": "string"
						}
					],
					"name": "addGame",
					"outputs": [],
					"stateMutability": "nonpayable",
					"type": "function"
				},
				{
					"inputs": [
						{
							"internalType": "uint8",
							"name": "_winner",
							"type": "uint8"
						}
					],
					"name": "addGameWinner",
					"outputs": [],
					"stateMutability": "nonpayable",
					"type": "function"
				},
				{
					"inputs": [
						{
							"internalType": "uint256",
							"name": "",
							"type": "uint256"
						}
					],
					"name": "bets",
					"outputs": [
						{
							"internalType": "address",
							"name": "user",
							"type": "address"
						},
						{
							"internalType": "uint8",
							"name": "winPrediction",
							"type": "uint8"
						},
						{
							"internalType": "uint256",
							"name": "amount",
							"type": "uint256"
						}
					],
					"stateMutability": "view",
					"type": "function"
				},
				{
					"inputs": [],
					"name": "declareWinner",
					"outputs": [],
					"stateMutability": "payable",
					"type": "function"
				},
				{
					"inputs": [],
					"name": "game",
					"outputs": [
						{
							"internalType": "string",
							"name": "name",
							"type": "string"
						},
						{
							"internalType": "uint8",
							"name": "winner",
							"type": "uint8"
						}
					],
					"stateMutability": "view",
					"type": "function"
				},
				{
					"inputs": [],
					"name": "owner",
					"outputs": [
						{
							"internalType": "address",
							"name": "",
							"type": "address"
						}
					],
					"stateMutability": "view",
					"type": "function"
				},
				{
					"inputs": [],
					"name": "removeGame",
					"outputs": [],
					"stateMutability": "nonpayable",
					"type": "function"
				}
			],
			"devdoc": {
				"kind": "dev",
				"methods": {},
				"version": 1
			},
			"evm": {
				"assembly": "    /* \"contracts/BetContract.sol\":166:2214  contract BetContract {... */\n  mstore(0x40, 0x80)\n    /* \"contracts/BetContract.sol\":236:237  0 */\n  0x00\n    /* \"contracts/BetContract.sol\":221:237  uint allBets = 0 */\n  0x01\n  sstore\n    /* \"contracts/BetContract.sol\":781:832  constructor() {... */\n  callvalue\n  dup1\n  iszero\n  tag_1\n  jumpi\n  0x00\n  dup1\n  revert\ntag_1:\n  pop\n    /* \"contracts/BetContract.sol\":814:824  msg.sender */\n  caller\n    /* \"contracts/BetContract.sol\":806:811  owner */\n  0x00\n  dup1\n    /* \"contracts/BetContract.sol\":806:824  owner = msg.sender */\n  0x0100\n  exp\n  dup2\n  sload\n  dup2\n  0xffffffffffffffffffffffffffffffffffffffff\n  mul\n  not\n  and\n  swap1\n  dup4\n  0xffffffffffffffffffffffffffffffffffffffff\n  and\n  mul\n  or\n  swap1\n  sstore\n  pop\n    /* \"contracts/BetContract.sol\":166:2214  contract BetContract {... */\n  dataSize(sub_0)\n  dup1\n  dataOffset(sub_0)\n  0x00\n  codecopy\n  0x00\n  return\nstop\n\nsub_0: assembly {\n        /* \"contracts/BetContract.sol\":166:2214  contract BetContract {... */\n      mstore(0x40, 0x80)\n      jumpi(tag_1, lt(calldatasize, 0x04))\n      shr(0xe0, calldataload(0x00))\n      dup1\n      0x85c48207\n      gt\n      tag_10\n      jumpi\n      dup1\n      0x85c48207\n      eq\n      tag_6\n      jumpi\n      dup1\n      0x8da5cb5b\n      eq\n      tag_7\n      jumpi\n      dup1\n      0xc3fe3e28\n      eq\n      tag_8\n      jumpi\n      dup1\n      0xe89826ac\n      eq\n      tag_9\n      jumpi\n      jump(tag_1)\n    tag_10:\n      dup1\n      0x14034bd2\n      eq\n      tag_2\n      jumpi\n      dup1\n      0x1a9a01fb\n      eq\n      tag_3\n      jumpi\n      dup1\n      0x22af00fa\n      eq\n      tag_4\n      jumpi\n      dup1\n      0x74061a93\n      eq\n      tag_5\n      jumpi\n    tag_1:\n      0x00\n      dup1\n      revert\n        /* \"contracts/BetContract.sol\":1809:2209  function declareWinner() public payable onlyOwner {... */\n    tag_2:\n      tag_11\n      tag_12\n      jump\t// in\n    tag_11:\n      stop\n        /* \"contracts/BetContract.sol\":1306:1375  function removeGame() public onlyOwner {... */\n    tag_3:\n      callvalue\n      dup1\n      iszero\n      tag_13\n      jumpi\n      0x00\n      dup1\n      revert\n    tag_13:\n      pop\n      tag_14\n      tag_15\n      jump\t// in\n    tag_14:\n      stop\n        /* \"contracts/BetContract.sol\":729:746  Bet[] public bets */\n    tag_4:\n      callvalue\n      dup1\n      iszero\n      tag_16\n      jumpi\n      0x00\n      dup1\n      revert\n    tag_16:\n      pop\n      tag_17\n      0x04\n      dup1\n      calldatasize\n      sub\n      dup2\n      add\n      swap1\n      tag_18\n      swap2\n      swap1\n      tag_19\n      jump\t// in\n    tag_18:\n      tag_20\n      jump\t// in\n    tag_17:\n      mload(0x40)\n      tag_21\n      swap4\n      swap3\n      swap2\n      swap1\n      tag_22\n      jump\t// in\n    tag_21:\n      mload(0x40)\n      dup1\n      swap2\n      sub\n      swap1\n      return\n        /* \"contracts/BetContract.sol\":1457:1757  function addBet(uint8 _winPrediction) public payable {... */\n    tag_5:\n      tag_23\n      0x04\n      dup1\n      calldatasize\n      sub\n      dup2\n      add\n      swap1\n      tag_24\n      swap2\n      swap1\n      tag_25\n      jump\t// in\n    tag_24:\n      tag_26\n      jump\t// in\n    tag_23:\n      stop\n        /* \"contracts/BetContract.sol\":1170:1265  function addGameWinner(uint8 _winner) public onlyOwner {... */\n    tag_6:\n      callvalue\n      dup1\n      iszero\n      tag_27\n      jumpi\n      0x00\n      dup1\n      revert\n    tag_27:\n      pop\n      tag_28\n      0x04\n      dup1\n      calldatasize\n      sub\n      dup2\n      add\n      swap1\n      tag_29\n      swap2\n      swap1\n      tag_25\n      jump\t// in\n    tag_29:\n      tag_30\n      jump\t// in\n    tag_28:\n      stop\n        /* \"contracts/BetContract.sol\":194:214  address public owner */\n    tag_7:\n      callvalue\n      dup1\n      iszero\n      tag_31\n      jumpi\n      0x00\n      dup1\n      revert\n    tag_31:\n      pop\n      tag_32\n      tag_33\n      jump\t// in\n    tag_32:\n      mload(0x40)\n      tag_34\n      swap2\n      swap1\n      tag_35\n      jump\t// in\n    tag_34:\n      mload(0x40)\n      dup1\n      swap2\n      sub\n      swap1\n      return\n        /* \"contracts/BetContract.sol\":531:547  Game public game */\n    tag_8:\n      callvalue\n      dup1\n      iszero\n      tag_36\n      jumpi\n      0x00\n      dup1\n      revert\n    tag_36:\n      pop\n      tag_37\n      tag_38\n      jump\t// in\n    tag_37:\n      mload(0x40)\n      tag_39\n      swap3\n      swap2\n      swap1\n      tag_40\n      jump\t// in\n    tag_39:\n      mload(0x40)\n      dup1\n      swap2\n      sub\n      swap1\n      return\n        /* \"contracts/BetContract.sol\":1016:1111  function addGame(string memory _name) public onlyOwner {... */\n    tag_9:\n      callvalue\n      dup1\n      iszero\n      tag_41\n      jumpi\n      0x00\n      dup1\n      revert\n    tag_41:\n      pop\n      tag_42\n      0x04\n      dup1\n      calldatasize\n      sub\n      dup2\n      add\n      swap1\n      tag_43\n      swap2\n      swap1\n      tag_44\n      jump\t// in\n    tag_43:\n      tag_45\n      jump\t// in\n    tag_42:\n      stop\n        /* \"contracts/BetContract.sol\":1809:2209  function declareWinner() public payable onlyOwner {... */\n    tag_12:\n        /* \"contracts/BetContract.sol\":894:899  owner */\n      0x00\n      dup1\n      sload\n      swap1\n      0x0100\n      exp\n      swap1\n      div\n      0xffffffffffffffffffffffffffffffffffffffff\n      and\n        /* \"contracts/BetContract.sol\":880:899  msg.sender == owner */\n      0xffffffffffffffffffffffffffffffffffffffff\n      and\n        /* \"contracts/BetContract.sol\":880:890  msg.sender */\n      caller\n        /* \"contracts/BetContract.sol\":880:899  msg.sender == owner */\n      0xffffffffffffffffffffffffffffffffffffffff\n      and\n      eq\n        /* \"contracts/BetContract.sol\":872:941  require(msg.sender == owner, \"Only the owner can call this function\") */\n      tag_47\n      jumpi\n      mload(0x40)\n      0x08c379a000000000000000000000000000000000000000000000000000000000\n      dup2\n      mstore\n      0x04\n      add\n      tag_48\n      swap1\n      tag_49\n      jump\t// in\n    tag_48:\n      mload(0x40)\n      dup1\n      swap2\n      sub\n      swap1\n      revert\n    tag_47:\n        /* \"contracts/BetContract.sol\":1893:1894  0 */\n      0x00\n        /* \"contracts/BetContract.sol\":1878:1882  game */\n      0x02\n        /* \"contracts/BetContract.sol\":1878:1889  game.winner */\n      0x01\n      add\n      0x00\n      swap1\n      sload\n      swap1\n      0x0100\n      exp\n      swap1\n      div\n      0xff\n      and\n        /* \"contracts/BetContract.sol\":1878:1894  game.winner != 0 */\n      0xff\n      and\n      sub\n        /* \"contracts/BetContract.sol\":1870:1923  require(game.winner != 0, \"Winner is not yet stated\") */\n      tag_51\n      jumpi\n      mload(0x40)\n      0x08c379a000000000000000000000000000000000000000000000000000000000\n      dup2\n      mstore\n      0x04\n      add\n      tag_52\n      swap1\n      tag_53\n      jump\t// in\n    tag_52:\n      mload(0x40)\n      dup1\n      swap2\n      sub\n      swap1\n      revert\n    tag_51:\n        /* \"contracts/BetContract.sol\":1995:2001  uint i */\n      0x00\n        /* \"contracts/BetContract.sol\":1990:2202  for (uint i = 0; i < bets.length; i++) {... */\n    tag_54:\n        /* \"contracts/BetContract.sol\":2011:2015  bets */\n      0x04\n        /* \"contracts/BetContract.sol\":2011:2022  bets.length */\n      dup1\n      sload\n      swap1\n      pop\n        /* \"contracts/BetContract.sol\":2007:2008  i */\n      dup2\n        /* \"contracts/BetContract.sol\":2007:2022  i < bets.length */\n      lt\n        /* \"contracts/BetContract.sol\":1990:2202  for (uint i = 0; i < bets.length; i++) {... */\n      iszero\n      tag_55\n      jumpi\n        /* \"contracts/BetContract.sol\":2044:2058  Bet memory bet */\n      0x00\n        /* \"contracts/BetContract.sol\":2061:2065  bets */\n      0x04\n        /* \"contracts/BetContract.sol\":2066:2067  i */\n      dup3\n        /* \"contracts/BetContract.sol\":2061:2068  bets[i] */\n      dup2\n      sload\n      dup2\n      lt\n      tag_57\n      jumpi\n      tag_58\n      tag_59\n      jump\t// in\n    tag_58:\n    tag_57:\n      swap1\n      0x00\n      mstore\n      keccak256(0x00, 0x20)\n      swap1\n      0x02\n      mul\n      add\n        /* \"contracts/BetContract.sol\":2044:2068  Bet memory bet = bets[i] */\n      mload(0x40)\n      dup1\n      0x60\n      add\n      0x40\n      mstore\n      swap1\n      dup2\n      0x00\n      dup3\n      add\n      0x00\n      swap1\n      sload\n      swap1\n      0x0100\n      exp\n      swap1\n      div\n      0xffffffffffffffffffffffffffffffffffffffff\n      and\n      0xffffffffffffffffffffffffffffffffffffffff\n      and\n      0xffffffffffffffffffffffffffffffffffffffff\n      and\n      dup2\n      mstore\n      0x20\n      add\n      0x00\n      dup3\n      add\n      0x14\n      swap1\n      sload\n      swap1\n      0x0100\n      exp\n      swap1\n      div\n      0xff\n      and\n      0xff\n      and\n      0xff\n      and\n      dup2\n      mstore\n      0x20\n      add\n      0x01\n      dup3\n      add\n      sload\n      dup2\n      mstore\n      pop\n      pop\n      swap1\n      pop\n        /* \"contracts/BetContract.sol\":2108:2112  game */\n      0x02\n        /* \"contracts/BetContract.sol\":2108:2119  game.winner */\n      0x01\n      add\n      0x00\n      swap1\n      sload\n      swap1\n      0x0100\n      exp\n      swap1\n      div\n      0xff\n      and\n        /* \"contracts/BetContract.sol\":2087:2119  bet.winPrediction == game.winner */\n      0xff\n      and\n        /* \"contracts/BetContract.sol\":2087:2090  bet */\n      dup2\n        /* \"contracts/BetContract.sol\":2087:2104  bet.winPrediction */\n      0x20\n      add\n      mload\n        /* \"contracts/BetContract.sol\":2087:2119  bet.winPrediction == game.winner */\n      0xff\n      and\n      sub\n        /* \"contracts/BetContract.sol\":2083:2191  if (bet.winPrediction == game.winner) {... */\n      tag_61\n      jumpi\n        /* \"contracts/BetContract.sol\":2148:2151  bet */\n      dup1\n        /* \"contracts/BetContract.sol\":2148:2156  bet.user */\n      0x00\n      add\n      mload\n        /* \"contracts/BetContract.sol\":2140:2166  payable(bet.user).transfer */\n      0xffffffffffffffffffffffffffffffffffffffff\n      and\n        /* \"contracts/BetContract.sol\":2140:2175  payable(bet.user).transfer(allBets) */\n      0x08fc\n        /* \"contracts/BetContract.sol\":2167:2174  allBets */\n      sload(0x01)\n        /* \"contracts/BetContract.sol\":2140:2175  payable(bet.user).transfer(allBets) */\n      swap1\n      dup2\n      iszero\n      mul\n      swap1\n      mload(0x40)\n      0x00\n      mload(0x40)\n      dup1\n      dup4\n      sub\n      dup2\n      dup6\n      dup9\n      dup9\n      call\n      swap4\n      pop\n      pop\n      pop\n      pop\n      iszero\n      dup1\n      iszero\n      tag_63\n      jumpi\n      returndatasize\n      0x00\n      dup1\n      returndatacopy\n      revert(0x00, returndatasize)\n    tag_63:\n      pop\n        /* \"contracts/BetContract.sol\":2083:2191  if (bet.winPrediction == game.winner) {... */\n    tag_61:\n        /* \"contracts/BetContract.sol\":2029:2202  {... */\n      pop\n        /* \"contracts/BetContract.sol\":2024:2027  i++ */\n      dup1\n      dup1\n      0x01\n      add\n      swap2\n      pop\n      pop\n        /* \"contracts/BetContract.sol\":1990:2202  for (uint i = 0; i < bets.length; i++) {... */\n      jump(tag_54)\n    tag_55:\n      pop\n        /* \"contracts/BetContract.sol\":1809:2209  function declareWinner() public payable onlyOwner {... */\n      jump\t// out\n        /* \"contracts/BetContract.sol\":1306:1375  function removeGame() public onlyOwner {... */\n    tag_15:\n        /* \"contracts/BetContract.sol\":894:899  owner */\n      0x00\n      dup1\n      sload\n      swap1\n      0x0100\n      exp\n      swap1\n      div\n      0xffffffffffffffffffffffffffffffffffffffff\n      and\n        /* \"contracts/BetContract.sol\":880:899  msg.sender == owner */\n      0xffffffffffffffffffffffffffffffffffffffff\n      and\n        /* \"contracts/BetContract.sol\":880:890  msg.sender */\n      caller\n        /* \"contracts/BetContract.sol\":880:899  msg.sender == owner */\n      0xffffffffffffffffffffffffffffffffffffffff\n      and\n      eq\n        /* \"contracts/BetContract.sol\":872:941  require(msg.sender == owner, \"Only the owner can call this function\") */\n      tag_65\n      jumpi\n      mload(0x40)\n      0x08c379a000000000000000000000000000000000000000000000000000000000\n      dup2\n      mstore\n      0x04\n      add\n      tag_66\n      swap1\n      tag_49\n      jump\t// in\n    tag_66:\n      mload(0x40)\n      dup1\n      swap2\n      sub\n      swap1\n      revert\n    tag_65:\n        /* \"contracts/BetContract.sol\":1363:1367  game */\n      0x02\n      0x00\n        /* \"contracts/BetContract.sol\":1356:1367  delete game */\n      dup1\n      dup3\n      add\n      0x00\n      tag_68\n      swap2\n      swap1\n      tag_69\n      jump\t// in\n    tag_68:\n      0x01\n      dup3\n      add\n      exp(0x0100, 0x00)\n      dup2\n      sload\n      swap1\n      0xff\n      mul\n      not\n      and\n      swap1\n      sstore\n      pop\n      pop\n        /* \"contracts/BetContract.sol\":1306:1375  function removeGame() public onlyOwner {... */\n      jump\t// out\n        /* \"contracts/BetContract.sol\":729:746  Bet[] public bets */\n    tag_20:\n      0x04\n      dup2\n      dup2\n      sload\n      dup2\n      lt\n      tag_70\n      jumpi\n      0x00\n      dup1\n      revert\n    tag_70:\n      swap1\n      0x00\n      mstore\n      keccak256(0x00, 0x20)\n      swap1\n      0x02\n      mul\n      add\n      0x00\n      swap2\n      pop\n      swap1\n      pop\n      dup1\n      0x00\n      add\n      0x00\n      swap1\n      sload\n      swap1\n      0x0100\n      exp\n      swap1\n      div\n      0xffffffffffffffffffffffffffffffffffffffff\n      and\n      swap1\n      dup1\n      0x00\n      add\n      0x14\n      swap1\n      sload\n      swap1\n      0x0100\n      exp\n      swap1\n      div\n      0xff\n      and\n      swap1\n      dup1\n      0x01\n      add\n      sload\n      swap1\n      pop\n      dup4\n      jump\t// out\n        /* \"contracts/BetContract.sol\":1457:1757  function addBet(uint8 _winPrediction) public payable {... */\n    tag_26:\n        /* \"contracts/BetContract.sol\":1544:1545  0 */\n      0x00\n        /* \"contracts/BetContract.sol\":1529:1533  game */\n      0x02\n        /* \"contracts/BetContract.sol\":1529:1540  game.winner */\n      0x01\n      add\n      0x00\n      swap1\n      sload\n      swap1\n      0x0100\n      exp\n      swap1\n      div\n      0xff\n      and\n        /* \"contracts/BetContract.sol\":1529:1545  game.winner == 0 */\n      0xff\n      and\n      eq\n        /* \"contracts/BetContract.sol\":1521:1574  require(game.winner == 0, \"Winner is already stated\") */\n      tag_73\n      jumpi\n      mload(0x40)\n      0x08c379a000000000000000000000000000000000000000000000000000000000\n      dup2\n      mstore\n      0x04\n      add\n      tag_74\n      swap1\n      tag_75\n      jump\t// in\n    tag_74:\n      mload(0x40)\n      dup1\n      swap2\n      sub\n      swap1\n      revert\n    tag_73:\n        /* \"contracts/BetContract.sol\":1674:1683  msg.value */\n      callvalue\n        /* \"contracts/BetContract.sol\":1663:1670  allBets */\n      0x01\n      0x00\n        /* \"contracts/BetContract.sol\":1663:1683  allBets += msg.value */\n      dup3\n      dup3\n      sload\n      tag_76\n      swap2\n      swap1\n      tag_77\n      jump\t// in\n    tag_76:\n      swap3\n      pop\n      pop\n      dup2\n      swap1\n      sstore\n      pop\n        /* \"contracts/BetContract.sol\":1696:1700  bets */\n      0x04\n        /* \"contracts/BetContract.sol\":1706:1748  Bet(msg.sender, _winPrediction, msg.value) */\n      mload(0x40)\n      dup1\n      0x60\n      add\n      0x40\n      mstore\n      dup1\n        /* \"contracts/BetContract.sol\":1710:1720  msg.sender */\n      caller\n        /* \"contracts/BetContract.sol\":1706:1748  Bet(msg.sender, _winPrediction, msg.value) */\n      0xffffffffffffffffffffffffffffffffffffffff\n      and\n      dup2\n      mstore\n      0x20\n      add\n        /* \"contracts/BetContract.sol\":1722:1736  _winPrediction */\n      dup4\n        /* \"contracts/BetContract.sol\":1706:1748  Bet(msg.sender, _winPrediction, msg.value) */\n      0xff\n      and\n      dup2\n      mstore\n      0x20\n      add\n        /* \"contracts/BetContract.sol\":1738:1747  msg.value */\n      callvalue\n        /* \"contracts/BetContract.sol\":1706:1748  Bet(msg.sender, _winPrediction, msg.value) */\n      dup2\n      mstore\n      pop\n        /* \"contracts/BetContract.sol\":1696:1749  bets.push(Bet(msg.sender, _winPrediction, msg.value)) */\n      swap1\n      dup1\n      0x01\n      dup2\n      sload\n      add\n      dup1\n      dup3\n      sstore\n      dup1\n      swap2\n      pop\n      pop\n      0x01\n      swap1\n      sub\n      swap1\n      0x00\n      mstore\n      keccak256(0x00, 0x20)\n      swap1\n      0x02\n      mul\n      add\n      0x00\n      swap1\n      swap2\n      swap1\n      swap2\n      swap1\n      swap2\n      pop\n      0x00\n      dup3\n      add\n      mload\n      dup2\n      0x00\n      add\n      exp(0x0100, 0x00)\n      dup2\n      sload\n      dup2\n      0xffffffffffffffffffffffffffffffffffffffff\n      mul\n      not\n      and\n      swap1\n      dup4\n      0xffffffffffffffffffffffffffffffffffffffff\n      and\n      mul\n      or\n      swap1\n      sstore\n      pop\n      0x20\n      dup3\n      add\n      mload\n      dup2\n      0x00\n      add\n      exp(0x0100, 0x14)\n      dup2\n      sload\n      dup2\n      0xff\n      mul\n      not\n      and\n      swap1\n      dup4\n      0xff\n      and\n      mul\n      or\n      swap1\n      sstore\n      pop\n      0x40\n      dup3\n      add\n      mload\n      dup2\n      0x01\n      add\n      sstore\n      pop\n      pop\n        /* \"contracts/BetContract.sol\":1457:1757  function addBet(uint8 _winPrediction) public payable {... */\n      pop\n      jump\t// out\n        /* \"contracts/BetContract.sol\":1170:1265  function addGameWinner(uint8 _winner) public onlyOwner {... */\n    tag_30:\n        /* \"contracts/BetContract.sol\":894:899  owner */\n      0x00\n      dup1\n      sload\n      swap1\n      0x0100\n      exp\n      swap1\n      div\n      0xffffffffffffffffffffffffffffffffffffffff\n      and\n        /* \"contracts/BetContract.sol\":880:899  msg.sender == owner */\n      0xffffffffffffffffffffffffffffffffffffffff\n      and\n        /* \"contracts/BetContract.sol\":880:890  msg.sender */\n      caller\n        /* \"contracts/BetContract.sol\":880:899  msg.sender == owner */\n      0xffffffffffffffffffffffffffffffffffffffff\n      and\n      eq\n        /* \"contracts/BetContract.sol\":872:941  require(msg.sender == owner, \"Only the owner can call this function\") */\n      tag_80\n      jumpi\n      mload(0x40)\n      0x08c379a000000000000000000000000000000000000000000000000000000000\n      dup2\n      mstore\n      0x04\n      add\n      tag_81\n      swap1\n      tag_49\n      jump\t// in\n    tag_81:\n      mload(0x40)\n      dup1\n      swap2\n      sub\n      swap1\n      revert\n    tag_80:\n        /* \"contracts/BetContract.sol\":1250:1257  _winner */\n      dup1\n        /* \"contracts/BetContract.sol\":1236:1240  game */\n      0x02\n        /* \"contracts/BetContract.sol\":1236:1247  game.winner */\n      0x01\n      add\n      0x00\n        /* \"contracts/BetContract.sol\":1236:1257  game.winner = _winner */\n      0x0100\n      exp\n      dup2\n      sload\n      dup2\n      0xff\n      mul\n      not\n      and\n      swap1\n      dup4\n      0xff\n      and\n      mul\n      or\n      swap1\n      sstore\n      pop\n        /* \"contracts/BetContract.sol\":1170:1265  function addGameWinner(uint8 _winner) public onlyOwner {... */\n      pop\n      jump\t// out\n        /* \"contracts/BetContract.sol\":194:214  address public owner */\n    tag_33:\n      0x00\n      dup1\n      sload\n      swap1\n      0x0100\n      exp\n      swap1\n      div\n      0xffffffffffffffffffffffffffffffffffffffff\n      and\n      dup2\n      jump\t// out\n        /* \"contracts/BetContract.sol\":531:547  Game public game */\n    tag_38:\n      0x02\n      dup1\n      0x00\n      add\n      dup1\n      sload\n      tag_83\n      swap1\n      tag_84\n      jump\t// in\n    tag_83:\n      dup1\n      0x1f\n      add\n      0x20\n      dup1\n      swap2\n      div\n      mul\n      0x20\n      add\n      mload(0x40)\n      swap1\n      dup2\n      add\n      0x40\n      mstore\n      dup1\n      swap3\n      swap2\n      swap1\n      dup2\n      dup2\n      mstore\n      0x20\n      add\n      dup3\n      dup1\n      sload\n      tag_85\n      swap1\n      tag_84\n      jump\t// in\n    tag_85:\n      dup1\n      iszero\n      tag_86\n      jumpi\n      dup1\n      0x1f\n      lt\n      tag_87\n      jumpi\n      0x0100\n      dup1\n      dup4\n      sload\n      div\n      mul\n      dup4\n      mstore\n      swap2\n      0x20\n      add\n      swap2\n      jump(tag_86)\n    tag_87:\n      dup3\n      add\n      swap2\n      swap1\n      0x00\n      mstore\n      keccak256(0x00, 0x20)\n      swap1\n    tag_88:\n      dup2\n      sload\n      dup2\n      mstore\n      swap1\n      0x01\n      add\n      swap1\n      0x20\n      add\n      dup1\n      dup4\n      gt\n      tag_88\n      jumpi\n      dup3\n      swap1\n      sub\n      0x1f\n      and\n      dup3\n      add\n      swap2\n    tag_86:\n      pop\n      pop\n      pop\n      pop\n      pop\n      swap1\n      dup1\n      0x01\n      add\n      0x00\n      swap1\n      sload\n      swap1\n      0x0100\n      exp\n      swap1\n      div\n      0xff\n      and\n      swap1\n      pop\n      dup3\n      jump\t// out\n        /* \"contracts/BetContract.sol\":1016:1111  function addGame(string memory _name) public onlyOwner {... */\n    tag_45:\n        /* \"contracts/BetContract.sol\":894:899  owner */\n      0x00\n      dup1\n      sload\n      swap1\n      0x0100\n      exp\n      swap1\n      div\n      0xffffffffffffffffffffffffffffffffffffffff\n      and\n        /* \"contracts/BetContract.sol\":880:899  msg.sender == owner */\n      0xffffffffffffffffffffffffffffffffffffffff\n      and\n        /* \"contracts/BetContract.sol\":880:890  msg.sender */\n      caller\n        /* \"contracts/BetContract.sol\":880:899  msg.sender == owner */\n      0xffffffffffffffffffffffffffffffffffffffff\n      and\n      eq\n        /* \"contracts/BetContract.sol\":872:941  require(msg.sender == owner, \"Only the owner can call this function\") */\n      tag_90\n      jumpi\n      mload(0x40)\n      0x08c379a000000000000000000000000000000000000000000000000000000000\n      dup2\n      mstore\n      0x04\n      add\n      tag_91\n      swap1\n      tag_49\n      jump\t// in\n    tag_91:\n      mload(0x40)\n      dup1\n      swap2\n      sub\n      swap1\n      revert\n    tag_90:\n        /* \"contracts/BetContract.sol\":1089:1103  Game(_name, 0) */\n      mload(0x40)\n      dup1\n      0x40\n      add\n      0x40\n      mstore\n      dup1\n        /* \"contracts/BetContract.sol\":1094:1099  _name */\n      dup3\n        /* \"contracts/BetContract.sol\":1089:1103  Game(_name, 0) */\n      dup2\n      mstore\n      0x20\n      add\n        /* \"contracts/BetContract.sol\":1101:1102  0 */\n      0x00\n        /* \"contracts/BetContract.sol\":1089:1103  Game(_name, 0) */\n      0xff\n      and\n      dup2\n      mstore\n      pop\n        /* \"contracts/BetContract.sol\":1082:1086  game */\n      0x02\n        /* \"contracts/BetContract.sol\":1082:1103  game = Game(_name, 0) */\n      0x00\n      dup3\n      add\n      mload\n      dup2\n      0x00\n      add\n      swap1\n      dup2\n      tag_93\n      swap2\n      swap1\n      tag_94\n      jump\t// in\n    tag_93:\n      pop\n      0x20\n      dup3\n      add\n      mload\n      dup2\n      0x01\n      add\n      exp(0x0100, 0x00)\n      dup2\n      sload\n      dup2\n      0xff\n      mul\n      not\n      and\n      swap1\n      dup4\n      0xff\n      and\n      mul\n      or\n      swap1\n      sstore\n      pop\n      swap1\n      pop\n      pop\n        /* \"contracts/BetContract.sol\":1016:1111  function addGame(string memory _name) public onlyOwner {... */\n      pop\n      jump\t// out\n    tag_69:\n      pop\n      dup1\n      sload\n      tag_95\n      swap1\n      tag_84\n      jump\t// in\n    tag_95:\n      0x00\n      dup3\n      sstore\n      dup1\n      0x1f\n      lt\n      tag_97\n      jumpi\n      pop\n      jump(tag_96)\n    tag_97:\n      0x1f\n      add\n      0x20\n      swap1\n      div\n      swap1\n      0x00\n      mstore\n      keccak256(0x00, 0x20)\n      swap1\n      dup2\n      add\n      swap1\n      tag_98\n      swap2\n      swap1\n      tag_99\n      jump\t// in\n    tag_98:\n    tag_96:\n      pop\n      jump\t// out\n    tag_99:\n    tag_100:\n      dup1\n      dup3\n      gt\n      iszero\n      tag_101\n      jumpi\n      0x00\n      dup2\n      0x00\n      swap1\n      sstore\n      pop\n      0x01\n      add\n      jump(tag_100)\n    tag_101:\n      pop\n      swap1\n      jump\t// out\n        /* \"#utility.yul\":7:82   */\n    tag_102:\n        /* \"#utility.yul\":40:46   */\n      0x00\n        /* \"#utility.yul\":73:75   */\n      0x40\n        /* \"#utility.yul\":67:76   */\n      mload\n        /* \"#utility.yul\":57:76   */\n      swap1\n      pop\n        /* \"#utility.yul\":7:82   */\n      swap1\n      jump\t// out\n        /* \"#utility.yul\":88:205   */\n    tag_103:\n        /* \"#utility.yul\":197:198   */\n      0x00\n        /* \"#utility.yul\":194:195   */\n      dup1\n        /* \"#utility.yul\":187:199   */\n      revert\n        /* \"#utility.yul\":211:328   */\n    tag_104:\n        /* \"#utility.yul\":320:321   */\n      0x00\n        /* \"#utility.yul\":317:318   */\n      dup1\n        /* \"#utility.yul\":310:322   */\n      revert\n        /* \"#utility.yul\":334:411   */\n    tag_105:\n        /* \"#utility.yul\":371:378   */\n      0x00\n        /* \"#utility.yul\":400:405   */\n      dup2\n        /* \"#utility.yul\":389:405   */\n      swap1\n      pop\n        /* \"#utility.yul\":334:411   */\n      swap2\n      swap1\n      pop\n      jump\t// out\n        /* \"#utility.yul\":417:539   */\n    tag_106:\n        /* \"#utility.yul\":490:514   */\n      tag_159\n        /* \"#utility.yul\":508:513   */\n      dup2\n        /* \"#utility.yul\":490:514   */\n      tag_105\n      jump\t// in\n    tag_159:\n        /* \"#utility.yul\":483:488   */\n      dup2\n        /* \"#utility.yul\":480:515   */\n      eq\n        /* \"#utility.yul\":470:533   */\n      tag_160\n      jumpi\n        /* \"#utility.yul\":529:530   */\n      0x00\n        /* \"#utility.yul\":526:527   */\n      dup1\n        /* \"#utility.yul\":519:531   */\n      revert\n        /* \"#utility.yul\":470:533   */\n    tag_160:\n        /* \"#utility.yul\":417:539   */\n      pop\n      jump\t// out\n        /* \"#utility.yul\":545:684   */\n    tag_107:\n        /* \"#utility.yul\":591:596   */\n      0x00\n        /* \"#utility.yul\":629:635   */\n      dup2\n        /* \"#utility.yul\":616:636   */\n      calldataload\n        /* \"#utility.yul\":607:636   */\n      swap1\n      pop\n        /* \"#utility.yul\":645:678   */\n      tag_162\n        /* \"#utility.yul\":672:677   */\n      dup2\n        /* \"#utility.yul\":645:678   */\n      tag_106\n      jump\t// in\n    tag_162:\n        /* \"#utility.yul\":545:684   */\n      swap3\n      swap2\n      pop\n      pop\n      jump\t// out\n        /* \"#utility.yul\":690:1019   */\n    tag_19:\n        /* \"#utility.yul\":749:755   */\n      0x00\n        /* \"#utility.yul\":798:800   */\n      0x20\n        /* \"#utility.yul\":786:795   */\n      dup3\n        /* \"#utility.yul\":777:784   */\n      dup5\n        /* \"#utility.yul\":773:796   */\n      sub\n        /* \"#utility.yul\":769:801   */\n      slt\n        /* \"#utility.yul\":766:885   */\n      iszero\n      tag_164\n      jumpi\n        /* \"#utility.yul\":804:883   */\n      tag_165\n      tag_103\n      jump\t// in\n    tag_165:\n        /* \"#utility.yul\":766:885   */\n    tag_164:\n        /* \"#utility.yul\":924:925   */\n      0x00\n        /* \"#utility.yul\":949:1002   */\n      tag_166\n        /* \"#utility.yul\":994:1001   */\n      dup5\n        /* \"#utility.yul\":985:991   */\n      dup3\n        /* \"#utility.yul\":974:983   */\n      dup6\n        /* \"#utility.yul\":970:992   */\n      add\n        /* \"#utility.yul\":949:1002   */\n      tag_107\n      jump\t// in\n    tag_166:\n        /* \"#utility.yul\":939:1002   */\n      swap2\n      pop\n        /* \"#utility.yul\":895:1012   */\n      pop\n        /* \"#utility.yul\":690:1019   */\n      swap3\n      swap2\n      pop\n      pop\n      jump\t// out\n        /* \"#utility.yul\":1025:1151   */\n    tag_108:\n        /* \"#utility.yul\":1062:1069   */\n      0x00\n        /* \"#utility.yul\":1102:1144   */\n      0xffffffffffffffffffffffffffffffffffffffff\n        /* \"#utility.yul\":1095:1100   */\n      dup3\n        /* \"#utility.yul\":1091:1145   */\n      and\n        /* \"#utility.yul\":1080:1145   */\n      swap1\n      pop\n        /* \"#utility.yul\":1025:1151   */\n      swap2\n      swap1\n      pop\n      jump\t// out\n        /* \"#utility.yul\":1157:1253   */\n    tag_109:\n        /* \"#utility.yul\":1194:1201   */\n      0x00\n        /* \"#utility.yul\":1223:1247   */\n      tag_169\n        /* \"#utility.yul\":1241:1246   */\n      dup3\n        /* \"#utility.yul\":1223:1247   */\n      tag_108\n      jump\t// in\n    tag_169:\n        /* \"#utility.yul\":1212:1247   */\n      swap1\n      pop\n        /* \"#utility.yul\":1157:1253   */\n      swap2\n      swap1\n      pop\n      jump\t// out\n        /* \"#utility.yul\":1259:1377   */\n    tag_110:\n        /* \"#utility.yul\":1346:1370   */\n      tag_171\n        /* \"#utility.yul\":1364:1369   */\n      dup2\n        /* \"#utility.yul\":1346:1370   */\n      tag_109\n      jump\t// in\n    tag_171:\n        /* \"#utility.yul\":1341:1344   */\n      dup3\n        /* \"#utility.yul\":1334:1371   */\n      mstore\n        /* \"#utility.yul\":1259:1377   */\n      pop\n      pop\n      jump\t// out\n        /* \"#utility.yul\":1383:1469   */\n    tag_111:\n        /* \"#utility.yul\":1418:1425   */\n      0x00\n        /* \"#utility.yul\":1458:1462   */\n      0xff\n        /* \"#utility.yul\":1451:1456   */\n      dup3\n        /* \"#utility.yul\":1447:1463   */\n      and\n        /* \"#utility.yul\":1436:1463   */\n      swap1\n      pop\n        /* \"#utility.yul\":1383:1469   */\n      swap2\n      swap1\n      pop\n      jump\t// out\n        /* \"#utility.yul\":1475:1587   */\n    tag_112:\n        /* \"#utility.yul\":1558:1580   */\n      tag_174\n        /* \"#utility.yul\":1574:1579   */\n      dup2\n        /* \"#utility.yul\":1558:1580   */\n      tag_111\n      jump\t// in\n    tag_174:\n        /* \"#utility.yul\":1553:1556   */\n      dup3\n        /* \"#utility.yul\":1546:1581   */\n      mstore\n        /* \"#utility.yul\":1475:1587   */\n      pop\n      pop\n      jump\t// out\n        /* \"#utility.yul\":1593:1711   */\n    tag_113:\n        /* \"#utility.yul\":1680:1704   */\n      tag_176\n        /* \"#utility.yul\":1698:1703   */\n      dup2\n        /* \"#utility.yul\":1680:1704   */\n      tag_105\n      jump\t// in\n    tag_176:\n        /* \"#utility.yul\":1675:1678   */\n      dup3\n        /* \"#utility.yul\":1668:1705   */\n      mstore\n        /* \"#utility.yul\":1593:1711   */\n      pop\n      pop\n      jump\t// out\n        /* \"#utility.yul\":1717:2151   */\n    tag_22:\n        /* \"#utility.yul\":1862:1866   */\n      0x00\n        /* \"#utility.yul\":1900:1902   */\n      0x60\n        /* \"#utility.yul\":1889:1898   */\n      dup3\n        /* \"#utility.yul\":1885:1903   */\n      add\n        /* \"#utility.yul\":1877:1903   */\n      swap1\n      pop\n        /* \"#utility.yul\":1913:1984   */\n      tag_178\n        /* \"#utility.yul\":1981:1982   */\n      0x00\n        /* \"#utility.yul\":1970:1979   */\n      dup4\n        /* \"#utility.yul\":1966:1983   */\n      add\n        /* \"#utility.yul\":1957:1963   */\n      dup7\n        /* \"#utility.yul\":1913:1984   */\n      tag_110\n      jump\t// in\n    tag_178:\n        /* \"#utility.yul\":1994:2062   */\n      tag_179\n        /* \"#utility.yul\":2058:2060   */\n      0x20\n        /* \"#utility.yul\":2047:2056   */\n      dup4\n        /* \"#utility.yul\":2043:2061   */\n      add\n        /* \"#utility.yul\":2034:2040   */\n      dup6\n        /* \"#utility.yul\":1994:2062   */\n      tag_112\n      jump\t// in\n    tag_179:\n        /* \"#utility.yul\":2072:2144   */\n      tag_180\n        /* \"#utility.yul\":2140:2142   */\n      0x40\n        /* \"#utility.yul\":2129:2138   */\n      dup4\n        /* \"#utility.yul\":2125:2143   */\n      add\n        /* \"#utility.yul\":2116:2122   */\n      dup5\n        /* \"#utility.yul\":2072:2144   */\n      tag_113\n      jump\t// in\n    tag_180:\n        /* \"#utility.yul\":1717:2151   */\n      swap5\n      swap4\n      pop\n      pop\n      pop\n      pop\n      jump\t// out\n        /* \"#utility.yul\":2157:2275   */\n    tag_114:\n        /* \"#utility.yul\":2228:2250   */\n      tag_182\n        /* \"#utility.yul\":2244:2249   */\n      dup2\n        /* \"#utility.yul\":2228:2250   */\n      tag_111\n      jump\t// in\n    tag_182:\n        /* \"#utility.yul\":2221:2226   */\n      dup2\n        /* \"#utility.yul\":2218:2251   */\n      eq\n        /* \"#utility.yul\":2208:2269   */\n      tag_183\n      jumpi\n        /* \"#utility.yul\":2265:2266   */\n      0x00\n        /* \"#utility.yul\":2262:2263   */\n      dup1\n        /* \"#utility.yul\":2255:2267   */\n      revert\n        /* \"#utility.yul\":2208:2269   */\n    tag_183:\n        /* \"#utility.yul\":2157:2275   */\n      pop\n      jump\t// out\n        /* \"#utility.yul\":2281:2416   */\n    tag_115:\n        /* \"#utility.yul\":2325:2330   */\n      0x00\n        /* \"#utility.yul\":2363:2369   */\n      dup2\n        /* \"#utility.yul\":2350:2370   */\n      calldataload\n        /* \"#utility.yul\":2341:2370   */\n      swap1\n      pop\n        /* \"#utility.yul\":2379:2410   */\n      tag_185\n        /* \"#utility.yul\":2404:2409   */\n      dup2\n        /* \"#utility.yul\":2379:2410   */\n      tag_114\n      jump\t// in\n    tag_185:\n        /* \"#utility.yul\":2281:2416   */\n      swap3\n      swap2\n      pop\n      pop\n      jump\t// out\n        /* \"#utility.yul\":2422:2747   */\n    tag_25:\n        /* \"#utility.yul\":2479:2485   */\n      0x00\n        /* \"#utility.yul\":2528:2530   */\n      0x20\n        /* \"#utility.yul\":2516:2525   */\n      dup3\n        /* \"#utility.yul\":2507:2514   */\n      dup5\n        /* \"#utility.yul\":2503:2526   */\n      sub\n        /* \"#utility.yul\":2499:2531   */\n      slt\n        /* \"#utility.yul\":2496:2615   */\n      iszero\n      tag_187\n      jumpi\n        /* \"#utility.yul\":2534:2613   */\n      tag_188\n      tag_103\n      jump\t// in\n    tag_188:\n        /* \"#utility.yul\":2496:2615   */\n    tag_187:\n        /* \"#utility.yul\":2654:2655   */\n      0x00\n        /* \"#utility.yul\":2679:2730   */\n      tag_189\n        /* \"#utility.yul\":2722:2729   */\n      dup5\n        /* \"#utility.yul\":2713:2719   */\n      dup3\n        /* \"#utility.yul\":2702:2711   */\n      dup6\n        /* \"#utility.yul\":2698:2720   */\n      add\n        /* \"#utility.yul\":2679:2730   */\n      tag_115\n      jump\t// in\n    tag_189:\n        /* \"#utility.yul\":2669:2730   */\n      swap2\n      pop\n        /* \"#utility.yul\":2625:2740   */\n      pop\n        /* \"#utility.yul\":2422:2747   */\n      swap3\n      swap2\n      pop\n      pop\n      jump\t// out\n        /* \"#utility.yul\":2753:2975   */\n    tag_35:\n        /* \"#utility.yul\":2846:2850   */\n      0x00\n        /* \"#utility.yul\":2884:2886   */\n      0x20\n        /* \"#utility.yul\":2873:2882   */\n      dup3\n        /* \"#utility.yul\":2869:2887   */\n      add\n        /* \"#utility.yul\":2861:2887   */\n      swap1\n      pop\n        /* \"#utility.yul\":2897:2968   */\n      tag_191\n        /* \"#utility.yul\":2965:2966   */\n      0x00\n        /* \"#utility.yul\":2954:2963   */\n      dup4\n        /* \"#utility.yul\":2950:2967   */\n      add\n        /* \"#utility.yul\":2941:2947   */\n      dup5\n        /* \"#utility.yul\":2897:2968   */\n      tag_110\n      jump\t// in\n    tag_191:\n        /* \"#utility.yul\":2753:2975   */\n      swap3\n      swap2\n      pop\n      pop\n      jump\t// out\n        /* \"#utility.yul\":2981:3080   */\n    tag_116:\n        /* \"#utility.yul\":3033:3039   */\n      0x00\n        /* \"#utility.yul\":3067:3072   */\n      dup2\n        /* \"#utility.yul\":3061:3073   */\n      mload\n        /* \"#utility.yul\":3051:3073   */\n      swap1\n      pop\n        /* \"#utility.yul\":2981:3080   */\n      swap2\n      swap1\n      pop\n      jump\t// out\n        /* \"#utility.yul\":3086:3255   */\n    tag_117:\n        /* \"#utility.yul\":3170:3181   */\n      0x00\n        /* \"#utility.yul\":3204:3210   */\n      dup3\n        /* \"#utility.yul\":3199:3202   */\n      dup3\n        /* \"#utility.yul\":3192:3211   */\n      mstore\n        /* \"#utility.yul\":3244:3248   */\n      0x20\n        /* \"#utility.yul\":3239:3242   */\n      dup3\n        /* \"#utility.yul\":3235:3249   */\n      add\n        /* \"#utility.yul\":3220:3249   */\n      swap1\n      pop\n        /* \"#utility.yul\":3086:3255   */\n      swap3\n      swap2\n      pop\n      pop\n      jump\t// out\n        /* \"#utility.yul\":3261:3507   */\n    tag_118:\n        /* \"#utility.yul\":3342:3343   */\n      0x00\n        /* \"#utility.yul\":3352:3465   */\n    tag_195:\n        /* \"#utility.yul\":3366:3372   */\n      dup4\n        /* \"#utility.yul\":3363:3364   */\n      dup2\n        /* \"#utility.yul\":3360:3373   */\n      lt\n        /* \"#utility.yul\":3352:3465   */\n      iszero\n      tag_197\n      jumpi\n        /* \"#utility.yul\":3451:3452   */\n      dup1\n        /* \"#utility.yul\":3446:3449   */\n      dup3\n        /* \"#utility.yul\":3442:3453   */\n      add\n        /* \"#utility.yul\":3436:3454   */\n      mload\n        /* \"#utility.yul\":3432:3433   */\n      dup2\n        /* \"#utility.yul\":3427:3430   */\n      dup5\n        /* \"#utility.yul\":3423:3434   */\n      add\n        /* \"#utility.yul\":3416:3455   */\n      mstore\n        /* \"#utility.yul\":3388:3390   */\n      0x20\n        /* \"#utility.yul\":3385:3386   */\n      dup2\n        /* \"#utility.yul\":3381:3391   */\n      add\n        /* \"#utility.yul\":3376:3391   */\n      swap1\n      pop\n        /* \"#utility.yul\":3352:3465   */\n      jump(tag_195)\n    tag_197:\n        /* \"#utility.yul\":3499:3500   */\n      0x00\n        /* \"#utility.yul\":3490:3496   */\n      dup5\n        /* \"#utility.yul\":3485:3488   */\n      dup5\n        /* \"#utility.yul\":3481:3497   */\n      add\n        /* \"#utility.yul\":3474:3501   */\n      mstore\n        /* \"#utility.yul\":3323:3507   */\n      pop\n        /* \"#utility.yul\":3261:3507   */\n      pop\n      pop\n      pop\n      jump\t// out\n        /* \"#utility.yul\":3513:3615   */\n    tag_119:\n        /* \"#utility.yul\":3554:3560   */\n      0x00\n        /* \"#utility.yul\":3605:3607   */\n      0x1f\n        /* \"#utility.yul\":3601:3608   */\n      not\n        /* \"#utility.yul\":3596:3598   */\n      0x1f\n        /* \"#utility.yul\":3589:3594   */\n      dup4\n        /* \"#utility.yul\":3585:3599   */\n      add\n        /* \"#utility.yul\":3581:3609   */\n      and\n        /* \"#utility.yul\":3571:3609   */\n      swap1\n      pop\n        /* \"#utility.yul\":3513:3615   */\n      swap2\n      swap1\n      pop\n      jump\t// out\n        /* \"#utility.yul\":3621:3998   */\n    tag_120:\n        /* \"#utility.yul\":3709:3712   */\n      0x00\n        /* \"#utility.yul\":3737:3776   */\n      tag_200\n        /* \"#utility.yul\":3770:3775   */\n      dup3\n        /* \"#utility.yul\":3737:3776   */\n      tag_116\n      jump\t// in\n    tag_200:\n        /* \"#utility.yul\":3792:3863   */\n      tag_201\n        /* \"#utility.yul\":3856:3862   */\n      dup2\n        /* \"#utility.yul\":3851:3854   */\n      dup6\n        /* \"#utility.yul\":3792:3863   */\n      tag_117\n      jump\t// in\n    tag_201:\n        /* \"#utility.yul\":3785:3863   */\n      swap4\n      pop\n        /* \"#utility.yul\":3872:3937   */\n      tag_202\n        /* \"#utility.yul\":3930:3936   */\n      dup2\n        /* \"#utility.yul\":3925:3928   */\n      dup6\n        /* \"#utility.yul\":3918:3922   */\n      0x20\n        /* \"#utility.yul\":3911:3916   */\n      dup7\n        /* \"#utility.yul\":3907:3923   */\n      add\n        /* \"#utility.yul\":3872:3937   */\n      tag_118\n      jump\t// in\n    tag_202:\n        /* \"#utility.yul\":3962:3991   */\n      tag_203\n        /* \"#utility.yul\":3984:3990   */\n      dup2\n        /* \"#utility.yul\":3962:3991   */\n      tag_119\n      jump\t// in\n    tag_203:\n        /* \"#utility.yul\":3957:3960   */\n      dup5\n        /* \"#utility.yul\":3953:3992   */\n      add\n        /* \"#utility.yul\":3946:3992   */\n      swap2\n      pop\n        /* \"#utility.yul\":3713:3998   */\n      pop\n        /* \"#utility.yul\":3621:3998   */\n      swap3\n      swap2\n      pop\n      pop\n      jump\t// out\n        /* \"#utility.yul\":4004:4419   */\n    tag_40:\n        /* \"#utility.yul\":4141:4145   */\n      0x00\n        /* \"#utility.yul\":4179:4181   */\n      0x40\n        /* \"#utility.yul\":4168:4177   */\n      dup3\n        /* \"#utility.yul\":4164:4182   */\n      add\n        /* \"#utility.yul\":4156:4182   */\n      swap1\n      pop\n        /* \"#utility.yul\":4228:4237   */\n      dup2\n        /* \"#utility.yul\":4222:4226   */\n      dup2\n        /* \"#utility.yul\":4218:4238   */\n      sub\n        /* \"#utility.yul\":4214:4215   */\n      0x00\n        /* \"#utility.yul\":4203:4212   */\n      dup4\n        /* \"#utility.yul\":4199:4216   */\n      add\n        /* \"#utility.yul\":4192:4239   */\n      mstore\n        /* \"#utility.yul\":4256:4334   */\n      tag_205\n        /* \"#utility.yul\":4329:4333   */\n      dup2\n        /* \"#utility.yul\":4320:4326   */\n      dup6\n        /* \"#utility.yul\":4256:4334   */\n      tag_120\n      jump\t// in\n    tag_205:\n        /* \"#utility.yul\":4248:4334   */\n      swap1\n      pop\n        /* \"#utility.yul\":4344:4412   */\n      tag_206\n        /* \"#utility.yul\":4408:4410   */\n      0x20\n        /* \"#utility.yul\":4397:4406   */\n      dup4\n        /* \"#utility.yul\":4393:4411   */\n      add\n        /* \"#utility.yul\":4384:4390   */\n      dup5\n        /* \"#utility.yul\":4344:4412   */\n      tag_112\n      jump\t// in\n    tag_206:\n        /* \"#utility.yul\":4004:4419   */\n      swap4\n      swap3\n      pop\n      pop\n      pop\n      jump\t// out\n        /* \"#utility.yul\":4425:4542   */\n    tag_121:\n        /* \"#utility.yul\":4534:4535   */\n      0x00\n        /* \"#utility.yul\":4531:4532   */\n      dup1\n        /* \"#utility.yul\":4524:4536   */\n      revert\n        /* \"#utility.yul\":4548:4665   */\n    tag_122:\n        /* \"#utility.yul\":4657:4658   */\n      0x00\n        /* \"#utility.yul\":4654:4655   */\n      dup1\n        /* \"#utility.yul\":4647:4659   */\n      revert\n        /* \"#utility.yul\":4671:4851   */\n    tag_123:\n        /* \"#utility.yul\":4719:4796   */\n      0x4e487b7100000000000000000000000000000000000000000000000000000000\n        /* \"#utility.yul\":4716:4717   */\n      0x00\n        /* \"#utility.yul\":4709:4797   */\n      mstore\n        /* \"#utility.yul\":4816:4820   */\n      0x41\n        /* \"#utility.yul\":4813:4814   */\n      0x04\n        /* \"#utility.yul\":4806:4821   */\n      mstore\n        /* \"#utility.yul\":4840:4844   */\n      0x24\n        /* \"#utility.yul\":4837:4838   */\n      0x00\n        /* \"#utility.yul\":4830:4845   */\n      revert\n        /* \"#utility.yul\":4857:5138   */\n    tag_124:\n        /* \"#utility.yul\":4940:4967   */\n      tag_211\n        /* \"#utility.yul\":4962:4966   */\n      dup3\n        /* \"#utility.yul\":4940:4967   */\n      tag_119\n      jump\t// in\n    tag_211:\n        /* \"#utility.yul\":4932:4938   */\n      dup2\n        /* \"#utility.yul\":4928:4968   */\n      add\n        /* \"#utility.yul\":5070:5076   */\n      dup2\n        /* \"#utility.yul\":5058:5068   */\n      dup2\n        /* \"#utility.yul\":5055:5077   */\n      lt\n        /* \"#utility.yul\":5034:5052   */\n      0xffffffffffffffff\n        /* \"#utility.yul\":5022:5032   */\n      dup3\n        /* \"#utility.yul\":5019:5053   */\n      gt\n        /* \"#utility.yul\":5016:5078   */\n      or\n        /* \"#utility.yul\":5013:5101   */\n      iszero\n      tag_212\n      jumpi\n        /* \"#utility.yul\":5081:5099   */\n      tag_213\n      tag_123\n      jump\t// in\n    tag_213:\n        /* \"#utility.yul\":5013:5101   */\n    tag_212:\n        /* \"#utility.yul\":5121:5131   */\n      dup1\n        /* \"#utility.yul\":5117:5119   */\n      0x40\n        /* \"#utility.yul\":5110:5132   */\n      mstore\n        /* \"#utility.yul\":4900:5138   */\n      pop\n        /* \"#utility.yul\":4857:5138   */\n      pop\n      pop\n      jump\t// out\n        /* \"#utility.yul\":5144:5273   */\n    tag_125:\n        /* \"#utility.yul\":5178:5184   */\n      0x00\n        /* \"#utility.yul\":5205:5225   */\n      tag_215\n      tag_102\n      jump\t// in\n    tag_215:\n        /* \"#utility.yul\":5195:5225   */\n      swap1\n      pop\n        /* \"#utility.yul\":5234:5267   */\n      tag_216\n        /* \"#utility.yul\":5262:5266   */\n      dup3\n        /* \"#utility.yul\":5254:5260   */\n      dup3\n        /* \"#utility.yul\":5234:5267   */\n      tag_124\n      jump\t// in\n    tag_216:\n        /* \"#utility.yul\":5144:5273   */\n      swap2\n      swap1\n      pop\n      jump\t// out\n        /* \"#utility.yul\":5279:5587   */\n    tag_126:\n        /* \"#utility.yul\":5341:5345   */\n      0x00\n        /* \"#utility.yul\":5431:5449   */\n      0xffffffffffffffff\n        /* \"#utility.yul\":5423:5429   */\n      dup3\n        /* \"#utility.yul\":5420:5450   */\n      gt\n        /* \"#utility.yul\":5417:5473   */\n      iszero\n      tag_218\n      jumpi\n        /* \"#utility.yul\":5453:5471   */\n      tag_219\n      tag_123\n      jump\t// in\n    tag_219:\n        /* \"#utility.yul\":5417:5473   */\n    tag_218:\n        /* \"#utility.yul\":5491:5520   */\n      tag_220\n        /* \"#utility.yul\":5513:5519   */\n      dup3\n        /* \"#utility.yul\":5491:5520   */\n      tag_119\n      jump\t// in\n    tag_220:\n        /* \"#utility.yul\":5483:5520   */\n      swap1\n      pop\n        /* \"#utility.yul\":5575:5579   */\n      0x20\n        /* \"#utility.yul\":5569:5573   */\n      dup2\n        /* \"#utility.yul\":5565:5580   */\n      add\n        /* \"#utility.yul\":5557:5580   */\n      swap1\n      pop\n        /* \"#utility.yul\":5279:5587   */\n      swap2\n      swap1\n      pop\n      jump\t// out\n        /* \"#utility.yul\":5593:5739   */\n    tag_127:\n        /* \"#utility.yul\":5690:5696   */\n      dup3\n        /* \"#utility.yul\":5685:5688   */\n      dup2\n        /* \"#utility.yul\":5680:5683   */\n      dup4\n        /* \"#utility.yul\":5667:5697   */\n      calldatacopy\n        /* \"#utility.yul\":5731:5732   */\n      0x00\n        /* \"#utility.yul\":5722:5728   */\n      dup4\n        /* \"#utility.yul\":5717:5720   */\n      dup4\n        /* \"#utility.yul\":5713:5729   */\n      add\n        /* \"#utility.yul\":5706:5733   */\n      mstore\n        /* \"#utility.yul\":5593:5739   */\n      pop\n      pop\n      pop\n      jump\t// out\n        /* \"#utility.yul\":5745:6170   */\n    tag_128:\n        /* \"#utility.yul\":5823:5828   */\n      0x00\n        /* \"#utility.yul\":5848:5914   */\n      tag_223\n        /* \"#utility.yul\":5864:5913   */\n      tag_224\n        /* \"#utility.yul\":5906:5912   */\n      dup5\n        /* \"#utility.yul\":5864:5913   */\n      tag_126\n      jump\t// in\n    tag_224:\n        /* \"#utility.yul\":5848:5914   */\n      tag_125\n      jump\t// in\n    tag_223:\n        /* \"#utility.yul\":5839:5914   */\n      swap1\n      pop\n        /* \"#utility.yul\":5937:5943   */\n      dup3\n        /* \"#utility.yul\":5930:5935   */\n      dup2\n        /* \"#utility.yul\":5923:5944   */\n      mstore\n        /* \"#utility.yul\":5975:5979   */\n      0x20\n        /* \"#utility.yul\":5968:5973   */\n      dup2\n        /* \"#utility.yul\":5964:5980   */\n      add\n        /* \"#utility.yul\":6013:6016   */\n      dup5\n        /* \"#utility.yul\":6004:6010   */\n      dup5\n        /* \"#utility.yul\":5999:6002   */\n      dup5\n        /* \"#utility.yul\":5995:6011   */\n      add\n        /* \"#utility.yul\":5992:6017   */\n      gt\n        /* \"#utility.yul\":5989:6101   */\n      iszero\n      tag_225\n      jumpi\n        /* \"#utility.yul\":6020:6099   */\n      tag_226\n      tag_122\n      jump\t// in\n    tag_226:\n        /* \"#utility.yul\":5989:6101   */\n    tag_225:\n        /* \"#utility.yul\":6110:6164   */\n      tag_227\n        /* \"#utility.yul\":6157:6163   */\n      dup5\n        /* \"#utility.yul\":6152:6155   */\n      dup3\n        /* \"#utility.yul\":6147:6150   */\n      dup6\n        /* \"#utility.yul\":6110:6164   */\n      tag_127\n      jump\t// in\n    tag_227:\n        /* \"#utility.yul\":5829:6170   */\n      pop\n        /* \"#utility.yul\":5745:6170   */\n      swap4\n      swap3\n      pop\n      pop\n      pop\n      jump\t// out\n        /* \"#utility.yul\":6190:6530   */\n    tag_129:\n        /* \"#utility.yul\":6246:6251   */\n      0x00\n        /* \"#utility.yul\":6295:6298   */\n      dup3\n        /* \"#utility.yul\":6288:6292   */\n      0x1f\n        /* \"#utility.yul\":6280:6286   */\n      dup4\n        /* \"#utility.yul\":6276:6293   */\n      add\n        /* \"#utility.yul\":6272:6299   */\n      slt\n        /* \"#utility.yul\":6262:6384   */\n      tag_229\n      jumpi\n        /* \"#utility.yul\":6303:6382   */\n      tag_230\n      tag_121\n      jump\t// in\n    tag_230:\n        /* \"#utility.yul\":6262:6384   */\n    tag_229:\n        /* \"#utility.yul\":6420:6426   */\n      dup2\n        /* \"#utility.yul\":6407:6427   */\n      calldataload\n        /* \"#utility.yul\":6445:6524   */\n      tag_231\n        /* \"#utility.yul\":6520:6523   */\n      dup5\n        /* \"#utility.yul\":6512:6518   */\n      dup3\n        /* \"#utility.yul\":6505:6509   */\n      0x20\n        /* \"#utility.yul\":6497:6503   */\n      dup7\n        /* \"#utility.yul\":6493:6510   */\n      add\n        /* \"#utility.yul\":6445:6524   */\n      tag_128\n      jump\t// in\n    tag_231:\n        /* \"#utility.yul\":6436:6524   */\n      swap2\n      pop\n        /* \"#utility.yul\":6252:6530   */\n      pop\n        /* \"#utility.yul\":6190:6530   */\n      swap3\n      swap2\n      pop\n      pop\n      jump\t// out\n        /* \"#utility.yul\":6536:7045   */\n    tag_44:\n        /* \"#utility.yul\":6605:6611   */\n      0x00\n        /* \"#utility.yul\":6654:6656   */\n      0x20\n        /* \"#utility.yul\":6642:6651   */\n      dup3\n        /* \"#utility.yul\":6633:6640   */\n      dup5\n        /* \"#utility.yul\":6629:6652   */\n      sub\n        /* \"#utility.yul\":6625:6657   */\n      slt\n        /* \"#utility.yul\":6622:6741   */\n      iszero\n      tag_233\n      jumpi\n        /* \"#utility.yul\":6660:6739   */\n      tag_234\n      tag_103\n      jump\t// in\n    tag_234:\n        /* \"#utility.yul\":6622:6741   */\n    tag_233:\n        /* \"#utility.yul\":6808:6809   */\n      0x00\n        /* \"#utility.yul\":6797:6806   */\n      dup3\n        /* \"#utility.yul\":6793:6810   */\n      add\n        /* \"#utility.yul\":6780:6811   */\n      calldataload\n        /* \"#utility.yul\":6838:6856   */\n      0xffffffffffffffff\n        /* \"#utility.yul\":6830:6836   */\n      dup2\n        /* \"#utility.yul\":6827:6857   */\n      gt\n        /* \"#utility.yul\":6824:6941   */\n      iszero\n      tag_235\n      jumpi\n        /* \"#utility.yul\":6860:6939   */\n      tag_236\n      tag_104\n      jump\t// in\n    tag_236:\n        /* \"#utility.yul\":6824:6941   */\n    tag_235:\n        /* \"#utility.yul\":6965:7028   */\n      tag_237\n        /* \"#utility.yul\":7020:7027   */\n      dup5\n        /* \"#utility.yul\":7011:7017   */\n      dup3\n        /* \"#utility.yul\":7000:7009   */\n      dup6\n        /* \"#utility.yul\":6996:7018   */\n      add\n        /* \"#utility.yul\":6965:7028   */\n      tag_129\n      jump\t// in\n    tag_237:\n        /* \"#utility.yul\":6955:7028   */\n      swap2\n      pop\n        /* \"#utility.yul\":6751:7038   */\n      pop\n        /* \"#utility.yul\":6536:7045   */\n      swap3\n      swap2\n      pop\n      pop\n      jump\t// out\n        /* \"#utility.yul\":7051:7275   */\n    tag_130:\n        /* \"#utility.yul\":7191:7225   */\n      0x4f6e6c7920746865206f776e65722063616e2063616c6c20746869732066756e\n        /* \"#utility.yul\":7187:7188   */\n      0x00\n        /* \"#utility.yul\":7179:7185   */\n      dup3\n        /* \"#utility.yul\":7175:7189   */\n      add\n        /* \"#utility.yul\":7168:7226   */\n      mstore\n        /* \"#utility.yul\":7260:7267   */\n      0x6374696f6e000000000000000000000000000000000000000000000000000000\n        /* \"#utility.yul\":7255:7257   */\n      0x20\n        /* \"#utility.yul\":7247:7253   */\n      dup3\n        /* \"#utility.yul\":7243:7258   */\n      add\n        /* \"#utility.yul\":7236:7268   */\n      mstore\n        /* \"#utility.yul\":7051:7275   */\n      pop\n      jump\t// out\n        /* \"#utility.yul\":7281:7647   */\n    tag_131:\n        /* \"#utility.yul\":7423:7426   */\n      0x00\n        /* \"#utility.yul\":7444:7511   */\n      tag_240\n        /* \"#utility.yul\":7508:7510   */\n      0x25\n        /* \"#utility.yul\":7503:7506   */\n      dup4\n        /* \"#utility.yul\":7444:7511   */\n      tag_117\n      jump\t// in\n    tag_240:\n        /* \"#utility.yul\":7437:7511   */\n      swap2\n      pop\n        /* \"#utility.yul\":7520:7613   */\n      tag_241\n        /* \"#utility.yul\":7609:7612   */\n      dup3\n        /* \"#utility.yul\":7520:7613   */\n      tag_130\n      jump\t// in\n    tag_241:\n        /* \"#utility.yul\":7638:7640   */\n      0x40\n        /* \"#utility.yul\":7633:7636   */\n      dup3\n        /* \"#utility.yul\":7629:7641   */\n      add\n        /* \"#utility.yul\":7622:7641   */\n      swap1\n      pop\n        /* \"#utility.yul\":7281:7647   */\n      swap2\n      swap1\n      pop\n      jump\t// out\n        /* \"#utility.yul\":7653:8072   */\n    tag_49:\n        /* \"#utility.yul\":7819:7823   */\n      0x00\n        /* \"#utility.yul\":7857:7859   */\n      0x20\n        /* \"#utility.yul\":7846:7855   */\n      dup3\n        /* \"#utility.yul\":7842:7860   */\n      add\n        /* \"#utility.yul\":7834:7860   */\n      swap1\n      pop\n        /* \"#utility.yul\":7906:7915   */\n      dup2\n        /* \"#utility.yul\":7900:7904   */\n      dup2\n        /* \"#utility.yul\":7896:7916   */\n      sub\n        /* \"#utility.yul\":7892:7893   */\n      0x00\n        /* \"#utility.yul\":7881:7890   */\n      dup4\n        /* \"#utility.yul\":7877:7894   */\n      add\n        /* \"#utility.yul\":7870:7917   */\n      mstore\n        /* \"#utility.yul\":7934:8065   */\n      tag_243\n        /* \"#utility.yul\":8060:8064   */\n      dup2\n        /* \"#utility.yul\":7934:8065   */\n      tag_131\n      jump\t// in\n    tag_243:\n        /* \"#utility.yul\":7926:8065   */\n      swap1\n      pop\n        /* \"#utility.yul\":7653:8072   */\n      swap2\n      swap1\n      pop\n      jump\t// out\n        /* \"#utility.yul\":8078:8252   */\n    tag_132:\n        /* \"#utility.yul\":8218:8244   */\n      0x57696e6e6572206973206e6f7420796574207374617465640000000000000000\n        /* \"#utility.yul\":8214:8215   */\n      0x00\n        /* \"#utility.yul\":8206:8212   */\n      dup3\n        /* \"#utility.yul\":8202:8216   */\n      add\n        /* \"#utility.yul\":8195:8245   */\n      mstore\n        /* \"#utility.yul\":8078:8252   */\n      pop\n      jump\t// out\n        /* \"#utility.yul\":8258:8624   */\n    tag_133:\n        /* \"#utility.yul\":8400:8403   */\n      0x00\n        /* \"#utility.yul\":8421:8488   */\n      tag_246\n        /* \"#utility.yul\":8485:8487   */\n      0x18\n        /* \"#utility.yul\":8480:8483   */\n      dup4\n        /* \"#utility.yul\":8421:8488   */\n      tag_117\n      jump\t// in\n    tag_246:\n        /* \"#utility.yul\":8414:8488   */\n      swap2\n      pop\n        /* \"#utility.yul\":8497:8590   */\n      tag_247\n        /* \"#utility.yul\":8586:8589   */\n      dup3\n        /* \"#utility.yul\":8497:8590   */\n      tag_132\n      jump\t// in\n    tag_247:\n        /* \"#utility.yul\":8615:8617   */\n      0x20\n        /* \"#utility.yul\":8610:8613   */\n      dup3\n        /* \"#utility.yul\":8606:8618   */\n      add\n        /* \"#utility.yul\":8599:8618   */\n      swap1\n      pop\n        /* \"#utility.yul\":8258:8624   */\n      swap2\n      swap1\n      pop\n      jump\t// out\n        /* \"#utility.yul\":8630:9049   */\n    tag_53:\n        /* \"#utility.yul\":8796:8800   */\n      0x00\n        /* \"#utility.yul\":8834:8836   */\n      0x20\n        /* \"#utility.yul\":8823:8832   */\n      dup3\n        /* \"#utility.yul\":8819:8837   */\n      add\n        /* \"#utility.yul\":8811:8837   */\n      swap1\n      pop\n        /* \"#utility.yul\":8883:8892   */\n      dup2\n        /* \"#utility.yul\":8877:8881   */\n      dup2\n        /* \"#utility.yul\":8873:8893   */\n      sub\n        /* \"#utility.yul\":8869:8870   */\n      0x00\n        /* \"#utility.yul\":8858:8867   */\n      dup4\n        /* \"#utility.yul\":8854:8871   */\n      add\n        /* \"#utility.yul\":8847:8894   */\n      mstore\n        /* \"#utility.yul\":8911:9042   */\n      tag_249\n        /* \"#utility.yul\":9037:9041   */\n      dup2\n        /* \"#utility.yul\":8911:9042   */\n      tag_133\n      jump\t// in\n    tag_249:\n        /* \"#utility.yul\":8903:9042   */\n      swap1\n      pop\n        /* \"#utility.yul\":8630:9049   */\n      swap2\n      swap1\n      pop\n      jump\t// out\n        /* \"#utility.yul\":9055:9235   */\n    tag_59:\n        /* \"#utility.yul\":9103:9180   */\n      0x4e487b7100000000000000000000000000000000000000000000000000000000\n        /* \"#utility.yul\":9100:9101   */\n      0x00\n        /* \"#utility.yul\":9093:9181   */\n      mstore\n        /* \"#utility.yul\":9200:9204   */\n      0x32\n        /* \"#utility.yul\":9197:9198   */\n      0x04\n        /* \"#utility.yul\":9190:9205   */\n      mstore\n        /* \"#utility.yul\":9224:9228   */\n      0x24\n        /* \"#utility.yul\":9221:9222   */\n      0x00\n        /* \"#utility.yul\":9214:9229   */\n      revert\n        /* \"#utility.yul\":9241:9415   */\n    tag_134:\n        /* \"#utility.yul\":9381:9407   */\n      0x57696e6e657220697320616c7265616479207374617465640000000000000000\n        /* \"#utility.yul\":9377:9378   */\n      0x00\n        /* \"#utility.yul\":9369:9375   */\n      dup3\n        /* \"#utility.yul\":9365:9379   */\n      add\n        /* \"#utility.yul\":9358:9408   */\n      mstore\n        /* \"#utility.yul\":9241:9415   */\n      pop\n      jump\t// out\n        /* \"#utility.yul\":9421:9787   */\n    tag_135:\n        /* \"#utility.yul\":9563:9566   */\n      0x00\n        /* \"#utility.yul\":9584:9651   */\n      tag_253\n        /* \"#utility.yul\":9648:9650   */\n      0x18\n        /* \"#utility.yul\":9643:9646   */\n      dup4\n        /* \"#utility.yul\":9584:9651   */\n      tag_117\n      jump\t// in\n    tag_253:\n        /* \"#utility.yul\":9577:9651   */\n      swap2\n      pop\n        /* \"#utility.yul\":9660:9753   */\n      tag_254\n        /* \"#utility.yul\":9749:9752   */\n      dup3\n        /* \"#utility.yul\":9660:9753   */\n      tag_134\n      jump\t// in\n    tag_254:\n        /* \"#utility.yul\":9778:9780   */\n      0x20\n        /* \"#utility.yul\":9773:9776   */\n      dup3\n        /* \"#utility.yul\":9769:9781   */\n      add\n        /* \"#utility.yul\":9762:9781   */\n      swap1\n      pop\n        /* \"#utility.yul\":9421:9787   */\n      swap2\n      swap1\n      pop\n      jump\t// out\n        /* \"#utility.yul\":9793:10212   */\n    tag_75:\n        /* \"#utility.yul\":9959:9963   */\n      0x00\n        /* \"#utility.yul\":9997:9999   */\n      0x20\n        /* \"#utility.yul\":9986:9995   */\n      dup3\n        /* \"#utility.yul\":9982:10000   */\n      add\n        /* \"#utility.yul\":9974:10000   */\n      swap1\n      pop\n        /* \"#utility.yul\":10046:10055   */\n      dup2\n        /* \"#utility.yul\":10040:10044   */\n      dup2\n        /* \"#utility.yul\":10036:10056   */\n      sub\n        /* \"#utility.yul\":10032:10033   */\n      0x00\n        /* \"#utility.yul\":10021:10030   */\n      dup4\n        /* \"#utility.yul\":10017:10034   */\n      add\n        /* \"#utility.yul\":10010:10057   */\n      mstore\n        /* \"#utility.yul\":10074:10205   */\n      tag_256\n        /* \"#utility.yul\":10200:10204   */\n      dup2\n        /* \"#utility.yul\":10074:10205   */\n      tag_135\n      jump\t// in\n    tag_256:\n        /* \"#utility.yul\":10066:10205   */\n      swap1\n      pop\n        /* \"#utility.yul\":9793:10212   */\n      swap2\n      swap1\n      pop\n      jump\t// out\n        /* \"#utility.yul\":10218:10398   */\n    tag_136:\n        /* \"#utility.yul\":10266:10343   */\n      0x4e487b7100000000000000000000000000000000000000000000000000000000\n        /* \"#utility.yul\":10263:10264   */\n      0x00\n        /* \"#utility.yul\":10256:10344   */\n      mstore\n        /* \"#utility.yul\":10363:10367   */\n      0x11\n        /* \"#utility.yul\":10360:10361   */\n      0x04\n        /* \"#utility.yul\":10353:10368   */\n      mstore\n        /* \"#utility.yul\":10387:10391   */\n      0x24\n        /* \"#utility.yul\":10384:10385   */\n      0x00\n        /* \"#utility.yul\":10377:10392   */\n      revert\n        /* \"#utility.yul\":10404:10595   */\n    tag_77:\n        /* \"#utility.yul\":10444:10447   */\n      0x00\n        /* \"#utility.yul\":10463:10483   */\n      tag_259\n        /* \"#utility.yul\":10481:10482   */\n      dup3\n        /* \"#utility.yul\":10463:10483   */\n      tag_105\n      jump\t// in\n    tag_259:\n        /* \"#utility.yul\":10458:10483   */\n      swap2\n      pop\n        /* \"#utility.yul\":10497:10517   */\n      tag_260\n        /* \"#utility.yul\":10515:10516   */\n      dup4\n        /* \"#utility.yul\":10497:10517   */\n      tag_105\n      jump\t// in\n    tag_260:\n        /* \"#utility.yul\":10492:10517   */\n      swap3\n      pop\n        /* \"#utility.yul\":10540:10541   */\n      dup3\n        /* \"#utility.yul\":10537:10538   */\n      dup3\n        /* \"#utility.yul\":10533:10542   */\n      add\n        /* \"#utility.yul\":10526:10542   */\n      swap1\n      pop\n        /* \"#utility.yul\":10561:10564   */\n      dup1\n        /* \"#utility.yul\":10558:10559   */\n      dup3\n        /* \"#utility.yul\":10555:10565   */\n      gt\n        /* \"#utility.yul\":10552:10588   */\n      iszero\n      tag_261\n      jumpi\n        /* \"#utility.yul\":10568:10586   */\n      tag_262\n      tag_136\n      jump\t// in\n    tag_262:\n        /* \"#utility.yul\":10552:10588   */\n    tag_261:\n        /* \"#utility.yul\":10404:10595   */\n      swap3\n      swap2\n      pop\n      pop\n      jump\t// out\n        /* \"#utility.yul\":10601:10781   */\n    tag_137:\n        /* \"#utility.yul\":10649:10726   */\n      0x4e487b7100000000000000000000000000000000000000000000000000000000\n        /* \"#utility.yul\":10646:10647   */\n      0x00\n        /* \"#utility.yul\":10639:10727   */\n      mstore\n        /* \"#utility.yul\":10746:10750   */\n      0x22\n        /* \"#utility.yul\":10743:10744   */\n      0x04\n        /* \"#utility.yul\":10736:10751   */\n      mstore\n        /* \"#utility.yul\":10770:10774   */\n      0x24\n        /* \"#utility.yul\":10767:10768   */\n      0x00\n        /* \"#utility.yul\":10760:10775   */\n      revert\n        /* \"#utility.yul\":10787:11107   */\n    tag_84:\n        /* \"#utility.yul\":10831:10837   */\n      0x00\n        /* \"#utility.yul\":10868:10869   */\n      0x02\n        /* \"#utility.yul\":10862:10866   */\n      dup3\n        /* \"#utility.yul\":10858:10870   */\n      div\n        /* \"#utility.yul\":10848:10870   */\n      swap1\n      pop\n        /* \"#utility.yul\":10915:10916   */\n      0x01\n        /* \"#utility.yul\":10909:10913   */\n      dup3\n        /* \"#utility.yul\":10905:10917   */\n      and\n        /* \"#utility.yul\":10936:10954   */\n      dup1\n        /* \"#utility.yul\":10926:11007   */\n      tag_265\n      jumpi\n        /* \"#utility.yul\":10992:10996   */\n      0x7f\n        /* \"#utility.yul\":10984:10990   */\n      dup3\n        /* \"#utility.yul\":10980:10997   */\n      and\n        /* \"#utility.yul\":10970:10997   */\n      swap2\n      pop\n        /* \"#utility.yul\":10926:11007   */\n    tag_265:\n        /* \"#utility.yul\":11054:11056   */\n      0x20\n        /* \"#utility.yul\":11046:11052   */\n      dup3\n        /* \"#utility.yul\":11043:11057   */\n      lt\n        /* \"#utility.yul\":11023:11041   */\n      dup2\n        /* \"#utility.yul\":11020:11058   */\n      sub\n        /* \"#utility.yul\":11017:11101   */\n      tag_266\n      jumpi\n        /* \"#utility.yul\":11073:11091   */\n      tag_267\n      tag_137\n      jump\t// in\n    tag_267:\n        /* \"#utility.yul\":11017:11101   */\n    tag_266:\n        /* \"#utility.yul\":10838:11107   */\n      pop\n        /* \"#utility.yul\":10787:11107   */\n      swap2\n      swap1\n      pop\n      jump\t// out\n        /* \"#utility.yul\":11113:11254   */\n    tag_138:\n        /* \"#utility.yul\":11162:11166   */\n      0x00\n        /* \"#utility.yul\":11185:11188   */\n      dup2\n        /* \"#utility.yul\":11177:11188   */\n      swap1\n      pop\n        /* \"#utility.yul\":11208:11211   */\n      dup2\n        /* \"#utility.yul\":11205:11206   */\n      0x00\n        /* \"#utility.yul\":11198:11212   */\n      mstore\n        /* \"#utility.yul\":11242:11246   */\n      0x20\n        /* \"#utility.yul\":11239:11240   */\n      0x00\n        /* \"#utility.yul\":11229:11247   */\n      keccak256\n        /* \"#utility.yul\":11221:11247   */\n      swap1\n      pop\n        /* \"#utility.yul\":11113:11254   */\n      swap2\n      swap1\n      pop\n      jump\t// out\n        /* \"#utility.yul\":11260:11353   */\n    tag_139:\n        /* \"#utility.yul\":11297:11303   */\n      0x00\n        /* \"#utility.yul\":11344:11346   */\n      0x20\n        /* \"#utility.yul\":11339:11341   */\n      0x1f\n        /* \"#utility.yul\":11332:11337   */\n      dup4\n        /* \"#utility.yul\":11328:11342   */\n      add\n        /* \"#utility.yul\":11324:11347   */\n      div\n        /* \"#utility.yul\":11314:11347   */\n      swap1\n      pop\n        /* \"#utility.yul\":11260:11353   */\n      swap2\n      swap1\n      pop\n      jump\t// out\n        /* \"#utility.yul\":11359:11466   */\n    tag_140:\n        /* \"#utility.yul\":11403:11411   */\n      0x00\n        /* \"#utility.yul\":11453:11458   */\n      dup3\n        /* \"#utility.yul\":11447:11451   */\n      dup3\n        /* \"#utility.yul\":11443:11459   */\n      shl\n        /* \"#utility.yul\":11422:11459   */\n      swap1\n      pop\n        /* \"#utility.yul\":11359:11466   */\n      swap3\n      swap2\n      pop\n      pop\n      jump\t// out\n        /* \"#utility.yul\":11472:11865   */\n    tag_141:\n        /* \"#utility.yul\":11541:11547   */\n      0x00\n        /* \"#utility.yul\":11591:11592   */\n      0x08\n        /* \"#utility.yul\":11579:11589   */\n      dup4\n        /* \"#utility.yul\":11575:11593   */\n      mul\n        /* \"#utility.yul\":11614:11711   */\n      tag_272\n        /* \"#utility.yul\":11644:11710   */\n      0xffffffffffffffffffffffffffffffffffffffffffffffffffffffffffffffff\n        /* \"#utility.yul\":11633:11642   */\n      dup3\n        /* \"#utility.yul\":11614:11711   */\n      tag_140\n      jump\t// in\n    tag_272:\n        /* \"#utility.yul\":11732:11771   */\n      tag_273\n        /* \"#utility.yul\":11762:11770   */\n      dup7\n        /* \"#utility.yul\":11751:11760   */\n      dup4\n        /* \"#utility.yul\":11732:11771   */\n      tag_140\n      jump\t// in\n    tag_273:\n        /* \"#utility.yul\":11720:11771   */\n      swap6\n      pop\n        /* \"#utility.yul\":11804:11808   */\n      dup1\n        /* \"#utility.yul\":11800:11809   */\n      not\n        /* \"#utility.yul\":11793:11798   */\n      dup5\n        /* \"#utility.yul\":11789:11810   */\n      and\n        /* \"#utility.yul\":11780:11810   */\n      swap4\n      pop\n        /* \"#utility.yul\":11853:11857   */\n      dup1\n        /* \"#utility.yul\":11843:11851   */\n      dup7\n        /* \"#utility.yul\":11839:11858   */\n      and\n        /* \"#utility.yul\":11832:11837   */\n      dup5\n        /* \"#utility.yul\":11829:11859   */\n      or\n        /* \"#utility.yul\":11819:11859   */\n      swap3\n      pop\n        /* \"#utility.yul\":11548:11865   */\n      pop\n      pop\n        /* \"#utility.yul\":11472:11865   */\n      swap4\n      swap3\n      pop\n      pop\n      pop\n      jump\t// out\n        /* \"#utility.yul\":11871:11931   */\n    tag_142:\n        /* \"#utility.yul\":11899:11902   */\n      0x00\n        /* \"#utility.yul\":11920:11925   */\n      dup2\n        /* \"#utility.yul\":11913:11925   */\n      swap1\n      pop\n        /* \"#utility.yul\":11871:11931   */\n      swap2\n      swap1\n      pop\n      jump\t// out\n        /* \"#utility.yul\":11937:12079   */\n    tag_143:\n        /* \"#utility.yul\":11987:11996   */\n      0x00\n        /* \"#utility.yul\":12020:12073   */\n      tag_276\n        /* \"#utility.yul\":12038:12072   */\n      tag_277\n        /* \"#utility.yul\":12047:12071   */\n      tag_278\n        /* \"#utility.yul\":12065:12070   */\n      dup5\n        /* \"#utility.yul\":12047:12071   */\n      tag_105\n      jump\t// in\n    tag_278:\n        /* \"#utility.yul\":12038:12072   */\n      tag_142\n      jump\t// in\n    tag_277:\n        /* \"#utility.yul\":12020:12073   */\n      tag_105\n      jump\t// in\n    tag_276:\n        /* \"#utility.yul\":12007:12073   */\n      swap1\n      pop\n        /* \"#utility.yul\":11937:12079   */\n      swap2\n      swap1\n      pop\n      jump\t// out\n        /* \"#utility.yul\":12085:12160   */\n    tag_144:\n        /* \"#utility.yul\":12128:12131   */\n      0x00\n        /* \"#utility.yul\":12149:12154   */\n      dup2\n        /* \"#utility.yul\":12142:12154   */\n      swap1\n      pop\n        /* \"#utility.yul\":12085:12160   */\n      swap2\n      swap1\n      pop\n      jump\t// out\n        /* \"#utility.yul\":12166:12435   */\n    tag_145:\n        /* \"#utility.yul\":12276:12315   */\n      tag_281\n        /* \"#utility.yul\":12307:12314   */\n      dup4\n        /* \"#utility.yul\":12276:12315   */\n      tag_143\n      jump\t// in\n    tag_281:\n        /* \"#utility.yul\":12337:12428   */\n      tag_282\n        /* \"#utility.yul\":12386:12427   */\n      tag_283\n        /* \"#utility.yul\":12410:12426   */\n      dup3\n        /* \"#utility.yul\":12386:12427   */\n      tag_144\n      jump\t// in\n    tag_283:\n        /* \"#utility.yul\":12378:12384   */\n      dup5\n        /* \"#utility.yul\":12371:12375   */\n      dup5\n        /* \"#utility.yul\":12365:12376   */\n      sload\n        /* \"#utility.yul\":12337:12428   */\n      tag_141\n      jump\t// in\n    tag_282:\n        /* \"#utility.yul\":12331:12335   */\n      dup3\n        /* \"#utility.yul\":12324:12429   */\n      sstore\n        /* \"#utility.yul\":12242:12435   */\n      pop\n        /* \"#utility.yul\":12166:12435   */\n      pop\n      pop\n      pop\n      jump\t// out\n        /* \"#utility.yul\":12441:12514   */\n    tag_146:\n        /* \"#utility.yul\":12486:12489   */\n      0x00\n        /* \"#utility.yul\":12441:12514   */\n      swap1\n      jump\t// out\n        /* \"#utility.yul\":12520:12709   */\n    tag_147:\n        /* \"#utility.yul\":12597:12629   */\n      tag_286\n      tag_146\n      jump\t// in\n    tag_286:\n        /* \"#utility.yul\":12638:12703   */\n      tag_287\n        /* \"#utility.yul\":12696:12702   */\n      dup2\n        /* \"#utility.yul\":12688:12694   */\n      dup5\n        /* \"#utility.yul\":12682:12686   */\n      dup5\n        /* \"#utility.yul\":12638:12703   */\n      tag_145\n      jump\t// in\n    tag_287:\n        /* \"#utility.yul\":12573:12709   */\n      pop\n        /* \"#utility.yul\":12520:12709   */\n      pop\n      pop\n      jump\t// out\n        /* \"#utility.yul\":12715:12901   */\n    tag_148:\n        /* \"#utility.yul\":12775:12895   */\n    tag_289:\n        /* \"#utility.yul\":12792:12795   */\n      dup2\n        /* \"#utility.yul\":12785:12790   */\n      dup2\n        /* \"#utility.yul\":12782:12796   */\n      lt\n        /* \"#utility.yul\":12775:12895   */\n      iszero\n      tag_291\n      jumpi\n        /* \"#utility.yul\":12846:12885   */\n      tag_292\n        /* \"#utility.yul\":12883:12884   */\n      0x00\n        /* \"#utility.yul\":12876:12881   */\n      dup3\n        /* \"#utility.yul\":12846:12885   */\n      tag_147\n      jump\t// in\n    tag_292:\n        /* \"#utility.yul\":12819:12820   */\n      0x01\n        /* \"#utility.yul\":12812:12817   */\n      dup2\n        /* \"#utility.yul\":12808:12821   */\n      add\n        /* \"#utility.yul\":12799:12821   */\n      swap1\n      pop\n        /* \"#utility.yul\":12775:12895   */\n      jump(tag_289)\n    tag_291:\n        /* \"#utility.yul\":12715:12901   */\n      pop\n      pop\n      jump\t// out\n        /* \"#utility.yul\":12907:13450   */\n    tag_149:\n        /* \"#utility.yul\":13008:13010   */\n      0x1f\n        /* \"#utility.yul\":13003:13006   */\n      dup3\n        /* \"#utility.yul\":13000:13011   */\n      gt\n        /* \"#utility.yul\":12997:13443   */\n      iszero\n      tag_294\n      jumpi\n        /* \"#utility.yul\":13042:13080   */\n      tag_295\n        /* \"#utility.yul\":13074:13079   */\n      dup2\n        /* \"#utility.yul\":13042:13080   */\n      tag_138\n      jump\t// in\n    tag_295:\n        /* \"#utility.yul\":13126:13155   */\n      tag_296\n        /* \"#utility.yul\":13144:13154   */\n      dup5\n        /* \"#utility.yul\":13126:13155   */\n      tag_139\n      jump\t// in\n    tag_296:\n        /* \"#utility.yul\":13116:13124   */\n      dup2\n        /* \"#utility.yul\":13112:13156   */\n      add\n        /* \"#utility.yul\":13309:13311   */\n      0x20\n        /* \"#utility.yul\":13297:13307   */\n      dup6\n        /* \"#utility.yul\":13294:13312   */\n      lt\n        /* \"#utility.yul\":13291:13340   */\n      iszero\n      tag_297\n      jumpi\n        /* \"#utility.yul\":13330:13338   */\n      dup2\n        /* \"#utility.yul\":13315:13338   */\n      swap1\n      pop\n        /* \"#utility.yul\":13291:13340   */\n    tag_297:\n        /* \"#utility.yul\":13353:13433   */\n      tag_298\n        /* \"#utility.yul\":13409:13431   */\n      tag_299\n        /* \"#utility.yul\":13427:13430   */\n      dup6\n        /* \"#utility.yul\":13409:13431   */\n      tag_139\n      jump\t// in\n    tag_299:\n        /* \"#utility.yul\":13399:13407   */\n      dup4\n        /* \"#utility.yul\":13395:13432   */\n      add\n        /* \"#utility.yul\":13382:13393   */\n      dup3\n        /* \"#utility.yul\":13353:13433   */\n      tag_148\n      jump\t// in\n    tag_298:\n        /* \"#utility.yul\":13012:13443   */\n      pop\n      pop\n        /* \"#utility.yul\":12997:13443   */\n    tag_294:\n        /* \"#utility.yul\":12907:13450   */\n      pop\n      pop\n      pop\n      jump\t// out\n        /* \"#utility.yul\":13456:13573   */\n    tag_150:\n        /* \"#utility.yul\":13510:13518   */\n      0x00\n        /* \"#utility.yul\":13560:13565   */\n      dup3\n        /* \"#utility.yul\":13554:13558   */\n      dup3\n        /* \"#utility.yul\":13550:13566   */\n      shr\n        /* \"#utility.yul\":13529:13566   */\n      swap1\n      pop\n        /* \"#utility.yul\":13456:13573   */\n      swap3\n      swap2\n      pop\n      pop\n      jump\t// out\n        /* \"#utility.yul\":13579:13748   */\n    tag_151:\n        /* \"#utility.yul\":13623:13629   */\n      0x00\n        /* \"#utility.yul\":13656:13707   */\n      tag_302\n        /* \"#utility.yul\":13704:13705   */\n      0x00\n        /* \"#utility.yul\":13700:13706   */\n      not\n        /* \"#utility.yul\":13692:13697   */\n      dup5\n        /* \"#utility.yul\":13689:13690   */\n      0x08\n        /* \"#utility.yul\":13685:13698   */\n      mul\n        /* \"#utility.yul\":13656:13707   */\n      tag_150\n      jump\t// in\n    tag_302:\n        /* \"#utility.yul\":13652:13708   */\n      not\n        /* \"#utility.yul\":13737:13741   */\n      dup1\n        /* \"#utility.yul\":13731:13735   */\n      dup4\n        /* \"#utility.yul\":13727:13742   */\n      and\n        /* \"#utility.yul\":13717:13742   */\n      swap2\n      pop\n        /* \"#utility.yul\":13630:13748   */\n      pop\n        /* \"#utility.yul\":13579:13748   */\n      swap3\n      swap2\n      pop\n      pop\n      jump\t// out\n        /* \"#utility.yul\":13753:14048   */\n    tag_152:\n        /* \"#utility.yul\":13829:13833   */\n      0x00\n        /* \"#utility.yul\":13975:14004   */\n      tag_304\n        /* \"#utility.yul\":14000:14003   */\n      dup4\n        /* \"#utility.yul\":13994:13998   */\n      dup4\n        /* \"#utility.yul\":13975:14004   */\n      tag_151\n      jump\t// in\n    tag_304:\n        /* \"#utility.yul\":13967:14004   */\n      swap2\n      pop\n        /* \"#utility.yul\":14037:14040   */\n      dup3\n        /* \"#utility.yul\":14034:14035   */\n      0x02\n        /* \"#utility.yul\":14030:14041   */\n      mul\n        /* \"#utility.yul\":14024:14028   */\n      dup3\n        /* \"#utility.yul\":14021:14042   */\n      or\n        /* \"#utility.yul\":14013:14042   */\n      swap1\n      pop\n        /* \"#utility.yul\":13753:14048   */\n      swap3\n      swap2\n      pop\n      pop\n      jump\t// out\n        /* \"#utility.yul\":14053:15448   */\n    tag_94:\n        /* \"#utility.yul\":14170:14207   */\n      tag_306\n        /* \"#utility.yul\":14203:14206   */\n      dup3\n        /* \"#utility.yul\":14170:14207   */\n      tag_116\n      jump\t// in\n    tag_306:\n        /* \"#utility.yul\":14272:14290   */\n      0xffffffffffffffff\n        /* \"#utility.yul\":14264:14270   */\n      dup2\n        /* \"#utility.yul\":14261:14291   */\n      gt\n        /* \"#utility.yul\":14258:14314   */\n      iszero\n      tag_307\n      jumpi\n        /* \"#utility.yul\":14294:14312   */\n      tag_308\n      tag_123\n      jump\t// in\n    tag_308:\n        /* \"#utility.yul\":14258:14314   */\n    tag_307:\n        /* \"#utility.yul\":14338:14376   */\n      tag_309\n        /* \"#utility.yul\":14370:14374   */\n      dup3\n        /* \"#utility.yul\":14364:14375   */\n      sload\n        /* \"#utility.yul\":14338:14376   */\n      tag_84\n      jump\t// in\n    tag_309:\n        /* \"#utility.yul\":14423:14490   */\n      tag_310\n        /* \"#utility.yul\":14483:14489   */\n      dup3\n        /* \"#utility.yul\":14475:14481   */\n      dup3\n        /* \"#utility.yul\":14469:14473   */\n      dup6\n        /* \"#utility.yul\":14423:14490   */\n      tag_149\n      jump\t// in\n    tag_310:\n        /* \"#utility.yul\":14517:14518   */\n      0x00\n        /* \"#utility.yul\":14541:14545   */\n      0x20\n        /* \"#utility.yul\":14528:14545   */\n      swap1\n      pop\n        /* \"#utility.yul\":14573:14575   */\n      0x1f\n        /* \"#utility.yul\":14565:14571   */\n      dup4\n        /* \"#utility.yul\":14562:14576   */\n      gt\n        /* \"#utility.yul\":14590:14591   */\n      0x01\n        /* \"#utility.yul\":14585:15203   */\n      dup2\n      eq\n      tag_312\n      jumpi\n        /* \"#utility.yul\":15247:15248   */\n      0x00\n        /* \"#utility.yul\":15264:15270   */\n      dup5\n        /* \"#utility.yul\":15261:15338   */\n      iszero\n      tag_313\n      jumpi\n        /* \"#utility.yul\":15313:15322   */\n      dup3\n        /* \"#utility.yul\":15308:15311   */\n      dup8\n        /* \"#utility.yul\":15304:15323   */\n      add\n        /* \"#utility.yul\":15298:15324   */\n      mload\n        /* \"#utility.yul\":15289:15324   */\n      swap1\n      pop\n        /* \"#utility.yul\":15261:15338   */\n    tag_313:\n        /* \"#utility.yul\":15364:15431   */\n      tag_314\n        /* \"#utility.yul\":15424:15430   */\n      dup6\n        /* \"#utility.yul\":15417:15422   */\n      dup3\n        /* \"#utility.yul\":15364:15431   */\n      tag_152\n      jump\t// in\n    tag_314:\n        /* \"#utility.yul\":15358:15362   */\n      dup7\n        /* \"#utility.yul\":15351:15432   */\n      sstore\n        /* \"#utility.yul\":15220:15442   */\n      pop\n        /* \"#utility.yul\":14555:15442   */\n      jump(tag_311)\n        /* \"#utility.yul\":14585:15203   */\n    tag_312:\n        /* \"#utility.yul\":14637:14641   */\n      0x1f\n        /* \"#utility.yul\":14633:14642   */\n      not\n        /* \"#utility.yul\":14625:14631   */\n      dup5\n        /* \"#utility.yul\":14621:14643   */\n      and\n        /* \"#utility.yul\":14671:14708   */\n      tag_315\n        /* \"#utility.yul\":14703:14707   */\n      dup7\n        /* \"#utility.yul\":14671:14708   */\n      tag_138\n      jump\t// in\n    tag_315:\n        /* \"#utility.yul\":14730:14731   */\n      0x00\n        /* \"#utility.yul\":14744:14952   */\n    tag_316:\n        /* \"#utility.yul\":14758:14765   */\n      dup3\n        /* \"#utility.yul\":14755:14756   */\n      dup2\n        /* \"#utility.yul\":14752:14766   */\n      lt\n        /* \"#utility.yul\":14744:14952   */\n      iszero\n      tag_318\n      jumpi\n        /* \"#utility.yul\":14837:14846   */\n      dup5\n        /* \"#utility.yul\":14832:14835   */\n      dup10\n        /* \"#utility.yul\":14828:14847   */\n      add\n        /* \"#utility.yul\":14822:14848   */\n      mload\n        /* \"#utility.yul\":14814:14820   */\n      dup3\n        /* \"#utility.yul\":14807:14849   */\n      sstore\n        /* \"#utility.yul\":14888:14889   */\n      0x01\n        /* \"#utility.yul\":14880:14886   */\n      dup3\n        /* \"#utility.yul\":14876:14890   */\n      add\n        /* \"#utility.yul\":14866:14890   */\n      swap2\n      pop\n        /* \"#utility.yul\":14935:14937   */\n      0x20\n        /* \"#utility.yul\":14924:14933   */\n      dup6\n        /* \"#utility.yul\":14920:14938   */\n      add\n        /* \"#utility.yul\":14907:14938   */\n      swap5\n      pop\n        /* \"#utility.yul\":14781:14785   */\n      0x20\n        /* \"#utility.yul\":14778:14779   */\n      dup2\n        /* \"#utility.yul\":14774:14786   */\n      add\n        /* \"#utility.yul\":14769:14786   */\n      swap1\n      pop\n        /* \"#utility.yul\":14744:14952   */\n      jump(tag_316)\n    tag_318:\n        /* \"#utility.yul\":14980:14986   */\n      dup7\n        /* \"#utility.yul\":14971:14978   */\n      dup4\n        /* \"#utility.yul\":14968:14987   */\n      lt\n        /* \"#utility.yul\":14965:15144   */\n      iszero\n      tag_319\n      jumpi\n        /* \"#utility.yul\":15038:15047   */\n      dup5\n        /* \"#utility.yul\":15033:15036   */\n      dup10\n        /* \"#utility.yul\":15029:15048   */\n      add\n        /* \"#utility.yul\":15023:15049   */\n      mload\n        /* \"#utility.yul\":15081:15129   */\n      tag_320\n        /* \"#utility.yul\":15123:15127   */\n      0x1f\n        /* \"#utility.yul\":15115:15121   */\n      dup10\n        /* \"#utility.yul\":15111:15128   */\n      and\n        /* \"#utility.yul\":15100:15109   */\n      dup3\n        /* \"#utility.yul\":15081:15129   */\n      tag_151\n      jump\t// in\n    tag_320:\n        /* \"#utility.yul\":15073:15079   */\n      dup4\n        /* \"#utility.yul\":15066:15130   */\n      sstore\n        /* \"#utility.yul\":14988:15144   */\n      pop\n        /* \"#utility.yul\":14965:15144   */\n    tag_319:\n        /* \"#utility.yul\":15190:15191   */\n      0x01\n        /* \"#utility.yul\":15186:15187   */\n      0x02\n        /* \"#utility.yul\":15178:15184   */\n      dup9\n        /* \"#utility.yul\":15174:15188   */\n      mul\n        /* \"#utility.yul\":15170:15192   */\n      add\n        /* \"#utility.yul\":15164:15168   */\n      dup9\n        /* \"#utility.yul\":15157:15193   */\n      sstore\n        /* \"#utility.yul\":14592:15203   */\n      pop\n      pop\n      pop\n        /* \"#utility.yul\":14555:15442   */\n    tag_311:\n      pop\n        /* \"#utility.yul\":14145:15448   */\n      pop\n      pop\n      pop\n        /* \"#utility.yul\":14053:15448   */\n      pop\n      pop\n      jump\t// out\n\n    auxdata: 0xa2646970667358221220c1b4f919d1519cdfbf0a24e0182ddd036b513a8379a6c8bf0850c8cfb434e30e64736f6c63430008160033\n}\n",
				"bytecode": {
					"linkReferences": {},
					"object": "60806040525f600155348015610013575f80fd5b50335f806101000a81548173ffffffffffffffffffffffffffffffffffffffff021916908373ffffffffffffffffffffffffffffffffffffffff160217905550611142806100605f395ff3fe60806040526004361061007a575f3560e01c806385c482071161004d57806385c48207146100f85780638da5cb5b14610120578063c3fe3e281461014a578063e89826ac146101755761007a565b806314034bd21461007e5780631a9a01fb1461008857806322af00fa1461009e57806374061a93146100dc575b5f80fd5b61008661019d565b005b348015610093575f80fd5b5061009c6103b4565b005b3480156100a9575f80fd5b506100c460048036038101906100bf91906108f6565b610469565b6040516100d39392919061098a565b60405180910390f35b6100f660048036038101906100f191906109e9565b6104c9565b005b348015610103575f80fd5b5061011e600480360381019061011991906109e9565b610606565b005b34801561012b575f80fd5b506101346106b3565b6040516101419190610a14565b60405180910390f35b348015610155575f80fd5b5061015e6106d6565b60405161016c929190610ab7565b60405180910390f35b348015610180575f80fd5b5061019b60048036038101906101969190610c11565b610779565b005b5f8054906101000a900473ffffffffffffffffffffffffffffffffffffffff1673ffffffffffffffffffffffffffffffffffffffff163373ffffffffffffffffffffffffffffffffffffffff161461022a576040517f08c379a000000000000000000000000000000000000000000000000000000000815260040161022190610cc8565b60405180910390fd5b5f60026001015f9054906101000a900460ff1660ff1603610280576040517f08c379a000000000000000000000000000000000000000000000000000000000815260040161027790610d30565b60405180910390fd5b5f5b6004805490508110156103b1575f600482815481106102a4576102a3610d4e565b5b905f5260205f2090600202016040518060600160405290815f82015f9054906101000a900473ffffffffffffffffffffffffffffffffffffffff1673ffffffffffffffffffffffffffffffffffffffff1673ffffffffffffffffffffffffffffffffffffffff1681526020015f820160149054906101000a900460ff1660ff1660ff168152602001600182015481525050905060026001015f9054906101000a900460ff1660ff16816020015160ff16036103a357805f015173ffffffffffffffffffffffffffffffffffffffff166108fc60015490811502906040515f60405180830381858888f193505050501580156103a1573d5f803e3d5ffd5b505b508080600101915050610282565b50565b5f8054906101000a900473ffffffffffffffffffffffffffffffffffffffff1673ffffffffffffffffffffffffffffffffffffffff163373ffffffffffffffffffffffffffffffffffffffff1614610441576040517f08c379a000000000000000000000000000000000000000000000000000000000815260040161043890610cc8565b60405180910390fd5b60025f8082015f610452919061085a565b600182015f6101000a81549060ff02191690555050565b60048181548110610478575f80fd5b905f5260205f2090600202015f91509050805f015f9054906101000a900473ffffffffffffffffffffffffffffffffffffffff1690805f0160149054906101000a900460ff16908060010154905083565b5f60026001015f9054906101000a900460ff1660ff161461051f576040517f08c379a000000000000000000000000000000000000000000000000000000000815260040161051690610dc5565b60405180910390fd5b3460015f8282546105309190610e10565b92505081905550600460405180606001604052803373ffffffffffffffffffffffffffffffffffffffff1681526020018360ff16815260200134815250908060018154018082558091505060019003905f5260205f2090600202015f909190919091505f820151815f015f6101000a81548173ffffffffffffffffffffffffffffffffffffffff021916908373ffffffffffffffffffffffffffffffffffffffff1602179055506020820151815f0160146101000a81548160ff021916908360ff16021790555060408201518160010155505050565b5f8054906101000a900473ffffffffffffffffffffffffffffffffffffffff1673ffffffffffffffffffffffffffffffffffffffff163373ffffffffffffffffffffffffffffffffffffffff1614610693576040517f08c379a000000000000000000000000000000000000000000000000000000000815260040161068a90610cc8565b60405180910390fd5b8060026001015f6101000a81548160ff021916908360ff16021790555050565b5f8054906101000a900473ffffffffffffffffffffffffffffffffffffffff1681565b6002805f0180546106e690610e70565b80601f016020809104026020016040519081016040528092919081815260200182805461071290610e70565b801561075d5780601f106107345761010080835404028352916020019161075d565b820191905f5260205f20905b81548152906001019060200180831161074057829003601f168201915b505050505090806001015f9054906101000a900460ff16905082565b5f8054906101000a900473ffffffffffffffffffffffffffffffffffffffff1673ffffffffffffffffffffffffffffffffffffffff163373ffffffffffffffffffffffffffffffffffffffff1614610806576040517f08c379a00000000000000000000000000000000000000000000000000000000081526004016107fd90610cc8565b60405180910390fd5b60405180604001604052808281526020015f60ff1681525060025f820151815f019081610833919061103d565b506020820151816001015f6101000a81548160ff021916908360ff16021790555090505050565b50805461086690610e70565b5f825580601f106108775750610894565b601f0160209004905f5260205f20908101906108939190610897565b5b50565b5b808211156108ae575f815f905550600101610898565b5090565b5f604051905090565b5f80fd5b5f80fd5b5f819050919050565b6108d5816108c3565b81146108df575f80fd5b50565b5f813590506108f0816108cc565b92915050565b5f6020828403121561090b5761090a6108bb565b5b5f610918848285016108e2565b91505092915050565b5f73ffffffffffffffffffffffffffffffffffffffff82169050919050565b5f61094a82610921565b9050919050565b61095a81610940565b82525050565b5f60ff82169050919050565b61097581610960565b82525050565b610984816108c3565b82525050565b5f60608201905061099d5f830186610951565b6109aa602083018561096c565b6109b7604083018461097b565b949350505050565b6109c881610960565b81146109d2575f80fd5b50565b5f813590506109e3816109bf565b92915050565b5f602082840312156109fe576109fd6108bb565b5b5f610a0b848285016109d5565b91505092915050565b5f602082019050610a275f830184610951565b92915050565b5f81519050919050565b5f82825260208201905092915050565b5f5b83811015610a64578082015181840152602081019050610a49565b5f8484015250505050565b5f601f19601f8301169050919050565b5f610a8982610a2d565b610a938185610a37565b9350610aa3818560208601610a47565b610aac81610a6f565b840191505092915050565b5f6040820190508181035f830152610acf8185610a7f565b9050610ade602083018461096c565b9392505050565b5f80fd5b5f80fd5b7f4e487b71000000000000000000000000000000000000000000000000000000005f52604160045260245ffd5b610b2382610a6f565b810181811067ffffffffffffffff82111715610b4257610b41610aed565b5b80604052505050565b5f610b546108b2565b9050610b608282610b1a565b919050565b5f67ffffffffffffffff821115610b7f57610b7e610aed565b5b610b8882610a6f565b9050602081019050919050565b828183375f83830152505050565b5f610bb5610bb084610b65565b610b4b565b905082815260208101848484011115610bd157610bd0610ae9565b5b610bdc848285610b95565b509392505050565b5f82601f830112610bf857610bf7610ae5565b5b8135610c08848260208601610ba3565b91505092915050565b5f60208284031215610c2657610c256108bb565b5b5f82013567ffffffffffffffff811115610c4357610c426108bf565b5b610c4f84828501610be4565b91505092915050565b7f4f6e6c7920746865206f776e65722063616e2063616c6c20746869732066756e5f8201527f6374696f6e000000000000000000000000000000000000000000000000000000602082015250565b5f610cb2602583610a37565b9150610cbd82610c58565b604082019050919050565b5f6020820190508181035f830152610cdf81610ca6565b9050919050565b7f57696e6e6572206973206e6f74207965742073746174656400000000000000005f82015250565b5f610d1a601883610a37565b9150610d2582610ce6565b602082019050919050565b5f6020820190508181035f830152610d4781610d0e565b9050919050565b7f4e487b71000000000000000000000000000000000000000000000000000000005f52603260045260245ffd5b7f57696e6e657220697320616c72656164792073746174656400000000000000005f82015250565b5f610daf601883610a37565b9150610dba82610d7b565b602082019050919050565b5f6020820190508181035f830152610ddc81610da3565b9050919050565b7f4e487b71000000000000000000000000000000000000000000000000000000005f52601160045260245ffd5b5f610e1a826108c3565b9150610e25836108c3565b9250828201905080821115610e3d57610e3c610de3565b5b92915050565b7f4e487b71000000000000000000000000000000000000000000000000000000005f52602260045260245ffd5b5f6002820490506001821680610e8757607f821691505b602082108103610e9a57610e99610e43565b5b50919050565b5f819050815f5260205f209050919050565b5f6020601f8301049050919050565b5f82821b905092915050565b5f60088302610efc7fffffffffffffffffffffffffffffffffffffffffffffffffffffffffffffffff82610ec1565b610f068683610ec1565b95508019841693508086168417925050509392505050565b5f819050919050565b5f610f41610f3c610f37846108c3565b610f1e565b6108c3565b9050919050565b5f819050919050565b610f5a83610f27565b610f6e610f6682610f48565b848454610ecd565b825550505050565b5f90565b610f82610f76565b610f8d818484610f51565b505050565b5b81811015610fb057610fa55f82610f7a565b600181019050610f93565b5050565b601f821115610ff557610fc681610ea0565b610fcf84610eb2565b81016020851015610fde578190505b610ff2610fea85610eb2565b830182610f92565b50505b505050565b5f82821c905092915050565b5f6110155f1984600802610ffa565b1980831691505092915050565b5f61102d8383611006565b9150826002028217905092915050565b61104682610a2d565b67ffffffffffffffff81111561105f5761105e610aed565b5b6110698254610e70565b611074828285610fb4565b5f60209050601f8311600181146110a5575f8415611093578287015190505b61109d8582611022565b865550611104565b601f1984166110b386610ea0565b5f5b828110156110da578489015182556001820191506020850194506020810190506110b5565b868310156110f757848901516110f3601f891682611006565b8355505b6001600288020188555050505b50505050505056fea2646970667358221220c1b4f919d1519cdfbf0a24e0182ddd036b513a8379a6c8bf0850c8cfb434e30e64736f6c63430008160033",
					"opcodes": "PUSH1 0x80 PUSH1 0x40 MSTORE PUSH0 PUSH1 0x1 SSTORE CALLVALUE DUP1 ISZERO PUSH2 0x13 JUMPI PUSH0 DUP1 REVERT JUMPDEST POP CALLER PUSH0 DUP1 PUSH2 0x100 EXP DUP2 SLOAD DUP2 PUSH20 0xFFFFFFFFFFFFFFFFFFFFFFFFFFFFFFFFFFFFFFFF MUL NOT AND SWAP1 DUP4 PUSH20 0xFFFFFFFFFFFFFFFFFFFFFFFFFFFFFFFFFFFFFFFF AND MUL OR SWAP1 SSTORE POP PUSH2 0x1142 DUP1 PUSH2 0x60 PUSH0 CODECOPY PUSH0 RETURN INVALID PUSH1 0x80 PUSH1 0x40 MSTORE PUSH1 0x4 CALLDATASIZE LT PUSH2 0x7A JUMPI PUSH0 CALLDATALOAD PUSH1 0xE0 SHR DUP1 PUSH4 0x85C48207 GT PUSH2 0x4D JUMPI DUP1 PUSH4 0x85C48207 EQ PUSH2 0xF8 JUMPI DUP1 PUSH4 0x8DA5CB5B EQ PUSH2 0x120 JUMPI DUP1 PUSH4 0xC3FE3E28 EQ PUSH2 0x14A JUMPI DUP1 PUSH4 0xE89826AC EQ PUSH2 0x175 JUMPI PUSH2 0x7A JUMP JUMPDEST DUP1 PUSH4 0x14034BD2 EQ PUSH2 0x7E JUMPI DUP1 PUSH4 0x1A9A01FB EQ PUSH2 0x88 JUMPI DUP1 PUSH4 0x22AF00FA EQ PUSH2 0x9E JUMPI DUP1 PUSH4 0x74061A93 EQ PUSH2 0xDC JUMPI JUMPDEST PUSH0 DUP1 REVERT JUMPDEST PUSH2 0x86 PUSH2 0x19D JUMP JUMPDEST STOP JUMPDEST CALLVALUE DUP1 ISZERO PUSH2 0x93 JUMPI PUSH0 DUP1 REVERT JUMPDEST POP PUSH2 0x9C PUSH2 0x3B4 JUMP JUMPDEST STOP JUMPDEST CALLVALUE DUP1 ISZERO PUSH2 0xA9 JUMPI PUSH0 DUP1 REVERT JUMPDEST POP PUSH2 0xC4 PUSH1 0x4 DUP1 CALLDATASIZE SUB DUP2 ADD SWAP1 PUSH2 0xBF SWAP2 SWAP1 PUSH2 0x8F6 JUMP JUMPDEST PUSH2 0x469 JUMP JUMPDEST PUSH1 0x40 MLOAD PUSH2 0xD3 SWAP4 SWAP3 SWAP2 SWAP1 PUSH2 0x98A JUMP JUMPDEST PUSH1 0x40 MLOAD DUP1 SWAP2 SUB SWAP1 RETURN JUMPDEST PUSH2 0xF6 PUSH1 0x4 DUP1 CALLDATASIZE SUB DUP2 ADD SWAP1 PUSH2 0xF1 SWAP2 SWAP1 PUSH2 0x9E9 JUMP JUMPDEST PUSH2 0x4C9 JUMP JUMPDEST STOP JUMPDEST CALLVALUE DUP1 ISZERO PUSH2 0x103 JUMPI PUSH0 DUP1 REVERT JUMPDEST POP PUSH2 0x11E PUSH1 0x4 DUP1 CALLDATASIZE SUB DUP2 ADD SWAP1 PUSH2 0x119 SWAP2 SWAP1 PUSH2 0x9E9 JUMP JUMPDEST PUSH2 0x606 JUMP JUMPDEST STOP JUMPDEST CALLVALUE DUP1 ISZERO PUSH2 0x12B JUMPI PUSH0 DUP1 REVERT JUMPDEST POP PUSH2 0x134 PUSH2 0x6B3 JUMP JUMPDEST PUSH1 0x40 MLOAD PUSH2 0x141 SWAP2 SWAP1 PUSH2 0xA14 JUMP JUMPDEST PUSH1 0x40 MLOAD DUP1 SWAP2 SUB SWAP1 RETURN JUMPDEST CALLVALUE DUP1 ISZERO PUSH2 0x155 JUMPI PUSH0 DUP1 REVERT JUMPDEST POP PUSH2 0x15E PUSH2 0x6D6 JUMP JUMPDEST PUSH1 0x40 MLOAD PUSH2 0x16C SWAP3 SWAP2 SWAP1 PUSH2 0xAB7 JUMP JUMPDEST PUSH1 0x40 MLOAD DUP1 SWAP2 SUB SWAP1 RETURN JUMPDEST CALLVALUE DUP1 ISZERO PUSH2 0x180 JUMPI PUSH0 DUP1 REVERT JUMPDEST POP PUSH2 0x19B PUSH1 0x4 DUP1 CALLDATASIZE SUB DUP2 ADD SWAP1 PUSH2 0x196 SWAP2 SWAP1 PUSH2 0xC11 JUMP JUMPDEST PUSH2 0x779 JUMP JUMPDEST STOP JUMPDEST PUSH0 DUP1 SLOAD SWAP1 PUSH2 0x100 EXP SWAP1 DIV PUSH20 0xFFFFFFFFFFFFFFFFFFFFFFFFFFFFFFFFFFFFFFFF AND PUSH20 0xFFFFFFFFFFFFFFFFFFFFFFFFFFFFFFFFFFFFFFFF AND CALLER PUSH20 0xFFFFFFFFFFFFFFFFFFFFFFFFFFFFFFFFFFFFFFFF AND EQ PUSH2 0x22A JUMPI PUSH1 0x40 MLOAD PUSH32 0x8C379A000000000000000000000000000000000000000000000000000000000 DUP2 MSTORE PUSH1 0x4 ADD PUSH2 0x221 SWAP1 PUSH2 0xCC8 JUMP JUMPDEST PUSH1 0x40 MLOAD DUP1 SWAP2 SUB SWAP1 REVERT JUMPDEST PUSH0 PUSH1 0x2 PUSH1 0x1 ADD PUSH0 SWAP1 SLOAD SWAP1 PUSH2 0x100 EXP SWAP1 DIV PUSH1 0xFF AND PUSH1 0xFF AND SUB PUSH2 0x280 JUMPI PUSH1 0x40 MLOAD PUSH32 0x8C379A000000000000000000000000000000000000000000000000000000000 DUP2 MSTORE PUSH1 0x4 ADD PUSH2 0x277 SWAP1 PUSH2 0xD30 JUMP JUMPDEST PUSH1 0x40 MLOAD DUP1 SWAP2 SUB SWAP1 REVERT JUMPDEST PUSH0 JUMPDEST PUSH1 0x4 DUP1 SLOAD SWAP1 POP DUP2 LT ISZERO PUSH2 0x3B1 JUMPI PUSH0 PUSH1 0x4 DUP3 DUP2 SLOAD DUP2 LT PUSH2 0x2A4 JUMPI PUSH2 0x2A3 PUSH2 0xD4E JUMP JUMPDEST JUMPDEST SWAP1 PUSH0 MSTORE PUSH1 0x20 PUSH0 KECCAK256 SWAP1 PUSH1 0x2 MUL ADD PUSH1 0x40 MLOAD DUP1 PUSH1 0x60 ADD PUSH1 0x40 MSTORE SWAP1 DUP2 PUSH0 DUP3 ADD PUSH0 SWAP1 SLOAD SWAP1 PUSH2 0x100 EXP SWAP1 DIV PUSH20 0xFFFFFFFFFFFFFFFFFFFFFFFFFFFFFFFFFFFFFFFF AND PUSH20 0xFFFFFFFFFFFFFFFFFFFFFFFFFFFFFFFFFFFFFFFF AND PUSH20 0xFFFFFFFFFFFFFFFFFFFFFFFFFFFFFFFFFFFFFFFF AND DUP2 MSTORE PUSH1 0x20 ADD PUSH0 DUP3 ADD PUSH1 0x14 SWAP1 SLOAD SWAP1 PUSH2 0x100 EXP SWAP1 DIV PUSH1 0xFF AND PUSH1 0xFF AND PUSH1 0xFF AND DUP2 MSTORE PUSH1 0x20 ADD PUSH1 0x1 DUP3 ADD SLOAD DUP2 MSTORE POP POP SWAP1 POP PUSH1 0x2 PUSH1 0x1 ADD PUSH0 SWAP1 SLOAD SWAP1 PUSH2 0x100 EXP SWAP1 DIV PUSH1 0xFF AND PUSH1 0xFF AND DUP2 PUSH1 0x20 ADD MLOAD PUSH1 0xFF AND SUB PUSH2 0x3A3 JUMPI DUP1 PUSH0 ADD MLOAD PUSH20 0xFFFFFFFFFFFFFFFFFFFFFFFFFFFFFFFFFFFFFFFF AND PUSH2 0x8FC PUSH1 0x1 SLOAD SWAP1 DUP2 ISZERO MUL SWAP1 PUSH1 0x40 MLOAD PUSH0 PUSH1 0x40 MLOAD DUP1 DUP4 SUB DUP2 DUP6 DUP9 DUP9 CALL SWAP4 POP POP POP POP ISZERO DUP1 ISZERO PUSH2 0x3A1 JUMPI RETURNDATASIZE PUSH0 DUP1 RETURNDATACOPY RETURNDATASIZE PUSH0 REVERT JUMPDEST POP JUMPDEST POP DUP1 DUP1 PUSH1 0x1 ADD SWAP2 POP POP PUSH2 0x282 JUMP JUMPDEST POP JUMP JUMPDEST PUSH0 DUP1 SLOAD SWAP1 PUSH2 0x100 EXP SWAP1 DIV PUSH20 0xFFFFFFFFFFFFFFFFFFFFFFFFFFFFFFFFFFFFFFFF AND PUSH20 0xFFFFFFFFFFFFFFFFFFFFFFFFFFFFFFFFFFFFFFFF AND CALLER PUSH20 0xFFFFFFFFFFFFFFFFFFFFFFFFFFFFFFFFFFFFFFFF AND EQ PUSH2 0x441 JUMPI PUSH1 0x40 MLOAD PUSH32 0x8C379A000000000000000000000000000000000000000000000000000000000 DUP2 MSTORE PUSH1 0x4 ADD PUSH2 0x438 SWAP1 PUSH2 0xCC8 JUMP JUMPDEST PUSH1 0x40 MLOAD DUP1 SWAP2 SUB SWAP1 REVERT JUMPDEST PUSH1 0x2 PUSH0 DUP1 DUP3 ADD PUSH0 PUSH2 0x452 SWAP2 SWAP1 PUSH2 0x85A JUMP JUMPDEST PUSH1 0x1 DUP3 ADD PUSH0 PUSH2 0x100 EXP DUP2 SLOAD SWAP1 PUSH1 0xFF MUL NOT AND SWAP1 SSTORE POP POP JUMP JUMPDEST PUSH1 0x4 DUP2 DUP2 SLOAD DUP2 LT PUSH2 0x478 JUMPI PUSH0 DUP1 REVERT JUMPDEST SWAP1 PUSH0 MSTORE PUSH1 0x20 PUSH0 KECCAK256 SWAP1 PUSH1 0x2 MUL ADD PUSH0 SWAP2 POP SWAP1 POP DUP1 PUSH0 ADD PUSH0 SWAP1 SLOAD SWAP1 PUSH2 0x100 EXP SWAP1 DIV PUSH20 0xFFFFFFFFFFFFFFFFFFFFFFFFFFFFFFFFFFFFFFFF AND SWAP1 DUP1 PUSH0 ADD PUSH1 0x14 SWAP1 SLOAD SWAP1 PUSH2 0x100 EXP SWAP1 DIV PUSH1 0xFF AND SWAP1 DUP1 PUSH1 0x1 ADD SLOAD SWAP1 POP DUP4 JUMP JUMPDEST PUSH0 PUSH1 0x2 PUSH1 0x1 ADD PUSH0 SWAP1 SLOAD SWAP1 PUSH2 0x100 EXP SWAP1 DIV PUSH1 0xFF AND PUSH1 0xFF AND EQ PUSH2 0x51F JUMPI PUSH1 0x40 MLOAD PUSH32 0x8C379A000000000000000000000000000000000000000000000000000000000 DUP2 MSTORE PUSH1 0x4 ADD PUSH2 0x516 SWAP1 PUSH2 0xDC5 JUMP JUMPDEST PUSH1 0x40 MLOAD DUP1 SWAP2 SUB SWAP1 REVERT JUMPDEST CALLVALUE PUSH1 0x1 PUSH0 DUP3 DUP3 SLOAD PUSH2 0x530 SWAP2 SWAP1 PUSH2 0xE10 JUMP JUMPDEST SWAP3 POP POP DUP2 SWAP1 SSTORE POP PUSH1 0x4 PUSH1 0x40 MLOAD DUP1 PUSH1 0x60 ADD PUSH1 0x40 MSTORE DUP1 CALLER PUSH20 0xFFFFFFFFFFFFFFFFFFFFFFFFFFFFFFFFFFFFFFFF AND DUP2 MSTORE PUSH1 0x20 ADD DUP4 PUSH1 0xFF AND DUP2 MSTORE PUSH1 0x20 ADD CALLVALUE DUP2 MSTORE POP SWAP1 DUP1 PUSH1 0x1 DUP2 SLOAD ADD DUP1 DUP3 SSTORE DUP1 SWAP2 POP POP PUSH1 0x1 SWAP1 SUB SWAP1 PUSH0 MSTORE PUSH1 0x20 PUSH0 KECCAK256 SWAP1 PUSH1 0x2 MUL ADD PUSH0 SWAP1 SWAP2 SWAP1 SWAP2 SWAP1 SWAP2 POP PUSH0 DUP3 ADD MLOAD DUP2 PUSH0 ADD PUSH0 PUSH2 0x100 EXP DUP2 SLOAD DUP2 PUSH20 0xFFFFFFFFFFFFFFFFFFFFFFFFFFFFFFFFFFFFFFFF MUL NOT AND SWAP1 DUP4 PUSH20 0xFFFFFFFFFFFFFFFFFFFFFFFFFFFFFFFFFFFFFFFF AND MUL OR SWAP1 SSTORE POP PUSH1 0x20 DUP3 ADD MLOAD DUP2 PUSH0 ADD PUSH1 0x14 PUSH2 0x100 EXP DUP2 SLOAD DUP2 PUSH1 0xFF MUL NOT AND SWAP1 DUP4 PUSH1 0xFF AND MUL OR SWAP1 SSTORE POP PUSH1 0x40 DUP3 ADD MLOAD DUP2 PUSH1 0x1 ADD SSTORE POP POP POP JUMP JUMPDEST PUSH0 DUP1 SLOAD SWAP1 PUSH2 0x100 EXP SWAP1 DIV PUSH20 0xFFFFFFFFFFFFFFFFFFFFFFFFFFFFFFFFFFFFFFFF AND PUSH20 0xFFFFFFFFFFFFFFFFFFFFFFFFFFFFFFFFFFFFFFFF AND CALLER PUSH20 0xFFFFFFFFFFFFFFFFFFFFFFFFFFFFFFFFFFFFFFFF AND EQ PUSH2 0x693 JUMPI PUSH1 0x40 MLOAD PUSH32 0x8C379A000000000000000000000000000000000000000000000000000000000 DUP2 MSTORE PUSH1 0x4 ADD PUSH2 0x68A SWAP1 PUSH2 0xCC8 JUMP JUMPDEST PUSH1 0x40 MLOAD DUP1 SWAP2 SUB SWAP1 REVERT JUMPDEST DUP1 PUSH1 0x2 PUSH1 0x1 ADD PUSH0 PUSH2 0x100 EXP DUP2 SLOAD DUP2 PUSH1 0xFF MUL NOT AND SWAP1 DUP4 PUSH1 0xFF AND MUL OR SWAP1 SSTORE POP POP JUMP JUMPDEST PUSH0 DUP1 SLOAD SWAP1 PUSH2 0x100 EXP SWAP1 DIV PUSH20 0xFFFFFFFFFFFFFFFFFFFFFFFFFFFFFFFFFFFFFFFF AND DUP2 JUMP JUMPDEST PUSH1 0x2 DUP1 PUSH0 ADD DUP1 SLOAD PUSH2 0x6E6 SWAP1 PUSH2 0xE70 JUMP JUMPDEST DUP1 PUSH1 0x1F ADD PUSH1 0x20 DUP1 SWAP2 DIV MUL PUSH1 0x20 ADD PUSH1 0x40 MLOAD SWAP1 DUP2 ADD PUSH1 0x40 MSTORE DUP1 SWAP3 SWAP2 SWAP1 DUP2 DUP2 MSTORE PUSH1 0x20 ADD DUP3 DUP1 SLOAD PUSH2 0x712 SWAP1 PUSH2 0xE70 JUMP JUMPDEST DUP1 ISZERO PUSH2 0x75D JUMPI DUP1 PUSH1 0x1F LT PUSH2 0x734 JUMPI PUSH2 0x100 DUP1 DUP4 SLOAD DIV MUL DUP4 MSTORE SWAP2 PUSH1 0x20 ADD SWAP2 PUSH2 0x75D JUMP JUMPDEST DUP3 ADD SWAP2 SWAP1 PUSH0 MSTORE PUSH1 0x20 PUSH0 KECCAK256 SWAP1 JUMPDEST DUP2 SLOAD DUP2 MSTORE SWAP1 PUSH1 0x1 ADD SWAP1 PUSH1 0x20 ADD DUP1 DUP4 GT PUSH2 0x740 JUMPI DUP3 SWAP1 SUB PUSH1 0x1F AND DUP3 ADD SWAP2 JUMPDEST POP POP POP POP POP SWAP1 DUP1 PUSH1 0x1 ADD PUSH0 SWAP1 SLOAD SWAP1 PUSH2 0x100 EXP SWAP1 DIV PUSH1 0xFF AND SWAP1 POP DUP3 JUMP JUMPDEST PUSH0 DUP1 SLOAD SWAP1 PUSH2 0x100 EXP SWAP1 DIV PUSH20 0xFFFFFFFFFFFFFFFFFFFFFFFFFFFFFFFFFFFFFFFF AND PUSH20 0xFFFFFFFFFFFFFFFFFFFFFFFFFFFFFFFFFFFFFFFF AND CALLER PUSH20 0xFFFFFFFFFFFFFFFFFFFFFFFFFFFFFFFFFFFFFFFF AND EQ PUSH2 0x806 JUMPI PUSH1 0x40 MLOAD PUSH32 0x8C379A000000000000000000000000000000000000000000000000000000000 DUP2 MSTORE PUSH1 0x4 ADD PUSH2 0x7FD SWAP1 PUSH2 0xCC8 JUMP JUMPDEST PUSH1 0x40 MLOAD DUP1 SWAP2 SUB SWAP1 REVERT JUMPDEST PUSH1 0x40 MLOAD DUP1 PUSH1 0x40 ADD PUSH1 0x40 MSTORE DUP1 DUP3 DUP2 MSTORE PUSH1 0x20 ADD PUSH0 PUSH1 0xFF AND DUP2 MSTORE POP PUSH1 0x2 PUSH0 DUP3 ADD MLOAD DUP2 PUSH0 ADD SWAP1 DUP2 PUSH2 0x833 SWAP2 SWAP1 PUSH2 0x103D JUMP JUMPDEST POP PUSH1 0x20 DUP3 ADD MLOAD DUP2 PUSH1 0x1 ADD PUSH0 PUSH2 0x100 EXP DUP2 SLOAD DUP2 PUSH1 0xFF MUL NOT AND SWAP1 DUP4 PUSH1 0xFF AND MUL OR SWAP1 SSTORE POP SWAP1 POP POP POP JUMP JUMPDEST POP DUP1 SLOAD PUSH2 0x866 SWAP1 PUSH2 0xE70 JUMP JUMPDEST PUSH0 DUP3 SSTORE DUP1 PUSH1 0x1F LT PUSH2 0x877 JUMPI POP PUSH2 0x894 JUMP JUMPDEST PUSH1 0x1F ADD PUSH1 0x20 SWAP1 DIV SWAP1 PUSH0 MSTORE PUSH1 0x20 PUSH0 KECCAK256 SWAP1 DUP2 ADD SWAP1 PUSH2 0x893 SWAP2 SWAP1 PUSH2 0x897 JUMP JUMPDEST JUMPDEST POP JUMP JUMPDEST JUMPDEST DUP1 DUP3 GT ISZERO PUSH2 0x8AE JUMPI PUSH0 DUP2 PUSH0 SWAP1 SSTORE POP PUSH1 0x1 ADD PUSH2 0x898 JUMP JUMPDEST POP SWAP1 JUMP JUMPDEST PUSH0 PUSH1 0x40 MLOAD SWAP1 POP SWAP1 JUMP JUMPDEST PUSH0 DUP1 REVERT JUMPDEST PUSH0 DUP1 REVERT JUMPDEST PUSH0 DUP2 SWAP1 POP SWAP2 SWAP1 POP JUMP JUMPDEST PUSH2 0x8D5 DUP2 PUSH2 0x8C3 JUMP JUMPDEST DUP2 EQ PUSH2 0x8DF JUMPI PUSH0 DUP1 REVERT JUMPDEST POP JUMP JUMPDEST PUSH0 DUP2 CALLDATALOAD SWAP1 POP PUSH2 0x8F0 DUP2 PUSH2 0x8CC JUMP JUMPDEST SWAP3 SWAP2 POP POP JUMP JUMPDEST PUSH0 PUSH1 0x20 DUP3 DUP5 SUB SLT ISZERO PUSH2 0x90B JUMPI PUSH2 0x90A PUSH2 0x8BB JUMP JUMPDEST JUMPDEST PUSH0 PUSH2 0x918 DUP5 DUP3 DUP6 ADD PUSH2 0x8E2 JUMP JUMPDEST SWAP2 POP POP SWAP3 SWAP2 POP POP JUMP JUMPDEST PUSH0 PUSH20 0xFFFFFFFFFFFFFFFFFFFFFFFFFFFFFFFFFFFFFFFF DUP3 AND SWAP1 POP SWAP2 SWAP1 POP JUMP JUMPDEST PUSH0 PUSH2 0x94A DUP3 PUSH2 0x921 JUMP JUMPDEST SWAP1 POP SWAP2 SWAP1 POP JUMP JUMPDEST PUSH2 0x95A DUP2 PUSH2 0x940 JUMP JUMPDEST DUP3 MSTORE POP POP JUMP JUMPDEST PUSH0 PUSH1 0xFF DUP3 AND SWAP1 POP SWAP2 SWAP1 POP JUMP JUMPDEST PUSH2 0x975 DUP2 PUSH2 0x960 JUMP JUMPDEST DUP3 MSTORE POP POP JUMP JUMPDEST PUSH2 0x984 DUP2 PUSH2 0x8C3 JUMP JUMPDEST DUP3 MSTORE POP POP JUMP JUMPDEST PUSH0 PUSH1 0x60 DUP3 ADD SWAP1 POP PUSH2 0x99D PUSH0 DUP4 ADD DUP7 PUSH2 0x951 JUMP JUMPDEST PUSH2 0x9AA PUSH1 0x20 DUP4 ADD DUP6 PUSH2 0x96C JUMP JUMPDEST PUSH2 0x9B7 PUSH1 0x40 DUP4 ADD DUP5 PUSH2 0x97B JUMP JUMPDEST SWAP5 SWAP4 POP POP POP POP JUMP JUMPDEST PUSH2 0x9C8 DUP2 PUSH2 0x960 JUMP JUMPDEST DUP2 EQ PUSH2 0x9D2 JUMPI PUSH0 DUP1 REVERT JUMPDEST POP JUMP JUMPDEST PUSH0 DUP2 CALLDATALOAD SWAP1 POP PUSH2 0x9E3 DUP2 PUSH2 0x9BF JUMP JUMPDEST SWAP3 SWAP2 POP POP JUMP JUMPDEST PUSH0 PUSH1 0x20 DUP3 DUP5 SUB SLT ISZERO PUSH2 0x9FE JUMPI PUSH2 0x9FD PUSH2 0x8BB JUMP JUMPDEST JUMPDEST PUSH0 PUSH2 0xA0B DUP5 DUP3 DUP6 ADD PUSH2 0x9D5 JUMP JUMPDEST SWAP2 POP POP SWAP3 SWAP2 POP POP JUMP JUMPDEST PUSH0 PUSH1 0x20 DUP3 ADD SWAP1 POP PUSH2 0xA27 PUSH0 DUP4 ADD DUP5 PUSH2 0x951 JUMP JUMPDEST SWAP3 SWAP2 POP POP JUMP JUMPDEST PUSH0 DUP2 MLOAD SWAP1 POP SWAP2 SWAP1 POP JUMP JUMPDEST PUSH0 DUP3 DUP3 MSTORE PUSH1 0x20 DUP3 ADD SWAP1 POP SWAP3 SWAP2 POP POP JUMP JUMPDEST PUSH0 JUMPDEST DUP4 DUP2 LT ISZERO PUSH2 0xA64 JUMPI DUP1 DUP3 ADD MLOAD DUP2 DUP5 ADD MSTORE PUSH1 0x20 DUP2 ADD SWAP1 POP PUSH2 0xA49 JUMP JUMPDEST PUSH0 DUP5 DUP5 ADD MSTORE POP POP POP POP JUMP JUMPDEST PUSH0 PUSH1 0x1F NOT PUSH1 0x1F DUP4 ADD AND SWAP1 POP SWAP2 SWAP1 POP JUMP JUMPDEST PUSH0 PUSH2 0xA89 DUP3 PUSH2 0xA2D JUMP JUMPDEST PUSH2 0xA93 DUP2 DUP6 PUSH2 0xA37 JUMP JUMPDEST SWAP4 POP PUSH2 0xAA3 DUP2 DUP6 PUSH1 0x20 DUP7 ADD PUSH2 0xA47 JUMP JUMPDEST PUSH2 0xAAC DUP2 PUSH2 0xA6F JUMP JUMPDEST DUP5 ADD SWAP2 POP POP SWAP3 SWAP2 POP POP JUMP JUMPDEST PUSH0 PUSH1 0x40 DUP3 ADD SWAP1 POP DUP2 DUP2 SUB PUSH0 DUP4 ADD MSTORE PUSH2 0xACF DUP2 DUP6 PUSH2 0xA7F JUMP JUMPDEST SWAP1 POP PUSH2 0xADE PUSH1 0x20 DUP4 ADD DUP5 PUSH2 0x96C JUMP JUMPDEST SWAP4 SWAP3 POP POP POP JUMP JUMPDEST PUSH0 DUP1 REVERT JUMPDEST PUSH0 DUP1 REVERT JUMPDEST PUSH32 0x4E487B7100000000000000000000000000000000000000000000000000000000 PUSH0 MSTORE PUSH1 0x41 PUSH1 0x4 MSTORE PUSH1 0x24 PUSH0 REVERT JUMPDEST PUSH2 0xB23 DUP3 PUSH2 0xA6F JUMP JUMPDEST DUP2 ADD DUP2 DUP2 LT PUSH8 0xFFFFFFFFFFFFFFFF DUP3 GT OR ISZERO PUSH2 0xB42 JUMPI PUSH2 0xB41 PUSH2 0xAED JUMP JUMPDEST JUMPDEST DUP1 PUSH1 0x40 MSTORE POP POP POP JUMP JUMPDEST PUSH0 PUSH2 0xB54 PUSH2 0x8B2 JUMP JUMPDEST SWAP1 POP PUSH2 0xB60 DUP3 DUP3 PUSH2 0xB1A JUMP JUMPDEST SWAP2 SWAP1 POP JUMP JUMPDEST PUSH0 PUSH8 0xFFFFFFFFFFFFFFFF DUP3 GT ISZERO PUSH2 0xB7F JUMPI PUSH2 0xB7E PUSH2 0xAED JUMP JUMPDEST JUMPDEST PUSH2 0xB88 DUP3 PUSH2 0xA6F JUMP JUMPDEST SWAP1 POP PUSH1 0x20 DUP2 ADD SWAP1 POP SWAP2 SWAP1 POP JUMP JUMPDEST DUP3 DUP2 DUP4 CALLDATACOPY PUSH0 DUP4 DUP4 ADD MSTORE POP POP POP JUMP JUMPDEST PUSH0 PUSH2 0xBB5 PUSH2 0xBB0 DUP5 PUSH2 0xB65 JUMP JUMPDEST PUSH2 0xB4B JUMP JUMPDEST SWAP1 POP DUP3 DUP2 MSTORE PUSH1 0x20 DUP2 ADD DUP5 DUP5 DUP5 ADD GT ISZERO PUSH2 0xBD1 JUMPI PUSH2 0xBD0 PUSH2 0xAE9 JUMP JUMPDEST JUMPDEST PUSH2 0xBDC DUP5 DUP3 DUP6 PUSH2 0xB95 JUMP JUMPDEST POP SWAP4 SWAP3 POP POP POP JUMP JUMPDEST PUSH0 DUP3 PUSH1 0x1F DUP4 ADD SLT PUSH2 0xBF8 JUMPI PUSH2 0xBF7 PUSH2 0xAE5 JUMP JUMPDEST JUMPDEST DUP2 CALLDATALOAD PUSH2 0xC08 DUP5 DUP3 PUSH1 0x20 DUP7 ADD PUSH2 0xBA3 JUMP JUMPDEST SWAP2 POP POP SWAP3 SWAP2 POP POP JUMP JUMPDEST PUSH0 PUSH1 0x20 DUP3 DUP5 SUB SLT ISZERO PUSH2 0xC26 JUMPI PUSH2 0xC25 PUSH2 0x8BB JUMP JUMPDEST JUMPDEST PUSH0 DUP3 ADD CALLDATALOAD PUSH8 0xFFFFFFFFFFFFFFFF DUP2 GT ISZERO PUSH2 0xC43 JUMPI PUSH2 0xC42 PUSH2 0x8BF JUMP JUMPDEST JUMPDEST PUSH2 0xC4F DUP5 DUP3 DUP6 ADD PUSH2 0xBE4 JUMP JUMPDEST SWAP2 POP POP SWAP3 SWAP2 POP POP JUMP JUMPDEST PUSH32 0x4F6E6C7920746865206F776E65722063616E2063616C6C20746869732066756E PUSH0 DUP3 ADD MSTORE PUSH32 0x6374696F6E000000000000000000000000000000000000000000000000000000 PUSH1 0x20 DUP3 ADD MSTORE POP JUMP JUMPDEST PUSH0 PUSH2 0xCB2 PUSH1 0x25 DUP4 PUSH2 0xA37 JUMP JUMPDEST SWAP2 POP PUSH2 0xCBD DUP3 PUSH2 0xC58 JUMP JUMPDEST PUSH1 0x40 DUP3 ADD SWAP1 POP SWAP2 SWAP1 POP JUMP JUMPDEST PUSH0 PUSH1 0x20 DUP3 ADD SWAP1 POP DUP2 DUP2 SUB PUSH0 DUP4 ADD MSTORE PUSH2 0xCDF DUP2 PUSH2 0xCA6 JUMP JUMPDEST SWAP1 POP SWAP2 SWAP1 POP JUMP JUMPDEST PUSH32 0x57696E6E6572206973206E6F7420796574207374617465640000000000000000 PUSH0 DUP3 ADD MSTORE POP JUMP JUMPDEST PUSH0 PUSH2 0xD1A PUSH1 0x18 DUP4 PUSH2 0xA37 JUMP JUMPDEST SWAP2 POP PUSH2 0xD25 DUP3 PUSH2 0xCE6 JUMP JUMPDEST PUSH1 0x20 DUP3 ADD SWAP1 POP SWAP2 SWAP1 POP JUMP JUMPDEST PUSH0 PUSH1 0x20 DUP3 ADD SWAP1 POP DUP2 DUP2 SUB PUSH0 DUP4 ADD MSTORE PUSH2 0xD47 DUP2 PUSH2 0xD0E JUMP JUMPDEST SWAP1 POP SWAP2 SWAP1 POP JUMP JUMPDEST PUSH32 0x4E487B7100000000000000000000000000000000000000000000000000000000 PUSH0 MSTORE PUSH1 0x32 PUSH1 0x4 MSTORE PUSH1 0x24 PUSH0 REVERT JUMPDEST PUSH32 0x57696E6E657220697320616C7265616479207374617465640000000000000000 PUSH0 DUP3 ADD MSTORE POP JUMP JUMPDEST PUSH0 PUSH2 0xDAF PUSH1 0x18 DUP4 PUSH2 0xA37 JUMP JUMPDEST SWAP2 POP PUSH2 0xDBA DUP3 PUSH2 0xD7B JUMP JUMPDEST PUSH1 0x20 DUP3 ADD SWAP1 POP SWAP2 SWAP1 POP JUMP JUMPDEST PUSH0 PUSH1 0x20 DUP3 ADD SWAP1 POP DUP2 DUP2 SUB PUSH0 DUP4 ADD MSTORE PUSH2 0xDDC DUP2 PUSH2 0xDA3 JUMP JUMPDEST SWAP1 POP SWAP2 SWAP1 POP JUMP JUMPDEST PUSH32 0x4E487B7100000000000000000000000000000000000000000000000000000000 PUSH0 MSTORE PUSH1 0x11 PUSH1 0x4 MSTORE PUSH1 0x24 PUSH0 REVERT JUMPDEST PUSH0 PUSH2 0xE1A DUP3 PUSH2 0x8C3 JUMP JUMPDEST SWAP2 POP PUSH2 0xE25 DUP4 PUSH2 0x8C3 JUMP JUMPDEST SWAP3 POP DUP3 DUP3 ADD SWAP1 POP DUP1 DUP3 GT ISZERO PUSH2 0xE3D JUMPI PUSH2 0xE3C PUSH2 0xDE3 JUMP JUMPDEST JUMPDEST SWAP3 SWAP2 POP POP JUMP JUMPDEST PUSH32 0x4E487B7100000000000000000000000000000000000000000000000000000000 PUSH0 MSTORE PUSH1 0x22 PUSH1 0x4 MSTORE PUSH1 0x24 PUSH0 REVERT JUMPDEST PUSH0 PUSH1 0x2 DUP3 DIV SWAP1 POP PUSH1 0x1 DUP3 AND DUP1 PUSH2 0xE87 JUMPI PUSH1 0x7F DUP3 AND SWAP2 POP JUMPDEST PUSH1 0x20 DUP3 LT DUP2 SUB PUSH2 0xE9A JUMPI PUSH2 0xE99 PUSH2 0xE43 JUMP JUMPDEST JUMPDEST POP SWAP2 SWAP1 POP JUMP JUMPDEST PUSH0 DUP2 SWAP1 POP DUP2 PUSH0 MSTORE PUSH1 0x20 PUSH0 KECCAK256 SWAP1 POP SWAP2 SWAP1 POP JUMP JUMPDEST PUSH0 PUSH1 0x20 PUSH1 0x1F DUP4 ADD DIV SWAP1 POP SWAP2 SWAP1 POP JUMP JUMPDEST PUSH0 DUP3 DUP3 SHL SWAP1 POP SWAP3 SWAP2 POP POP JUMP JUMPDEST PUSH0 PUSH1 0x8 DUP4 MUL PUSH2 0xEFC PUSH32 0xFFFFFFFFFFFFFFFFFFFFFFFFFFFFFFFFFFFFFFFFFFFFFFFFFFFFFFFFFFFFFFFF DUP3 PUSH2 0xEC1 JUMP JUMPDEST PUSH2 0xF06 DUP7 DUP4 PUSH2 0xEC1 JUMP JUMPDEST SWAP6 POP DUP1 NOT DUP5 AND SWAP4 POP DUP1 DUP7 AND DUP5 OR SWAP3 POP POP POP SWAP4 SWAP3 POP POP POP JUMP JUMPDEST PUSH0 DUP2 SWAP1 POP SWAP2 SWAP1 POP JUMP JUMPDEST PUSH0 PUSH2 0xF41 PUSH2 0xF3C PUSH2 0xF37 DUP5 PUSH2 0x8C3 JUMP JUMPDEST PUSH2 0xF1E JUMP JUMPDEST PUSH2 0x8C3 JUMP JUMPDEST SWAP1 POP SWAP2 SWAP1 POP JUMP JUMPDEST PUSH0 DUP2 SWAP1 POP SWAP2 SWAP1 POP JUMP JUMPDEST PUSH2 0xF5A DUP4 PUSH2 0xF27 JUMP JUMPDEST PUSH2 0xF6E PUSH2 0xF66 DUP3 PUSH2 0xF48 JUMP JUMPDEST DUP5 DUP5 SLOAD PUSH2 0xECD JUMP JUMPDEST DUP3 SSTORE POP POP POP POP JUMP JUMPDEST PUSH0 SWAP1 JUMP JUMPDEST PUSH2 0xF82 PUSH2 0xF76 JUMP JUMPDEST PUSH2 0xF8D DUP2 DUP5 DUP5 PUSH2 0xF51 JUMP JUMPDEST POP POP POP JUMP JUMPDEST JUMPDEST DUP2 DUP2 LT ISZERO PUSH2 0xFB0 JUMPI PUSH2 0xFA5 PUSH0 DUP3 PUSH2 0xF7A JUMP JUMPDEST PUSH1 0x1 DUP2 ADD SWAP1 POP PUSH2 0xF93 JUMP JUMPDEST POP POP JUMP JUMPDEST PUSH1 0x1F DUP3 GT ISZERO PUSH2 0xFF5 JUMPI PUSH2 0xFC6 DUP2 PUSH2 0xEA0 JUMP JUMPDEST PUSH2 0xFCF DUP5 PUSH2 0xEB2 JUMP JUMPDEST DUP2 ADD PUSH1 0x20 DUP6 LT ISZERO PUSH2 0xFDE JUMPI DUP2 SWAP1 POP JUMPDEST PUSH2 0xFF2 PUSH2 0xFEA DUP6 PUSH2 0xEB2 JUMP JUMPDEST DUP4 ADD DUP3 PUSH2 0xF92 JUMP JUMPDEST POP POP JUMPDEST POP POP POP JUMP JUMPDEST PUSH0 DUP3 DUP3 SHR SWAP1 POP SWAP3 SWAP2 POP POP JUMP JUMPDEST PUSH0 PUSH2 0x1015 PUSH0 NOT DUP5 PUSH1 0x8 MUL PUSH2 0xFFA JUMP JUMPDEST NOT DUP1 DUP4 AND SWAP2 POP POP SWAP3 SWAP2 POP POP JUMP JUMPDEST PUSH0 PUSH2 0x102D DUP4 DUP4 PUSH2 0x1006 JUMP JUMPDEST SWAP2 POP DUP3 PUSH1 0x2 MUL DUP3 OR SWAP1 POP SWAP3 SWAP2 POP POP JUMP JUMPDEST PUSH2 0x1046 DUP3 PUSH2 0xA2D JUMP JUMPDEST PUSH8 0xFFFFFFFFFFFFFFFF DUP2 GT ISZERO PUSH2 0x105F JUMPI PUSH2 0x105E PUSH2 0xAED JUMP JUMPDEST JUMPDEST PUSH2 0x1069 DUP3 SLOAD PUSH2 0xE70 JUMP JUMPDEST PUSH2 0x1074 DUP3 DUP3 DUP6 PUSH2 0xFB4 JUMP JUMPDEST PUSH0 PUSH1 0x20 SWAP1 POP PUSH1 0x1F DUP4 GT PUSH1 0x1 DUP2 EQ PUSH2 0x10A5 JUMPI PUSH0 DUP5 ISZERO PUSH2 0x1093 JUMPI DUP3 DUP8 ADD MLOAD SWAP1 POP JUMPDEST PUSH2 0x109D DUP6 DUP3 PUSH2 0x1022 JUMP JUMPDEST DUP7 SSTORE POP PUSH2 0x1104 JUMP JUMPDEST PUSH1 0x1F NOT DUP5 AND PUSH2 0x10B3 DUP7 PUSH2 0xEA0 JUMP JUMPDEST PUSH0 JUMPDEST DUP3 DUP2 LT ISZERO PUSH2 0x10DA JUMPI DUP5 DUP10 ADD MLOAD DUP3 SSTORE PUSH1 0x1 DUP3 ADD SWAP2 POP PUSH1 0x20 DUP6 ADD SWAP5 POP PUSH1 0x20 DUP2 ADD SWAP1 POP PUSH2 0x10B5 JUMP JUMPDEST DUP7 DUP4 LT ISZERO PUSH2 0x10F7 JUMPI DUP5 DUP10 ADD MLOAD PUSH2 0x10F3 PUSH1 0x1F DUP10 AND DUP3 PUSH2 0x1006 JUMP JUMPDEST DUP4 SSTORE POP JUMPDEST PUSH1 0x1 PUSH1 0x2 DUP9 MUL ADD DUP9 SSTORE POP POP POP JUMPDEST POP POP POP POP POP POP JUMP INVALID LOG2 PUSH5 0x6970667358 0x22 SLT KECCAK256 0xC1 0xB4 0xF9 NOT 0xD1 MLOAD SWAP13 0xDF 0xBF EXP 0x24 0xE0 XOR 0x2D 0xDD SUB PUSH12 0x513A8379A6C8BF0850C8CFB4 CALLVALUE 0xE3 0xE PUSH5 0x736F6C6343 STOP ADDMOD AND STOP CALLER "
				},
				"gasEstimates": {
					"creation": {
						"codeDepositCost": "883600",
						"executionCost": "30190",
						"totalCost": "913790"
					},
					"external": {
						"addBet(uint8)": "infinite",
						"addGame(string)": "infinite",
						"addGameWinner(uint8)": "26845",
						"bets(uint256)": "infinite",
						"declareWinner()": "infinite",
						"game()": "infinite",
						"owner()": "2527",
						"removeGame()": "infinite"
					}
				},
				"methodIdentifiers": {
					"addBet(uint8)": "74061a93",
					"addGame(string)": "e89826ac",
					"addGameWinner(uint8)": "85c48207",
					"bets(uint256)": "22af00fa",
					"declareWinner()": "14034bd2",
					"game()": "c3fe3e28",
					"owner()": "8da5cb5b",
					"removeGame()": "1a9a01fb"
				}
			},
			"storageLayout": {
				"storage": [
					{
						"astId": 3,
						"contract": "contracts/BetContract.sol:BetContract",
						"label": "owner",
						"offset": 0,
						"slot": "0",
						"type": "t_address"
					},
					{
						"astId": 6,
						"contract": "contracts/BetContract.sol:BetContract",
						"label": "allBets",
						"offset": 0,
						"slot": "1",
						"type": "t_uint256"
					},
					{
						"astId": 14,
						"contract": "contracts/BetContract.sol:BetContract",
						"label": "game",
						"offset": 0,
						"slot": "2",
						"type": "t_struct(Game)11_storage"
					},
					{
						"astId": 25,
						"contract": "contracts/BetContract.sol:BetContract",
						"label": "bets",
						"offset": 0,
						"slot": "4",
						"type": "t_array(t_struct(Bet)21_storage)dyn_storage"
					}
				],
				"types": {
					"t_address": {
						"encoding": "inplace",
						"label": "address",
						"numberOfBytes": "20"
					},
					"t_array(t_struct(Bet)21_storage)dyn_storage": {
						"base": "t_struct(Bet)21_storage",
						"encoding": "dynamic_array",
						"label": "struct BetContract.Bet[]",
						"numberOfBytes": "32"
					},
					"t_string_storage": {
						"encoding": "bytes",
						"label": "string",
						"numberOfBytes": "32"
					},
					"t_struct(Bet)21_storage": {
						"encoding": "inplace",
						"label": "struct BetContract.Bet",
						"members": [
							{
								"astId": 16,
								"contract": "contracts/BetContract.sol:BetContract",
								"label": "user",
								"offset": 0,
								"slot": "0",
								"type": "t_address"
							},
							{
								"astId": 18,
								"contract": "contracts/BetContract.sol:BetContract",
								"label": "winPrediction",
								"offset": 20,
								"slot": "0",
								"type": "t_uint8"
							},
							{
								"astId": 20,
								"contract": "contracts/BetContract.sol:BetContract",
								"label": "amount",
								"offset": 0,
								"slot": "1",
								"type": "t_uint256"
							}
						],
						"numberOfBytes": "64"
					},
					"t_struct(Game)11_storage": {
						"encoding": "inplace",
						"label": "struct BetContract.Game",
						"members": [
							{
								"astId": 8,
								"contract": "contracts/BetContract.sol:BetContract",
								"label": "name",
								"offset": 0,
								"slot": "0",
								"type": "t_string_storage"
							},
							{
								"astId": 10,
								"contract": "contracts/BetContract.sol:BetContract",
								"label": "winner",
								"offset": 0,
								"slot": "1",
								"type": "t_uint8"
							}
						],
						"numberOfBytes": "64"
					},
					"t_uint256": {
						"encoding": "inplace",
						"label": "uint256",
						"numberOfBytes": "32"
					},
					"t_uint8": {
						"encoding": "inplace",
						"label": "uint8",
						"numberOfBytes": "1"
					}
				}
			},
			"userdoc": {
				"kind": "user",
				"methods": {},
				"version": 1
			}
		}
	}
}