{
	"contracts/3_Bet.sol": {
		"Bet": {
			"abi": [
				{
					"inputs": [],
					"stateMutability": "payable",
					"type": "constructor"
				},
				{
					"anonymous": false,
					"inputs": [
						{
							"indexed": true,
							"internalType": "address",
							"name": "better",
							"type": "address"
						},
						{
							"indexed": false,
							"internalType": "uint256",
							"name": "choice",
							"type": "uint256"
						},
						{
							"indexed": false,
							"internalType": "uint256",
							"name": "amount",
							"type": "uint256"
						},
						{
							"indexed": false,
							"internalType": "string",
							"name": "sportsMatch",
							"type": "string"
						}
					],
					"name": "BetPlaced",
					"type": "event"
				},
				{
					"anonymous": false,
					"inputs": [
						{
							"indexed": false,
							"internalType": "uint256",
							"name": "test",
							"type": "uint256"
						}
					],
					"name": "LoserDeclared",
					"type": "event"
				},
				{
					"anonymous": false,
					"inputs": [
						{
							"indexed": true,
							"internalType": "address",
							"name": "winner",
							"type": "address"
						},
						{
							"indexed": false,
							"internalType": "uint256",
							"name": "amount",
							"type": "uint256"
						}
					],
					"name": "WinnerDeclared",
					"type": "event"
				},
				{
					"inputs": [],
					"name": "declareWinner",
					"outputs": [],
					"stateMutability": "nonpayable",
					"type": "function"
				},
				{
					"inputs": [],
					"name": "owner",
					"outputs": [
						{
							"internalType": "address",
							"name": "",
							"type": "address"
						}
					],
					"stateMutability": "view",
					"type": "function"
				},
				{
					"inputs": [
						{
							"internalType": "uint256",
							"name": "game",
							"type": "uint256"
						},
						{
							"internalType": "uint256",
							"name": "choice",
							"type": "uint256"
						}
					],
					"name": "placeBet",
					"outputs": [],
					"stateMutability": "payable",
					"type": "function"
				},
				{
					"inputs": [],
					"name": "value",
					"outputs": [
						{
							"internalType": "uint256",
							"name": "",
							"type": "uint256"
						}
					],
					"stateMutability": "view",
					"type": "function"
				}
			],
			"devdoc": {
				"details": "Implements betting process including calculation of winnings",
				"kind": "dev",
				"methods": {},
				"title": "Bet",
				"version": 1
			},
			"evm": {
				"assembly": "    /* \"contracts/3_Bet.sol\":214:3153  contract Bet {... */\n  mstore(0x40, 0x80)\n    /* \"contracts/3_Bet.sol\":1162:1167  owner */\n  0x03\n    /* \"contracts/3_Bet.sol\":1162:1180  owner = msg.sender */\n  dup1\n  sload\n  not(sub(shl(0xa0, 0x01), 0x01))\n  and\n    /* \"contracts/3_Bet.sol\":1170:1180  msg.sender */\n  caller\n    /* \"contracts/3_Bet.sol\":1162:1180  owner = msg.sender */\n  or\n  swap1\n  sstore\n    /* \"contracts/3_Bet.sol\":1198:1207  msg.value */\n  callvalue\n    /* \"contracts/3_Bet.sol\":1190:1195  value */\n  0x04\n    /* \"contracts/3_Bet.sol\":1190:1207  value = msg.value */\n  sstore\n    /* \"contracts/3_Bet.sol\":214:3153  contract Bet {... */\n  dataSize(sub_0)\n  dup1\n  dataOffset(sub_0)\n  0x00\n  codecopy\n  0x00\n  return\nstop\n\nsub_0: assembly {\n        /* \"contracts/3_Bet.sol\":214:3153  contract Bet {... */\n      mstore(0x40, 0x80)\n      jumpi(tag_1, lt(calldatasize, 0x04))\n      shr(0xe0, calldataload(0x00))\n      dup1\n      0x14034bd2\n      eq\n      tag_2\n      jumpi\n      dup1\n      0x3fa4f245\n      eq\n      tag_3\n      jumpi\n      dup1\n      0x4afe62b5\n      eq\n      tag_4\n      jumpi\n      dup1\n      0x8da5cb5b\n      eq\n      tag_5\n      jumpi\n    tag_1:\n      0x00\n      dup1\n      revert\n        /* \"contracts/3_Bet.sol\":1810:2660  function declareWinner() external onlyOwner {... */\n    tag_2:\n      callvalue\n      dup1\n      iszero\n      tag_6\n      jumpi\n      0x00\n      dup1\n      revert\n    tag_6:\n      pop\n      tag_7\n      tag_8\n      jump\t// in\n    tag_7:\n      stop\n        /* \"contracts/3_Bet.sol\":1033:1050  uint public value */\n    tag_3:\n      callvalue\n      dup1\n      iszero\n      tag_9\n      jumpi\n      0x00\n      dup1\n      revert\n    tag_9:\n      pop\n      tag_10\n      sload(0x04)\n      dup2\n      jump\n    tag_10:\n      mload(0x40)\n        /* \"#utility.yul\":160:185   */\n      swap1\n      dup2\n      mstore\n        /* \"#utility.yul\":148:150   */\n      0x20\n        /* \"#utility.yul\":133:151   */\n      add\n        /* \"contracts/3_Bet.sol\":1033:1050  uint public value */\n    tag_12:\n      mload(0x40)\n      dup1\n      swap2\n      sub\n      swap1\n      return\n        /* \"contracts/3_Bet.sol\":1380:1804  function placeBet(uint game, uint choice) external payable {... */\n    tag_4:\n      tag_7\n      tag_15\n      calldatasize\n      0x04\n      tag_16\n      jump\t// in\n    tag_15:\n      tag_17\n      jump\t// in\n        /* \"contracts/3_Bet.sol\":1007:1027  address public owner */\n    tag_5:\n      callvalue\n      dup1\n      iszero\n      tag_18\n      jumpi\n      0x00\n      dup1\n      revert\n    tag_18:\n      pop\n      sload(0x03)\n      tag_19\n      swap1\n      sub(shl(0xa0, 0x01), 0x01)\n      and\n      dup2\n      jump\n    tag_19:\n      mload(0x40)\n      sub(shl(0xa0, 0x01), 0x01)\n        /* \"#utility.yul\":613:645   */\n      swap1\n      swap2\n      and\n        /* \"#utility.yul\":595:646   */\n      dup2\n      mstore\n        /* \"#utility.yul\":583:585   */\n      0x20\n        /* \"#utility.yul\":568:586   */\n      add\n        /* \"contracts/3_Bet.sol\":1007:1027  address public owner */\n      tag_12\n        /* \"#utility.yul\":449:652   */\n      jump\n        /* \"contracts/3_Bet.sol\":1810:2660  function declareWinner() external onlyOwner {... */\n    tag_8:\n        /* \"contracts/3_Bet.sol\":1309:1314  owner */\n      and(sub(shl(0xa0, 0x01), 0x01), sload(0x03))\n        /* \"contracts/3_Bet.sol\":1295:1305  msg.sender */\n      caller\n        /* \"contracts/3_Bet.sol\":1295:1314  msg.sender == owner */\n      eq\n        /* \"contracts/3_Bet.sol\":1287:1356  require(msg.sender == owner, \"Only the owner can call this function\") */\n      tag_24\n      jumpi\n      mload(0x40)\n      shl(0xe5, 0x461bcd)\n      dup2\n      mstore\n        /* \"#utility.yul\":859:861   */\n      0x20\n        /* \"contracts/3_Bet.sol\":1287:1356  require(msg.sender == owner, \"Only the owner can call this function\") */\n      0x04\n      dup3\n      add\n        /* \"#utility.yul\":841:862   */\n      mstore\n        /* \"#utility.yul\":898:900   */\n      0x25\n        /* \"#utility.yul\":878:896   */\n      0x24\n      dup3\n      add\n        /* \"#utility.yul\":871:901   */\n      mstore\n        /* \"#utility.yul\":937:971   */\n      0x4f6e6c7920746865206f776e65722063616e2063616c6c20746869732066756e\n        /* \"#utility.yul\":917:935   */\n      0x44\n      dup3\n      add\n        /* \"#utility.yul\":910:972   */\n      mstore\n      shl(0xd9, 0x31ba34b7b7)\n        /* \"#utility.yul\":988:1006   */\n      0x64\n      dup3\n      add\n        /* \"#utility.yul\":981:1016   */\n      mstore\n        /* \"#utility.yul\":1033:1052   */\n      0x84\n      add\n        /* \"contracts/3_Bet.sol\":1287:1356  require(msg.sender == owner, \"Only the owner can call this function\") */\n    tag_25:\n      mload(0x40)\n      dup1\n      swap2\n      sub\n      swap1\n      revert\n    tag_24:\n        /* \"contracts/3_Bet.sol\":1990:1991  2 */\n      0x02\n        /* \"contracts/3_Bet.sol\":2126:2135  stake = 2 */\n      dup1\n      dup1\n      sstore\n        /* \"contracts/3_Bet.sol\":2209:2213  vote */\n      sload(0x01)\n      not(0x01)\n        /* \"contracts/3_Bet.sol\":2209:2230  vote == winningChoice */\n      add\n        /* \"contracts/3_Bet.sol\":2205:2654  if (vote == winningChoice) {... */\n      tag_36\n      jumpi\n        /* \"contracts/3_Bet.sol\":2295:2314  uint256 totalAmount */\n      0x00\n        /* \"contracts/3_Bet.sol\":2325:2330  stake */\n      sload(0x02)\n        /* \"contracts/3_Bet.sol\":2317:2322  value */\n      sload(0x04)\n        /* \"contracts/3_Bet.sol\":2317:2330  value * stake */\n      tag_37\n      swap2\n      swap1\n      tag_38\n      jump\t// in\n    tag_37:\n        /* \"contracts/3_Bet.sol\":2364:2369  owner */\n      sload(0x03)\n        /* \"contracts/3_Bet.sol\":2349:2383  WinnerDeclared(owner, totalAmount) */\n      mload(0x40)\n        /* \"#utility.yul\":160:185   */\n      dup3\n      dup2\n      mstore\n        /* \"contracts/3_Bet.sol\":2295:2330  uint256 totalAmount = value * stake */\n      swap2\n      swap3\n      pop\n      sub(shl(0xa0, 0x01), 0x01)\n        /* \"contracts/3_Bet.sol\":2364:2369  owner */\n      and\n      swap1\n        /* \"contracts/3_Bet.sol\":2349:2383  WinnerDeclared(owner, totalAmount) */\n      0x3cf1af53e79884a92609ce59db1ec9f584d88e2d14c8eaba43a21db81318301e\n      swap1\n        /* \"#utility.yul\":148:150   */\n      0x20\n        /* \"#utility.yul\":133:151   */\n      add\n        /* \"contracts/3_Bet.sol\":2349:2383  WinnerDeclared(owner, totalAmount) */\n    tag_39:\n      mload(0x40)\n      dup1\n      swap2\n      sub\n      swap1\n      log2\n        /* \"contracts/3_Bet.sol\":2232:2498  {... */\n      pop\n        /* \"contracts/3_Bet.sol\":1854:2660  {... */\n      pop\n        /* \"contracts/3_Bet.sol\":1810:2660  function declareWinner() external onlyOwner {... */\n      jump\t// out\n        /* \"contracts/3_Bet.sol\":2205:2654  if (vote == winningChoice) {... */\n    tag_36:\n        /* \"contracts/3_Bet.sol\":2627:2643  LoserDeclared(0) */\n      mload(0x40)\n        /* \"contracts/3_Bet.sol\":2641:2642  0 */\n      0x00\n        /* \"#utility.yul\":160:185   */\n      dup2\n      mstore\n        /* \"contracts/3_Bet.sol\":2627:2643  LoserDeclared(0) */\n      0xe0f0c8f1b95df0e042d153efd204eb64eb6054e6b6cdb251f3a43dc1a3b9392d\n      swap1\n        /* \"#utility.yul\":148:150   */\n      0x20\n        /* \"#utility.yul\":133:151   */\n      add\n        /* \"contracts/3_Bet.sol\":2627:2643  LoserDeclared(0) */\n      mload(0x40)\n      dup1\n      swap2\n      sub\n      swap1\n      log1\n        /* \"contracts/3_Bet.sol\":1854:2660  {... */\n      pop\n        /* \"contracts/3_Bet.sol\":1810:2660  function declareWinner() external onlyOwner {... */\n      jump\t// out\n        /* \"contracts/3_Bet.sol\":1380:1804  function placeBet(uint game, uint choice) external payable {... */\n    tag_17:\n        /* \"contracts/3_Bet.sol\":1457:1461  game */\n      dup2\n        /* \"contracts/3_Bet.sol\":1465:1466  0 */\n      0x00\n        /* \"contracts/3_Bet.sol\":1457:1466  game != 0 */\n      sub\n        /* \"contracts/3_Bet.sol\":1449:1491  require(game != 0, \"Game cannot be empty\") */\n      tag_44\n      jumpi\n      mload(0x40)\n      shl(0xe5, 0x461bcd)\n      dup2\n      mstore\n        /* \"#utility.yul\":2417:2419   */\n      0x20\n        /* \"contracts/3_Bet.sol\":1449:1491  require(game != 0, \"Game cannot be empty\") */\n      0x04\n      dup3\n      add\n        /* \"#utility.yul\":2399:2420   */\n      mstore\n        /* \"#utility.yul\":2456:2458   */\n      0x14\n        /* \"#utility.yul\":2436:2454   */\n      0x24\n      dup3\n      add\n        /* \"#utility.yul\":2429:2459   */\n      mstore\n      shl(0x60, 0x47616d652063616e6e6f7420626520656d707479)\n        /* \"#utility.yul\":2475:2493   */\n      0x44\n      dup3\n      add\n        /* \"#utility.yul\":2468:2518   */\n      mstore\n        /* \"#utility.yul\":2535:2553   */\n      0x64\n      add\n        /* \"contracts/3_Bet.sol\":1449:1491  require(game != 0, \"Game cannot be empty\") */\n      tag_25\n        /* \"#utility.yul\":2215:2559   */\n      jump\n        /* \"contracts/3_Bet.sol\":1449:1491  require(game != 0, \"Game cannot be empty\") */\n    tag_44:\n        /* \"contracts/3_Bet.sol\":1517:1518  0 */\n      0x00\n        /* \"contracts/3_Bet.sol\":1509:1514  value */\n      sload(0x04)\n        /* \"contracts/3_Bet.sol\":1509:1518  value > 0 */\n      gt\n        /* \"contracts/3_Bet.sol\":1501:1558  require(value > 0, \"Bet amount should be greater than 0\") */\n      tag_47\n      jumpi\n      mload(0x40)\n      shl(0xe5, 0x461bcd)\n      dup2\n      mstore\n        /* \"#utility.yul\":2766:2768   */\n      0x20\n        /* \"contracts/3_Bet.sol\":1501:1558  require(value > 0, \"Bet amount should be greater than 0\") */\n      0x04\n      dup3\n      add\n        /* \"#utility.yul\":2748:2769   */\n      mstore\n        /* \"#utility.yul\":2805:2807   */\n      0x23\n        /* \"#utility.yul\":2785:2803   */\n      0x24\n      dup3\n      add\n        /* \"#utility.yul\":2778:2808   */\n      mstore\n        /* \"#utility.yul\":2844:2878   */\n      0x42657420616d6f756e742073686f756c64206265206772656174657220746861\n        /* \"#utility.yul\":2824:2842   */\n      0x44\n      dup3\n      add\n        /* \"#utility.yul\":2817:2879   */\n      mstore\n      shl(0xec, 0x06e203)\n        /* \"#utility.yul\":2895:2913   */\n      0x64\n      dup3\n      add\n        /* \"#utility.yul\":2888:2921   */\n      mstore\n        /* \"#utility.yul\":2938:2957   */\n      0x84\n      add\n        /* \"contracts/3_Bet.sol\":1501:1558  require(value > 0, \"Bet amount should be greater than 0\") */\n      tag_25\n        /* \"#utility.yul\":2564:2963   */\n      jump\n        /* \"contracts/3_Bet.sol\":1501:1558  require(value > 0, \"Bet amount should be greater than 0\") */\n    tag_47:\n        /* \"contracts/3_Bet.sol\":1646:1668  Strings.toString(game) */\n      tag_54\n        /* \"contracts/3_Bet.sol\":1663:1667  game */\n      dup3\n        /* \"contracts/3_Bet.sol\":1646:1662  Strings.toString */\n      tag_55\n        /* \"contracts/3_Bet.sol\":1646:1668  Strings.toString(game) */\n      jump\t// in\n    tag_54:\n        /* \"contracts/3_Bet.sol\":1632:1643  sportsMatch */\n      0x00\n      swap1\n        /* \"contracts/3_Bet.sol\":1632:1668  sportsMatch = Strings.toString(game) */\n      tag_56\n      swap1\n        /* \"contracts/3_Bet.sol\":1632:1643  sportsMatch */\n      dup3\n        /* \"contracts/3_Bet.sol\":1632:1668  sportsMatch = Strings.toString(game) */\n      tag_57\n      jump\t// in\n    tag_56:\n      pop\n        /* \"contracts/3_Bet.sol\":1678:1682  vote */\n      0x01\n        /* \"contracts/3_Bet.sol\":1678:1691  vote = choice */\n      dup2\n      swap1\n      sstore\n        /* \"contracts/3_Bet.sol\":1717:1722  owner */\n      sload(0x03)\n        /* \"contracts/3_Bet.sol\":1732:1737  value */\n      sload(0x04)\n        /* \"contracts/3_Bet.sol\":1707:1751  BetPlaced(owner, choice, value, sportsMatch) */\n      mload(0x40)\n      sub(shl(0xa0, 0x01), 0x01)\n        /* \"contracts/3_Bet.sol\":1717:1722  owner */\n      swap1\n      swap3\n      and\n      swap2\n        /* \"contracts/3_Bet.sol\":1707:1751  BetPlaced(owner, choice, value, sportsMatch) */\n      0x4d20e64082ede6f8ef4a1d21be42a765e21266033fdf138a7e23ea9854300b55\n      swap2\n      tag_39\n      swap2\n        /* \"contracts/3_Bet.sol\":1685:1691  choice */\n      dup6\n      swap2\n        /* \"contracts/3_Bet.sol\":1732:1737  value */\n      swap1\n        /* \"contracts/3_Bet.sol\":1717:1722  owner */\n      0x00\n      swap1\n        /* \"contracts/3_Bet.sol\":1707:1751  BetPlaced(owner, choice, value, sportsMatch) */\n      tag_59\n      jump\t// in\n        /* \"@openzeppelin/contracts/utils/Strings.sol\":637:1335  function toString(uint256 value) internal pure returns (string memory) {... */\n    tag_55:\n        /* \"@openzeppelin/contracts/utils/Strings.sol\":693:706  string memory */\n      0x60\n        /* \"@openzeppelin/contracts/utils/Strings.sol\":742:756  uint256 length */\n      0x00\n        /* \"@openzeppelin/contracts/utils/Strings.sol\":759:776  Math.log10(value) */\n      tag_61\n        /* \"@openzeppelin/contracts/utils/Strings.sol\":770:775  value */\n      dup4\n        /* \"@openzeppelin/contracts/utils/Strings.sol\":759:769  Math.log10 */\n      tag_62\n        /* \"@openzeppelin/contracts/utils/Strings.sol\":759:776  Math.log10(value) */\n      jump\t// in\n    tag_61:\n        /* \"@openzeppelin/contracts/utils/Strings.sol\":779:780  1 */\n      0x01\n        /* \"@openzeppelin/contracts/utils/Strings.sol\":759:780  Math.log10(value) + 1 */\n      add\n        /* \"@openzeppelin/contracts/utils/Strings.sol\":742:780  uint256 length = Math.log10(value) + 1 */\n      swap1\n      pop\n        /* \"@openzeppelin/contracts/utils/Strings.sol\":794:814  string memory buffer */\n      0x00\n        /* \"@openzeppelin/contracts/utils/Strings.sol\":828:834  length */\n      dup2\n        /* \"@openzeppelin/contracts/utils/Strings.sol\":817:835  new string(length) */\n      0xffffffffffffffff\n      dup2\n      gt\n      iszero\n      tag_64\n      jumpi\n      tag_64\n      tag_65\n      jump\t// in\n    tag_64:\n      mload(0x40)\n      swap1\n      dup1\n      dup3\n      mstore\n      dup1\n      0x1f\n      add\n      not(0x1f)\n      and\n      0x20\n      add\n      dup3\n      add\n      0x40\n      mstore\n      dup1\n      iszero\n      tag_66\n      jumpi\n      0x20\n      dup3\n      add\n      dup2\n      dup1\n      calldatasize\n      dup4\n      calldatacopy\n      add\n      swap1\n      pop\n    tag_66:\n      pop\n        /* \"@openzeppelin/contracts/utils/Strings.sol\":794:835  string memory buffer = new string(length) */\n      swap1\n      pop\n        /* \"@openzeppelin/contracts/utils/Strings.sol\":955:983  add(buffer, add(32, length)) */\n      dup2\n      dup2\n      add\n        /* \"@openzeppelin/contracts/utils/Strings.sol\":971:973  32 */\n      0x20\n        /* \"@openzeppelin/contracts/utils/Strings.sol\":955:983  add(buffer, add(32, length)) */\n      add\n        /* \"@openzeppelin/contracts/utils/Strings.sol\":1010:1292  while (true) {... */\n    tag_67:\n      not(0x00)\n        /* \"@openzeppelin/contracts/utils/Strings.sol\":1041:1046  ptr-- */\n      add\n      shl(0x81, 0x181899199a1a9b1b9c1cb0b131b232b3)\n        /* \"@openzeppelin/contracts/utils/Strings.sol\":1175:1177  10 */\n      0x0a\n        /* \"@openzeppelin/contracts/utils/Strings.sol\":1164:1178  mod(value, 10) */\n      dup7\n      mod\n        /* \"@openzeppelin/contracts/utils/Strings.sol\":1159:1191  byte(mod(value, 10), HEX_DIGITS) */\n      byte\n        /* \"@openzeppelin/contracts/utils/Strings.sol\":1041:1046  ptr-- */\n      dup2\n        /* \"@openzeppelin/contracts/utils/Strings.sol\":1146:1192  mstore8(ptr, byte(mod(value, 10), HEX_DIGITS)) */\n      mstore8\n        /* \"@openzeppelin/contracts/utils/Strings.sol\":1236:1238  10 */\n      0x0a\n        /* \"@openzeppelin/contracts/utils/Strings.sol\":1227:1238  value /= 10 */\n      dup6\n      div\n      swap5\n      pop\n        /* \"@openzeppelin/contracts/utils/Strings.sol\":1256:1277  if (value == 0) break */\n      dup5\n        /* \"@openzeppelin/contracts/utils/Strings.sol\":1010:1292  while (true) {... */\n      tag_67\n        /* \"@openzeppelin/contracts/utils/Strings.sol\":1256:1277  if (value == 0) break */\n      jumpi\n      pop\n        /* \"@openzeppelin/contracts/utils/Strings.sol\":1312:1318  buffer */\n      swap4\n        /* \"@openzeppelin/contracts/utils/Strings.sol\":637:1335  function toString(uint256 value) internal pure returns (string memory) {... */\n      swap3\n      pop\n      pop\n      pop\n      jump\t// out\n        /* \"@openzeppelin/contracts/utils/math/Math.sol\":12214:13130  function log10(uint256 value) internal pure returns (uint256) {... */\n    tag_62:\n        /* \"@openzeppelin/contracts/utils/math/Math.sol\":12267:12274  uint256 */\n      0x00\n      dup1\n      shl(0x40, 0x184f03e93ff9f4daa797ed6e38ed64bf6a1f01)\n        /* \"@openzeppelin/contracts/utils/math/Math.sol\":12342:12359  value >= 10 ** 64 */\n      dup4\n      lt\n        /* \"@openzeppelin/contracts/utils/math/Math.sol\":12338:12441  if (value >= 10 ** 64) {... */\n      tag_74\n      jumpi\n      shl(0x40, 0x184f03e93ff9f4daa797ed6e38ed64bf6a1f01)\n        /* \"@openzeppelin/contracts/utils/math/Math.sol\":12379:12396  value /= 10 ** 64 */\n      dup4\n      div\n      swap3\n      pop\n        /* \"@openzeppelin/contracts/utils/math/Math.sol\":12424:12426  64 */\n      0x40\n        /* \"@openzeppelin/contracts/utils/math/Math.sol\":12414:12426  result += 64 */\n      add\n        /* \"@openzeppelin/contracts/utils/math/Math.sol\":12338:12441  if (value >= 10 ** 64) {... */\n    tag_74:\n        /* \"@openzeppelin/contracts/utils/math/Math.sol\":12467:12475  10 ** 32 */\n      0x04ee2d6d415b85acef8100000000\n        /* \"@openzeppelin/contracts/utils/math/Math.sol\":12458:12463  value */\n      dup4\n        /* \"@openzeppelin/contracts/utils/math/Math.sol\":12458:12475  value >= 10 ** 32 */\n      lt\n        /* \"@openzeppelin/contracts/utils/math/Math.sol\":12454:12557  if (value >= 10 ** 32) {... */\n      tag_77\n      jumpi\n        /* \"@openzeppelin/contracts/utils/math/Math.sol\":12504:12512  10 ** 32 */\n      0x04ee2d6d415b85acef8100000000\n        /* \"@openzeppelin/contracts/utils/math/Math.sol\":12495:12512  value /= 10 ** 32 */\n      dup4\n      div\n      swap3\n      pop\n        /* \"@openzeppelin/contracts/utils/math/Math.sol\":12540:12542  32 */\n      0x20\n        /* \"@openzeppelin/contracts/utils/math/Math.sol\":12530:12542  result += 32 */\n      add\n        /* \"@openzeppelin/contracts/utils/math/Math.sol\":12454:12557  if (value >= 10 ** 32) {... */\n    tag_77:\n        /* \"@openzeppelin/contracts/utils/math/Math.sol\":12583:12591  10 ** 16 */\n      0x2386f26fc10000\n        /* \"@openzeppelin/contracts/utils/math/Math.sol\":12574:12579  value */\n      dup4\n        /* \"@openzeppelin/contracts/utils/math/Math.sol\":12574:12591  value >= 10 ** 16 */\n      lt\n        /* \"@openzeppelin/contracts/utils/math/Math.sol\":12570:12673  if (value >= 10 ** 16) {... */\n      tag_80\n      jumpi\n        /* \"@openzeppelin/contracts/utils/math/Math.sol\":12620:12628  10 ** 16 */\n      0x2386f26fc10000\n        /* \"@openzeppelin/contracts/utils/math/Math.sol\":12611:12628  value /= 10 ** 16 */\n      dup4\n      div\n      swap3\n      pop\n        /* \"@openzeppelin/contracts/utils/math/Math.sol\":12656:12658  16 */\n      0x10\n        /* \"@openzeppelin/contracts/utils/math/Math.sol\":12646:12658  result += 16 */\n      add\n        /* \"@openzeppelin/contracts/utils/math/Math.sol\":12570:12673  if (value >= 10 ** 16) {... */\n    tag_80:\n        /* \"@openzeppelin/contracts/utils/math/Math.sol\":12699:12706  10 ** 8 */\n      0x05f5e100\n        /* \"@openzeppelin/contracts/utils/math/Math.sol\":12690:12695  value */\n      dup4\n        /* \"@openzeppelin/contracts/utils/math/Math.sol\":12690:12706  value >= 10 ** 8 */\n      lt\n        /* \"@openzeppelin/contracts/utils/math/Math.sol\":12686:12786  if (value >= 10 ** 8) {... */\n      tag_83\n      jumpi\n        /* \"@openzeppelin/contracts/utils/math/Math.sol\":12735:12742  10 ** 8 */\n      0x05f5e100\n        /* \"@openzeppelin/contracts/utils/math/Math.sol\":12726:12742  value /= 10 ** 8 */\n      dup4\n      div\n      swap3\n      pop\n        /* \"@openzeppelin/contracts/utils/math/Math.sol\":12770:12771  8 */\n      0x08\n        /* \"@openzeppelin/contracts/utils/math/Math.sol\":12760:12771  result += 8 */\n      add\n        /* \"@openzeppelin/contracts/utils/math/Math.sol\":12686:12786  if (value >= 10 ** 8) {... */\n    tag_83:\n        /* \"@openzeppelin/contracts/utils/math/Math.sol\":12812:12819  10 ** 4 */\n      0x2710\n        /* \"@openzeppelin/contracts/utils/math/Math.sol\":12803:12808  value */\n      dup4\n        /* \"@openzeppelin/contracts/utils/math/Math.sol\":12803:12819  value >= 10 ** 4 */\n      lt\n        /* \"@openzeppelin/contracts/utils/math/Math.sol\":12799:12899  if (value >= 10 ** 4) {... */\n      tag_86\n      jumpi\n        /* \"@openzeppelin/contracts/utils/math/Math.sol\":12848:12855  10 ** 4 */\n      0x2710\n        /* \"@openzeppelin/contracts/utils/math/Math.sol\":12839:12855  value /= 10 ** 4 */\n      dup4\n      div\n      swap3\n      pop\n        /* \"@openzeppelin/contracts/utils/math/Math.sol\":12883:12884  4 */\n      0x04\n        /* \"@openzeppelin/contracts/utils/math/Math.sol\":12873:12884  result += 4 */\n      add\n        /* \"@openzeppelin/contracts/utils/math/Math.sol\":12799:12899  if (value >= 10 ** 4) {... */\n    tag_86:\n        /* \"@openzeppelin/contracts/utils/math/Math.sol\":12925:12932  10 ** 2 */\n      0x64\n        /* \"@openzeppelin/contracts/utils/math/Math.sol\":12916:12921  value */\n      dup4\n        /* \"@openzeppelin/contracts/utils/math/Math.sol\":12916:12932  value >= 10 ** 2 */\n      lt\n        /* \"@openzeppelin/contracts/utils/math/Math.sol\":12912:13012  if (value >= 10 ** 2) {... */\n      tag_89\n      jumpi\n        /* \"@openzeppelin/contracts/utils/math/Math.sol\":12961:12968  10 ** 2 */\n      0x64\n        /* \"@openzeppelin/contracts/utils/math/Math.sol\":12952:12968  value /= 10 ** 2 */\n      dup4\n      div\n      swap3\n      pop\n        /* \"@openzeppelin/contracts/utils/math/Math.sol\":12996:12997  2 */\n      0x02\n        /* \"@openzeppelin/contracts/utils/math/Math.sol\":12986:12997  result += 2 */\n      add\n        /* \"@openzeppelin/contracts/utils/math/Math.sol\":12912:13012  if (value >= 10 ** 2) {... */\n    tag_89:\n        /* \"@openzeppelin/contracts/utils/math/Math.sol\":13038:13045  10 ** 1 */\n      0x0a\n        /* \"@openzeppelin/contracts/utils/math/Math.sol\":13029:13034  value */\n      dup4\n        /* \"@openzeppelin/contracts/utils/math/Math.sol\":13029:13045  value >= 10 ** 1 */\n      lt\n        /* \"@openzeppelin/contracts/utils/math/Math.sol\":13025:13091  if (value >= 10 ** 1) {... */\n      tag_92\n      jumpi\n        /* \"@openzeppelin/contracts/utils/math/Math.sol\":13075:13076  1 */\n      0x01\n        /* \"@openzeppelin/contracts/utils/math/Math.sol\":13065:13076  result += 1 */\n      add\n        /* \"@openzeppelin/contracts/utils/math/Math.sol\":13025:13091  if (value >= 10 ** 1) {... */\n    tag_92:\n        /* \"@openzeppelin/contracts/utils/math/Math.sol\":13117:13123  result */\n      swap3\n        /* \"@openzeppelin/contracts/utils/math/Math.sol\":12214:13130  function log10(uint256 value) internal pure returns (uint256) {... */\n      swap2\n      pop\n      pop\n      jump\t// out\n        /* \"#utility.yul\":196:444   */\n    tag_16:\n        /* \"#utility.yul\":264:270   */\n      0x00\n        /* \"#utility.yul\":272:278   */\n      dup1\n        /* \"#utility.yul\":325:327   */\n      0x40\n        /* \"#utility.yul\":313:322   */\n      dup4\n        /* \"#utility.yul\":304:311   */\n      dup6\n        /* \"#utility.yul\":300:323   */\n      sub\n        /* \"#utility.yul\":296:328   */\n      slt\n        /* \"#utility.yul\":293:345   */\n      iszero\n      tag_100\n      jumpi\n        /* \"#utility.yul\":341:342   */\n      0x00\n        /* \"#utility.yul\":338:339   */\n      dup1\n        /* \"#utility.yul\":331:343   */\n      revert\n        /* \"#utility.yul\":293:345   */\n    tag_100:\n      pop\n      pop\n        /* \"#utility.yul\":364:387   */\n      dup1\n      calldataload\n      swap3\n        /* \"#utility.yul\":434:436   */\n      0x20\n        /* \"#utility.yul\":419:437   */\n      swap1\n      swap2\n      add\n        /* \"#utility.yul\":406:438   */\n      calldataload\n      swap2\n      pop\n        /* \"#utility.yul\":196:444   */\n      jump\t// out\n        /* \"#utility.yul\":1755:2020   */\n    tag_38:\n        /* \"#utility.yul\":1828:1837   */\n      dup1\n      dup3\n      mul\n        /* \"#utility.yul\":1859:1868   */\n      dup2\n      iszero\n        /* \"#utility.yul\":1876:1891   */\n      dup3\n      dup3\n      div\n        /* \"#utility.yul\":1870:1892   */\n      dup5\n      eq\n        /* \"#utility.yul\":1856:1893   */\n      or\n        /* \"#utility.yul\":1846:2014   */\n      tag_92\n      jumpi\n        /* \"#utility.yul\":1936:1946   */\n      0x4e487b71\n        /* \"#utility.yul\":1931:1934   */\n      0xe0\n        /* \"#utility.yul\":1927:1947   */\n      shl\n        /* \"#utility.yul\":1924:1925   */\n      0x00\n        /* \"#utility.yul\":1917:1948   */\n      mstore\n        /* \"#utility.yul\":1971:1975   */\n      0x11\n        /* \"#utility.yul\":1968:1969   */\n      0x04\n        /* \"#utility.yul\":1961:1976   */\n      mstore\n        /* \"#utility.yul\":1999:2003   */\n      0x24\n        /* \"#utility.yul\":1996:1997   */\n      0x00\n        /* \"#utility.yul\":1989:2004   */\n      revert\n        /* \"#utility.yul\":3311:3438   */\n    tag_65:\n        /* \"#utility.yul\":3372:3382   */\n      0x4e487b71\n        /* \"#utility.yul\":3367:3370   */\n      0xe0\n        /* \"#utility.yul\":3363:3383   */\n      shl\n        /* \"#utility.yul\":3360:3361   */\n      0x00\n        /* \"#utility.yul\":3353:3384   */\n      mstore\n        /* \"#utility.yul\":3403:3407   */\n      0x41\n        /* \"#utility.yul\":3400:3401   */\n      0x04\n        /* \"#utility.yul\":3393:3408   */\n      mstore\n        /* \"#utility.yul\":3427:3431   */\n      0x24\n        /* \"#utility.yul\":3424:3425   */\n      0x00\n        /* \"#utility.yul\":3417:3432   */\n      revert\n        /* \"#utility.yul\":3443:3823   */\n    tag_93:\n        /* \"#utility.yul\":3522:3523   */\n      0x01\n        /* \"#utility.yul\":3518:3530   */\n      dup2\n      dup2\n      shr\n      swap1\n        /* \"#utility.yul\":3565:3577   */\n      dup3\n      and\n      dup1\n        /* \"#utility.yul\":3586:3647   */\n      tag_113\n      jumpi\n        /* \"#utility.yul\":3640:3644   */\n      0x7f\n        /* \"#utility.yul\":3632:3638   */\n      dup3\n        /* \"#utility.yul\":3628:3645   */\n      and\n        /* \"#utility.yul\":3618:3645   */\n      swap2\n      pop\n        /* \"#utility.yul\":3586:3647   */\n    tag_113:\n        /* \"#utility.yul\":3693:3695   */\n      0x20\n        /* \"#utility.yul\":3685:3691   */\n      dup3\n        /* \"#utility.yul\":3682:3696   */\n      lt\n        /* \"#utility.yul\":3662:3680   */\n      dup2\n        /* \"#utility.yul\":3659:3697   */\n      sub\n        /* \"#utility.yul\":3656:3817   */\n      tag_114\n      jumpi\n        /* \"#utility.yul\":3739:3749   */\n      0x4e487b71\n        /* \"#utility.yul\":3734:3737   */\n      0xe0\n        /* \"#utility.yul\":3730:3750   */\n      shl\n        /* \"#utility.yul\":3727:3728   */\n      0x00\n        /* \"#utility.yul\":3720:3751   */\n      mstore\n        /* \"#utility.yul\":3774:3778   */\n      0x22\n        /* \"#utility.yul\":3771:3772   */\n      0x04\n        /* \"#utility.yul\":3764:3779   */\n      mstore\n        /* \"#utility.yul\":3802:3806   */\n      0x24\n        /* \"#utility.yul\":3799:3800   */\n      0x00\n        /* \"#utility.yul\":3792:3807   */\n      revert\n        /* \"#utility.yul\":3656:3817   */\n    tag_114:\n      pop\n        /* \"#utility.yul\":3443:3823   */\n      swap2\n      swap1\n      pop\n      jump\t// out\n        /* \"#utility.yul\":3954:4472   */\n    tag_95:\n        /* \"#utility.yul\":4056:4058   */\n      0x1f\n        /* \"#utility.yul\":4051:4054   */\n      dup3\n        /* \"#utility.yul\":4048:4059   */\n      gt\n        /* \"#utility.yul\":4045:4466   */\n      iszero\n      tag_117\n      jumpi\n        /* \"#utility.yul\":4092:4097   */\n      dup1\n        /* \"#utility.yul\":4089:4090   */\n      0x00\n        /* \"#utility.yul\":4082:4098   */\n      mstore\n        /* \"#utility.yul\":4136:4140   */\n      0x20\n        /* \"#utility.yul\":4133:4134   */\n      0x00\n        /* \"#utility.yul\":4123:4141   */\n      keccak256\n        /* \"#utility.yul\":4206:4208   */\n      0x1f\n        /* \"#utility.yul\":4194:4204   */\n      dup5\n        /* \"#utility.yul\":4190:4209   */\n      add\n        /* \"#utility.yul\":4187:4188   */\n      0x05\n        /* \"#utility.yul\":4183:4210   */\n      shr\n        /* \"#utility.yul\":4177:4181   */\n      dup2\n        /* \"#utility.yul\":4173:4211   */\n      add\n        /* \"#utility.yul\":4242:4246   */\n      0x20\n        /* \"#utility.yul\":4230:4240   */\n      dup6\n        /* \"#utility.yul\":4227:4247   */\n      lt\n        /* \"#utility.yul\":4224:4271   */\n      iszero\n      tag_118\n      jumpi\n      pop\n        /* \"#utility.yul\":4265:4269   */\n      dup1\n        /* \"#utility.yul\":4224:4271   */\n    tag_118:\n        /* \"#utility.yul\":4320:4322   */\n      0x1f\n        /* \"#utility.yul\":4315:4318   */\n      dup5\n        /* \"#utility.yul\":4311:4323   */\n      add\n        /* \"#utility.yul\":4308:4309   */\n      0x05\n        /* \"#utility.yul\":4304:4324   */\n      shr\n        /* \"#utility.yul\":4298:4302   */\n      dup3\n        /* \"#utility.yul\":4294:4325   */\n      add\n        /* \"#utility.yul\":4284:4325   */\n      swap2\n      pop\n        /* \"#utility.yul\":4375:4456   */\n    tag_119:\n        /* \"#utility.yul\":4393:4395   */\n      dup2\n        /* \"#utility.yul\":4386:4391   */\n      dup2\n        /* \"#utility.yul\":4383:4396   */\n      lt\n        /* \"#utility.yul\":4375:4456   */\n      iszero\n      tag_121\n      jumpi\n        /* \"#utility.yul\":4452:4453   */\n      0x00\n        /* \"#utility.yul\":4438:4454   */\n      dup2\n      sstore\n        /* \"#utility.yul\":4419:4420   */\n      0x01\n        /* \"#utility.yul\":4408:4421   */\n      add\n        /* \"#utility.yul\":4375:4456   */\n      jump(tag_119)\n    tag_121:\n        /* \"#utility.yul\":4379:4382   */\n      pop\n      pop\n        /* \"#utility.yul\":4045:4466   */\n    tag_117:\n        /* \"#utility.yul\":3954:4472   */\n      pop\n      pop\n      pop\n      jump\t// out\n        /* \"#utility.yul\":4648:5993   */\n    tag_57:\n        /* \"#utility.yul\":4774:4777   */\n      dup2\n        /* \"#utility.yul\":4768:4778   */\n      mload\n        /* \"#utility.yul\":4801:4819   */\n      0xffffffffffffffff\n        /* \"#utility.yul\":4793:4799   */\n      dup2\n        /* \"#utility.yul\":4790:4820   */\n      gt\n        /* \"#utility.yul\":4787:4843   */\n      iszero\n      tag_125\n      jumpi\n        /* \"#utility.yul\":4823:4841   */\n      tag_125\n      tag_65\n      jump\t// in\n    tag_125:\n        /* \"#utility.yul\":4852:4949   */\n      tag_126\n        /* \"#utility.yul\":4942:4948   */\n      dup2\n        /* \"#utility.yul\":4902:4940   */\n      tag_127\n        /* \"#utility.yul\":4934:4938   */\n      dup5\n        /* \"#utility.yul\":4928:4939   */\n      sload\n        /* \"#utility.yul\":4902:4940   */\n      tag_93\n      jump\t// in\n    tag_127:\n        /* \"#utility.yul\":4896:4900   */\n      dup5\n        /* \"#utility.yul\":4852:4949   */\n      tag_95\n      jump\t// in\n    tag_126:\n        /* \"#utility.yul\":5004:5008   */\n      0x20\n      dup1\n        /* \"#utility.yul\":5061:5063   */\n      0x1f\n        /* \"#utility.yul\":5050:5064   */\n      dup4\n      gt\n        /* \"#utility.yul\":5078:5079   */\n      0x01\n        /* \"#utility.yul\":5073:5736   */\n      dup2\n      eq\n      tag_129\n      jumpi\n        /* \"#utility.yul\":5780:5781   */\n      0x00\n        /* \"#utility.yul\":5797:5803   */\n      dup5\n        /* \"#utility.yul\":5794:5883   */\n      iszero\n      tag_130\n      jumpi\n      pop\n        /* \"#utility.yul\":5849:5868   */\n      dup6\n      dup4\n      add\n        /* \"#utility.yul\":5843:5869   */\n      mload\n        /* \"#utility.yul\":5794:5883   */\n    tag_130:\n      not(0x00)\n        /* \"#utility.yul\":4605:4606   */\n      0x03\n        /* \"#utility.yul\":4601:4612   */\n      dup7\n      swap1\n      shl\n        /* \"#utility.yul\":4597:4621   */\n      shr\n        /* \"#utility.yul\":4593:4622   */\n      not\n        /* \"#utility.yul\":4583:4623   */\n      and\n        /* \"#utility.yul\":4629:4630   */\n      0x01\n        /* \"#utility.yul\":4625:4636   */\n      dup6\n      swap1\n      shl\n        /* \"#utility.yul\":4580:4637   */\n      or\n        /* \"#utility.yul\":5896:5977   */\n      dup6\n      sstore\n        /* \"#utility.yul\":5043:5987   */\n      jump(tag_128)\n        /* \"#utility.yul\":5073:5736   */\n    tag_129:\n        /* \"#utility.yul\":3901:3902   */\n      0x00\n        /* \"#utility.yul\":3894:3908   */\n      dup6\n      dup2\n      mstore\n        /* \"#utility.yul\":3938:3942   */\n      0x20\n        /* \"#utility.yul\":3925:3943   */\n      dup2\n      keccak256\n      not(0x1f)\n        /* \"#utility.yul\":5109:5129   */\n      dup7\n      and\n      swap2\n        /* \"#utility.yul\":5227:5463   */\n    tag_133:\n        /* \"#utility.yul\":5241:5248   */\n      dup3\n        /* \"#utility.yul\":5238:5239   */\n      dup2\n        /* \"#utility.yul\":5235:5249   */\n      lt\n        /* \"#utility.yul\":5227:5463   */\n      iszero\n      tag_135\n      jumpi\n        /* \"#utility.yul\":5330:5349   */\n      dup9\n      dup7\n      add\n        /* \"#utility.yul\":5324:5350   */\n      mload\n        /* \"#utility.yul\":5309:5351   */\n      dup3\n      sstore\n        /* \"#utility.yul\":5422:5449   */\n      swap5\n      dup5\n      add\n      swap5\n        /* \"#utility.yul\":5390:5391   */\n      0x01\n        /* \"#utility.yul\":5378:5392   */\n      swap1\n      swap2\n      add\n      swap1\n        /* \"#utility.yul\":5257:5276   */\n      dup5\n      add\n        /* \"#utility.yul\":5227:5463   */\n      jump(tag_133)\n    tag_135:\n        /* \"#utility.yul\":5231:5234   */\n      pop\n        /* \"#utility.yul\":5491:5497   */\n      dup6\n        /* \"#utility.yul\":5482:5489   */\n      dup3\n        /* \"#utility.yul\":5479:5498   */\n      lt\n        /* \"#utility.yul\":5476:5677   */\n      iszero\n      tag_136\n      jumpi\n        /* \"#utility.yul\":5552:5571   */\n      dup8\n      dup6\n      add\n        /* \"#utility.yul\":5546:5572   */\n      mload\n      not(0x00)\n        /* \"#utility.yul\":5635:5636   */\n      0x03\n        /* \"#utility.yul\":5631:5645   */\n      dup9\n      swap1\n      shl\n        /* \"#utility.yul\":5647:5650   */\n      0xf8\n        /* \"#utility.yul\":5627:5651   */\n      and\n        /* \"#utility.yul\":5623:5660   */\n      shr\n        /* \"#utility.yul\":5619:5661   */\n      not\n        /* \"#utility.yul\":5604:5662   */\n      and\n        /* \"#utility.yul\":5589:5663   */\n      dup2\n      sstore\n        /* \"#utility.yul\":5476:5677   */\n    tag_136:\n      pop\n      pop\n        /* \"#utility.yul\":5723:5724   */\n      0x01\n        /* \"#utility.yul\":5714:5720   */\n      dup5\n        /* \"#utility.yul\":5711:5712   */\n      0x01\n        /* \"#utility.yul\":5707:5721   */\n      shl\n        /* \"#utility.yul\":5703:5725   */\n      add\n        /* \"#utility.yul\":5697:5701   */\n      dup6\n        /* \"#utility.yul\":5690:5726   */\n      sstore\n        /* \"#utility.yul\":5043:5987   */\n    tag_128:\n      pop\n      pop\n      pop\n      pop\n        /* \"#utility.yul\":4648:5993   */\n      pop\n      pop\n      jump\t// out\n        /* \"#utility.yul\":5998:7106   */\n    tag_59:\n        /* \"#utility.yul\":6200:6206   */\n      dup4\n        /* \"#utility.yul\":6189:6198   */\n      dup2\n        /* \"#utility.yul\":6182:6207   */\n      mstore\n        /* \"#utility.yul\":6163:6167   */\n      0x00\n        /* \"#utility.yul\":6226:6228   */\n      0x20\n        /* \"#utility.yul\":6264:6270   */\n      dup5\n        /* \"#utility.yul\":6259:6261   */\n      0x20\n        /* \"#utility.yul\":6248:6257   */\n      dup5\n        /* \"#utility.yul\":6244:6262   */\n      add\n        /* \"#utility.yul\":6237:6271   */\n      mstore\n        /* \"#utility.yul\":6307:6309   */\n      0x60\n        /* \"#utility.yul\":6302:6304   */\n      0x40\n        /* \"#utility.yul\":6291:6300   */\n      dup5\n        /* \"#utility.yul\":6287:6305   */\n      add\n        /* \"#utility.yul\":6280:6310   */\n      mstore\n        /* \"#utility.yul\":6330:6331   */\n      0x00\n        /* \"#utility.yul\":6363:6369   */\n      dup5\n        /* \"#utility.yul\":6357:6370   */\n      sload\n        /* \"#utility.yul\":6393:6429   */\n      tag_138\n        /* \"#utility.yul\":6419:6428   */\n      dup2\n        /* \"#utility.yul\":6393:6429   */\n      tag_93\n      jump\t// in\n    tag_138:\n        /* \"#utility.yul\":6465:6471   */\n      dup1\n        /* \"#utility.yul\":6460:6462   */\n      0x60\n        /* \"#utility.yul\":6449:6458   */\n      dup8\n        /* \"#utility.yul\":6445:6463   */\n      add\n        /* \"#utility.yul\":6438:6472   */\n      mstore\n        /* \"#utility.yul\":6491:6494   */\n      0x80\n        /* \"#utility.yul\":6513:6514   */\n      0x01\n        /* \"#utility.yul\":6545:6546   */\n      dup1\n        /* \"#utility.yul\":6534:6543   */\n      dup5\n        /* \"#utility.yul\":6530:6547   */\n      and\n        /* \"#utility.yul\":6561:6562   */\n      0x00\n        /* \"#utility.yul\":6556:6716   */\n      dup2\n      eq\n      tag_140\n      jumpi\n        /* \"#utility.yul\":6730:6731   */\n      0x01\n        /* \"#utility.yul\":6725:7080   */\n      dup2\n      eq\n      tag_141\n      jumpi\n        /* \"#utility.yul\":6523:7080   */\n      jump(tag_139)\n        /* \"#utility.yul\":6556:6716   */\n    tag_140:\n        /* \"#utility.yul\":6624:6627   */\n      0xff\n        /* \"#utility.yul\":6620:6628   */\n      not\n        /* \"#utility.yul\":6609:6618   */\n      dup6\n        /* \"#utility.yul\":6605:6629   */\n      and\n        /* \"#utility.yul\":6599:6602   */\n      0x80\n        /* \"#utility.yul\":6588:6597   */\n      dup11\n        /* \"#utility.yul\":6584:6603   */\n      add\n        /* \"#utility.yul\":6577:6630   */\n      mstore\n        /* \"#utility.yul\":6702:6705   */\n      0x80\n        /* \"#utility.yul\":6690:6696   */\n      dup5\n        /* \"#utility.yul\":6683:6697   */\n      iszero\n        /* \"#utility.yul\":6676:6698   */\n      iszero\n        /* \"#utility.yul\":6673:6674   */\n      0x05\n        /* \"#utility.yul\":6669:6699   */\n      shl\n        /* \"#utility.yul\":6658:6667   */\n      dup11\n        /* \"#utility.yul\":6654:6700   */\n      add\n        /* \"#utility.yul\":6650:6706   */\n      add\n        /* \"#utility.yul\":6643:6706   */\n      swap6\n      pop\n        /* \"#utility.yul\":6556:6716   */\n      jump(tag_139)\n        /* \"#utility.yul\":6725:7080   */\n    tag_141:\n        /* \"#utility.yul\":6756:6762   */\n      dup10\n        /* \"#utility.yul\":6753:6754   */\n      0x00\n        /* \"#utility.yul\":6746:6763   */\n      mstore\n        /* \"#utility.yul\":6804:6806   */\n      0x20\n        /* \"#utility.yul\":6801:6802   */\n      0x00\n        /* \"#utility.yul\":6791:6807   */\n      keccak256\n        /* \"#utility.yul\":6829:6830   */\n      0x00\n        /* \"#utility.yul\":6843:7023   */\n    tag_142:\n        /* \"#utility.yul\":6857:6863   */\n      dup6\n        /* \"#utility.yul\":6854:6855   */\n      dup2\n        /* \"#utility.yul\":6851:6864   */\n      lt\n        /* \"#utility.yul\":6843:7023   */\n      iszero\n      tag_144\n      jumpi\n        /* \"#utility.yul\":6950:6964   */\n      dup2\n      sload\n        /* \"#utility.yul\":6926:6943   */\n      dup12\n      dup3\n      add\n        /* \"#utility.yul\":6922:6948   */\n      dup7\n      add\n        /* \"#utility.yul\":6915:6965   */\n      mstore\n        /* \"#utility.yul\":6993:7009   */\n      swap1\n      dup4\n      add\n      swap1\n        /* \"#utility.yul\":6872:6882   */\n      dup9\n      add\n        /* \"#utility.yul\":6843:7023   */\n      jump(tag_142)\n    tag_144:\n        /* \"#utility.yul\":7047:7064   */\n      dup11\n      add\n        /* \"#utility.yul\":7066:7069   */\n      0x80\n        /* \"#utility.yul\":7043:7070   */\n      add\n      swap7\n      pop\n      pop\n        /* \"#utility.yul\":6523:7080   */\n    tag_139:\n      pop\n        /* \"#utility.yul\":7097:7100   */\n      swap4\n      swap11\n        /* \"#utility.yul\":5998:7106   */\n      swap10\n      pop\n      pop\n      pop\n      pop\n      pop\n      pop\n      pop\n      pop\n      pop\n      pop\n      jump\t// out\n\n    auxdata: 0xa2646970667358221220531a6ee221b83f955eb09e1afb6c10f9bd3153298576f9288fbd7f56dccb69d164736f6c63430008160033\n}\n",
				"bytecode": {
					"linkReferences": {},
					"object": "6080604052600380546001600160a01b03191633179055346004556106ab806100275f395ff3fe60806040526004361061003e575f3560e01c806314034bd2146100425780633fa4f245146100585780634afe62b5146100805780638da5cb5b14610093575b5f80fd5b34801561004d575f80fd5b506100566100ca565b005b348015610063575f80fd5b5061006d60045481565b6040519081526020015b60405180910390f35b61005661008e366004610441565b6101d6565b34801561009e575f80fd5b506003546100b2906001600160a01b031681565b6040516001600160a01b039091168152602001610077565b6003546001600160a01b031633146101375760405162461bcd60e51b815260206004820152602560248201527f4f6e6c7920746865206f776e65722063616e2063616c6c20746869732066756e60448201526431ba34b7b760d91b60648201526084015b60405180910390fd5b6002808055600154600119016101a0575f6002546004546101589190610461565b6003546040518281529192506001600160a01b0316907f3cf1af53e79884a92609ce59db1ec9f584d88e2d14c8eaba43a21db81318301e906020015b60405180910390a25050565b6040515f81527fe0f0c8f1b95df0e042d153efd204eb64eb6054e6b6cdb251f3a43dc1a3b9392d9060200160405180910390a150565b815f0361021c5760405162461bcd60e51b815260206004820152601460248201527347616d652063616e6e6f7420626520656d70747960601b604482015260640161012e565b5f600454116102795760405162461bcd60e51b815260206004820152602360248201527f42657420616d6f756e742073686f756c6420626520677265617465722074686160448201526206e20360ec1b606482015260840161012e565b610282826102d9565b5f9061028e908261051c565b5060018190556003546004546040516001600160a01b03909216917f4d20e64082ede6f8ef4a1d21be42a765e21266033fdf138a7e23ea9854300b5591610194918591905f906105dc565b60605f6102e583610369565b60010190505f8167ffffffffffffffff81111561030457610304610484565b6040519080825280601f01601f19166020018201604052801561032e576020820181803683370190505b5090508181016020015b5f19016f181899199a1a9b1b9c1cb0b131b232b360811b600a86061a8153600a850494508461033857509392505050565b5f8072184f03e93ff9f4daa797ed6e38ed64bf6a1f0160401b83106103a75772184f03e93ff9f4daa797ed6e38ed64bf6a1f0160401b830492506040015b6d04ee2d6d415b85acef810000000083106103d3576d04ee2d6d415b85acef8100000000830492506020015b662386f26fc1000083106103f157662386f26fc10000830492506010015b6305f5e1008310610409576305f5e100830492506008015b612710831061041d57612710830492506004015b6064831061042f576064830492506002015b600a831061043b576001015b92915050565b5f8060408385031215610452575f80fd5b50508035926020909101359150565b808202811582820484141761043b57634e487b7160e01b5f52601160045260245ffd5b634e487b7160e01b5f52604160045260245ffd5b600181811c908216806104ac57607f821691505b6020821081036104ca57634e487b7160e01b5f52602260045260245ffd5b50919050565b601f82111561051757805f5260205f20601f840160051c810160208510156104f55750805b601f840160051c820191505b81811015610514575f8155600101610501565b50505b505050565b815167ffffffffffffffff81111561053657610536610484565b61054a816105448454610498565b846104d0565b602080601f83116001811461057d575f84156105665750858301515b5f19600386901b1c1916600185901b1785556105d4565b5f85815260208120601f198616915b828110156105ab5788860151825594840194600190910190840161058c565b50858210156105c857878501515f19600388901b60f8161c191681555b505060018460011b0185555b505050505050565b8381525f6020846020840152606060408401525f84546105fb81610498565b806060870152608060018084165f811461061c576001811461063857610665565b60ff19851660808a0152608084151560051b8a01019550610665565b895f5260205f205f5b8581101561065c5781548b8201860152908301908801610641565b8a016080019650505b50939a995050505050505050505056fea2646970667358221220531a6ee221b83f955eb09e1afb6c10f9bd3153298576f9288fbd7f56dccb69d164736f6c63430008160033",
					"opcodes": "PUSH1 0x80 PUSH1 0x40 MSTORE PUSH1 0x3 DUP1 SLOAD PUSH1 0x1 PUSH1 0x1 PUSH1 0xA0 SHL SUB NOT AND CALLER OR SWAP1 SSTORE CALLVALUE PUSH1 0x4 SSTORE PUSH2 0x6AB DUP1 PUSH2 0x27 PUSH0 CODECOPY PUSH0 RETURN INVALID PUSH1 0x80 PUSH1 0x40 MSTORE PUSH1 0x4 CALLDATASIZE LT PUSH2 0x3E JUMPI PUSH0 CALLDATALOAD PUSH1 0xE0 SHR DUP1 PUSH4 0x14034BD2 EQ PUSH2 0x42 JUMPI DUP1 PUSH4 0x3FA4F245 EQ PUSH2 0x58 JUMPI DUP1 PUSH4 0x4AFE62B5 EQ PUSH2 0x80 JUMPI DUP1 PUSH4 0x8DA5CB5B EQ PUSH2 0x93 JUMPI JUMPDEST PUSH0 DUP1 REVERT JUMPDEST CALLVALUE DUP1 ISZERO PUSH2 0x4D JUMPI PUSH0 DUP1 REVERT JUMPDEST POP PUSH2 0x56 PUSH2 0xCA JUMP JUMPDEST STOP JUMPDEST CALLVALUE DUP1 ISZERO PUSH2 0x63 JUMPI PUSH0 DUP1 REVERT JUMPDEST POP PUSH2 0x6D PUSH1 0x4 SLOAD DUP2 JUMP JUMPDEST PUSH1 0x40 MLOAD SWAP1 DUP2 MSTORE PUSH1 0x20 ADD JUMPDEST PUSH1 0x40 MLOAD DUP1 SWAP2 SUB SWAP1 RETURN JUMPDEST PUSH2 0x56 PUSH2 0x8E CALLDATASIZE PUSH1 0x4 PUSH2 0x441 JUMP JUMPDEST PUSH2 0x1D6 JUMP JUMPDEST CALLVALUE DUP1 ISZERO PUSH2 0x9E JUMPI PUSH0 DUP1 REVERT JUMPDEST POP PUSH1 0x3 SLOAD PUSH2 0xB2 SWAP1 PUSH1 0x1 PUSH1 0x1 PUSH1 0xA0 SHL SUB AND DUP2 JUMP JUMPDEST PUSH1 0x40 MLOAD PUSH1 0x1 PUSH1 0x1 PUSH1 0xA0 SHL SUB SWAP1 SWAP2 AND DUP2 MSTORE PUSH1 0x20 ADD PUSH2 0x77 JUMP JUMPDEST PUSH1 0x3 SLOAD PUSH1 0x1 PUSH1 0x1 PUSH1 0xA0 SHL SUB AND CALLER EQ PUSH2 0x137 JUMPI PUSH1 0x40 MLOAD PUSH3 0x461BCD PUSH1 0xE5 SHL DUP2 MSTORE PUSH1 0x20 PUSH1 0x4 DUP3 ADD MSTORE PUSH1 0x25 PUSH1 0x24 DUP3 ADD MSTORE PUSH32 0x4F6E6C7920746865206F776E65722063616E2063616C6C20746869732066756E PUSH1 0x44 DUP3 ADD MSTORE PUSH5 0x31BA34B7B7 PUSH1 0xD9 SHL PUSH1 0x64 DUP3 ADD MSTORE PUSH1 0x84 ADD JUMPDEST PUSH1 0x40 MLOAD DUP1 SWAP2 SUB SWAP1 REVERT JUMPDEST PUSH1 0x2 DUP1 DUP1 SSTORE PUSH1 0x1 SLOAD PUSH1 0x1 NOT ADD PUSH2 0x1A0 JUMPI PUSH0 PUSH1 0x2 SLOAD PUSH1 0x4 SLOAD PUSH2 0x158 SWAP2 SWAP1 PUSH2 0x461 JUMP JUMPDEST PUSH1 0x3 SLOAD PUSH1 0x40 MLOAD DUP3 DUP2 MSTORE SWAP2 SWAP3 POP PUSH1 0x1 PUSH1 0x1 PUSH1 0xA0 SHL SUB AND SWAP1 PUSH32 0x3CF1AF53E79884A92609CE59DB1EC9F584D88E2D14C8EABA43A21DB81318301E SWAP1 PUSH1 0x20 ADD JUMPDEST PUSH1 0x40 MLOAD DUP1 SWAP2 SUB SWAP1 LOG2 POP POP JUMP JUMPDEST PUSH1 0x40 MLOAD PUSH0 DUP2 MSTORE PUSH32 0xE0F0C8F1B95DF0E042D153EFD204EB64EB6054E6B6CDB251F3A43DC1A3B9392D SWAP1 PUSH1 0x20 ADD PUSH1 0x40 MLOAD DUP1 SWAP2 SUB SWAP1 LOG1 POP JUMP JUMPDEST DUP2 PUSH0 SUB PUSH2 0x21C JUMPI PUSH1 0x40 MLOAD PUSH3 0x461BCD PUSH1 0xE5 SHL DUP2 MSTORE PUSH1 0x20 PUSH1 0x4 DUP3 ADD MSTORE PUSH1 0x14 PUSH1 0x24 DUP3 ADD MSTORE PUSH20 0x47616D652063616E6E6F7420626520656D707479 PUSH1 0x60 SHL PUSH1 0x44 DUP3 ADD MSTORE PUSH1 0x64 ADD PUSH2 0x12E JUMP JUMPDEST PUSH0 PUSH1 0x4 SLOAD GT PUSH2 0x279 JUMPI PUSH1 0x40 MLOAD PUSH3 0x461BCD PUSH1 0xE5 SHL DUP2 MSTORE PUSH1 0x20 PUSH1 0x4 DUP3 ADD MSTORE PUSH1 0x23 PUSH1 0x24 DUP3 ADD MSTORE PUSH32 0x42657420616D6F756E742073686F756C64206265206772656174657220746861 PUSH1 0x44 DUP3 ADD MSTORE PUSH3 0x6E203 PUSH1 0xEC SHL PUSH1 0x64 DUP3 ADD MSTORE PUSH1 0x84 ADD PUSH2 0x12E JUMP JUMPDEST PUSH2 0x282 DUP3 PUSH2 0x2D9 JUMP JUMPDEST PUSH0 SWAP1 PUSH2 0x28E SWAP1 DUP3 PUSH2 0x51C JUMP JUMPDEST POP PUSH1 0x1 DUP2 SWAP1 SSTORE PUSH1 0x3 SLOAD PUSH1 0x4 SLOAD PUSH1 0x40 MLOAD PUSH1 0x1 PUSH1 0x1 PUSH1 0xA0 SHL SUB SWAP1 SWAP3 AND SWAP2 PUSH32 0x4D20E64082EDE6F8EF4A1D21BE42A765E21266033FDF138A7E23EA9854300B55 SWAP2 PUSH2 0x194 SWAP2 DUP6 SWAP2 SWAP1 PUSH0 SWAP1 PUSH2 0x5DC JUMP JUMPDEST PUSH1 0x60 PUSH0 PUSH2 0x2E5 DUP4 PUSH2 0x369 JUMP JUMPDEST PUSH1 0x1 ADD SWAP1 POP PUSH0 DUP2 PUSH8 0xFFFFFFFFFFFFFFFF DUP2 GT ISZERO PUSH2 0x304 JUMPI PUSH2 0x304 PUSH2 0x484 JUMP JUMPDEST PUSH1 0x40 MLOAD SWAP1 DUP1 DUP3 MSTORE DUP1 PUSH1 0x1F ADD PUSH1 0x1F NOT AND PUSH1 0x20 ADD DUP3 ADD PUSH1 0x40 MSTORE DUP1 ISZERO PUSH2 0x32E JUMPI PUSH1 0x20 DUP3 ADD DUP2 DUP1 CALLDATASIZE DUP4 CALLDATACOPY ADD SWAP1 POP JUMPDEST POP SWAP1 POP DUP2 DUP2 ADD PUSH1 0x20 ADD JUMPDEST PUSH0 NOT ADD PUSH16 0x181899199A1A9B1B9C1CB0B131B232B3 PUSH1 0x81 SHL PUSH1 0xA DUP7 MOD BYTE DUP2 MSTORE8 PUSH1 0xA DUP6 DIV SWAP5 POP DUP5 PUSH2 0x338 JUMPI POP SWAP4 SWAP3 POP POP POP JUMP JUMPDEST PUSH0 DUP1 PUSH19 0x184F03E93FF9F4DAA797ED6E38ED64BF6A1F01 PUSH1 0x40 SHL DUP4 LT PUSH2 0x3A7 JUMPI PUSH19 0x184F03E93FF9F4DAA797ED6E38ED64BF6A1F01 PUSH1 0x40 SHL DUP4 DIV SWAP3 POP PUSH1 0x40 ADD JUMPDEST PUSH14 0x4EE2D6D415B85ACEF8100000000 DUP4 LT PUSH2 0x3D3 JUMPI PUSH14 0x4EE2D6D415B85ACEF8100000000 DUP4 DIV SWAP3 POP PUSH1 0x20 ADD JUMPDEST PUSH7 0x2386F26FC10000 DUP4 LT PUSH2 0x3F1 JUMPI PUSH7 0x2386F26FC10000 DUP4 DIV SWAP3 POP PUSH1 0x10 ADD JUMPDEST PUSH4 0x5F5E100 DUP4 LT PUSH2 0x409 JUMPI PUSH4 0x5F5E100 DUP4 DIV SWAP3 POP PUSH1 0x8 ADD JUMPDEST PUSH2 0x2710 DUP4 LT PUSH2 0x41D JUMPI PUSH2 0x2710 DUP4 DIV SWAP3 POP PUSH1 0x4 ADD JUMPDEST PUSH1 0x64 DUP4 LT PUSH2 0x42F JUMPI PUSH1 0x64 DUP4 DIV SWAP3 POP PUSH1 0x2 ADD JUMPDEST PUSH1 0xA DUP4 LT PUSH2 0x43B JUMPI PUSH1 0x1 ADD JUMPDEST SWAP3 SWAP2 POP POP JUMP JUMPDEST PUSH0 DUP1 PUSH1 0x40 DUP4 DUP6 SUB SLT ISZERO PUSH2 0x452 JUMPI PUSH0 DUP1 REVERT JUMPDEST POP POP DUP1 CALLDATALOAD SWAP3 PUSH1 0x20 SWAP1 SWAP2 ADD CALLDATALOAD SWAP2 POP JUMP JUMPDEST DUP1 DUP3 MUL DUP2 ISZERO DUP3 DUP3 DIV DUP5 EQ OR PUSH2 0x43B JUMPI PUSH4 0x4E487B71 PUSH1 0xE0 SHL PUSH0 MSTORE PUSH1 0x11 PUSH1 0x4 MSTORE PUSH1 0x24 PUSH0 REVERT JUMPDEST PUSH4 0x4E487B71 PUSH1 0xE0 SHL PUSH0 MSTORE PUSH1 0x41 PUSH1 0x4 MSTORE PUSH1 0x24 PUSH0 REVERT JUMPDEST PUSH1 0x1 DUP2 DUP2 SHR SWAP1 DUP3 AND DUP1 PUSH2 0x4AC JUMPI PUSH1 0x7F DUP3 AND SWAP2 POP JUMPDEST PUSH1 0x20 DUP3 LT DUP2 SUB PUSH2 0x4CA JUMPI PUSH4 0x4E487B71 PUSH1 0xE0 SHL PUSH0 MSTORE PUSH1 0x22 PUSH1 0x4 MSTORE PUSH1 0x24 PUSH0 REVERT JUMPDEST POP SWAP2 SWAP1 POP JUMP JUMPDEST PUSH1 0x1F DUP3 GT ISZERO PUSH2 0x517 JUMPI DUP1 PUSH0 MSTORE PUSH1 0x20 PUSH0 KECCAK256 PUSH1 0x1F DUP5 ADD PUSH1 0x5 SHR DUP2 ADD PUSH1 0x20 DUP6 LT ISZERO PUSH2 0x4F5 JUMPI POP DUP1 JUMPDEST PUSH1 0x1F DUP5 ADD PUSH1 0x5 SHR DUP3 ADD SWAP2 POP JUMPDEST DUP2 DUP2 LT ISZERO PUSH2 0x514 JUMPI PUSH0 DUP2 SSTORE PUSH1 0x1 ADD PUSH2 0x501 JUMP JUMPDEST POP POP JUMPDEST POP POP POP JUMP JUMPDEST DUP2 MLOAD PUSH8 0xFFFFFFFFFFFFFFFF DUP2 GT ISZERO PUSH2 0x536 JUMPI PUSH2 0x536 PUSH2 0x484 JUMP JUMPDEST PUSH2 0x54A DUP2 PUSH2 0x544 DUP5 SLOAD PUSH2 0x498 JUMP JUMPDEST DUP5 PUSH2 0x4D0 JUMP JUMPDEST PUSH1 0x20 DUP1 PUSH1 0x1F DUP4 GT PUSH1 0x1 DUP2 EQ PUSH2 0x57D JUMPI PUSH0 DUP5 ISZERO PUSH2 0x566 JUMPI POP DUP6 DUP4 ADD MLOAD JUMPDEST PUSH0 NOT PUSH1 0x3 DUP7 SWAP1 SHL SHR NOT AND PUSH1 0x1 DUP6 SWAP1 SHL OR DUP6 SSTORE PUSH2 0x5D4 JUMP JUMPDEST PUSH0 DUP6 DUP2 MSTORE PUSH1 0x20 DUP2 KECCAK256 PUSH1 0x1F NOT DUP7 AND SWAP2 JUMPDEST DUP3 DUP2 LT ISZERO PUSH2 0x5AB JUMPI DUP9 DUP7 ADD MLOAD DUP3 SSTORE SWAP5 DUP5 ADD SWAP5 PUSH1 0x1 SWAP1 SWAP2 ADD SWAP1 DUP5 ADD PUSH2 0x58C JUMP JUMPDEST POP DUP6 DUP3 LT ISZERO PUSH2 0x5C8 JUMPI DUP8 DUP6 ADD MLOAD PUSH0 NOT PUSH1 0x3 DUP9 SWAP1 SHL PUSH1 0xF8 AND SHR NOT AND DUP2 SSTORE JUMPDEST POP POP PUSH1 0x1 DUP5 PUSH1 0x1 SHL ADD DUP6 SSTORE JUMPDEST POP POP POP POP POP POP JUMP JUMPDEST DUP4 DUP2 MSTORE PUSH0 PUSH1 0x20 DUP5 PUSH1 0x20 DUP5 ADD MSTORE PUSH1 0x60 PUSH1 0x40 DUP5 ADD MSTORE PUSH0 DUP5 SLOAD PUSH2 0x5FB DUP2 PUSH2 0x498 JUMP JUMPDEST DUP1 PUSH1 0x60 DUP8 ADD MSTORE PUSH1 0x80 PUSH1 0x1 DUP1 DUP5 AND PUSH0 DUP2 EQ PUSH2 0x61C JUMPI PUSH1 0x1 DUP2 EQ PUSH2 0x638 JUMPI PUSH2 0x665 JUMP JUMPDEST PUSH1 0xFF NOT DUP6 AND PUSH1 0x80 DUP11 ADD MSTORE PUSH1 0x80 DUP5 ISZERO ISZERO PUSH1 0x5 SHL DUP11 ADD ADD SWAP6 POP PUSH2 0x665 JUMP JUMPDEST DUP10 PUSH0 MSTORE PUSH1 0x20 PUSH0 KECCAK256 PUSH0 JUMPDEST DUP6 DUP2 LT ISZERO PUSH2 0x65C JUMPI DUP2 SLOAD DUP12 DUP3 ADD DUP7 ADD MSTORE SWAP1 DUP4 ADD SWAP1 DUP9 ADD PUSH2 0x641 JUMP JUMPDEST DUP11 ADD PUSH1 0x80 ADD SWAP7 POP POP JUMPDEST POP SWAP4 SWAP11 SWAP10 POP POP POP POP POP POP POP POP POP POP JUMP INVALID LOG2 PUSH5 0x6970667358 0x22 SLT KECCAK256 MSTORE8 BYTE PUSH15 0xE221B83F955EB09E1AFB6C10F9BD31 MSTORE8 0x29 DUP6 PUSH23 0xF9288FBD7F56DCCB69D164736F6C634300081600330000 "
				},
				"gasEstimates": {
					"creation": {
						"codeDepositCost": "341400",
						"executionCost": "46694",
						"totalCost": "388094"
					},
					"external": {
						"declareWinner()": "34363",
						"owner()": "2380",
						"placeBet(uint256,uint256)": "infinite",
						"value()": "2283"
					}
				},
				"methodIdentifiers": {
					"declareWinner()": "14034bd2",
					"owner()": "8da5cb5b",
					"placeBet(uint256,uint256)": "4afe62b5",
					"value()": "3fa4f245"
				}
			},
			"storageLayout": {
				"storage": [
					{
						"astId": 1419,
						"contract": "contracts/3_Bet.sol:Bet",
						"label": "sportsMatch",
						"offset": 0,
						"slot": "0",
						"type": "t_string_storage"
					},
					{
						"astId": 1421,
						"contract": "contracts/3_Bet.sol:Bet",
						"label": "vote",
						"offset": 0,
						"slot": "1",
						"type": "t_uint256"
					},
					{
						"astId": 1423,
						"contract": "contracts/3_Bet.sol:Bet",
						"label": "stake",
						"offset": 0,
						"slot": "2",
						"type": "t_uint256"
					},
					{
						"astId": 1445,
						"contract": "contracts/3_Bet.sol:Bet",
						"label": "owner",
						"offset": 0,
						"slot": "3",
						"type": "t_address"
					},
					{
						"astId": 1447,
						"contract": "contracts/3_Bet.sol:Bet",
						"label": "value",
						"offset": 0,
						"slot": "4",
						"type": "t_uint256"
					}
				],
				"types": {
					"t_address": {
						"encoding": "inplace",
						"label": "address",
						"numberOfBytes": "20"
					},
					"t_string_storage": {
						"encoding": "bytes",
						"label": "string",
						"numberOfBytes": "32"
					},
					"t_uint256": {
						"encoding": "inplace",
						"label": "uint256",
						"numberOfBytes": "32"
					}
				}
			},
			"userdoc": {
				"kind": "user",
				"methods": {
					"constructor": {
						"notice": "von ChatGPT"
					}
				},
				"version": 1
			}
		}
	}
}