{
	"contracts/BetContract.sol": {
		"BetContract": {
			"abi": [
				{
					"inputs": [],
					"stateMutability": "nonpayable",
					"type": "constructor"
				},
				{
					"inputs": [
						{
							"internalType": "uint8",
							"name": "_gameId",
							"type": "uint8"
						},
						{
							"internalType": "uint8",
							"name": "_winPrediction",
							"type": "uint8"
						}
					],
					"name": "addBet",
					"outputs": [],
					"stateMutability": "payable",
					"type": "function"
				},
				{
					"inputs": [
						{
							"internalType": "string",
							"name": "_name",
							"type": "string"
						},
						{
							"internalType": "uint256",
							"name": "_betAmount",
							"type": "uint256"
						}
					],
					"name": "addGame",
					"outputs": [],
					"stateMutability": "nonpayable",
					"type": "function"
				},
				{
					"inputs": [
						{
							"internalType": "uint8",
							"name": "_gameId",
							"type": "uint8"
						},
						{
							"internalType": "uint8",
							"name": "_winner",
							"type": "uint8"
						}
					],
					"name": "addGameWinner",
					"outputs": [],
					"stateMutability": "nonpayable",
					"type": "function"
				},
				{
					"inputs": [
						{
							"internalType": "uint8",
							"name": "_gameId",
							"type": "uint8"
						}
					],
					"name": "closeBets",
					"outputs": [],
					"stateMutability": "nonpayable",
					"type": "function"
				},
				{
					"inputs": [
						{
							"internalType": "uint256",
							"name": "_gameId",
							"type": "uint256"
						}
					],
					"name": "collectWinnings",
					"outputs": [],
					"stateMutability": "nonpayable",
					"type": "function"
				},
				{
					"inputs": [
						{
							"internalType": "uint256",
							"name": "",
							"type": "uint256"
						}
					],
					"name": "games",
					"outputs": [
						{
							"internalType": "uint256",
							"name": "id",
							"type": "uint256"
						},
						{
							"internalType": "string",
							"name": "name",
							"type": "string"
						},
						{
							"internalType": "uint8",
							"name": "winner",
							"type": "uint8"
						},
						{
							"internalType": "bool",
							"name": "isOver",
							"type": "bool"
						},
						{
							"internalType": "uint256",
							"name": "betAmount",
							"type": "uint256"
						},
						{
							"internalType": "uint256",
							"name": "counterTeamOne",
							"type": "uint256"
						},
						{
							"internalType": "uint256",
							"name": "counterTeamTwo",
							"type": "uint256"
						},
						{
							"internalType": "uint256",
							"name": "counterDraw",
							"type": "uint256"
						},
						{
							"internalType": "uint256",
							"name": "betCount",
							"type": "uint256"
						}
					],
					"stateMutability": "view",
					"type": "function"
				},
				{
					"inputs": [],
					"name": "owner",
					"outputs": [
						{
							"internalType": "address",
							"name": "",
							"type": "address"
						}
					],
					"stateMutability": "view",
					"type": "function"
				}
			],
			"devdoc": {
				"kind": "dev",
				"methods": {},
				"version": 1
			},
			"evm": {
				"assembly": "    /* \"contracts/BetContract.sol\":168:4210  contract BetContract {... */\n  mstore(0x40, 0x80)\n    /* \"contracts/BetContract.sol\":1220:1271  constructor() {... */\n  callvalue\n  dup1\n  iszero\n  tag_1\n  jumpi\n  0x00\n  dup1\n  revert\ntag_1:\n  pop\n    /* \"contracts/BetContract.sol\":1253:1263  msg.sender */\n  caller\n    /* \"contracts/BetContract.sol\":1245:1250  owner */\n  0x00\n  dup1\n    /* \"contracts/BetContract.sol\":1245:1263  owner = msg.sender */\n  0x0100\n  exp\n  dup2\n  sload\n  dup2\n  0xffffffffffffffffffffffffffffffffffffffff\n  mul\n  not\n  and\n  swap1\n  dup4\n  0xffffffffffffffffffffffffffffffffffffffff\n  and\n  mul\n  or\n  swap1\n  sstore\n  pop\n    /* \"contracts/BetContract.sol\":168:4210  contract BetContract {... */\n  dataSize(sub_0)\n  dup1\n  dataOffset(sub_0)\n  0x00\n  codecopy\n  0x00\n  return\nstop\n\nsub_0: assembly {\n        /* \"contracts/BetContract.sol\":168:4210  contract BetContract {... */\n      mstore(0x40, 0x80)\n      jumpi(tag_1, lt(calldatasize, 0x04))\n      shr(0xe0, calldataload(0x00))\n      dup1\n      0x4ac22bc9\n      gt\n      tag_9\n      jumpi\n      dup1\n      0x4ac22bc9\n      eq\n      tag_5\n      jumpi\n      dup1\n      0x8da5cb5b\n      eq\n      tag_6\n      jumpi\n      dup1\n      0xb3aa2fe1\n      eq\n      tag_7\n      jumpi\n      dup1\n      0xc22c57c7\n      eq\n      tag_8\n      jumpi\n      jump(tag_1)\n    tag_9:\n      dup1\n      0x117a5b90\n      eq\n      tag_2\n      jumpi\n      dup1\n      0x25c9e9b3\n      eq\n      tag_3\n      jumpi\n      dup1\n      0x2c926479\n      eq\n      tag_4\n      jumpi\n    tag_1:\n      0x00\n      dup1\n      revert\n        /* \"contracts/BetContract.sol\":223:242  Game[] public games */\n    tag_2:\n      callvalue\n      dup1\n      iszero\n      tag_10\n      jumpi\n      0x00\n      dup1\n      revert\n    tag_10:\n      pop\n      tag_11\n      0x04\n      dup1\n      calldatasize\n      sub\n      dup2\n      add\n      swap1\n      tag_12\n      swap2\n      swap1\n      tag_13\n      jump\t// in\n    tag_12:\n      tag_14\n      jump\t// in\n    tag_11:\n      mload(0x40)\n      tag_15\n      swap10\n      swap9\n      swap8\n      swap7\n      swap6\n      swap5\n      swap4\n      swap3\n      swap2\n      swap1\n      tag_16\n      jump\t// in\n    tag_15:\n      mload(0x40)\n      dup1\n      swap2\n      sub\n      swap1\n      return\n        /* \"contracts/BetContract.sol\":1790:1888  function closeBets(uint8 _gameId) public onlyOwner {... */\n    tag_3:\n      callvalue\n      dup1\n      iszero\n      tag_17\n      jumpi\n      0x00\n      dup1\n      revert\n    tag_17:\n      pop\n      tag_18\n      0x04\n      dup1\n      calldatasize\n      sub\n      dup2\n      add\n      swap1\n      tag_19\n      swap2\n      swap1\n      tag_20\n      jump\t// in\n    tag_19:\n      tag_21\n      jump\t// in\n    tag_18:\n      stop\n        /* \"contracts/BetContract.sol\":1947:2067  function addGameWinner(uint8 _gameId, uint8 _winner) public onlyOwner {... */\n    tag_4:\n      callvalue\n      dup1\n      iszero\n      tag_22\n      jumpi\n      0x00\n      dup1\n      revert\n    tag_22:\n      pop\n      tag_23\n      0x04\n      dup1\n      calldatasize\n      sub\n      dup2\n      add\n      swap1\n      tag_24\n      swap2\n      swap1\n      tag_25\n      jump\t// in\n    tag_24:\n      tag_26\n      jump\t// in\n    tag_23:\n      stop\n        /* \"contracts/BetContract.sol\":2365:3232  function addBet(uint8 _gameId, uint8 _winPrediction) public payable {... */\n    tag_5:\n      tag_27\n      0x04\n      dup1\n      calldatasize\n      sub\n      dup2\n      add\n      swap1\n      tag_28\n      swap2\n      swap1\n      tag_25\n      jump\t// in\n    tag_28:\n      tag_29\n      jump\t// in\n    tag_27:\n      stop\n        /* \"contracts/BetContract.sol\":196:216  address public owner */\n    tag_6:\n      callvalue\n      dup1\n      iszero\n      tag_30\n      jumpi\n      0x00\n      dup1\n      revert\n    tag_30:\n      pop\n      tag_31\n      tag_32\n      jump\t// in\n    tag_31:\n      mload(0x40)\n      tag_33\n      swap2\n      swap1\n      tag_34\n      jump\t// in\n    tag_33:\n      mload(0x40)\n      dup1\n      swap2\n      sub\n      swap1\n      return\n        /* \"contracts/BetContract.sol\":1459:1724  function addGame(string memory _name, uint _betAmount) public onlyOwner {... */\n    tag_7:\n      callvalue\n      dup1\n      iszero\n      tag_35\n      jumpi\n      0x00\n      dup1\n      revert\n    tag_35:\n      pop\n      tag_36\n      0x04\n      dup1\n      calldatasize\n      sub\n      dup2\n      add\n      swap1\n      tag_37\n      swap2\n      swap1\n      tag_38\n      jump\t// in\n    tag_37:\n      tag_39\n      jump\t// in\n    tag_36:\n      stop\n        /* \"contracts/BetContract.sol\":3240:4205  function collectWinnings(uint _gameId) public {... */\n    tag_8:\n      callvalue\n      dup1\n      iszero\n      tag_40\n      jumpi\n      0x00\n      dup1\n      revert\n    tag_40:\n      pop\n      tag_41\n      0x04\n      dup1\n      calldatasize\n      sub\n      dup2\n      add\n      swap1\n      tag_42\n      swap2\n      swap1\n      tag_13\n      jump\t// in\n    tag_42:\n      tag_43\n      jump\t// in\n    tag_41:\n      stop\n        /* \"contracts/BetContract.sol\":223:242  Game[] public games */\n    tag_14:\n      0x01\n      dup2\n      dup2\n      sload\n      dup2\n      lt\n      tag_44\n      jumpi\n      0x00\n      dup1\n      revert\n    tag_44:\n      swap1\n      0x00\n      mstore\n      keccak256(0x00, 0x20)\n      swap1\n      0x09\n      mul\n      add\n      0x00\n      swap2\n      pop\n      swap1\n      pop\n      dup1\n      0x00\n      add\n      sload\n      swap1\n      dup1\n      0x01\n      add\n      dup1\n      sload\n      tag_46\n      swap1\n      tag_47\n      jump\t// in\n    tag_46:\n      dup1\n      0x1f\n      add\n      0x20\n      dup1\n      swap2\n      div\n      mul\n      0x20\n      add\n      mload(0x40)\n      swap1\n      dup2\n      add\n      0x40\n      mstore\n      dup1\n      swap3\n      swap2\n      swap1\n      dup2\n      dup2\n      mstore\n      0x20\n      add\n      dup3\n      dup1\n      sload\n      tag_48\n      swap1\n      tag_47\n      jump\t// in\n    tag_48:\n      dup1\n      iszero\n      tag_49\n      jumpi\n      dup1\n      0x1f\n      lt\n      tag_50\n      jumpi\n      0x0100\n      dup1\n      dup4\n      sload\n      div\n      mul\n      dup4\n      mstore\n      swap2\n      0x20\n      add\n      swap2\n      jump(tag_49)\n    tag_50:\n      dup3\n      add\n      swap2\n      swap1\n      0x00\n      mstore\n      keccak256(0x00, 0x20)\n      swap1\n    tag_51:\n      dup2\n      sload\n      dup2\n      mstore\n      swap1\n      0x01\n      add\n      swap1\n      0x20\n      add\n      dup1\n      dup4\n      gt\n      tag_51\n      jumpi\n      dup3\n      swap1\n      sub\n      0x1f\n      and\n      dup3\n      add\n      swap2\n    tag_49:\n      pop\n      pop\n      pop\n      pop\n      pop\n      swap1\n      dup1\n      0x02\n      add\n      0x00\n      swap1\n      sload\n      swap1\n      0x0100\n      exp\n      swap1\n      div\n      0xff\n      and\n      swap1\n      dup1\n      0x02\n      add\n      0x01\n      swap1\n      sload\n      swap1\n      0x0100\n      exp\n      swap1\n      div\n      0xff\n      and\n      swap1\n      dup1\n      0x03\n      add\n      sload\n      swap1\n      dup1\n      0x04\n      add\n      sload\n      swap1\n      dup1\n      0x05\n      add\n      sload\n      swap1\n      dup1\n      0x06\n      add\n      sload\n      swap1\n      dup1\n      0x08\n      add\n      sload\n      swap1\n      pop\n      dup10\n      jump\t// out\n        /* \"contracts/BetContract.sol\":1790:1888  function closeBets(uint8 _gameId) public onlyOwner {... */\n    tag_21:\n        /* \"contracts/BetContract.sol\":1333:1338  owner */\n      0x00\n      dup1\n      sload\n      swap1\n      0x0100\n      exp\n      swap1\n      div\n      0xffffffffffffffffffffffffffffffffffffffff\n      and\n        /* \"contracts/BetContract.sol\":1319:1338  msg.sender == owner */\n      0xffffffffffffffffffffffffffffffffffffffff\n      and\n        /* \"contracts/BetContract.sol\":1319:1329  msg.sender */\n      caller\n        /* \"contracts/BetContract.sol\":1319:1338  msg.sender == owner */\n      0xffffffffffffffffffffffffffffffffffffffff\n      and\n      eq\n        /* \"contracts/BetContract.sol\":1311:1380  require(msg.sender == owner, \"Only the owner can call this function\") */\n      tag_53\n      jumpi\n      mload(0x40)\n      0x08c379a000000000000000000000000000000000000000000000000000000000\n      dup2\n      mstore\n      0x04\n      add\n      tag_54\n      swap1\n      tag_55\n      jump\t// in\n    tag_54:\n      mload(0x40)\n      dup1\n      swap2\n      sub\n      swap1\n      revert\n    tag_53:\n        /* \"contracts/BetContract.sol\":1876:1880  true */\n      0x01\n        /* \"contracts/BetContract.sol\":1852:1857  games */\n      dup1\n        /* \"contracts/BetContract.sol\":1858:1865  _gameId */\n      dup3\n        /* \"contracts/BetContract.sol\":1852:1866  games[_gameId] */\n      0xff\n      and\n      dup2\n      sload\n      dup2\n      lt\n      tag_57\n      jumpi\n      tag_58\n      tag_59\n      jump\t// in\n    tag_58:\n    tag_57:\n      swap1\n      0x00\n      mstore\n      keccak256(0x00, 0x20)\n      swap1\n      0x09\n      mul\n      add\n        /* \"contracts/BetContract.sol\":1852:1873  games[_gameId].isOver */\n      0x02\n      add\n      0x01\n        /* \"contracts/BetContract.sol\":1852:1880  games[_gameId].isOver = true */\n      0x0100\n      exp\n      dup2\n      sload\n      dup2\n      0xff\n      mul\n      not\n      and\n      swap1\n      dup4\n      iszero\n      iszero\n      mul\n      or\n      swap1\n      sstore\n      pop\n        /* \"contracts/BetContract.sol\":1790:1888  function closeBets(uint8 _gameId) public onlyOwner {... */\n      pop\n      jump\t// out\n        /* \"contracts/BetContract.sol\":1947:2067  function addGameWinner(uint8 _gameId, uint8 _winner) public onlyOwner {... */\n    tag_26:\n        /* \"contracts/BetContract.sol\":1333:1338  owner */\n      0x00\n      dup1\n      sload\n      swap1\n      0x0100\n      exp\n      swap1\n      div\n      0xffffffffffffffffffffffffffffffffffffffff\n      and\n        /* \"contracts/BetContract.sol\":1319:1338  msg.sender == owner */\n      0xffffffffffffffffffffffffffffffffffffffff\n      and\n        /* \"contracts/BetContract.sol\":1319:1329  msg.sender */\n      caller\n        /* \"contracts/BetContract.sol\":1319:1338  msg.sender == owner */\n      0xffffffffffffffffffffffffffffffffffffffff\n      and\n      eq\n        /* \"contracts/BetContract.sol\":1311:1380  require(msg.sender == owner, \"Only the owner can call this function\") */\n      tag_62\n      jumpi\n      mload(0x40)\n      0x08c379a000000000000000000000000000000000000000000000000000000000\n      dup2\n      mstore\n      0x04\n      add\n      tag_63\n      swap1\n      tag_55\n      jump\t// in\n    tag_63:\n      mload(0x40)\n      dup1\n      swap2\n      sub\n      swap1\n      revert\n    tag_62:\n        /* \"contracts/BetContract.sol\":2052:2059  _winner */\n      dup1\n        /* \"contracts/BetContract.sol\":2028:2033  games */\n      0x01\n        /* \"contracts/BetContract.sol\":2034:2041  _gameId */\n      dup4\n        /* \"contracts/BetContract.sol\":2028:2042  games[_gameId] */\n      0xff\n      and\n      dup2\n      sload\n      dup2\n      lt\n      tag_65\n      jumpi\n      tag_66\n      tag_59\n      jump\t// in\n    tag_66:\n    tag_65:\n      swap1\n      0x00\n      mstore\n      keccak256(0x00, 0x20)\n      swap1\n      0x09\n      mul\n      add\n        /* \"contracts/BetContract.sol\":2028:2049  games[_gameId].winner */\n      0x02\n      add\n      0x00\n        /* \"contracts/BetContract.sol\":2028:2059  games[_gameId].winner = _winner */\n      0x0100\n      exp\n      dup2\n      sload\n      dup2\n      0xff\n      mul\n      not\n      and\n      swap1\n      dup4\n      0xff\n      and\n      mul\n      or\n      swap1\n      sstore\n      pop\n        /* \"contracts/BetContract.sol\":1947:2067  function addGameWinner(uint8 _gameId, uint8 _winner) public onlyOwner {... */\n      pop\n      pop\n      jump\t// out\n        /* \"contracts/BetContract.sol\":2365:3232  function addBet(uint8 _gameId, uint8 _winPrediction) public payable {... */\n    tag_29:\n        /* \"contracts/BetContract.sol\":2453:2458  games */\n      0x01\n        /* \"contracts/BetContract.sol\":2459:2466  _gameId */\n      dup3\n        /* \"contracts/BetContract.sol\":2453:2467  games[_gameId] */\n      0xff\n      and\n      dup2\n      sload\n      dup2\n      lt\n      tag_69\n      jumpi\n      tag_70\n      tag_59\n      jump\t// in\n    tag_70:\n    tag_69:\n      swap1\n      0x00\n      mstore\n      keccak256(0x00, 0x20)\n      swap1\n      0x09\n      mul\n      add\n        /* \"contracts/BetContract.sol\":2453:2474  games[_gameId].isOver */\n      0x02\n      add\n      0x01\n      swap1\n      sload\n      swap1\n      0x0100\n      exp\n      swap1\n      div\n      0xff\n      and\n        /* \"contracts/BetContract.sol\":2452:2474  !games[_gameId].isOver */\n      iszero\n        /* \"contracts/BetContract.sol\":2444:2517  require(!games[_gameId].isOver, \"Game is over - no bets allowed anymore\") */\n      tag_72\n      jumpi\n      mload(0x40)\n      0x08c379a000000000000000000000000000000000000000000000000000000000\n      dup2\n      mstore\n      0x04\n      add\n      tag_73\n      swap1\n      tag_74\n      jump\t// in\n    tag_73:\n      mload(0x40)\n      dup1\n      swap2\n      sub\n      swap1\n      revert\n    tag_72:\n        /* \"contracts/BetContract.sol\":2585:2586  0 */\n      0x00\n        /* \"contracts/BetContract.sol\":2536:2541  games */\n      0x01\n        /* \"contracts/BetContract.sol\":2542:2549  _gameId */\n      dup4\n        /* \"contracts/BetContract.sol\":2536:2550  games[_gameId] */\n      0xff\n      and\n      dup2\n      sload\n      dup2\n      lt\n      tag_75\n      jumpi\n      tag_76\n      tag_59\n      jump\t// in\n    tag_76:\n    tag_75:\n      swap1\n      0x00\n      mstore\n      keccak256(0x00, 0x20)\n      swap1\n      0x09\n      mul\n      add\n        /* \"contracts/BetContract.sol\":2536:2555  games[_gameId].bets */\n      0x07\n      add\n        /* \"contracts/BetContract.sol\":2536:2567  games[_gameId].bets[msg.sender] */\n      0x00\n        /* \"contracts/BetContract.sol\":2556:2566  msg.sender */\n      caller\n        /* \"contracts/BetContract.sol\":2536:2567  games[_gameId].bets[msg.sender] */\n      0xffffffffffffffffffffffffffffffffffffffff\n      and\n      0xffffffffffffffffffffffffffffffffffffffff\n      and\n      dup2\n      mstore\n      0x20\n      add\n      swap1\n      dup2\n      mstore\n      0x20\n      add\n      0x00\n      keccak256\n        /* \"contracts/BetContract.sol\":2536:2581  games[_gameId].bets[msg.sender].winPrediction */\n      0x02\n      add\n      0x00\n      swap1\n      sload\n      swap1\n      0x0100\n      exp\n      swap1\n      div\n      0xff\n      and\n        /* \"contracts/BetContract.sol\":2536:2586  games[_gameId].bets[msg.sender].winPrediction == 0 */\n      0xff\n      and\n      eq\n        /* \"contracts/BetContract.sol\":2528:2632  require(games[_gameId].bets[msg.sender].winPrediction == 0, \"You already bet - no bets allowed anymore\") */\n      tag_78\n      jumpi\n      mload(0x40)\n      0x08c379a000000000000000000000000000000000000000000000000000000000\n      dup2\n      mstore\n      0x04\n      add\n      tag_79\n      swap1\n      tag_80\n      jump\t// in\n    tag_79:\n      mload(0x40)\n      dup1\n      swap2\n      sub\n      swap1\n      revert\n    tag_78:\n        /* \"contracts/BetContract.sol\":2664:2669  games */\n      0x01\n        /* \"contracts/BetContract.sol\":2670:2677  _gameId */\n      dup3\n        /* \"contracts/BetContract.sol\":2664:2678  games[_gameId] */\n      0xff\n      and\n      dup2\n      sload\n      dup2\n      lt\n      tag_81\n      jumpi\n      tag_82\n      tag_59\n      jump\t// in\n    tag_82:\n    tag_81:\n      swap1\n      0x00\n      mstore\n      keccak256(0x00, 0x20)\n      swap1\n      0x09\n      mul\n      add\n        /* \"contracts/BetContract.sol\":2664:2688  games[_gameId].betAmount */\n      0x03\n      add\n      sload\n        /* \"contracts/BetContract.sol\":2651:2660  msg.value */\n      callvalue\n        /* \"contracts/BetContract.sol\":2651:2688  msg.value == games[_gameId].betAmount */\n      eq\n        /* \"contracts/BetContract.sol\":2643:2750  require(msg.value == games[_gameId].betAmount, \"Bet does not equal the specified bet amount for this game\") */\n      tag_84\n      jumpi\n      mload(0x40)\n      0x08c379a000000000000000000000000000000000000000000000000000000000\n      dup2\n      mstore\n      0x04\n      add\n      tag_85\n      swap1\n      tag_86\n      jump\t// in\n    tag_85:\n      mload(0x40)\n      dup1\n      swap2\n      sub\n      swap1\n      revert\n    tag_84:\n        /* \"contracts/BetContract.sol\":2937:2977  Bet(msg.sender, _gameId, _winPrediction) */\n      mload(0x40)\n      dup1\n      0x60\n      add\n      0x40\n      mstore\n      dup1\n        /* \"contracts/BetContract.sol\":2941:2951  msg.sender */\n      caller\n        /* \"contracts/BetContract.sol\":2937:2977  Bet(msg.sender, _gameId, _winPrediction) */\n      0xffffffffffffffffffffffffffffffffffffffff\n      and\n      dup2\n      mstore\n      0x20\n      add\n        /* \"contracts/BetContract.sol\":2953:2960  _gameId */\n      dup4\n        /* \"contracts/BetContract.sol\":2937:2977  Bet(msg.sender, _gameId, _winPrediction) */\n      0xff\n      and\n      dup2\n      mstore\n      0x20\n      add\n        /* \"contracts/BetContract.sol\":2962:2976  _winPrediction */\n      dup3\n        /* \"contracts/BetContract.sol\":2937:2977  Bet(msg.sender, _gameId, _winPrediction) */\n      0xff\n      and\n      dup2\n      mstore\n      pop\n        /* \"contracts/BetContract.sol\":2903:2908  games */\n      0x01\n        /* \"contracts/BetContract.sol\":2909:2916  _gameId */\n      dup4\n        /* \"contracts/BetContract.sol\":2903:2917  games[_gameId] */\n      0xff\n      and\n      dup2\n      sload\n      dup2\n      lt\n      tag_87\n      jumpi\n      tag_88\n      tag_59\n      jump\t// in\n    tag_88:\n    tag_87:\n      swap1\n      0x00\n      mstore\n      keccak256(0x00, 0x20)\n      swap1\n      0x09\n      mul\n      add\n        /* \"contracts/BetContract.sol\":2903:2922  games[_gameId].bets */\n      0x07\n      add\n        /* \"contracts/BetContract.sol\":2903:2934  games[_gameId].bets[msg.sender] */\n      0x00\n        /* \"contracts/BetContract.sol\":2923:2933  msg.sender */\n      caller\n        /* \"contracts/BetContract.sol\":2903:2934  games[_gameId].bets[msg.sender] */\n      0xffffffffffffffffffffffffffffffffffffffff\n      and\n      0xffffffffffffffffffffffffffffffffffffffff\n      and\n      dup2\n      mstore\n      0x20\n      add\n      swap1\n      dup2\n      mstore\n      0x20\n      add\n      0x00\n      keccak256\n        /* \"contracts/BetContract.sol\":2903:2977  games[_gameId].bets[msg.sender] = Bet(msg.sender, _gameId, _winPrediction) */\n      0x00\n      dup3\n      add\n      mload\n      dup2\n      0x00\n      add\n      exp(0x0100, 0x00)\n      dup2\n      sload\n      dup2\n      0xffffffffffffffffffffffffffffffffffffffff\n      mul\n      not\n      and\n      swap1\n      dup4\n      0xffffffffffffffffffffffffffffffffffffffff\n      and\n      mul\n      or\n      swap1\n      sstore\n      pop\n      0x20\n      dup3\n      add\n      mload\n      dup2\n      0x01\n      add\n      sstore\n      0x40\n      dup3\n      add\n      mload\n      dup2\n      0x02\n      add\n      exp(0x0100, 0x00)\n      dup2\n      sload\n      dup2\n      0xff\n      mul\n      not\n      and\n      swap1\n      dup4\n      0xff\n      and\n      mul\n      or\n      swap1\n      sstore\n      pop\n      swap1\n      pop\n      pop\n        /* \"contracts/BetContract.sol\":2988:2993  games */\n      0x01\n        /* \"contracts/BetContract.sol\":2994:3001  _gameId */\n      dup3\n        /* \"contracts/BetContract.sol\":2988:3002  games[_gameId] */\n      0xff\n      and\n      dup2\n      sload\n      dup2\n      lt\n      tag_90\n      jumpi\n      tag_91\n      tag_59\n      jump\t// in\n    tag_91:\n    tag_90:\n      swap1\n      0x00\n      mstore\n      keccak256(0x00, 0x20)\n      swap1\n      0x09\n      mul\n      add\n        /* \"contracts/BetContract.sol\":2988:3011  games[_gameId].betCount */\n      0x08\n      add\n      0x00\n        /* \"contracts/BetContract.sol\":2988:3013  games[_gameId].betCount++ */\n      dup2\n      sload\n      dup1\n      swap3\n      swap2\n      swap1\n      tag_93\n      swap1\n      tag_94\n      jump\t// in\n    tag_93:\n      swap2\n      swap1\n      pop\n      sstore\n      pop\n        /* \"contracts/BetContract.sol\":3046:3047  1 */\n      0x01\n        /* \"contracts/BetContract.sol\":3028:3042  _winPrediction */\n      dup2\n        /* \"contracts/BetContract.sol\":3028:3047  _winPrediction == 1 */\n      0xff\n      and\n      sub\n        /* \"contracts/BetContract.sol\":3024:3224  if (_winPrediction == 1)  games[_gameId].counterTeamOne++;... */\n      tag_95\n      jumpi\n        /* \"contracts/BetContract.sol\":3050:3055  games */\n      0x01\n        /* \"contracts/BetContract.sol\":3056:3063  _gameId */\n      dup3\n        /* \"contracts/BetContract.sol\":3050:3064  games[_gameId] */\n      0xff\n      and\n      dup2\n      sload\n      dup2\n      lt\n      tag_96\n      jumpi\n      tag_97\n      tag_59\n      jump\t// in\n    tag_97:\n    tag_96:\n      swap1\n      0x00\n      mstore\n      keccak256(0x00, 0x20)\n      swap1\n      0x09\n      mul\n      add\n        /* \"contracts/BetContract.sol\":3050:3079  games[_gameId].counterTeamOne */\n      0x04\n      add\n      0x00\n        /* \"contracts/BetContract.sol\":3050:3081  games[_gameId].counterTeamOne++ */\n      dup2\n      sload\n      dup1\n      swap3\n      swap2\n      swap1\n      tag_99\n      swap1\n      tag_94\n      jump\t// in\n    tag_99:\n      swap2\n      swap1\n      pop\n      sstore\n      pop\n        /* \"contracts/BetContract.sol\":3024:3224  if (_winPrediction == 1)  games[_gameId].counterTeamOne++;... */\n      jump(tag_100)\n    tag_95:\n        /* \"contracts/BetContract.sol\":3119:3120  2 */\n      0x02\n        /* \"contracts/BetContract.sol\":3101:3115  _winPrediction */\n      dup2\n        /* \"contracts/BetContract.sol\":3101:3120  _winPrediction == 2 */\n      0xff\n      and\n      sub\n        /* \"contracts/BetContract.sol\":3097:3224  if (_winPrediction == 2)  games[_gameId].counterTeamTwo++;... */\n      tag_101\n      jumpi\n        /* \"contracts/BetContract.sol\":3123:3128  games */\n      0x01\n        /* \"contracts/BetContract.sol\":3129:3136  _gameId */\n      dup3\n        /* \"contracts/BetContract.sol\":3123:3137  games[_gameId] */\n      0xff\n      and\n      dup2\n      sload\n      dup2\n      lt\n      tag_102\n      jumpi\n      tag_103\n      tag_59\n      jump\t// in\n    tag_103:\n    tag_102:\n      swap1\n      0x00\n      mstore\n      keccak256(0x00, 0x20)\n      swap1\n      0x09\n      mul\n      add\n        /* \"contracts/BetContract.sol\":3123:3152  games[_gameId].counterTeamTwo */\n      0x05\n      add\n      0x00\n        /* \"contracts/BetContract.sol\":3123:3154  games[_gameId].counterTeamTwo++ */\n      dup2\n      sload\n      dup1\n      swap3\n      swap2\n      swap1\n      tag_105\n      swap1\n      tag_94\n      jump\t// in\n    tag_105:\n      swap2\n      swap1\n      pop\n      sstore\n      pop\n        /* \"contracts/BetContract.sol\":3097:3224  if (_winPrediction == 2)  games[_gameId].counterTeamTwo++;... */\n      jump(tag_106)\n    tag_101:\n        /* \"contracts/BetContract.sol\":3192:3193  3 */\n      0x03\n        /* \"contracts/BetContract.sol\":3174:3188  _winPrediction */\n      dup2\n        /* \"contracts/BetContract.sol\":3174:3193  _winPrediction == 3 */\n      0xff\n      and\n      sub\n        /* \"contracts/BetContract.sol\":3170:3224  if (_winPrediction == 3)  games[_gameId].counterDraw++ */\n      tag_107\n      jumpi\n        /* \"contracts/BetContract.sol\":3196:3201  games */\n      0x01\n        /* \"contracts/BetContract.sol\":3202:3209  _gameId */\n      dup3\n        /* \"contracts/BetContract.sol\":3196:3210  games[_gameId] */\n      0xff\n      and\n      dup2\n      sload\n      dup2\n      lt\n      tag_108\n      jumpi\n      tag_109\n      tag_59\n      jump\t// in\n    tag_109:\n    tag_108:\n      swap1\n      0x00\n      mstore\n      keccak256(0x00, 0x20)\n      swap1\n      0x09\n      mul\n      add\n        /* \"contracts/BetContract.sol\":3196:3222  games[_gameId].counterDraw */\n      0x06\n      add\n      0x00\n        /* \"contracts/BetContract.sol\":3196:3224  games[_gameId].counterDraw++ */\n      dup2\n      sload\n      dup1\n      swap3\n      swap2\n      swap1\n      tag_111\n      swap1\n      tag_94\n      jump\t// in\n    tag_111:\n      swap2\n      swap1\n      pop\n      sstore\n      pop\n        /* \"contracts/BetContract.sol\":3170:3224  if (_winPrediction == 3)  games[_gameId].counterDraw++ */\n    tag_107:\n        /* \"contracts/BetContract.sol\":3097:3224  if (_winPrediction == 2)  games[_gameId].counterTeamTwo++;... */\n    tag_106:\n        /* \"contracts/BetContract.sol\":3024:3224  if (_winPrediction == 1)  games[_gameId].counterTeamOne++;... */\n    tag_100:\n        /* \"contracts/BetContract.sol\":2365:3232  function addBet(uint8 _gameId, uint8 _winPrediction) public payable {... */\n      pop\n      pop\n      jump\t// out\n        /* \"contracts/BetContract.sol\":196:216  address public owner */\n    tag_32:\n      0x00\n      dup1\n      sload\n      swap1\n      0x0100\n      exp\n      swap1\n      div\n      0xffffffffffffffffffffffffffffffffffffffff\n      and\n      dup2\n      jump\t// out\n        /* \"contracts/BetContract.sol\":1459:1724  function addGame(string memory _name, uint _betAmount) public onlyOwner {... */\n    tag_39:\n        /* \"contracts/BetContract.sol\":1333:1338  owner */\n      0x00\n      dup1\n      sload\n      swap1\n      0x0100\n      exp\n      swap1\n      div\n      0xffffffffffffffffffffffffffffffffffffffff\n      and\n        /* \"contracts/BetContract.sol\":1319:1338  msg.sender == owner */\n      0xffffffffffffffffffffffffffffffffffffffff\n      and\n        /* \"contracts/BetContract.sol\":1319:1329  msg.sender */\n      caller\n        /* \"contracts/BetContract.sol\":1319:1338  msg.sender == owner */\n      0xffffffffffffffffffffffffffffffffffffffff\n      and\n      eq\n        /* \"contracts/BetContract.sol\":1311:1380  require(msg.sender == owner, \"Only the owner can call this function\") */\n      tag_113\n      jumpi\n      mload(0x40)\n      0x08c379a000000000000000000000000000000000000000000000000000000000\n      dup2\n      mstore\n      0x04\n      add\n      tag_114\n      swap1\n      tag_55\n      jump\t// in\n    tag_114:\n      mload(0x40)\n      dup1\n      swap2\n      sub\n      swap1\n      revert\n    tag_113:\n        /* \"contracts/BetContract.sol\":1542:1553  uint gameId */\n      0x00\n        /* \"contracts/BetContract.sol\":1556:1561  games */\n      0x01\n        /* \"contracts/BetContract.sol\":1556:1568  games.length */\n      dup1\n      sload\n      swap1\n      pop\n        /* \"contracts/BetContract.sol\":1542:1568  uint gameId = games.length */\n      swap1\n      pop\n        /* \"contracts/BetContract.sol\":1579:1599  Game storage newGame */\n      0x00\n        /* \"contracts/BetContract.sol\":1602:1607  games */\n      0x01\n        /* \"contracts/BetContract.sol\":1602:1614  games.push() */\n      dup1\n      dup2\n      0x01\n      dup2\n      sload\n      add\n      dup1\n      dup3\n      sstore\n      dup1\n      swap2\n      pop\n      pop\n      sub\n      swap1\n      0x00\n      mstore\n      keccak256(0x00, 0x20)\n      swap1\n      0x09\n      mul\n      add\n        /* \"contracts/BetContract.sol\":1579:1614  Game storage newGame = games.push() */\n      swap1\n      pop\n        /* \"contracts/BetContract.sol\":1638:1644  gameId */\n      dup2\n        /* \"contracts/BetContract.sol\":1625:1632  newGame */\n      dup2\n        /* \"contracts/BetContract.sol\":1625:1635  newGame.id */\n      0x00\n      add\n        /* \"contracts/BetContract.sol\":1625:1644  newGame.id = gameId */\n      dup2\n      swap1\n      sstore\n      pop\n        /* \"contracts/BetContract.sol\":1670:1675  _name */\n      dup4\n        /* \"contracts/BetContract.sol\":1655:1662  newGame */\n      dup2\n        /* \"contracts/BetContract.sol\":1655:1667  newGame.name */\n      0x01\n      add\n        /* \"contracts/BetContract.sol\":1655:1675  newGame.name = _name */\n      swap1\n      dup2\n      tag_117\n      swap2\n      swap1\n      tag_118\n      jump\t// in\n    tag_117:\n      pop\n        /* \"contracts/BetContract.sol\":1706:1716  _betAmount */\n      dup3\n        /* \"contracts/BetContract.sol\":1686:1693  newGame */\n      dup2\n        /* \"contracts/BetContract.sol\":1686:1703  newGame.betAmount */\n      0x03\n      add\n        /* \"contracts/BetContract.sol\":1686:1716  newGame.betAmount = _betAmount */\n      dup2\n      swap1\n      sstore\n      pop\n        /* \"contracts/BetContract.sol\":1531:1724  {... */\n      pop\n      pop\n        /* \"contracts/BetContract.sol\":1459:1724  function addGame(string memory _name, uint _betAmount) public onlyOwner {... */\n      pop\n      pop\n      jump\t// out\n        /* \"contracts/BetContract.sol\":3240:4205  function collectWinnings(uint _gameId) public {... */\n    tag_43:\n        /* \"contracts/BetContract.sol\":3305:3310  games */\n      0x01\n        /* \"contracts/BetContract.sol\":3311:3318  _gameId */\n      dup2\n        /* \"contracts/BetContract.sol\":3305:3319  games[_gameId] */\n      dup2\n      sload\n      dup2\n      lt\n      tag_120\n      jumpi\n      tag_121\n      tag_59\n      jump\t// in\n    tag_121:\n    tag_120:\n      swap1\n      0x00\n      mstore\n      keccak256(0x00, 0x20)\n      swap1\n      0x09\n      mul\n      add\n        /* \"contracts/BetContract.sol\":3305:3326  games[_gameId].isOver */\n      0x02\n      add\n      0x01\n      swap1\n      sload\n      swap1\n      0x0100\n      exp\n      swap1\n      div\n      0xff\n      and\n        /* \"contracts/BetContract.sol\":3297:3376  require(games[_gameId].isOver, \"Game is not yet over - Bets are still pending\") */\n      tag_123\n      jumpi\n      mload(0x40)\n      0x08c379a000000000000000000000000000000000000000000000000000000000\n      dup2\n      mstore\n      0x04\n      add\n      tag_124\n      swap1\n      tag_125\n      jump\t// in\n    tag_124:\n      mload(0x40)\n      dup1\n      swap2\n      sub\n      swap1\n      revert\n    tag_123:\n        /* \"contracts/BetContract.sol\":3444:3449  games */\n      0x01\n        /* \"contracts/BetContract.sol\":3450:3457  _gameId */\n      dup2\n        /* \"contracts/BetContract.sol\":3444:3458  games[_gameId] */\n      dup2\n      sload\n      dup2\n      lt\n      tag_126\n      jumpi\n      tag_127\n      tag_59\n      jump\t// in\n    tag_127:\n    tag_126:\n      swap1\n      0x00\n      mstore\n      keccak256(0x00, 0x20)\n      swap1\n      0x09\n      mul\n      add\n        /* \"contracts/BetContract.sol\":3444:3465  games[_gameId].winner */\n      0x02\n      add\n      0x00\n      swap1\n      sload\n      swap1\n      0x0100\n      exp\n      swap1\n      div\n      0xff\n      and\n        /* \"contracts/BetContract.sol\":3395:3465  games[_gameId].bets[msg.sender].winPrediction == games[_gameId].winner */\n      0xff\n      and\n        /* \"contracts/BetContract.sol\":3395:3400  games */\n      0x01\n        /* \"contracts/BetContract.sol\":3401:3408  _gameId */\n      dup3\n        /* \"contracts/BetContract.sol\":3395:3409  games[_gameId] */\n      dup2\n      sload\n      dup2\n      lt\n      tag_129\n      jumpi\n      tag_130\n      tag_59\n      jump\t// in\n    tag_130:\n    tag_129:\n      swap1\n      0x00\n      mstore\n      keccak256(0x00, 0x20)\n      swap1\n      0x09\n      mul\n      add\n        /* \"contracts/BetContract.sol\":3395:3414  games[_gameId].bets */\n      0x07\n      add\n        /* \"contracts/BetContract.sol\":3395:3426  games[_gameId].bets[msg.sender] */\n      0x00\n        /* \"contracts/BetContract.sol\":3415:3425  msg.sender */\n      caller\n        /* \"contracts/BetContract.sol\":3395:3426  games[_gameId].bets[msg.sender] */\n      0xffffffffffffffffffffffffffffffffffffffff\n      and\n      0xffffffffffffffffffffffffffffffffffffffff\n      and\n      dup2\n      mstore\n      0x20\n      add\n      swap1\n      dup2\n      mstore\n      0x20\n      add\n      0x00\n      keccak256\n        /* \"contracts/BetContract.sol\":3395:3440  games[_gameId].bets[msg.sender].winPrediction */\n      0x02\n      add\n      0x00\n      swap1\n      sload\n      swap1\n      0x0100\n      exp\n      swap1\n      div\n      0xff\n      and\n        /* \"contracts/BetContract.sol\":3395:3465  games[_gameId].bets[msg.sender].winPrediction == games[_gameId].winner */\n      0xff\n      and\n      eq\n        /* \"contracts/BetContract.sol\":3387:3494  require(games[_gameId].bets[msg.sender].winPrediction == games[_gameId].winner, \"Sorry - you lost the bet\") */\n      tag_132\n      jumpi\n      mload(0x40)\n      0x08c379a000000000000000000000000000000000000000000000000000000000\n      dup2\n      mstore\n      0x04\n      add\n      tag_133\n      swap1\n      tag_134\n      jump\t// in\n    tag_133:\n      mload(0x40)\n      dup1\n      swap2\n      sub\n      swap1\n      revert\n    tag_132:\n        /* \"contracts/BetContract.sol\":3507:3521  uint winAmount */\n      0x00\n        /* \"contracts/BetContract.sol\":3562:3563  1 */\n      0x01\n        /* \"contracts/BetContract.sol\":3537:3542  games */\n      dup1\n        /* \"contracts/BetContract.sol\":3543:3550  _gameId */\n      dup4\n        /* \"contracts/BetContract.sol\":3537:3551  games[_gameId] */\n      dup2\n      sload\n      dup2\n      lt\n      tag_135\n      jumpi\n      tag_136\n      tag_59\n      jump\t// in\n    tag_136:\n    tag_135:\n      swap1\n      0x00\n      mstore\n      keccak256(0x00, 0x20)\n      swap1\n      0x09\n      mul\n      add\n        /* \"contracts/BetContract.sol\":3537:3558  games[_gameId].winner */\n      0x02\n      add\n      0x00\n      swap1\n      sload\n      swap1\n      0x0100\n      exp\n      swap1\n      div\n      0xff\n      and\n        /* \"contracts/BetContract.sol\":3537:3563  games[_gameId].winner == 1 */\n      0xff\n      and\n      sub\n        /* \"contracts/BetContract.sol\":3534:4011  if(games[_gameId].winner == 1) {... */\n      tag_138\n      jumpi\n        /* \"contracts/BetContract.sol\":3643:3648  games */\n      0x01\n        /* \"contracts/BetContract.sol\":3649:3656  _gameId */\n      dup3\n        /* \"contracts/BetContract.sol\":3643:3657  games[_gameId] */\n      dup2\n      sload\n      dup2\n      lt\n      tag_139\n      jumpi\n      tag_140\n      tag_59\n      jump\t// in\n    tag_140:\n    tag_139:\n      swap1\n      0x00\n      mstore\n      keccak256(0x00, 0x20)\n      swap1\n      0x09\n      mul\n      add\n        /* \"contracts/BetContract.sol\":3643:3672  games[_gameId].counterTeamOne */\n      0x04\n      add\n      sload\n        /* \"contracts/BetContract.sol\":3617:3622  games */\n      0x01\n        /* \"contracts/BetContract.sol\":3623:3630  _gameId */\n      dup4\n        /* \"contracts/BetContract.sol\":3617:3631  games[_gameId] */\n      dup2\n      sload\n      dup2\n      lt\n      tag_142\n      jumpi\n      tag_143\n      tag_59\n      jump\t// in\n    tag_143:\n    tag_142:\n      swap1\n      0x00\n      mstore\n      keccak256(0x00, 0x20)\n      swap1\n      0x09\n      mul\n      add\n        /* \"contracts/BetContract.sol\":3617:3641  games[_gameId].betAmount */\n      0x03\n      add\n      sload\n        /* \"contracts/BetContract.sol\":3593:3598  games */\n      0x01\n        /* \"contracts/BetContract.sol\":3599:3606  _gameId */\n      dup5\n        /* \"contracts/BetContract.sol\":3593:3607  games[_gameId] */\n      dup2\n      sload\n      dup2\n      lt\n      tag_145\n      jumpi\n      tag_146\n      tag_59\n      jump\t// in\n    tag_146:\n    tag_145:\n      swap1\n      0x00\n      mstore\n      keccak256(0x00, 0x20)\n      swap1\n      0x09\n      mul\n      add\n        /* \"contracts/BetContract.sol\":3593:3616  games[_gameId].betCount */\n      0x08\n      add\n      sload\n        /* \"contracts/BetContract.sol\":3593:3641  games[_gameId].betCount*games[_gameId].betAmount */\n      tag_148\n      swap2\n      swap1\n      tag_149\n      jump\t// in\n    tag_148:\n        /* \"contracts/BetContract.sol\":3592:3672  (games[_gameId].betCount*games[_gameId].betAmount)/games[_gameId].counterTeamOne */\n      tag_150\n      swap2\n      swap1\n      tag_151\n      jump\t// in\n    tag_150:\n        /* \"contracts/BetContract.sol\":3580:3672  winAmount = (games[_gameId].betCount*games[_gameId].betAmount)/games[_gameId].counterTeamOne */\n      swap1\n      pop\n        /* \"contracts/BetContract.sol\":3534:4011  if(games[_gameId].winner == 1) {... */\n      jump(tag_152)\n    tag_138:\n        /* \"contracts/BetContract.sol\":3727:3728  2 */\n      0x02\n        /* \"contracts/BetContract.sol\":3702:3707  games */\n      0x01\n        /* \"contracts/BetContract.sol\":3708:3715  _gameId */\n      dup4\n        /* \"contracts/BetContract.sol\":3702:3716  games[_gameId] */\n      dup2\n      sload\n      dup2\n      lt\n      tag_153\n      jumpi\n      tag_154\n      tag_59\n      jump\t// in\n    tag_154:\n    tag_153:\n      swap1\n      0x00\n      mstore\n      keccak256(0x00, 0x20)\n      swap1\n      0x09\n      mul\n      add\n        /* \"contracts/BetContract.sol\":3702:3723  games[_gameId].winner */\n      0x02\n      add\n      0x00\n      swap1\n      sload\n      swap1\n      0x0100\n      exp\n      swap1\n      div\n      0xff\n      and\n        /* \"contracts/BetContract.sol\":3702:3728  games[_gameId].winner == 2 */\n      0xff\n      and\n      sub\n        /* \"contracts/BetContract.sol\":3699:4011  if(games[_gameId].winner == 2) {... */\n      tag_156\n      jumpi\n        /* \"contracts/BetContract.sol\":3808:3813  games */\n      0x01\n        /* \"contracts/BetContract.sol\":3814:3821  _gameId */\n      dup3\n        /* \"contracts/BetContract.sol\":3808:3822  games[_gameId] */\n      dup2\n      sload\n      dup2\n      lt\n      tag_157\n      jumpi\n      tag_158\n      tag_59\n      jump\t// in\n    tag_158:\n    tag_157:\n      swap1\n      0x00\n      mstore\n      keccak256(0x00, 0x20)\n      swap1\n      0x09\n      mul\n      add\n        /* \"contracts/BetContract.sol\":3808:3837  games[_gameId].counterTeamTwo */\n      0x05\n      add\n      sload\n        /* \"contracts/BetContract.sol\":3782:3787  games */\n      0x01\n        /* \"contracts/BetContract.sol\":3788:3795  _gameId */\n      dup4\n        /* \"contracts/BetContract.sol\":3782:3796  games[_gameId] */\n      dup2\n      sload\n      dup2\n      lt\n      tag_160\n      jumpi\n      tag_161\n      tag_59\n      jump\t// in\n    tag_161:\n    tag_160:\n      swap1\n      0x00\n      mstore\n      keccak256(0x00, 0x20)\n      swap1\n      0x09\n      mul\n      add\n        /* \"contracts/BetContract.sol\":3782:3806  games[_gameId].betAmount */\n      0x03\n      add\n      sload\n        /* \"contracts/BetContract.sol\":3758:3763  games */\n      0x01\n        /* \"contracts/BetContract.sol\":3764:3771  _gameId */\n      dup5\n        /* \"contracts/BetContract.sol\":3758:3772  games[_gameId] */\n      dup2\n      sload\n      dup2\n      lt\n      tag_163\n      jumpi\n      tag_164\n      tag_59\n      jump\t// in\n    tag_164:\n    tag_163:\n      swap1\n      0x00\n      mstore\n      keccak256(0x00, 0x20)\n      swap1\n      0x09\n      mul\n      add\n        /* \"contracts/BetContract.sol\":3758:3781  games[_gameId].betCount */\n      0x08\n      add\n      sload\n        /* \"contracts/BetContract.sol\":3758:3806  games[_gameId].betCount*games[_gameId].betAmount */\n      tag_166\n      swap2\n      swap1\n      tag_149\n      jump\t// in\n    tag_166:\n        /* \"contracts/BetContract.sol\":3757:3837  (games[_gameId].betCount*games[_gameId].betAmount)/games[_gameId].counterTeamTwo */\n      tag_167\n      swap2\n      swap1\n      tag_151\n      jump\t// in\n    tag_167:\n        /* \"contracts/BetContract.sol\":3745:3837  winAmount = (games[_gameId].betCount*games[_gameId].betAmount)/games[_gameId].counterTeamTwo */\n      swap1\n      pop\n        /* \"contracts/BetContract.sol\":3699:4011  if(games[_gameId].winner == 2) {... */\n      jump(tag_168)\n    tag_156:\n        /* \"contracts/BetContract.sol\":3892:3893  3 */\n      0x03\n        /* \"contracts/BetContract.sol\":3867:3872  games */\n      0x01\n        /* \"contracts/BetContract.sol\":3873:3880  _gameId */\n      dup4\n        /* \"contracts/BetContract.sol\":3867:3881  games[_gameId] */\n      dup2\n      sload\n      dup2\n      lt\n      tag_169\n      jumpi\n      tag_170\n      tag_59\n      jump\t// in\n    tag_170:\n    tag_169:\n      swap1\n      0x00\n      mstore\n      keccak256(0x00, 0x20)\n      swap1\n      0x09\n      mul\n      add\n        /* \"contracts/BetContract.sol\":3867:3888  games[_gameId].winner */\n      0x02\n      add\n      0x00\n      swap1\n      sload\n      swap1\n      0x0100\n      exp\n      swap1\n      div\n      0xff\n      and\n        /* \"contracts/BetContract.sol\":3867:3893  games[_gameId].winner == 3 */\n      0xff\n      and\n      sub\n        /* \"contracts/BetContract.sol\":3864:4011  if(games[_gameId].winner == 3) {... */\n      tag_172\n      jumpi\n        /* \"contracts/BetContract.sol\":3973:3978  games */\n      0x01\n        /* \"contracts/BetContract.sol\":3979:3986  _gameId */\n      dup3\n        /* \"contracts/BetContract.sol\":3973:3987  games[_gameId] */\n      dup2\n      sload\n      dup2\n      lt\n      tag_173\n      jumpi\n      tag_174\n      tag_59\n      jump\t// in\n    tag_174:\n    tag_173:\n      swap1\n      0x00\n      mstore\n      keccak256(0x00, 0x20)\n      swap1\n      0x09\n      mul\n      add\n        /* \"contracts/BetContract.sol\":3973:3999  games[_gameId].counterDraw */\n      0x06\n      add\n      sload\n        /* \"contracts/BetContract.sol\":3947:3952  games */\n      0x01\n        /* \"contracts/BetContract.sol\":3953:3960  _gameId */\n      dup4\n        /* \"contracts/BetContract.sol\":3947:3961  games[_gameId] */\n      dup2\n      sload\n      dup2\n      lt\n      tag_176\n      jumpi\n      tag_177\n      tag_59\n      jump\t// in\n    tag_177:\n    tag_176:\n      swap1\n      0x00\n      mstore\n      keccak256(0x00, 0x20)\n      swap1\n      0x09\n      mul\n      add\n        /* \"contracts/BetContract.sol\":3947:3971  games[_gameId].betAmount */\n      0x03\n      add\n      sload\n        /* \"contracts/BetContract.sol\":3923:3928  games */\n      0x01\n        /* \"contracts/BetContract.sol\":3929:3936  _gameId */\n      dup5\n        /* \"contracts/BetContract.sol\":3923:3937  games[_gameId] */\n      dup2\n      sload\n      dup2\n      lt\n      tag_179\n      jumpi\n      tag_180\n      tag_59\n      jump\t// in\n    tag_180:\n    tag_179:\n      swap1\n      0x00\n      mstore\n      keccak256(0x00, 0x20)\n      swap1\n      0x09\n      mul\n      add\n        /* \"contracts/BetContract.sol\":3923:3946  games[_gameId].betCount */\n      0x08\n      add\n      sload\n        /* \"contracts/BetContract.sol\":3923:3971  games[_gameId].betCount*games[_gameId].betAmount */\n      tag_182\n      swap2\n      swap1\n      tag_149\n      jump\t// in\n    tag_182:\n        /* \"contracts/BetContract.sol\":3922:3999  (games[_gameId].betCount*games[_gameId].betAmount)/games[_gameId].counterDraw */\n      tag_183\n      swap2\n      swap1\n      tag_151\n      jump\t// in\n    tag_183:\n        /* \"contracts/BetContract.sol\":3910:3999  winAmount = (games[_gameId].betCount*games[_gameId].betAmount)/games[_gameId].counterDraw */\n      swap1\n      pop\n        /* \"contracts/BetContract.sol\":3864:4011  if(games[_gameId].winner == 3) {... */\n    tag_172:\n        /* \"contracts/BetContract.sol\":3699:4011  if(games[_gameId].winner == 2) {... */\n    tag_168:\n        /* \"contracts/BetContract.sol\":3534:4011  if(games[_gameId].winner == 1) {... */\n    tag_152:\n        /* \"contracts/BetContract.sol\":4071:4081  msg.sender */\n      caller\n        /* \"contracts/BetContract.sol\":4063:4091  payable(msg.sender).transfer */\n      0xffffffffffffffffffffffffffffffffffffffff\n      and\n        /* \"contracts/BetContract.sol\":4063:4102  payable(msg.sender).transfer(winAmount) */\n      0x08fc\n        /* \"contracts/BetContract.sol\":4092:4101  winAmount */\n      dup3\n        /* \"contracts/BetContract.sol\":4063:4102  payable(msg.sender).transfer(winAmount) */\n      swap1\n      dup2\n      iszero\n      mul\n      swap1\n      mload(0x40)\n      0x00\n      mload(0x40)\n      dup1\n      dup4\n      sub\n      dup2\n      dup6\n      dup9\n      dup9\n      call\n      swap4\n      pop\n      pop\n      pop\n      pop\n      iszero\n      dup1\n      iszero\n      tag_185\n      jumpi\n      returndatasize\n      0x00\n      dup1\n      returndatacopy\n      revert(0x00, returndatasize)\n    tag_185:\n      pop\n        /* \"contracts/BetContract.sol\":3286:4205  {... */\n      pop\n        /* \"contracts/BetContract.sol\":3240:4205  function collectWinnings(uint _gameId) public {... */\n      pop\n      jump\t// out\n        /* \"#utility.yul\":7:82   */\n    tag_186:\n        /* \"#utility.yul\":40:46   */\n      0x00\n        /* \"#utility.yul\":73:75   */\n      0x40\n        /* \"#utility.yul\":67:76   */\n      mload\n        /* \"#utility.yul\":57:76   */\n      swap1\n      pop\n        /* \"#utility.yul\":7:82   */\n      swap1\n      jump\t// out\n        /* \"#utility.yul\":88:205   */\n    tag_187:\n        /* \"#utility.yul\":197:198   */\n      0x00\n        /* \"#utility.yul\":194:195   */\n      dup1\n        /* \"#utility.yul\":187:199   */\n      revert\n        /* \"#utility.yul\":211:328   */\n    tag_188:\n        /* \"#utility.yul\":320:321   */\n      0x00\n        /* \"#utility.yul\":317:318   */\n      dup1\n        /* \"#utility.yul\":310:322   */\n      revert\n        /* \"#utility.yul\":334:411   */\n    tag_189:\n        /* \"#utility.yul\":371:378   */\n      0x00\n        /* \"#utility.yul\":400:405   */\n      dup2\n        /* \"#utility.yul\":389:405   */\n      swap1\n      pop\n        /* \"#utility.yul\":334:411   */\n      swap2\n      swap1\n      pop\n      jump\t// out\n        /* \"#utility.yul\":417:539   */\n    tag_190:\n        /* \"#utility.yul\":490:514   */\n      tag_252\n        /* \"#utility.yul\":508:513   */\n      dup2\n        /* \"#utility.yul\":490:514   */\n      tag_189\n      jump\t// in\n    tag_252:\n        /* \"#utility.yul\":483:488   */\n      dup2\n        /* \"#utility.yul\":480:515   */\n      eq\n        /* \"#utility.yul\":470:533   */\n      tag_253\n      jumpi\n        /* \"#utility.yul\":529:530   */\n      0x00\n        /* \"#utility.yul\":526:527   */\n      dup1\n        /* \"#utility.yul\":519:531   */\n      revert\n        /* \"#utility.yul\":470:533   */\n    tag_253:\n        /* \"#utility.yul\":417:539   */\n      pop\n      jump\t// out\n        /* \"#utility.yul\":545:684   */\n    tag_191:\n        /* \"#utility.yul\":591:596   */\n      0x00\n        /* \"#utility.yul\":629:635   */\n      dup2\n        /* \"#utility.yul\":616:636   */\n      calldataload\n        /* \"#utility.yul\":607:636   */\n      swap1\n      pop\n        /* \"#utility.yul\":645:678   */\n      tag_255\n        /* \"#utility.yul\":672:677   */\n      dup2\n        /* \"#utility.yul\":645:678   */\n      tag_190\n      jump\t// in\n    tag_255:\n        /* \"#utility.yul\":545:684   */\n      swap3\n      swap2\n      pop\n      pop\n      jump\t// out\n        /* \"#utility.yul\":690:1019   */\n    tag_13:\n        /* \"#utility.yul\":749:755   */\n      0x00\n        /* \"#utility.yul\":798:800   */\n      0x20\n        /* \"#utility.yul\":786:795   */\n      dup3\n        /* \"#utility.yul\":777:784   */\n      dup5\n        /* \"#utility.yul\":773:796   */\n      sub\n        /* \"#utility.yul\":769:801   */\n      slt\n        /* \"#utility.yul\":766:885   */\n      iszero\n      tag_257\n      jumpi\n        /* \"#utility.yul\":804:883   */\n      tag_258\n      tag_187\n      jump\t// in\n    tag_258:\n        /* \"#utility.yul\":766:885   */\n    tag_257:\n        /* \"#utility.yul\":924:925   */\n      0x00\n        /* \"#utility.yul\":949:1002   */\n      tag_259\n        /* \"#utility.yul\":994:1001   */\n      dup5\n        /* \"#utility.yul\":985:991   */\n      dup3\n        /* \"#utility.yul\":974:983   */\n      dup6\n        /* \"#utility.yul\":970:992   */\n      add\n        /* \"#utility.yul\":949:1002   */\n      tag_191\n      jump\t// in\n    tag_259:\n        /* \"#utility.yul\":939:1002   */\n      swap2\n      pop\n        /* \"#utility.yul\":895:1012   */\n      pop\n        /* \"#utility.yul\":690:1019   */\n      swap3\n      swap2\n      pop\n      pop\n      jump\t// out\n        /* \"#utility.yul\":1025:1143   */\n    tag_192:\n        /* \"#utility.yul\":1112:1136   */\n      tag_261\n        /* \"#utility.yul\":1130:1135   */\n      dup2\n        /* \"#utility.yul\":1112:1136   */\n      tag_189\n      jump\t// in\n    tag_261:\n        /* \"#utility.yul\":1107:1110   */\n      dup3\n        /* \"#utility.yul\":1100:1137   */\n      mstore\n        /* \"#utility.yul\":1025:1143   */\n      pop\n      pop\n      jump\t// out\n        /* \"#utility.yul\":1149:1248   */\n    tag_193:\n        /* \"#utility.yul\":1201:1207   */\n      0x00\n        /* \"#utility.yul\":1235:1240   */\n      dup2\n        /* \"#utility.yul\":1229:1241   */\n      mload\n        /* \"#utility.yul\":1219:1241   */\n      swap1\n      pop\n        /* \"#utility.yul\":1149:1248   */\n      swap2\n      swap1\n      pop\n      jump\t// out\n        /* \"#utility.yul\":1254:1423   */\n    tag_194:\n        /* \"#utility.yul\":1338:1349   */\n      0x00\n        /* \"#utility.yul\":1372:1378   */\n      dup3\n        /* \"#utility.yul\":1367:1370   */\n      dup3\n        /* \"#utility.yul\":1360:1379   */\n      mstore\n        /* \"#utility.yul\":1412:1416   */\n      0x20\n        /* \"#utility.yul\":1407:1410   */\n      dup3\n        /* \"#utility.yul\":1403:1417   */\n      add\n        /* \"#utility.yul\":1388:1417   */\n      swap1\n      pop\n        /* \"#utility.yul\":1254:1423   */\n      swap3\n      swap2\n      pop\n      pop\n      jump\t// out\n        /* \"#utility.yul\":1429:1675   */\n    tag_195:\n        /* \"#utility.yul\":1510:1511   */\n      0x00\n        /* \"#utility.yul\":1520:1633   */\n    tag_265:\n        /* \"#utility.yul\":1534:1540   */\n      dup4\n        /* \"#utility.yul\":1531:1532   */\n      dup2\n        /* \"#utility.yul\":1528:1541   */\n      lt\n        /* \"#utility.yul\":1520:1633   */\n      iszero\n      tag_267\n      jumpi\n        /* \"#utility.yul\":1619:1620   */\n      dup1\n        /* \"#utility.yul\":1614:1617   */\n      dup3\n        /* \"#utility.yul\":1610:1621   */\n      add\n        /* \"#utility.yul\":1604:1622   */\n      mload\n        /* \"#utility.yul\":1600:1601   */\n      dup2\n        /* \"#utility.yul\":1595:1598   */\n      dup5\n        /* \"#utility.yul\":1591:1602   */\n      add\n        /* \"#utility.yul\":1584:1623   */\n      mstore\n        /* \"#utility.yul\":1556:1558   */\n      0x20\n        /* \"#utility.yul\":1553:1554   */\n      dup2\n        /* \"#utility.yul\":1549:1559   */\n      add\n        /* \"#utility.yul\":1544:1559   */\n      swap1\n      pop\n        /* \"#utility.yul\":1520:1633   */\n      jump(tag_265)\n    tag_267:\n        /* \"#utility.yul\":1667:1668   */\n      0x00\n        /* \"#utility.yul\":1658:1664   */\n      dup5\n        /* \"#utility.yul\":1653:1656   */\n      dup5\n        /* \"#utility.yul\":1649:1665   */\n      add\n        /* \"#utility.yul\":1642:1669   */\n      mstore\n        /* \"#utility.yul\":1491:1675   */\n      pop\n        /* \"#utility.yul\":1429:1675   */\n      pop\n      pop\n      pop\n      jump\t// out\n        /* \"#utility.yul\":1681:1783   */\n    tag_196:\n        /* \"#utility.yul\":1722:1728   */\n      0x00\n        /* \"#utility.yul\":1773:1775   */\n      0x1f\n        /* \"#utility.yul\":1769:1776   */\n      not\n        /* \"#utility.yul\":1764:1766   */\n      0x1f\n        /* \"#utility.yul\":1757:1762   */\n      dup4\n        /* \"#utility.yul\":1753:1767   */\n      add\n        /* \"#utility.yul\":1749:1777   */\n      and\n        /* \"#utility.yul\":1739:1777   */\n      swap1\n      pop\n        /* \"#utility.yul\":1681:1783   */\n      swap2\n      swap1\n      pop\n      jump\t// out\n        /* \"#utility.yul\":1789:2166   */\n    tag_197:\n        /* \"#utility.yul\":1877:1880   */\n      0x00\n        /* \"#utility.yul\":1905:1944   */\n      tag_270\n        /* \"#utility.yul\":1938:1943   */\n      dup3\n        /* \"#utility.yul\":1905:1944   */\n      tag_193\n      jump\t// in\n    tag_270:\n        /* \"#utility.yul\":1960:2031   */\n      tag_271\n        /* \"#utility.yul\":2024:2030   */\n      dup2\n        /* \"#utility.yul\":2019:2022   */\n      dup6\n        /* \"#utility.yul\":1960:2031   */\n      tag_194\n      jump\t// in\n    tag_271:\n        /* \"#utility.yul\":1953:2031   */\n      swap4\n      pop\n        /* \"#utility.yul\":2040:2105   */\n      tag_272\n        /* \"#utility.yul\":2098:2104   */\n      dup2\n        /* \"#utility.yul\":2093:2096   */\n      dup6\n        /* \"#utility.yul\":2086:2090   */\n      0x20\n        /* \"#utility.yul\":2079:2084   */\n      dup7\n        /* \"#utility.yul\":2075:2091   */\n      add\n        /* \"#utility.yul\":2040:2105   */\n      tag_195\n      jump\t// in\n    tag_272:\n        /* \"#utility.yul\":2130:2159   */\n      tag_273\n        /* \"#utility.yul\":2152:2158   */\n      dup2\n        /* \"#utility.yul\":2130:2159   */\n      tag_196\n      jump\t// in\n    tag_273:\n        /* \"#utility.yul\":2125:2128   */\n      dup5\n        /* \"#utility.yul\":2121:2160   */\n      add\n        /* \"#utility.yul\":2114:2160   */\n      swap2\n      pop\n        /* \"#utility.yul\":1881:2166   */\n      pop\n        /* \"#utility.yul\":1789:2166   */\n      swap3\n      swap2\n      pop\n      pop\n      jump\t// out\n        /* \"#utility.yul\":2172:2258   */\n    tag_198:\n        /* \"#utility.yul\":2207:2214   */\n      0x00\n        /* \"#utility.yul\":2247:2251   */\n      0xff\n        /* \"#utility.yul\":2240:2245   */\n      dup3\n        /* \"#utility.yul\":2236:2252   */\n      and\n        /* \"#utility.yul\":2225:2252   */\n      swap1\n      pop\n        /* \"#utility.yul\":2172:2258   */\n      swap2\n      swap1\n      pop\n      jump\t// out\n        /* \"#utility.yul\":2264:2376   */\n    tag_199:\n        /* \"#utility.yul\":2347:2369   */\n      tag_276\n        /* \"#utility.yul\":2363:2368   */\n      dup2\n        /* \"#utility.yul\":2347:2369   */\n      tag_198\n      jump\t// in\n    tag_276:\n        /* \"#utility.yul\":2342:2345   */\n      dup3\n        /* \"#utility.yul\":2335:2370   */\n      mstore\n        /* \"#utility.yul\":2264:2376   */\n      pop\n      pop\n      jump\t// out\n        /* \"#utility.yul\":2382:2472   */\n    tag_200:\n        /* \"#utility.yul\":2416:2423   */\n      0x00\n        /* \"#utility.yul\":2459:2464   */\n      dup2\n        /* \"#utility.yul\":2452:2465   */\n      iszero\n        /* \"#utility.yul\":2445:2466   */\n      iszero\n        /* \"#utility.yul\":2434:2466   */\n      swap1\n      pop\n        /* \"#utility.yul\":2382:2472   */\n      swap2\n      swap1\n      pop\n      jump\t// out\n        /* \"#utility.yul\":2478:2587   */\n    tag_201:\n        /* \"#utility.yul\":2559:2580   */\n      tag_279\n        /* \"#utility.yul\":2574:2579   */\n      dup2\n        /* \"#utility.yul\":2559:2580   */\n      tag_200\n      jump\t// in\n    tag_279:\n        /* \"#utility.yul\":2554:2557   */\n      dup3\n        /* \"#utility.yul\":2547:2581   */\n      mstore\n        /* \"#utility.yul\":2478:2587   */\n      pop\n      pop\n      jump\t// out\n        /* \"#utility.yul\":2593:3772   */\n    tag_16:\n        /* \"#utility.yul\":2920:2924   */\n      0x00\n        /* \"#utility.yul\":2958:2961   */\n      0x0120\n        /* \"#utility.yul\":2947:2956   */\n      dup3\n        /* \"#utility.yul\":2943:2962   */\n      add\n        /* \"#utility.yul\":2935:2962   */\n      swap1\n      pop\n        /* \"#utility.yul\":2972:3043   */\n      tag_281\n        /* \"#utility.yul\":3040:3041   */\n      0x00\n        /* \"#utility.yul\":3029:3038   */\n      dup4\n        /* \"#utility.yul\":3025:3042   */\n      add\n        /* \"#utility.yul\":3016:3022   */\n      dup13\n        /* \"#utility.yul\":2972:3043   */\n      tag_192\n      jump\t// in\n    tag_281:\n        /* \"#utility.yul\":3090:3099   */\n      dup2\n        /* \"#utility.yul\":3084:3088   */\n      dup2\n        /* \"#utility.yul\":3080:3100   */\n      sub\n        /* \"#utility.yul\":3075:3077   */\n      0x20\n        /* \"#utility.yul\":3064:3073   */\n      dup4\n        /* \"#utility.yul\":3060:3078   */\n      add\n        /* \"#utility.yul\":3053:3101   */\n      mstore\n        /* \"#utility.yul\":3118:3196   */\n      tag_282\n        /* \"#utility.yul\":3191:3195   */\n      dup2\n        /* \"#utility.yul\":3182:3188   */\n      dup12\n        /* \"#utility.yul\":3118:3196   */\n      tag_197\n      jump\t// in\n    tag_282:\n        /* \"#utility.yul\":3110:3196   */\n      swap1\n      pop\n        /* \"#utility.yul\":3206:3274   */\n      tag_283\n        /* \"#utility.yul\":3270:3272   */\n      0x40\n        /* \"#utility.yul\":3259:3268   */\n      dup4\n        /* \"#utility.yul\":3255:3273   */\n      add\n        /* \"#utility.yul\":3246:3252   */\n      dup11\n        /* \"#utility.yul\":3206:3274   */\n      tag_199\n      jump\t// in\n    tag_283:\n        /* \"#utility.yul\":3284:3350   */\n      tag_284\n        /* \"#utility.yul\":3346:3348   */\n      0x60\n        /* \"#utility.yul\":3335:3344   */\n      dup4\n        /* \"#utility.yul\":3331:3349   */\n      add\n        /* \"#utility.yul\":3322:3328   */\n      dup10\n        /* \"#utility.yul\":3284:3350   */\n      tag_201\n      jump\t// in\n    tag_284:\n        /* \"#utility.yul\":3360:3433   */\n      tag_285\n        /* \"#utility.yul\":3428:3431   */\n      0x80\n        /* \"#utility.yul\":3417:3426   */\n      dup4\n        /* \"#utility.yul\":3413:3432   */\n      add\n        /* \"#utility.yul\":3404:3410   */\n      dup9\n        /* \"#utility.yul\":3360:3433   */\n      tag_192\n      jump\t// in\n    tag_285:\n        /* \"#utility.yul\":3443:3516   */\n      tag_286\n        /* \"#utility.yul\":3511:3514   */\n      0xa0\n        /* \"#utility.yul\":3500:3509   */\n      dup4\n        /* \"#utility.yul\":3496:3515   */\n      add\n        /* \"#utility.yul\":3487:3493   */\n      dup8\n        /* \"#utility.yul\":3443:3516   */\n      tag_192\n      jump\t// in\n    tag_286:\n        /* \"#utility.yul\":3526:3599   */\n      tag_287\n        /* \"#utility.yul\":3594:3597   */\n      0xc0\n        /* \"#utility.yul\":3583:3592   */\n      dup4\n        /* \"#utility.yul\":3579:3598   */\n      add\n        /* \"#utility.yul\":3570:3576   */\n      dup7\n        /* \"#utility.yul\":3526:3599   */\n      tag_192\n      jump\t// in\n    tag_287:\n        /* \"#utility.yul\":3609:3682   */\n      tag_288\n        /* \"#utility.yul\":3677:3680   */\n      0xe0\n        /* \"#utility.yul\":3666:3675   */\n      dup4\n        /* \"#utility.yul\":3662:3681   */\n      add\n        /* \"#utility.yul\":3653:3659   */\n      dup6\n        /* \"#utility.yul\":3609:3682   */\n      tag_192\n      jump\t// in\n    tag_288:\n        /* \"#utility.yul\":3692:3765   */\n      tag_289\n        /* \"#utility.yul\":3760:3763   */\n      0x0100\n        /* \"#utility.yul\":3749:3758   */\n      dup4\n        /* \"#utility.yul\":3745:3764   */\n      add\n        /* \"#utility.yul\":3736:3742   */\n      dup5\n        /* \"#utility.yul\":3692:3765   */\n      tag_192\n      jump\t// in\n    tag_289:\n        /* \"#utility.yul\":2593:3772   */\n      swap11\n      swap10\n      pop\n      pop\n      pop\n      pop\n      pop\n      pop\n      pop\n      pop\n      pop\n      pop\n      jump\t// out\n        /* \"#utility.yul\":3778:3896   */\n    tag_202:\n        /* \"#utility.yul\":3849:3871   */\n      tag_291\n        /* \"#utility.yul\":3865:3870   */\n      dup2\n        /* \"#utility.yul\":3849:3871   */\n      tag_198\n      jump\t// in\n    tag_291:\n        /* \"#utility.yul\":3842:3847   */\n      dup2\n        /* \"#utility.yul\":3839:3872   */\n      eq\n        /* \"#utility.yul\":3829:3890   */\n      tag_292\n      jumpi\n        /* \"#utility.yul\":3886:3887   */\n      0x00\n        /* \"#utility.yul\":3883:3884   */\n      dup1\n        /* \"#utility.yul\":3876:3888   */\n      revert\n        /* \"#utility.yul\":3829:3890   */\n    tag_292:\n        /* \"#utility.yul\":3778:3896   */\n      pop\n      jump\t// out\n        /* \"#utility.yul\":3902:4037   */\n    tag_203:\n        /* \"#utility.yul\":3946:3951   */\n      0x00\n        /* \"#utility.yul\":3984:3990   */\n      dup2\n        /* \"#utility.yul\":3971:3991   */\n      calldataload\n        /* \"#utility.yul\":3962:3991   */\n      swap1\n      pop\n        /* \"#utility.yul\":4000:4031   */\n      tag_294\n        /* \"#utility.yul\":4025:4030   */\n      dup2\n        /* \"#utility.yul\":4000:4031   */\n      tag_202\n      jump\t// in\n    tag_294:\n        /* \"#utility.yul\":3902:4037   */\n      swap3\n      swap2\n      pop\n      pop\n      jump\t// out\n        /* \"#utility.yul\":4043:4368   */\n    tag_20:\n        /* \"#utility.yul\":4100:4106   */\n      0x00\n        /* \"#utility.yul\":4149:4151   */\n      0x20\n        /* \"#utility.yul\":4137:4146   */\n      dup3\n        /* \"#utility.yul\":4128:4135   */\n      dup5\n        /* \"#utility.yul\":4124:4147   */\n      sub\n        /* \"#utility.yul\":4120:4152   */\n      slt\n        /* \"#utility.yul\":4117:4236   */\n      iszero\n      tag_296\n      jumpi\n        /* \"#utility.yul\":4155:4234   */\n      tag_297\n      tag_187\n      jump\t// in\n    tag_297:\n        /* \"#utility.yul\":4117:4236   */\n    tag_296:\n        /* \"#utility.yul\":4275:4276   */\n      0x00\n        /* \"#utility.yul\":4300:4351   */\n      tag_298\n        /* \"#utility.yul\":4343:4350   */\n      dup5\n        /* \"#utility.yul\":4334:4340   */\n      dup3\n        /* \"#utility.yul\":4323:4332   */\n      dup6\n        /* \"#utility.yul\":4319:4341   */\n      add\n        /* \"#utility.yul\":4300:4351   */\n      tag_203\n      jump\t// in\n    tag_298:\n        /* \"#utility.yul\":4290:4351   */\n      swap2\n      pop\n        /* \"#utility.yul\":4246:4361   */\n      pop\n        /* \"#utility.yul\":4043:4368   */\n      swap3\n      swap2\n      pop\n      pop\n      jump\t// out\n        /* \"#utility.yul\":4374:4840   */\n    tag_25:\n        /* \"#utility.yul\":4438:4444   */\n      0x00\n        /* \"#utility.yul\":4446:4452   */\n      dup1\n        /* \"#utility.yul\":4495:4497   */\n      0x40\n        /* \"#utility.yul\":4483:4492   */\n      dup4\n        /* \"#utility.yul\":4474:4481   */\n      dup6\n        /* \"#utility.yul\":4470:4493   */\n      sub\n        /* \"#utility.yul\":4466:4498   */\n      slt\n        /* \"#utility.yul\":4463:4582   */\n      iszero\n      tag_300\n      jumpi\n        /* \"#utility.yul\":4501:4580   */\n      tag_301\n      tag_187\n      jump\t// in\n    tag_301:\n        /* \"#utility.yul\":4463:4582   */\n    tag_300:\n        /* \"#utility.yul\":4621:4622   */\n      0x00\n        /* \"#utility.yul\":4646:4697   */\n      tag_302\n        /* \"#utility.yul\":4689:4696   */\n      dup6\n        /* \"#utility.yul\":4680:4686   */\n      dup3\n        /* \"#utility.yul\":4669:4678   */\n      dup7\n        /* \"#utility.yul\":4665:4687   */\n      add\n        /* \"#utility.yul\":4646:4697   */\n      tag_203\n      jump\t// in\n    tag_302:\n        /* \"#utility.yul\":4636:4697   */\n      swap3\n      pop\n        /* \"#utility.yul\":4592:4707   */\n      pop\n        /* \"#utility.yul\":4746:4748   */\n      0x20\n        /* \"#utility.yul\":4772:4823   */\n      tag_303\n        /* \"#utility.yul\":4815:4822   */\n      dup6\n        /* \"#utility.yul\":4806:4812   */\n      dup3\n        /* \"#utility.yul\":4795:4804   */\n      dup7\n        /* \"#utility.yul\":4791:4813   */\n      add\n        /* \"#utility.yul\":4772:4823   */\n      tag_203\n      jump\t// in\n    tag_303:\n        /* \"#utility.yul\":4762:4823   */\n      swap2\n      pop\n        /* \"#utility.yul\":4717:4833   */\n      pop\n        /* \"#utility.yul\":4374:4840   */\n      swap3\n      pop\n      swap3\n      swap1\n      pop\n      jump\t// out\n        /* \"#utility.yul\":4846:4972   */\n    tag_204:\n        /* \"#utility.yul\":4883:4890   */\n      0x00\n        /* \"#utility.yul\":4923:4965   */\n      0xffffffffffffffffffffffffffffffffffffffff\n        /* \"#utility.yul\":4916:4921   */\n      dup3\n        /* \"#utility.yul\":4912:4966   */\n      and\n        /* \"#utility.yul\":4901:4966   */\n      swap1\n      pop\n        /* \"#utility.yul\":4846:4972   */\n      swap2\n      swap1\n      pop\n      jump\t// out\n        /* \"#utility.yul\":4978:5074   */\n    tag_205:\n        /* \"#utility.yul\":5015:5022   */\n      0x00\n        /* \"#utility.yul\":5044:5068   */\n      tag_306\n        /* \"#utility.yul\":5062:5067   */\n      dup3\n        /* \"#utility.yul\":5044:5068   */\n      tag_204\n      jump\t// in\n    tag_306:\n        /* \"#utility.yul\":5033:5068   */\n      swap1\n      pop\n        /* \"#utility.yul\":4978:5074   */\n      swap2\n      swap1\n      pop\n      jump\t// out\n        /* \"#utility.yul\":5080:5198   */\n    tag_206:\n        /* \"#utility.yul\":5167:5191   */\n      tag_308\n        /* \"#utility.yul\":5185:5190   */\n      dup2\n        /* \"#utility.yul\":5167:5191   */\n      tag_205\n      jump\t// in\n    tag_308:\n        /* \"#utility.yul\":5162:5165   */\n      dup3\n        /* \"#utility.yul\":5155:5192   */\n      mstore\n        /* \"#utility.yul\":5080:5198   */\n      pop\n      pop\n      jump\t// out\n        /* \"#utility.yul\":5204:5426   */\n    tag_34:\n        /* \"#utility.yul\":5297:5301   */\n      0x00\n        /* \"#utility.yul\":5335:5337   */\n      0x20\n        /* \"#utility.yul\":5324:5333   */\n      dup3\n        /* \"#utility.yul\":5320:5338   */\n      add\n        /* \"#utility.yul\":5312:5338   */\n      swap1\n      pop\n        /* \"#utility.yul\":5348:5419   */\n      tag_310\n        /* \"#utility.yul\":5416:5417   */\n      0x00\n        /* \"#utility.yul\":5405:5414   */\n      dup4\n        /* \"#utility.yul\":5401:5418   */\n      add\n        /* \"#utility.yul\":5392:5398   */\n      dup5\n        /* \"#utility.yul\":5348:5419   */\n      tag_206\n      jump\t// in\n    tag_310:\n        /* \"#utility.yul\":5204:5426   */\n      swap3\n      swap2\n      pop\n      pop\n      jump\t// out\n        /* \"#utility.yul\":5432:5549   */\n    tag_207:\n        /* \"#utility.yul\":5541:5542   */\n      0x00\n        /* \"#utility.yul\":5538:5539   */\n      dup1\n        /* \"#utility.yul\":5531:5543   */\n      revert\n        /* \"#utility.yul\":5555:5672   */\n    tag_208:\n        /* \"#utility.yul\":5664:5665   */\n      0x00\n        /* \"#utility.yul\":5661:5662   */\n      dup1\n        /* \"#utility.yul\":5654:5666   */\n      revert\n        /* \"#utility.yul\":5678:5858   */\n    tag_209:\n        /* \"#utility.yul\":5726:5803   */\n      0x4e487b7100000000000000000000000000000000000000000000000000000000\n        /* \"#utility.yul\":5723:5724   */\n      0x00\n        /* \"#utility.yul\":5716:5804   */\n      mstore\n        /* \"#utility.yul\":5823:5827   */\n      0x41\n        /* \"#utility.yul\":5820:5821   */\n      0x04\n        /* \"#utility.yul\":5813:5828   */\n      mstore\n        /* \"#utility.yul\":5847:5851   */\n      0x24\n        /* \"#utility.yul\":5844:5845   */\n      0x00\n        /* \"#utility.yul\":5837:5852   */\n      revert\n        /* \"#utility.yul\":5864:6145   */\n    tag_210:\n        /* \"#utility.yul\":5947:5974   */\n      tag_315\n        /* \"#utility.yul\":5969:5973   */\n      dup3\n        /* \"#utility.yul\":5947:5974   */\n      tag_196\n      jump\t// in\n    tag_315:\n        /* \"#utility.yul\":5939:5945   */\n      dup2\n        /* \"#utility.yul\":5935:5975   */\n      add\n        /* \"#utility.yul\":6077:6083   */\n      dup2\n        /* \"#utility.yul\":6065:6075   */\n      dup2\n        /* \"#utility.yul\":6062:6084   */\n      lt\n        /* \"#utility.yul\":6041:6059   */\n      0xffffffffffffffff\n        /* \"#utility.yul\":6029:6039   */\n      dup3\n        /* \"#utility.yul\":6026:6060   */\n      gt\n        /* \"#utility.yul\":6023:6085   */\n      or\n        /* \"#utility.yul\":6020:6108   */\n      iszero\n      tag_316\n      jumpi\n        /* \"#utility.yul\":6088:6106   */\n      tag_317\n      tag_209\n      jump\t// in\n    tag_317:\n        /* \"#utility.yul\":6020:6108   */\n    tag_316:\n        /* \"#utility.yul\":6128:6138   */\n      dup1\n        /* \"#utility.yul\":6124:6126   */\n      0x40\n        /* \"#utility.yul\":6117:6139   */\n      mstore\n        /* \"#utility.yul\":5907:6145   */\n      pop\n        /* \"#utility.yul\":5864:6145   */\n      pop\n      pop\n      jump\t// out\n        /* \"#utility.yul\":6151:6280   */\n    tag_211:\n        /* \"#utility.yul\":6185:6191   */\n      0x00\n        /* \"#utility.yul\":6212:6232   */\n      tag_319\n      tag_186\n      jump\t// in\n    tag_319:\n        /* \"#utility.yul\":6202:6232   */\n      swap1\n      pop\n        /* \"#utility.yul\":6241:6274   */\n      tag_320\n        /* \"#utility.yul\":6269:6273   */\n      dup3\n        /* \"#utility.yul\":6261:6267   */\n      dup3\n        /* \"#utility.yul\":6241:6274   */\n      tag_210\n      jump\t// in\n    tag_320:\n        /* \"#utility.yul\":6151:6280   */\n      swap2\n      swap1\n      pop\n      jump\t// out\n        /* \"#utility.yul\":6286:6594   */\n    tag_212:\n        /* \"#utility.yul\":6348:6352   */\n      0x00\n        /* \"#utility.yul\":6438:6456   */\n      0xffffffffffffffff\n        /* \"#utility.yul\":6430:6436   */\n      dup3\n        /* \"#utility.yul\":6427:6457   */\n      gt\n        /* \"#utility.yul\":6424:6480   */\n      iszero\n      tag_322\n      jumpi\n        /* \"#utility.yul\":6460:6478   */\n      tag_323\n      tag_209\n      jump\t// in\n    tag_323:\n        /* \"#utility.yul\":6424:6480   */\n    tag_322:\n        /* \"#utility.yul\":6498:6527   */\n      tag_324\n        /* \"#utility.yul\":6520:6526   */\n      dup3\n        /* \"#utility.yul\":6498:6527   */\n      tag_196\n      jump\t// in\n    tag_324:\n        /* \"#utility.yul\":6490:6527   */\n      swap1\n      pop\n        /* \"#utility.yul\":6582:6586   */\n      0x20\n        /* \"#utility.yul\":6576:6580   */\n      dup2\n        /* \"#utility.yul\":6572:6587   */\n      add\n        /* \"#utility.yul\":6564:6587   */\n      swap1\n      pop\n        /* \"#utility.yul\":6286:6594   */\n      swap2\n      swap1\n      pop\n      jump\t// out\n        /* \"#utility.yul\":6600:6746   */\n    tag_213:\n        /* \"#utility.yul\":6697:6703   */\n      dup3\n        /* \"#utility.yul\":6692:6695   */\n      dup2\n        /* \"#utility.yul\":6687:6690   */\n      dup4\n        /* \"#utility.yul\":6674:6704   */\n      calldatacopy\n        /* \"#utility.yul\":6738:6739   */\n      0x00\n        /* \"#utility.yul\":6729:6735   */\n      dup4\n        /* \"#utility.yul\":6724:6727   */\n      dup4\n        /* \"#utility.yul\":6720:6736   */\n      add\n        /* \"#utility.yul\":6713:6740   */\n      mstore\n        /* \"#utility.yul\":6600:6746   */\n      pop\n      pop\n      pop\n      jump\t// out\n        /* \"#utility.yul\":6752:7177   */\n    tag_214:\n        /* \"#utility.yul\":6830:6835   */\n      0x00\n        /* \"#utility.yul\":6855:6921   */\n      tag_327\n        /* \"#utility.yul\":6871:6920   */\n      tag_328\n        /* \"#utility.yul\":6913:6919   */\n      dup5\n        /* \"#utility.yul\":6871:6920   */\n      tag_212\n      jump\t// in\n    tag_328:\n        /* \"#utility.yul\":6855:6921   */\n      tag_211\n      jump\t// in\n    tag_327:\n        /* \"#utility.yul\":6846:6921   */\n      swap1\n      pop\n        /* \"#utility.yul\":6944:6950   */\n      dup3\n        /* \"#utility.yul\":6937:6942   */\n      dup2\n        /* \"#utility.yul\":6930:6951   */\n      mstore\n        /* \"#utility.yul\":6982:6986   */\n      0x20\n        /* \"#utility.yul\":6975:6980   */\n      dup2\n        /* \"#utility.yul\":6971:6987   */\n      add\n        /* \"#utility.yul\":7020:7023   */\n      dup5\n        /* \"#utility.yul\":7011:7017   */\n      dup5\n        /* \"#utility.yul\":7006:7009   */\n      dup5\n        /* \"#utility.yul\":7002:7018   */\n      add\n        /* \"#utility.yul\":6999:7024   */\n      gt\n        /* \"#utility.yul\":6996:7108   */\n      iszero\n      tag_329\n      jumpi\n        /* \"#utility.yul\":7027:7106   */\n      tag_330\n      tag_208\n      jump\t// in\n    tag_330:\n        /* \"#utility.yul\":6996:7108   */\n    tag_329:\n        /* \"#utility.yul\":7117:7171   */\n      tag_331\n        /* \"#utility.yul\":7164:7170   */\n      dup5\n        /* \"#utility.yul\":7159:7162   */\n      dup3\n        /* \"#utility.yul\":7154:7157   */\n      dup6\n        /* \"#utility.yul\":7117:7171   */\n      tag_213\n      jump\t// in\n    tag_331:\n        /* \"#utility.yul\":6836:7177   */\n      pop\n        /* \"#utility.yul\":6752:7177   */\n      swap4\n      swap3\n      pop\n      pop\n      pop\n      jump\t// out\n        /* \"#utility.yul\":7197:7537   */\n    tag_215:\n        /* \"#utility.yul\":7253:7258   */\n      0x00\n        /* \"#utility.yul\":7302:7305   */\n      dup3\n        /* \"#utility.yul\":7295:7299   */\n      0x1f\n        /* \"#utility.yul\":7287:7293   */\n      dup4\n        /* \"#utility.yul\":7283:7300   */\n      add\n        /* \"#utility.yul\":7279:7306   */\n      slt\n        /* \"#utility.yul\":7269:7391   */\n      tag_333\n      jumpi\n        /* \"#utility.yul\":7310:7389   */\n      tag_334\n      tag_207\n      jump\t// in\n    tag_334:\n        /* \"#utility.yul\":7269:7391   */\n    tag_333:\n        /* \"#utility.yul\":7427:7433   */\n      dup2\n        /* \"#utility.yul\":7414:7434   */\n      calldataload\n        /* \"#utility.yul\":7452:7531   */\n      tag_335\n        /* \"#utility.yul\":7527:7530   */\n      dup5\n        /* \"#utility.yul\":7519:7525   */\n      dup3\n        /* \"#utility.yul\":7512:7516   */\n      0x20\n        /* \"#utility.yul\":7504:7510   */\n      dup7\n        /* \"#utility.yul\":7500:7517   */\n      add\n        /* \"#utility.yul\":7452:7531   */\n      tag_214\n      jump\t// in\n    tag_335:\n        /* \"#utility.yul\":7443:7531   */\n      swap2\n      pop\n        /* \"#utility.yul\":7259:7537   */\n      pop\n        /* \"#utility.yul\":7197:7537   */\n      swap3\n      swap2\n      pop\n      pop\n      jump\t// out\n        /* \"#utility.yul\":7543:8197   */\n    tag_38:\n        /* \"#utility.yul\":7621:7627   */\n      0x00\n        /* \"#utility.yul\":7629:7635   */\n      dup1\n        /* \"#utility.yul\":7678:7680   */\n      0x40\n        /* \"#utility.yul\":7666:7675   */\n      dup4\n        /* \"#utility.yul\":7657:7664   */\n      dup6\n        /* \"#utility.yul\":7653:7676   */\n      sub\n        /* \"#utility.yul\":7649:7681   */\n      slt\n        /* \"#utility.yul\":7646:7765   */\n      iszero\n      tag_337\n      jumpi\n        /* \"#utility.yul\":7684:7763   */\n      tag_338\n      tag_187\n      jump\t// in\n    tag_338:\n        /* \"#utility.yul\":7646:7765   */\n    tag_337:\n        /* \"#utility.yul\":7832:7833   */\n      0x00\n        /* \"#utility.yul\":7821:7830   */\n      dup4\n        /* \"#utility.yul\":7817:7834   */\n      add\n        /* \"#utility.yul\":7804:7835   */\n      calldataload\n        /* \"#utility.yul\":7862:7880   */\n      0xffffffffffffffff\n        /* \"#utility.yul\":7854:7860   */\n      dup2\n        /* \"#utility.yul\":7851:7881   */\n      gt\n        /* \"#utility.yul\":7848:7965   */\n      iszero\n      tag_339\n      jumpi\n        /* \"#utility.yul\":7884:7963   */\n      tag_340\n      tag_188\n      jump\t// in\n    tag_340:\n        /* \"#utility.yul\":7848:7965   */\n    tag_339:\n        /* \"#utility.yul\":7989:8052   */\n      tag_341\n        /* \"#utility.yul\":8044:8051   */\n      dup6\n        /* \"#utility.yul\":8035:8041   */\n      dup3\n        /* \"#utility.yul\":8024:8033   */\n      dup7\n        /* \"#utility.yul\":8020:8042   */\n      add\n        /* \"#utility.yul\":7989:8052   */\n      tag_215\n      jump\t// in\n    tag_341:\n        /* \"#utility.yul\":7979:8052   */\n      swap3\n      pop\n        /* \"#utility.yul\":7775:8062   */\n      pop\n        /* \"#utility.yul\":8101:8103   */\n      0x20\n        /* \"#utility.yul\":8127:8180   */\n      tag_342\n        /* \"#utility.yul\":8172:8179   */\n      dup6\n        /* \"#utility.yul\":8163:8169   */\n      dup3\n        /* \"#utility.yul\":8152:8161   */\n      dup7\n        /* \"#utility.yul\":8148:8170   */\n      add\n        /* \"#utility.yul\":8127:8180   */\n      tag_191\n      jump\t// in\n    tag_342:\n        /* \"#utility.yul\":8117:8180   */\n      swap2\n      pop\n        /* \"#utility.yul\":8072:8190   */\n      pop\n        /* \"#utility.yul\":7543:8197   */\n      swap3\n      pop\n      swap3\n      swap1\n      pop\n      jump\t// out\n        /* \"#utility.yul\":8203:8383   */\n    tag_216:\n        /* \"#utility.yul\":8251:8328   */\n      0x4e487b7100000000000000000000000000000000000000000000000000000000\n        /* \"#utility.yul\":8248:8249   */\n      0x00\n        /* \"#utility.yul\":8241:8329   */\n      mstore\n        /* \"#utility.yul\":8348:8352   */\n      0x22\n        /* \"#utility.yul\":8345:8346   */\n      0x04\n        /* \"#utility.yul\":8338:8353   */\n      mstore\n        /* \"#utility.yul\":8372:8376   */\n      0x24\n        /* \"#utility.yul\":8369:8370   */\n      0x00\n        /* \"#utility.yul\":8362:8377   */\n      revert\n        /* \"#utility.yul\":8389:8709   */\n    tag_47:\n        /* \"#utility.yul\":8433:8439   */\n      0x00\n        /* \"#utility.yul\":8470:8471   */\n      0x02\n        /* \"#utility.yul\":8464:8468   */\n      dup3\n        /* \"#utility.yul\":8460:8472   */\n      div\n        /* \"#utility.yul\":8450:8472   */\n      swap1\n      pop\n        /* \"#utility.yul\":8517:8518   */\n      0x01\n        /* \"#utility.yul\":8511:8515   */\n      dup3\n        /* \"#utility.yul\":8507:8519   */\n      and\n        /* \"#utility.yul\":8538:8556   */\n      dup1\n        /* \"#utility.yul\":8528:8609   */\n      tag_345\n      jumpi\n        /* \"#utility.yul\":8594:8598   */\n      0x7f\n        /* \"#utility.yul\":8586:8592   */\n      dup3\n        /* \"#utility.yul\":8582:8599   */\n      and\n        /* \"#utility.yul\":8572:8599   */\n      swap2\n      pop\n        /* \"#utility.yul\":8528:8609   */\n    tag_345:\n        /* \"#utility.yul\":8656:8658   */\n      0x20\n        /* \"#utility.yul\":8648:8654   */\n      dup3\n        /* \"#utility.yul\":8645:8659   */\n      lt\n        /* \"#utility.yul\":8625:8643   */\n      dup2\n        /* \"#utility.yul\":8622:8660   */\n      sub\n        /* \"#utility.yul\":8619:8703   */\n      tag_346\n      jumpi\n        /* \"#utility.yul\":8675:8693   */\n      tag_347\n      tag_216\n      jump\t// in\n    tag_347:\n        /* \"#utility.yul\":8619:8703   */\n    tag_346:\n        /* \"#utility.yul\":8440:8709   */\n      pop\n        /* \"#utility.yul\":8389:8709   */\n      swap2\n      swap1\n      pop\n      jump\t// out\n        /* \"#utility.yul\":8715:8939   */\n    tag_217:\n        /* \"#utility.yul\":8855:8889   */\n      0x4f6e6c7920746865206f776e65722063616e2063616c6c20746869732066756e\n        /* \"#utility.yul\":8851:8852   */\n      0x00\n        /* \"#utility.yul\":8843:8849   */\n      dup3\n        /* \"#utility.yul\":8839:8853   */\n      add\n        /* \"#utility.yul\":8832:8890   */\n      mstore\n        /* \"#utility.yul\":8924:8931   */\n      0x6374696f6e000000000000000000000000000000000000000000000000000000\n        /* \"#utility.yul\":8919:8921   */\n      0x20\n        /* \"#utility.yul\":8911:8917   */\n      dup3\n        /* \"#utility.yul\":8907:8922   */\n      add\n        /* \"#utility.yul\":8900:8932   */\n      mstore\n        /* \"#utility.yul\":8715:8939   */\n      pop\n      jump\t// out\n        /* \"#utility.yul\":8945:9311   */\n    tag_218:\n        /* \"#utility.yul\":9087:9090   */\n      0x00\n        /* \"#utility.yul\":9108:9175   */\n      tag_350\n        /* \"#utility.yul\":9172:9174   */\n      0x25\n        /* \"#utility.yul\":9167:9170   */\n      dup4\n        /* \"#utility.yul\":9108:9175   */\n      tag_194\n      jump\t// in\n    tag_350:\n        /* \"#utility.yul\":9101:9175   */\n      swap2\n      pop\n        /* \"#utility.yul\":9184:9277   */\n      tag_351\n        /* \"#utility.yul\":9273:9276   */\n      dup3\n        /* \"#utility.yul\":9184:9277   */\n      tag_217\n      jump\t// in\n    tag_351:\n        /* \"#utility.yul\":9302:9304   */\n      0x40\n        /* \"#utility.yul\":9297:9300   */\n      dup3\n        /* \"#utility.yul\":9293:9305   */\n      add\n        /* \"#utility.yul\":9286:9305   */\n      swap1\n      pop\n        /* \"#utility.yul\":8945:9311   */\n      swap2\n      swap1\n      pop\n      jump\t// out\n        /* \"#utility.yul\":9317:9736   */\n    tag_55:\n        /* \"#utility.yul\":9483:9487   */\n      0x00\n        /* \"#utility.yul\":9521:9523   */\n      0x20\n        /* \"#utility.yul\":9510:9519   */\n      dup3\n        /* \"#utility.yul\":9506:9524   */\n      add\n        /* \"#utility.yul\":9498:9524   */\n      swap1\n      pop\n        /* \"#utility.yul\":9570:9579   */\n      dup2\n        /* \"#utility.yul\":9564:9568   */\n      dup2\n        /* \"#utility.yul\":9560:9580   */\n      sub\n        /* \"#utility.yul\":9556:9557   */\n      0x00\n        /* \"#utility.yul\":9545:9554   */\n      dup4\n        /* \"#utility.yul\":9541:9558   */\n      add\n        /* \"#utility.yul\":9534:9581   */\n      mstore\n        /* \"#utility.yul\":9598:9729   */\n      tag_353\n        /* \"#utility.yul\":9724:9728   */\n      dup2\n        /* \"#utility.yul\":9598:9729   */\n      tag_218\n      jump\t// in\n    tag_353:\n        /* \"#utility.yul\":9590:9729   */\n      swap1\n      pop\n        /* \"#utility.yul\":9317:9736   */\n      swap2\n      swap1\n      pop\n      jump\t// out\n        /* \"#utility.yul\":9742:9922   */\n    tag_59:\n        /* \"#utility.yul\":9790:9867   */\n      0x4e487b7100000000000000000000000000000000000000000000000000000000\n        /* \"#utility.yul\":9787:9788   */\n      0x00\n        /* \"#utility.yul\":9780:9868   */\n      mstore\n        /* \"#utility.yul\":9887:9891   */\n      0x32\n        /* \"#utility.yul\":9884:9885   */\n      0x04\n        /* \"#utility.yul\":9877:9892   */\n      mstore\n        /* \"#utility.yul\":9911:9915   */\n      0x24\n        /* \"#utility.yul\":9908:9909   */\n      0x00\n        /* \"#utility.yul\":9901:9916   */\n      revert\n        /* \"#utility.yul\":9928:10153   */\n    tag_219:\n        /* \"#utility.yul\":10068:10102   */\n      0x47616d65206973206f766572202d206e6f206265747320616c6c6f7765642061\n        /* \"#utility.yul\":10064:10065   */\n      0x00\n        /* \"#utility.yul\":10056:10062   */\n      dup3\n        /* \"#utility.yul\":10052:10066   */\n      add\n        /* \"#utility.yul\":10045:10103   */\n      mstore\n        /* \"#utility.yul\":10137:10145   */\n      0x6e796d6f72650000000000000000000000000000000000000000000000000000\n        /* \"#utility.yul\":10132:10134   */\n      0x20\n        /* \"#utility.yul\":10124:10130   */\n      dup3\n        /* \"#utility.yul\":10120:10135   */\n      add\n        /* \"#utility.yul\":10113:10146   */\n      mstore\n        /* \"#utility.yul\":9928:10153   */\n      pop\n      jump\t// out\n        /* \"#utility.yul\":10159:10525   */\n    tag_220:\n        /* \"#utility.yul\":10301:10304   */\n      0x00\n        /* \"#utility.yul\":10322:10389   */\n      tag_357\n        /* \"#utility.yul\":10386:10388   */\n      0x26\n        /* \"#utility.yul\":10381:10384   */\n      dup4\n        /* \"#utility.yul\":10322:10389   */\n      tag_194\n      jump\t// in\n    tag_357:\n        /* \"#utility.yul\":10315:10389   */\n      swap2\n      pop\n        /* \"#utility.yul\":10398:10491   */\n      tag_358\n        /* \"#utility.yul\":10487:10490   */\n      dup3\n        /* \"#utility.yul\":10398:10491   */\n      tag_219\n      jump\t// in\n    tag_358:\n        /* \"#utility.yul\":10516:10518   */\n      0x40\n        /* \"#utility.yul\":10511:10514   */\n      dup3\n        /* \"#utility.yul\":10507:10519   */\n      add\n        /* \"#utility.yul\":10500:10519   */\n      swap1\n      pop\n        /* \"#utility.yul\":10159:10525   */\n      swap2\n      swap1\n      pop\n      jump\t// out\n        /* \"#utility.yul\":10531:10950   */\n    tag_74:\n        /* \"#utility.yul\":10697:10701   */\n      0x00\n        /* \"#utility.yul\":10735:10737   */\n      0x20\n        /* \"#utility.yul\":10724:10733   */\n      dup3\n        /* \"#utility.yul\":10720:10738   */\n      add\n        /* \"#utility.yul\":10712:10738   */\n      swap1\n      pop\n        /* \"#utility.yul\":10784:10793   */\n      dup2\n        /* \"#utility.yul\":10778:10782   */\n      dup2\n        /* \"#utility.yul\":10774:10794   */\n      sub\n        /* \"#utility.yul\":10770:10771   */\n      0x00\n        /* \"#utility.yul\":10759:10768   */\n      dup4\n        /* \"#utility.yul\":10755:10772   */\n      add\n        /* \"#utility.yul\":10748:10795   */\n      mstore\n        /* \"#utility.yul\":10812:10943   */\n      tag_360\n        /* \"#utility.yul\":10938:10942   */\n      dup2\n        /* \"#utility.yul\":10812:10943   */\n      tag_220\n      jump\t// in\n    tag_360:\n        /* \"#utility.yul\":10804:10943   */\n      swap1\n      pop\n        /* \"#utility.yul\":10531:10950   */\n      swap2\n      swap1\n      pop\n      jump\t// out\n        /* \"#utility.yul\":10956:11184   */\n    tag_221:\n        /* \"#utility.yul\":11096:11130   */\n      0x596f7520616c726561647920626574202d206e6f206265747320616c6c6f7765\n        /* \"#utility.yul\":11092:11093   */\n      0x00\n        /* \"#utility.yul\":11084:11090   */\n      dup3\n        /* \"#utility.yul\":11080:11094   */\n      add\n        /* \"#utility.yul\":11073:11131   */\n      mstore\n        /* \"#utility.yul\":11165:11176   */\n      0x6420616e796d6f72650000000000000000000000000000000000000000000000\n        /* \"#utility.yul\":11160:11162   */\n      0x20\n        /* \"#utility.yul\":11152:11158   */\n      dup3\n        /* \"#utility.yul\":11148:11163   */\n      add\n        /* \"#utility.yul\":11141:11177   */\n      mstore\n        /* \"#utility.yul\":10956:11184   */\n      pop\n      jump\t// out\n        /* \"#utility.yul\":11190:11556   */\n    tag_222:\n        /* \"#utility.yul\":11332:11335   */\n      0x00\n        /* \"#utility.yul\":11353:11420   */\n      tag_363\n        /* \"#utility.yul\":11417:11419   */\n      0x29\n        /* \"#utility.yul\":11412:11415   */\n      dup4\n        /* \"#utility.yul\":11353:11420   */\n      tag_194\n      jump\t// in\n    tag_363:\n        /* \"#utility.yul\":11346:11420   */\n      swap2\n      pop\n        /* \"#utility.yul\":11429:11522   */\n      tag_364\n        /* \"#utility.yul\":11518:11521   */\n      dup3\n        /* \"#utility.yul\":11429:11522   */\n      tag_221\n      jump\t// in\n    tag_364:\n        /* \"#utility.yul\":11547:11549   */\n      0x40\n        /* \"#utility.yul\":11542:11545   */\n      dup3\n        /* \"#utility.yul\":11538:11550   */\n      add\n        /* \"#utility.yul\":11531:11550   */\n      swap1\n      pop\n        /* \"#utility.yul\":11190:11556   */\n      swap2\n      swap1\n      pop\n      jump\t// out\n        /* \"#utility.yul\":11562:11981   */\n    tag_80:\n        /* \"#utility.yul\":11728:11732   */\n      0x00\n        /* \"#utility.yul\":11766:11768   */\n      0x20\n        /* \"#utility.yul\":11755:11764   */\n      dup3\n        /* \"#utility.yul\":11751:11769   */\n      add\n        /* \"#utility.yul\":11743:11769   */\n      swap1\n      pop\n        /* \"#utility.yul\":11815:11824   */\n      dup2\n        /* \"#utility.yul\":11809:11813   */\n      dup2\n        /* \"#utility.yul\":11805:11825   */\n      sub\n        /* \"#utility.yul\":11801:11802   */\n      0x00\n        /* \"#utility.yul\":11790:11799   */\n      dup4\n        /* \"#utility.yul\":11786:11803   */\n      add\n        /* \"#utility.yul\":11779:11826   */\n      mstore\n        /* \"#utility.yul\":11843:11974   */\n      tag_366\n        /* \"#utility.yul\":11969:11973   */\n      dup2\n        /* \"#utility.yul\":11843:11974   */\n      tag_222\n      jump\t// in\n    tag_366:\n        /* \"#utility.yul\":11835:11974   */\n      swap1\n      pop\n        /* \"#utility.yul\":11562:11981   */\n      swap2\n      swap1\n      pop\n      jump\t// out\n        /* \"#utility.yul\":11987:12231   */\n    tag_223:\n        /* \"#utility.yul\":12127:12161   */\n      0x42657420646f6573206e6f7420657175616c2074686520737065636966696564\n        /* \"#utility.yul\":12123:12124   */\n      0x00\n        /* \"#utility.yul\":12115:12121   */\n      dup3\n        /* \"#utility.yul\":12111:12125   */\n      add\n        /* \"#utility.yul\":12104:12162   */\n      mstore\n        /* \"#utility.yul\":12196:12223   */\n      0x2062657420616d6f756e7420666f7220746869732067616d6500000000000000\n        /* \"#utility.yul\":12191:12193   */\n      0x20\n        /* \"#utility.yul\":12183:12189   */\n      dup3\n        /* \"#utility.yul\":12179:12194   */\n      add\n        /* \"#utility.yul\":12172:12224   */\n      mstore\n        /* \"#utility.yul\":11987:12231   */\n      pop\n      jump\t// out\n        /* \"#utility.yul\":12237:12603   */\n    tag_224:\n        /* \"#utility.yul\":12379:12382   */\n      0x00\n        /* \"#utility.yul\":12400:12467   */\n      tag_369\n        /* \"#utility.yul\":12464:12466   */\n      0x39\n        /* \"#utility.yul\":12459:12462   */\n      dup4\n        /* \"#utility.yul\":12400:12467   */\n      tag_194\n      jump\t// in\n    tag_369:\n        /* \"#utility.yul\":12393:12467   */\n      swap2\n      pop\n        /* \"#utility.yul\":12476:12569   */\n      tag_370\n        /* \"#utility.yul\":12565:12568   */\n      dup3\n        /* \"#utility.yul\":12476:12569   */\n      tag_223\n      jump\t// in\n    tag_370:\n        /* \"#utility.yul\":12594:12596   */\n      0x40\n        /* \"#utility.yul\":12589:12592   */\n      dup3\n        /* \"#utility.yul\":12585:12597   */\n      add\n        /* \"#utility.yul\":12578:12597   */\n      swap1\n      pop\n        /* \"#utility.yul\":12237:12603   */\n      swap2\n      swap1\n      pop\n      jump\t// out\n        /* \"#utility.yul\":12609:13028   */\n    tag_86:\n        /* \"#utility.yul\":12775:12779   */\n      0x00\n        /* \"#utility.yul\":12813:12815   */\n      0x20\n        /* \"#utility.yul\":12802:12811   */\n      dup3\n        /* \"#utility.yul\":12798:12816   */\n      add\n        /* \"#utility.yul\":12790:12816   */\n      swap1\n      pop\n        /* \"#utility.yul\":12862:12871   */\n      dup2\n        /* \"#utility.yul\":12856:12860   */\n      dup2\n        /* \"#utility.yul\":12852:12872   */\n      sub\n        /* \"#utility.yul\":12848:12849   */\n      0x00\n        /* \"#utility.yul\":12837:12846   */\n      dup4\n        /* \"#utility.yul\":12833:12850   */\n      add\n        /* \"#utility.yul\":12826:12873   */\n      mstore\n        /* \"#utility.yul\":12890:13021   */\n      tag_372\n        /* \"#utility.yul\":13016:13020   */\n      dup2\n        /* \"#utility.yul\":12890:13021   */\n      tag_224\n      jump\t// in\n    tag_372:\n        /* \"#utility.yul\":12882:13021   */\n      swap1\n      pop\n        /* \"#utility.yul\":12609:13028   */\n      swap2\n      swap1\n      pop\n      jump\t// out\n        /* \"#utility.yul\":13034:13214   */\n    tag_225:\n        /* \"#utility.yul\":13082:13159   */\n      0x4e487b7100000000000000000000000000000000000000000000000000000000\n        /* \"#utility.yul\":13079:13080   */\n      0x00\n        /* \"#utility.yul\":13072:13160   */\n      mstore\n        /* \"#utility.yul\":13179:13183   */\n      0x11\n        /* \"#utility.yul\":13176:13177   */\n      0x04\n        /* \"#utility.yul\":13169:13184   */\n      mstore\n        /* \"#utility.yul\":13203:13207   */\n      0x24\n        /* \"#utility.yul\":13200:13201   */\n      0x00\n        /* \"#utility.yul\":13193:13208   */\n      revert\n        /* \"#utility.yul\":13220:13453   */\n    tag_94:\n        /* \"#utility.yul\":13259:13262   */\n      0x00\n        /* \"#utility.yul\":13282:13306   */\n      tag_375\n        /* \"#utility.yul\":13300:13305   */\n      dup3\n        /* \"#utility.yul\":13282:13306   */\n      tag_189\n      jump\t// in\n    tag_375:\n        /* \"#utility.yul\":13273:13306   */\n      swap2\n      pop\n        /* \"#utility.yul\":13328:13394   */\n      0xffffffffffffffffffffffffffffffffffffffffffffffffffffffffffffffff\n        /* \"#utility.yul\":13321:13326   */\n      dup3\n        /* \"#utility.yul\":13318:13395   */\n      sub\n        /* \"#utility.yul\":13315:13418   */\n      tag_376\n      jumpi\n        /* \"#utility.yul\":13398:13416   */\n      tag_377\n      tag_225\n      jump\t// in\n    tag_377:\n        /* \"#utility.yul\":13315:13418   */\n    tag_376:\n        /* \"#utility.yul\":13445:13446   */\n      0x01\n        /* \"#utility.yul\":13438:13443   */\n      dup3\n        /* \"#utility.yul\":13434:13447   */\n      add\n        /* \"#utility.yul\":13427:13447   */\n      swap1\n      pop\n        /* \"#utility.yul\":13220:13453   */\n      swap2\n      swap1\n      pop\n      jump\t// out\n        /* \"#utility.yul\":13459:13600   */\n    tag_226:\n        /* \"#utility.yul\":13508:13512   */\n      0x00\n        /* \"#utility.yul\":13531:13534   */\n      dup2\n        /* \"#utility.yul\":13523:13534   */\n      swap1\n      pop\n        /* \"#utility.yul\":13554:13557   */\n      dup2\n        /* \"#utility.yul\":13551:13552   */\n      0x00\n        /* \"#utility.yul\":13544:13558   */\n      mstore\n        /* \"#utility.yul\":13588:13592   */\n      0x20\n        /* \"#utility.yul\":13585:13586   */\n      0x00\n        /* \"#utility.yul\":13575:13593   */\n      keccak256\n        /* \"#utility.yul\":13567:13593   */\n      swap1\n      pop\n        /* \"#utility.yul\":13459:13600   */\n      swap2\n      swap1\n      pop\n      jump\t// out\n        /* \"#utility.yul\":13606:13699   */\n    tag_227:\n        /* \"#utility.yul\":13643:13649   */\n      0x00\n        /* \"#utility.yul\":13690:13692   */\n      0x20\n        /* \"#utility.yul\":13685:13687   */\n      0x1f\n        /* \"#utility.yul\":13678:13683   */\n      dup4\n        /* \"#utility.yul\":13674:13688   */\n      add\n        /* \"#utility.yul\":13670:13693   */\n      div\n        /* \"#utility.yul\":13660:13693   */\n      swap1\n      pop\n        /* \"#utility.yul\":13606:13699   */\n      swap2\n      swap1\n      pop\n      jump\t// out\n        /* \"#utility.yul\":13705:13812   */\n    tag_228:\n        /* \"#utility.yul\":13749:13757   */\n      0x00\n        /* \"#utility.yul\":13799:13804   */\n      dup3\n        /* \"#utility.yul\":13793:13797   */\n      dup3\n        /* \"#utility.yul\":13789:13805   */\n      shl\n        /* \"#utility.yul\":13768:13805   */\n      swap1\n      pop\n        /* \"#utility.yul\":13705:13812   */\n      swap3\n      swap2\n      pop\n      pop\n      jump\t// out\n        /* \"#utility.yul\":13818:14211   */\n    tag_229:\n        /* \"#utility.yul\":13887:13893   */\n      0x00\n        /* \"#utility.yul\":13937:13938   */\n      0x08\n        /* \"#utility.yul\":13925:13935   */\n      dup4\n        /* \"#utility.yul\":13921:13939   */\n      mul\n        /* \"#utility.yul\":13960:14057   */\n      tag_382\n        /* \"#utility.yul\":13990:14056   */\n      0xffffffffffffffffffffffffffffffffffffffffffffffffffffffffffffffff\n        /* \"#utility.yul\":13979:13988   */\n      dup3\n        /* \"#utility.yul\":13960:14057   */\n      tag_228\n      jump\t// in\n    tag_382:\n        /* \"#utility.yul\":14078:14117   */\n      tag_383\n        /* \"#utility.yul\":14108:14116   */\n      dup7\n        /* \"#utility.yul\":14097:14106   */\n      dup4\n        /* \"#utility.yul\":14078:14117   */\n      tag_228\n      jump\t// in\n    tag_383:\n        /* \"#utility.yul\":14066:14117   */\n      swap6\n      pop\n        /* \"#utility.yul\":14150:14154   */\n      dup1\n        /* \"#utility.yul\":14146:14155   */\n      not\n        /* \"#utility.yul\":14139:14144   */\n      dup5\n        /* \"#utility.yul\":14135:14156   */\n      and\n        /* \"#utility.yul\":14126:14156   */\n      swap4\n      pop\n        /* \"#utility.yul\":14199:14203   */\n      dup1\n        /* \"#utility.yul\":14189:14197   */\n      dup7\n        /* \"#utility.yul\":14185:14204   */\n      and\n        /* \"#utility.yul\":14178:14183   */\n      dup5\n        /* \"#utility.yul\":14175:14205   */\n      or\n        /* \"#utility.yul\":14165:14205   */\n      swap3\n      pop\n        /* \"#utility.yul\":13894:14211   */\n      pop\n      pop\n        /* \"#utility.yul\":13818:14211   */\n      swap4\n      swap3\n      pop\n      pop\n      pop\n      jump\t// out\n        /* \"#utility.yul\":14217:14277   */\n    tag_230:\n        /* \"#utility.yul\":14245:14248   */\n      0x00\n        /* \"#utility.yul\":14266:14271   */\n      dup2\n        /* \"#utility.yul\":14259:14271   */\n      swap1\n      pop\n        /* \"#utility.yul\":14217:14277   */\n      swap2\n      swap1\n      pop\n      jump\t// out\n        /* \"#utility.yul\":14283:14425   */\n    tag_231:\n        /* \"#utility.yul\":14333:14342   */\n      0x00\n        /* \"#utility.yul\":14366:14419   */\n      tag_386\n        /* \"#utility.yul\":14384:14418   */\n      tag_387\n        /* \"#utility.yul\":14393:14417   */\n      tag_388\n        /* \"#utility.yul\":14411:14416   */\n      dup5\n        /* \"#utility.yul\":14393:14417   */\n      tag_189\n      jump\t// in\n    tag_388:\n        /* \"#utility.yul\":14384:14418   */\n      tag_230\n      jump\t// in\n    tag_387:\n        /* \"#utility.yul\":14366:14419   */\n      tag_189\n      jump\t// in\n    tag_386:\n        /* \"#utility.yul\":14353:14419   */\n      swap1\n      pop\n        /* \"#utility.yul\":14283:14425   */\n      swap2\n      swap1\n      pop\n      jump\t// out\n        /* \"#utility.yul\":14431:14506   */\n    tag_232:\n        /* \"#utility.yul\":14474:14477   */\n      0x00\n        /* \"#utility.yul\":14495:14500   */\n      dup2\n        /* \"#utility.yul\":14488:14500   */\n      swap1\n      pop\n        /* \"#utility.yul\":14431:14506   */\n      swap2\n      swap1\n      pop\n      jump\t// out\n        /* \"#utility.yul\":14512:14781   */\n    tag_233:\n        /* \"#utility.yul\":14622:14661   */\n      tag_391\n        /* \"#utility.yul\":14653:14660   */\n      dup4\n        /* \"#utility.yul\":14622:14661   */\n      tag_231\n      jump\t// in\n    tag_391:\n        /* \"#utility.yul\":14683:14774   */\n      tag_392\n        /* \"#utility.yul\":14732:14773   */\n      tag_393\n        /* \"#utility.yul\":14756:14772   */\n      dup3\n        /* \"#utility.yul\":14732:14773   */\n      tag_232\n      jump\t// in\n    tag_393:\n        /* \"#utility.yul\":14724:14730   */\n      dup5\n        /* \"#utility.yul\":14717:14721   */\n      dup5\n        /* \"#utility.yul\":14711:14722   */\n      sload\n        /* \"#utility.yul\":14683:14774   */\n      tag_229\n      jump\t// in\n    tag_392:\n        /* \"#utility.yul\":14677:14681   */\n      dup3\n        /* \"#utility.yul\":14670:14775   */\n      sstore\n        /* \"#utility.yul\":14588:14781   */\n      pop\n        /* \"#utility.yul\":14512:14781   */\n      pop\n      pop\n      pop\n      jump\t// out\n        /* \"#utility.yul\":14787:14860   */\n    tag_234:\n        /* \"#utility.yul\":14832:14835   */\n      0x00\n        /* \"#utility.yul\":14787:14860   */\n      swap1\n      jump\t// out\n        /* \"#utility.yul\":14866:15055   */\n    tag_235:\n        /* \"#utility.yul\":14943:14975   */\n      tag_396\n      tag_234\n      jump\t// in\n    tag_396:\n        /* \"#utility.yul\":14984:15049   */\n      tag_397\n        /* \"#utility.yul\":15042:15048   */\n      dup2\n        /* \"#utility.yul\":15034:15040   */\n      dup5\n        /* \"#utility.yul\":15028:15032   */\n      dup5\n        /* \"#utility.yul\":14984:15049   */\n      tag_233\n      jump\t// in\n    tag_397:\n        /* \"#utility.yul\":14919:15055   */\n      pop\n        /* \"#utility.yul\":14866:15055   */\n      pop\n      pop\n      jump\t// out\n        /* \"#utility.yul\":15061:15247   */\n    tag_236:\n        /* \"#utility.yul\":15121:15241   */\n    tag_399:\n        /* \"#utility.yul\":15138:15141   */\n      dup2\n        /* \"#utility.yul\":15131:15136   */\n      dup2\n        /* \"#utility.yul\":15128:15142   */\n      lt\n        /* \"#utility.yul\":15121:15241   */\n      iszero\n      tag_401\n      jumpi\n        /* \"#utility.yul\":15192:15231   */\n      tag_402\n        /* \"#utility.yul\":15229:15230   */\n      0x00\n        /* \"#utility.yul\":15222:15227   */\n      dup3\n        /* \"#utility.yul\":15192:15231   */\n      tag_235\n      jump\t// in\n    tag_402:\n        /* \"#utility.yul\":15165:15166   */\n      0x01\n        /* \"#utility.yul\":15158:15163   */\n      dup2\n        /* \"#utility.yul\":15154:15167   */\n      add\n        /* \"#utility.yul\":15145:15167   */\n      swap1\n      pop\n        /* \"#utility.yul\":15121:15241   */\n      jump(tag_399)\n    tag_401:\n        /* \"#utility.yul\":15061:15247   */\n      pop\n      pop\n      jump\t// out\n        /* \"#utility.yul\":15253:15796   */\n    tag_237:\n        /* \"#utility.yul\":15354:15356   */\n      0x1f\n        /* \"#utility.yul\":15349:15352   */\n      dup3\n        /* \"#utility.yul\":15346:15357   */\n      gt\n        /* \"#utility.yul\":15343:15789   */\n      iszero\n      tag_404\n      jumpi\n        /* \"#utility.yul\":15388:15426   */\n      tag_405\n        /* \"#utility.yul\":15420:15425   */\n      dup2\n        /* \"#utility.yul\":15388:15426   */\n      tag_226\n      jump\t// in\n    tag_405:\n        /* \"#utility.yul\":15472:15501   */\n      tag_406\n        /* \"#utility.yul\":15490:15500   */\n      dup5\n        /* \"#utility.yul\":15472:15501   */\n      tag_227\n      jump\t// in\n    tag_406:\n        /* \"#utility.yul\":15462:15470   */\n      dup2\n        /* \"#utility.yul\":15458:15502   */\n      add\n        /* \"#utility.yul\":15655:15657   */\n      0x20\n        /* \"#utility.yul\":15643:15653   */\n      dup6\n        /* \"#utility.yul\":15640:15658   */\n      lt\n        /* \"#utility.yul\":15637:15686   */\n      iszero\n      tag_407\n      jumpi\n        /* \"#utility.yul\":15676:15684   */\n      dup2\n        /* \"#utility.yul\":15661:15684   */\n      swap1\n      pop\n        /* \"#utility.yul\":15637:15686   */\n    tag_407:\n        /* \"#utility.yul\":15699:15779   */\n      tag_408\n        /* \"#utility.yul\":15755:15777   */\n      tag_409\n        /* \"#utility.yul\":15773:15776   */\n      dup6\n        /* \"#utility.yul\":15755:15777   */\n      tag_227\n      jump\t// in\n    tag_409:\n        /* \"#utility.yul\":15745:15753   */\n      dup4\n        /* \"#utility.yul\":15741:15778   */\n      add\n        /* \"#utility.yul\":15728:15739   */\n      dup3\n        /* \"#utility.yul\":15699:15779   */\n      tag_236\n      jump\t// in\n    tag_408:\n        /* \"#utility.yul\":15358:15789   */\n      pop\n      pop\n        /* \"#utility.yul\":15343:15789   */\n    tag_404:\n        /* \"#utility.yul\":15253:15796   */\n      pop\n      pop\n      pop\n      jump\t// out\n        /* \"#utility.yul\":15802:15919   */\n    tag_238:\n        /* \"#utility.yul\":15856:15864   */\n      0x00\n        /* \"#utility.yul\":15906:15911   */\n      dup3\n        /* \"#utility.yul\":15900:15904   */\n      dup3\n        /* \"#utility.yul\":15896:15912   */\n      shr\n        /* \"#utility.yul\":15875:15912   */\n      swap1\n      pop\n        /* \"#utility.yul\":15802:15919   */\n      swap3\n      swap2\n      pop\n      pop\n      jump\t// out\n        /* \"#utility.yul\":15925:16094   */\n    tag_239:\n        /* \"#utility.yul\":15969:15975   */\n      0x00\n        /* \"#utility.yul\":16002:16053   */\n      tag_412\n        /* \"#utility.yul\":16050:16051   */\n      0x00\n        /* \"#utility.yul\":16046:16052   */\n      not\n        /* \"#utility.yul\":16038:16043   */\n      dup5\n        /* \"#utility.yul\":16035:16036   */\n      0x08\n        /* \"#utility.yul\":16031:16044   */\n      mul\n        /* \"#utility.yul\":16002:16053   */\n      tag_238\n      jump\t// in\n    tag_412:\n        /* \"#utility.yul\":15998:16054   */\n      not\n        /* \"#utility.yul\":16083:16087   */\n      dup1\n        /* \"#utility.yul\":16077:16081   */\n      dup4\n        /* \"#utility.yul\":16073:16088   */\n      and\n        /* \"#utility.yul\":16063:16088   */\n      swap2\n      pop\n        /* \"#utility.yul\":15976:16094   */\n      pop\n        /* \"#utility.yul\":15925:16094   */\n      swap3\n      swap2\n      pop\n      pop\n      jump\t// out\n        /* \"#utility.yul\":16099:16394   */\n    tag_240:\n        /* \"#utility.yul\":16175:16179   */\n      0x00\n        /* \"#utility.yul\":16321:16350   */\n      tag_414\n        /* \"#utility.yul\":16346:16349   */\n      dup4\n        /* \"#utility.yul\":16340:16344   */\n      dup4\n        /* \"#utility.yul\":16321:16350   */\n      tag_239\n      jump\t// in\n    tag_414:\n        /* \"#utility.yul\":16313:16350   */\n      swap2\n      pop\n        /* \"#utility.yul\":16383:16386   */\n      dup3\n        /* \"#utility.yul\":16380:16381   */\n      0x02\n        /* \"#utility.yul\":16376:16387   */\n      mul\n        /* \"#utility.yul\":16370:16374   */\n      dup3\n        /* \"#utility.yul\":16367:16388   */\n      or\n        /* \"#utility.yul\":16359:16388   */\n      swap1\n      pop\n        /* \"#utility.yul\":16099:16394   */\n      swap3\n      swap2\n      pop\n      pop\n      jump\t// out\n        /* \"#utility.yul\":16399:17794   */\n    tag_118:\n        /* \"#utility.yul\":16516:16553   */\n      tag_416\n        /* \"#utility.yul\":16549:16552   */\n      dup3\n        /* \"#utility.yul\":16516:16553   */\n      tag_193\n      jump\t// in\n    tag_416:\n        /* \"#utility.yul\":16618:16636   */\n      0xffffffffffffffff\n        /* \"#utility.yul\":16610:16616   */\n      dup2\n        /* \"#utility.yul\":16607:16637   */\n      gt\n        /* \"#utility.yul\":16604:16660   */\n      iszero\n      tag_417\n      jumpi\n        /* \"#utility.yul\":16640:16658   */\n      tag_418\n      tag_209\n      jump\t// in\n    tag_418:\n        /* \"#utility.yul\":16604:16660   */\n    tag_417:\n        /* \"#utility.yul\":16684:16722   */\n      tag_419\n        /* \"#utility.yul\":16716:16720   */\n      dup3\n        /* \"#utility.yul\":16710:16721   */\n      sload\n        /* \"#utility.yul\":16684:16722   */\n      tag_47\n      jump\t// in\n    tag_419:\n        /* \"#utility.yul\":16769:16836   */\n      tag_420\n        /* \"#utility.yul\":16829:16835   */\n      dup3\n        /* \"#utility.yul\":16821:16827   */\n      dup3\n        /* \"#utility.yul\":16815:16819   */\n      dup6\n        /* \"#utility.yul\":16769:16836   */\n      tag_237\n      jump\t// in\n    tag_420:\n        /* \"#utility.yul\":16863:16864   */\n      0x00\n        /* \"#utility.yul\":16887:16891   */\n      0x20\n        /* \"#utility.yul\":16874:16891   */\n      swap1\n      pop\n        /* \"#utility.yul\":16919:16921   */\n      0x1f\n        /* \"#utility.yul\":16911:16917   */\n      dup4\n        /* \"#utility.yul\":16908:16922   */\n      gt\n        /* \"#utility.yul\":16936:16937   */\n      0x01\n        /* \"#utility.yul\":16931:17549   */\n      dup2\n      eq\n      tag_422\n      jumpi\n        /* \"#utility.yul\":17593:17594   */\n      0x00\n        /* \"#utility.yul\":17610:17616   */\n      dup5\n        /* \"#utility.yul\":17607:17684   */\n      iszero\n      tag_423\n      jumpi\n        /* \"#utility.yul\":17659:17668   */\n      dup3\n        /* \"#utility.yul\":17654:17657   */\n      dup8\n        /* \"#utility.yul\":17650:17669   */\n      add\n        /* \"#utility.yul\":17644:17670   */\n      mload\n        /* \"#utility.yul\":17635:17670   */\n      swap1\n      pop\n        /* \"#utility.yul\":17607:17684   */\n    tag_423:\n        /* \"#utility.yul\":17710:17777   */\n      tag_424\n        /* \"#utility.yul\":17770:17776   */\n      dup6\n        /* \"#utility.yul\":17763:17768   */\n      dup3\n        /* \"#utility.yul\":17710:17777   */\n      tag_240\n      jump\t// in\n    tag_424:\n        /* \"#utility.yul\":17704:17708   */\n      dup7\n        /* \"#utility.yul\":17697:17778   */\n      sstore\n        /* \"#utility.yul\":17566:17788   */\n      pop\n        /* \"#utility.yul\":16901:17788   */\n      jump(tag_421)\n        /* \"#utility.yul\":16931:17549   */\n    tag_422:\n        /* \"#utility.yul\":16983:16987   */\n      0x1f\n        /* \"#utility.yul\":16979:16988   */\n      not\n        /* \"#utility.yul\":16971:16977   */\n      dup5\n        /* \"#utility.yul\":16967:16989   */\n      and\n        /* \"#utility.yul\":17017:17054   */\n      tag_425\n        /* \"#utility.yul\":17049:17053   */\n      dup7\n        /* \"#utility.yul\":17017:17054   */\n      tag_226\n      jump\t// in\n    tag_425:\n        /* \"#utility.yul\":17076:17077   */\n      0x00\n        /* \"#utility.yul\":17090:17298   */\n    tag_426:\n        /* \"#utility.yul\":17104:17111   */\n      dup3\n        /* \"#utility.yul\":17101:17102   */\n      dup2\n        /* \"#utility.yul\":17098:17112   */\n      lt\n        /* \"#utility.yul\":17090:17298   */\n      iszero\n      tag_428\n      jumpi\n        /* \"#utility.yul\":17183:17192   */\n      dup5\n        /* \"#utility.yul\":17178:17181   */\n      dup10\n        /* \"#utility.yul\":17174:17193   */\n      add\n        /* \"#utility.yul\":17168:17194   */\n      mload\n        /* \"#utility.yul\":17160:17166   */\n      dup3\n        /* \"#utility.yul\":17153:17195   */\n      sstore\n        /* \"#utility.yul\":17234:17235   */\n      0x01\n        /* \"#utility.yul\":17226:17232   */\n      dup3\n        /* \"#utility.yul\":17222:17236   */\n      add\n        /* \"#utility.yul\":17212:17236   */\n      swap2\n      pop\n        /* \"#utility.yul\":17281:17283   */\n      0x20\n        /* \"#utility.yul\":17270:17279   */\n      dup6\n        /* \"#utility.yul\":17266:17284   */\n      add\n        /* \"#utility.yul\":17253:17284   */\n      swap5\n      pop\n        /* \"#utility.yul\":17127:17131   */\n      0x20\n        /* \"#utility.yul\":17124:17125   */\n      dup2\n        /* \"#utility.yul\":17120:17132   */\n      add\n        /* \"#utility.yul\":17115:17132   */\n      swap1\n      pop\n        /* \"#utility.yul\":17090:17298   */\n      jump(tag_426)\n    tag_428:\n        /* \"#utility.yul\":17326:17332   */\n      dup7\n        /* \"#utility.yul\":17317:17324   */\n      dup4\n        /* \"#utility.yul\":17314:17333   */\n      lt\n        /* \"#utility.yul\":17311:17490   */\n      iszero\n      tag_429\n      jumpi\n        /* \"#utility.yul\":17384:17393   */\n      dup5\n        /* \"#utility.yul\":17379:17382   */\n      dup10\n        /* \"#utility.yul\":17375:17394   */\n      add\n        /* \"#utility.yul\":17369:17395   */\n      mload\n        /* \"#utility.yul\":17427:17475   */\n      tag_430\n        /* \"#utility.yul\":17469:17473   */\n      0x1f\n        /* \"#utility.yul\":17461:17467   */\n      dup10\n        /* \"#utility.yul\":17457:17474   */\n      and\n        /* \"#utility.yul\":17446:17455   */\n      dup3\n        /* \"#utility.yul\":17427:17475   */\n      tag_239\n      jump\t// in\n    tag_430:\n        /* \"#utility.yul\":17419:17425   */\n      dup4\n        /* \"#utility.yul\":17412:17476   */\n      sstore\n        /* \"#utility.yul\":17334:17490   */\n      pop\n        /* \"#utility.yul\":17311:17490   */\n    tag_429:\n        /* \"#utility.yul\":17536:17537   */\n      0x01\n        /* \"#utility.yul\":17532:17533   */\n      0x02\n        /* \"#utility.yul\":17524:17530   */\n      dup9\n        /* \"#utility.yul\":17520:17534   */\n      mul\n        /* \"#utility.yul\":17516:17538   */\n      add\n        /* \"#utility.yul\":17510:17514   */\n      dup9\n        /* \"#utility.yul\":17503:17539   */\n      sstore\n        /* \"#utility.yul\":16938:17549   */\n      pop\n      pop\n      pop\n        /* \"#utility.yul\":16901:17788   */\n    tag_421:\n      pop\n        /* \"#utility.yul\":16491:17794   */\n      pop\n      pop\n      pop\n        /* \"#utility.yul\":16399:17794   */\n      pop\n      pop\n      jump\t// out\n        /* \"#utility.yul\":17800:18032   */\n    tag_241:\n        /* \"#utility.yul\":17940:17974   */\n      0x47616d65206973206e6f7420796574206f766572202d20426574732061726520\n        /* \"#utility.yul\":17936:17937   */\n      0x00\n        /* \"#utility.yul\":17928:17934   */\n      dup3\n        /* \"#utility.yul\":17924:17938   */\n      add\n        /* \"#utility.yul\":17917:17975   */\n      mstore\n        /* \"#utility.yul\":18009:18024   */\n      0x7374696c6c2070656e64696e6700000000000000000000000000000000000000\n        /* \"#utility.yul\":18004:18006   */\n      0x20\n        /* \"#utility.yul\":17996:18002   */\n      dup3\n        /* \"#utility.yul\":17992:18007   */\n      add\n        /* \"#utility.yul\":17985:18025   */\n      mstore\n        /* \"#utility.yul\":17800:18032   */\n      pop\n      jump\t// out\n        /* \"#utility.yul\":18038:18404   */\n    tag_242:\n        /* \"#utility.yul\":18180:18183   */\n      0x00\n        /* \"#utility.yul\":18201:18268   */\n      tag_433\n        /* \"#utility.yul\":18265:18267   */\n      0x2d\n        /* \"#utility.yul\":18260:18263   */\n      dup4\n        /* \"#utility.yul\":18201:18268   */\n      tag_194\n      jump\t// in\n    tag_433:\n        /* \"#utility.yul\":18194:18268   */\n      swap2\n      pop\n        /* \"#utility.yul\":18277:18370   */\n      tag_434\n        /* \"#utility.yul\":18366:18369   */\n      dup3\n        /* \"#utility.yul\":18277:18370   */\n      tag_241\n      jump\t// in\n    tag_434:\n        /* \"#utility.yul\":18395:18397   */\n      0x40\n        /* \"#utility.yul\":18390:18393   */\n      dup3\n        /* \"#utility.yul\":18386:18398   */\n      add\n        /* \"#utility.yul\":18379:18398   */\n      swap1\n      pop\n        /* \"#utility.yul\":18038:18404   */\n      swap2\n      swap1\n      pop\n      jump\t// out\n        /* \"#utility.yul\":18410:18829   */\n    tag_125:\n        /* \"#utility.yul\":18576:18580   */\n      0x00\n        /* \"#utility.yul\":18614:18616   */\n      0x20\n        /* \"#utility.yul\":18603:18612   */\n      dup3\n        /* \"#utility.yul\":18599:18617   */\n      add\n        /* \"#utility.yul\":18591:18617   */\n      swap1\n      pop\n        /* \"#utility.yul\":18663:18672   */\n      dup2\n        /* \"#utility.yul\":18657:18661   */\n      dup2\n        /* \"#utility.yul\":18653:18673   */\n      sub\n        /* \"#utility.yul\":18649:18650   */\n      0x00\n        /* \"#utility.yul\":18638:18647   */\n      dup4\n        /* \"#utility.yul\":18634:18651   */\n      add\n        /* \"#utility.yul\":18627:18674   */\n      mstore\n        /* \"#utility.yul\":18691:18822   */\n      tag_436\n        /* \"#utility.yul\":18817:18821   */\n      dup2\n        /* \"#utility.yul\":18691:18822   */\n      tag_242\n      jump\t// in\n    tag_436:\n        /* \"#utility.yul\":18683:18822   */\n      swap1\n      pop\n        /* \"#utility.yul\":18410:18829   */\n      swap2\n      swap1\n      pop\n      jump\t// out\n        /* \"#utility.yul\":18835:19009   */\n    tag_243:\n        /* \"#utility.yul\":18975:19001   */\n      0x536f727279202d20796f75206c6f737420746865206265740000000000000000\n        /* \"#utility.yul\":18971:18972   */\n      0x00\n        /* \"#utility.yul\":18963:18969   */\n      dup3\n        /* \"#utility.yul\":18959:18973   */\n      add\n        /* \"#utility.yul\":18952:19002   */\n      mstore\n        /* \"#utility.yul\":18835:19009   */\n      pop\n      jump\t// out\n        /* \"#utility.yul\":19015:19381   */\n    tag_244:\n        /* \"#utility.yul\":19157:19160   */\n      0x00\n        /* \"#utility.yul\":19178:19245   */\n      tag_439\n        /* \"#utility.yul\":19242:19244   */\n      0x18\n        /* \"#utility.yul\":19237:19240   */\n      dup4\n        /* \"#utility.yul\":19178:19245   */\n      tag_194\n      jump\t// in\n    tag_439:\n        /* \"#utility.yul\":19171:19245   */\n      swap2\n      pop\n        /* \"#utility.yul\":19254:19347   */\n      tag_440\n        /* \"#utility.yul\":19343:19346   */\n      dup3\n        /* \"#utility.yul\":19254:19347   */\n      tag_243\n      jump\t// in\n    tag_440:\n        /* \"#utility.yul\":19372:19374   */\n      0x20\n        /* \"#utility.yul\":19367:19370   */\n      dup3\n        /* \"#utility.yul\":19363:19375   */\n      add\n        /* \"#utility.yul\":19356:19375   */\n      swap1\n      pop\n        /* \"#utility.yul\":19015:19381   */\n      swap2\n      swap1\n      pop\n      jump\t// out\n        /* \"#utility.yul\":19387:19806   */\n    tag_134:\n        /* \"#utility.yul\":19553:19557   */\n      0x00\n        /* \"#utility.yul\":19591:19593   */\n      0x20\n        /* \"#utility.yul\":19580:19589   */\n      dup3\n        /* \"#utility.yul\":19576:19594   */\n      add\n        /* \"#utility.yul\":19568:19594   */\n      swap1\n      pop\n        /* \"#utility.yul\":19640:19649   */\n      dup2\n        /* \"#utility.yul\":19634:19638   */\n      dup2\n        /* \"#utility.yul\":19630:19650   */\n      sub\n        /* \"#utility.yul\":19626:19627   */\n      0x00\n        /* \"#utility.yul\":19615:19624   */\n      dup4\n        /* \"#utility.yul\":19611:19628   */\n      add\n        /* \"#utility.yul\":19604:19651   */\n      mstore\n        /* \"#utility.yul\":19668:19799   */\n      tag_442\n        /* \"#utility.yul\":19794:19798   */\n      dup2\n        /* \"#utility.yul\":19668:19799   */\n      tag_244\n      jump\t// in\n    tag_442:\n        /* \"#utility.yul\":19660:19799   */\n      swap1\n      pop\n        /* \"#utility.yul\":19387:19806   */\n      swap2\n      swap1\n      pop\n      jump\t// out\n        /* \"#utility.yul\":19812:20222   */\n    tag_149:\n        /* \"#utility.yul\":19852:19859   */\n      0x00\n        /* \"#utility.yul\":19875:19895   */\n      tag_444\n        /* \"#utility.yul\":19893:19894   */\n      dup3\n        /* \"#utility.yul\":19875:19895   */\n      tag_189\n      jump\t// in\n    tag_444:\n        /* \"#utility.yul\":19870:19895   */\n      swap2\n      pop\n        /* \"#utility.yul\":19909:19929   */\n      tag_445\n        /* \"#utility.yul\":19927:19928   */\n      dup4\n        /* \"#utility.yul\":19909:19929   */\n      tag_189\n      jump\t// in\n    tag_445:\n        /* \"#utility.yul\":19904:19929   */\n      swap3\n      pop\n        /* \"#utility.yul\":19964:19965   */\n      dup3\n        /* \"#utility.yul\":19961:19962   */\n      dup3\n        /* \"#utility.yul\":19957:19966   */\n      mul\n        /* \"#utility.yul\":19986:20016   */\n      tag_446\n        /* \"#utility.yul\":20004:20015   */\n      dup2\n        /* \"#utility.yul\":19986:20016   */\n      tag_189\n      jump\t// in\n    tag_446:\n        /* \"#utility.yul\":19975:20016   */\n      swap2\n      pop\n        /* \"#utility.yul\":20165:20166   */\n      dup3\n        /* \"#utility.yul\":20156:20163   */\n      dup3\n        /* \"#utility.yul\":20152:20167   */\n      div\n        /* \"#utility.yul\":20149:20150   */\n      dup5\n        /* \"#utility.yul\":20146:20168   */\n      eq\n        /* \"#utility.yul\":20126:20127   */\n      dup4\n        /* \"#utility.yul\":20119:20128   */\n      iszero\n        /* \"#utility.yul\":20099:20182   */\n      or\n        /* \"#utility.yul\":20076:20215   */\n      tag_447\n      jumpi\n        /* \"#utility.yul\":20195:20213   */\n      tag_448\n      tag_225\n      jump\t// in\n    tag_448:\n        /* \"#utility.yul\":20076:20215   */\n    tag_447:\n        /* \"#utility.yul\":19860:20222   */\n      pop\n        /* \"#utility.yul\":19812:20222   */\n      swap3\n      swap2\n      pop\n      pop\n      jump\t// out\n        /* \"#utility.yul\":20228:20408   */\n    tag_245:\n        /* \"#utility.yul\":20276:20353   */\n      0x4e487b7100000000000000000000000000000000000000000000000000000000\n        /* \"#utility.yul\":20273:20274   */\n      0x00\n        /* \"#utility.yul\":20266:20354   */\n      mstore\n        /* \"#utility.yul\":20373:20377   */\n      0x12\n        /* \"#utility.yul\":20370:20371   */\n      0x04\n        /* \"#utility.yul\":20363:20378   */\n      mstore\n        /* \"#utility.yul\":20397:20401   */\n      0x24\n        /* \"#utility.yul\":20394:20395   */\n      0x00\n        /* \"#utility.yul\":20387:20402   */\n      revert\n        /* \"#utility.yul\":20414:20599   */\n    tag_151:\n        /* \"#utility.yul\":20454:20455   */\n      0x00\n        /* \"#utility.yul\":20471:20491   */\n      tag_451\n        /* \"#utility.yul\":20489:20490   */\n      dup3\n        /* \"#utility.yul\":20471:20491   */\n      tag_189\n      jump\t// in\n    tag_451:\n        /* \"#utility.yul\":20466:20491   */\n      swap2\n      pop\n        /* \"#utility.yul\":20505:20525   */\n      tag_452\n        /* \"#utility.yul\":20523:20524   */\n      dup4\n        /* \"#utility.yul\":20505:20525   */\n      tag_189\n      jump\t// in\n    tag_452:\n        /* \"#utility.yul\":20500:20525   */\n      swap3\n      pop\n        /* \"#utility.yul\":20544:20545   */\n      dup3\n        /* \"#utility.yul\":20534:20569   */\n      tag_453\n      jumpi\n        /* \"#utility.yul\":20549:20567   */\n      tag_454\n      tag_245\n      jump\t// in\n    tag_454:\n        /* \"#utility.yul\":20534:20569   */\n    tag_453:\n        /* \"#utility.yul\":20591:20592   */\n      dup3\n        /* \"#utility.yul\":20588:20589   */\n      dup3\n        /* \"#utility.yul\":20584:20593   */\n      div\n        /* \"#utility.yul\":20579:20593   */\n      swap1\n      pop\n        /* \"#utility.yul\":20414:20599   */\n      swap3\n      swap2\n      pop\n      pop\n      jump\t// out\n\n    auxdata: 0xa2646970667358221220b78938ea7a7686d1ee75aa090be7e3a1d7ab8dde7585248ba1f392a60c76800a64736f6c63430008160033\n}\n",
				"bytecode": {
					"linkReferences": {},
					"object": "608060405234801561000f575f80fd5b50335f806101000a81548173ffffffffffffffffffffffffffffffffffffffff021916908373ffffffffffffffffffffffffffffffffffffffff1602179055506118758061005c5f395ff3fe60806040526004361061006f575f3560e01c80634ac22bc91161004d5780634ac22bc9146101075780638da5cb5b14610123578063b3aa2fe11461014d578063c22c57c7146101755761006f565b8063117a5b901461007357806325c9e9b3146100b75780632c926479146100df575b5f80fd5b34801561007e575f80fd5b5061009960048036038101906100949190610d0d565b61019d565b6040516100ae99989796959493929190610e06565b60405180910390f35b3480156100c2575f80fd5b506100dd60048036038101906100d89190610ec2565b610295565b005b3480156100ea575f80fd5b5061010560048036038101906101009190610eed565b610363565b005b610121600480360381019061011c9190610eed565b610432565b005b34801561012e575f80fd5b506101376107ea565b6040516101449190610f6a565b60405180910390f35b348015610158575f80fd5b50610173600480360381019061016e91906110af565b61080d565b005b348015610180575f80fd5b5061019b60048036038101906101969190610d0d565b6108ec565b005b600181815481106101ac575f80fd5b905f5260205f2090600902015f91509050805f0154908060010180546101d190611136565b80601f01602080910402602001604051908101604052809291908181526020018280546101fd90611136565b80156102485780601f1061021f57610100808354040283529160200191610248565b820191905f5260205f20905b81548152906001019060200180831161022b57829003601f168201915b505050505090806002015f9054906101000a900460ff16908060020160019054906101000a900460ff16908060030154908060040154908060050154908060060154908060080154905089565b5f8054906101000a900473ffffffffffffffffffffffffffffffffffffffff1673ffffffffffffffffffffffffffffffffffffffff163373ffffffffffffffffffffffffffffffffffffffff1614610322576040517f08c379a0000000000000000000000000000000000000000000000000000000008152600401610319906111d6565b60405180910390fd5b6001808260ff168154811061033a576103396111f4565b5b905f5260205f20906009020160020160016101000a81548160ff02191690831515021790555050565b5f8054906101000a900473ffffffffffffffffffffffffffffffffffffffff1673ffffffffffffffffffffffffffffffffffffffff163373ffffffffffffffffffffffffffffffffffffffff16146103f0576040517f08c379a00000000000000000000000000000000000000000000000000000000081526004016103e7906111d6565b60405180910390fd5b8060018360ff1681548110610408576104076111f4565b5b905f5260205f2090600902016002015f6101000a81548160ff021916908360ff1602179055505050565b60018260ff1681548110610449576104486111f4565b5b905f5260205f20906009020160020160019054906101000a900460ff16156104a6576040517f08c379a000000000000000000000000000000000000000000000000000000000815260040161049d90611291565b60405180910390fd5b5f60018360ff16815481106104be576104bd6111f4565b5b905f5260205f2090600902016007015f3373ffffffffffffffffffffffffffffffffffffffff1673ffffffffffffffffffffffffffffffffffffffff1681526020019081526020015f206002015f9054906101000a900460ff1660ff161461055b576040517f08c379a00000000000000000000000000000000000000000000000000000000081526004016105529061131f565b60405180910390fd5b60018260ff1681548110610572576105716111f4565b5b905f5260205f2090600902016003015434146105c3576040517f08c379a00000000000000000000000000000000000000000000000000000000081526004016105ba906113ad565b60405180910390fd5b60405180606001604052803373ffffffffffffffffffffffffffffffffffffffff1681526020018360ff1681526020018260ff1681525060018360ff1681548110610611576106106111f4565b5b905f5260205f2090600902016007015f3373ffffffffffffffffffffffffffffffffffffffff1673ffffffffffffffffffffffffffffffffffffffff1681526020019081526020015f205f820151815f015f6101000a81548173ffffffffffffffffffffffffffffffffffffffff021916908373ffffffffffffffffffffffffffffffffffffffff160217905550602082015181600101556040820151816002015f6101000a81548160ff021916908360ff16021790555090505060018260ff16815481106106e3576106e26111f4565b5b905f5260205f2090600902016008015f815480929190610702906113f8565b919050555060018160ff16036107525760018260ff1681548110610729576107286111f4565b5b905f5260205f2090600902016004015f815480929190610748906113f8565b91905055506107e6565b60028160ff160361079d5760018260ff1681548110610774576107736111f4565b5b905f5260205f2090600902016005015f815480929190610793906113f8565b91905055506107e5565b60038160ff16036107e45760018260ff16815481106107bf576107be6111f4565b5b905f5260205f2090600902016006015f8154809291906107de906113f8565b91905055505b5b5b5050565b5f8054906101000a900473ffffffffffffffffffffffffffffffffffffffff1681565b5f8054906101000a900473ffffffffffffffffffffffffffffffffffffffff1673ffffffffffffffffffffffffffffffffffffffff163373ffffffffffffffffffffffffffffffffffffffff161461089a576040517f08c379a0000000000000000000000000000000000000000000000000000000008152600401610891906111d6565b60405180910390fd5b5f60018054905090505f6001808160018154018082558091505003905f5260205f209060090201905081815f0181905550838160010190816108dc91906115dc565b5082816003018190555050505050565b60018181548110610900576108ff6111f4565b5b905f5260205f20906009020160020160019054906101000a900460ff1661095c576040517f08c379a00000000000000000000000000000000000000000000000000000000081526004016109539061171b565b60405180910390fd5b600181815481106109705761096f6111f4565b5b905f5260205f2090600902016002015f9054906101000a900460ff1660ff16600182815481106109a3576109a26111f4565b5b905f5260205f2090600902016007015f3373ffffffffffffffffffffffffffffffffffffffff1673ffffffffffffffffffffffffffffffffffffffff1681526020019081526020015f206002015f9054906101000a900460ff1660ff1614610a40576040517f08c379a0000000000000000000000000000000000000000000000000000000008152600401610a3790611783565b60405180910390fd5b5f6001808381548110610a5657610a556111f4565b5b905f5260205f2090600902016002015f9054906101000a900460ff1660ff1603610b015760018281548110610a8e57610a8d6111f4565b5b905f5260205f2090600902016004015460018381548110610ab257610ab16111f4565b5b905f5260205f2090600902016003015460018481548110610ad657610ad56111f4565b5b905f5260205f20906009020160080154610af091906117a1565b610afa919061180f565b9050610c81565b600260018381548110610b1757610b166111f4565b5b905f5260205f2090600902016002015f9054906101000a900460ff1660ff1603610bc25760018281548110610b4f57610b4e6111f4565b5b905f5260205f2090600902016005015460018381548110610b7357610b726111f4565b5b905f5260205f2090600902016003015460018481548110610b9757610b966111f4565b5b905f5260205f20906009020160080154610bb191906117a1565b610bbb919061180f565b9050610c80565b600360018381548110610bd857610bd76111f4565b5b905f5260205f2090600902016002015f9054906101000a900460ff1660ff1603610c7f5760018281548110610c1057610c0f6111f4565b5b905f5260205f2090600902016006015460018381548110610c3457610c336111f4565b5b905f5260205f2090600902016003015460018481548110610c5857610c576111f4565b5b905f5260205f20906009020160080154610c7291906117a1565b610c7c919061180f565b90505b5b5b3373ffffffffffffffffffffffffffffffffffffffff166108fc8290811502906040515f60405180830381858888f19350505050158015610cc4573d5f803e3d5ffd5b505050565b5f604051905090565b5f80fd5b5f80fd5b5f819050919050565b610cec81610cda565b8114610cf6575f80fd5b50565b5f81359050610d0781610ce3565b92915050565b5f60208284031215610d2257610d21610cd2565b5b5f610d2f84828501610cf9565b91505092915050565b610d4181610cda565b82525050565b5f81519050919050565b5f82825260208201905092915050565b5f5b83811015610d7e578082015181840152602081019050610d63565b5f8484015250505050565b5f601f19601f8301169050919050565b5f610da382610d47565b610dad8185610d51565b9350610dbd818560208601610d61565b610dc681610d89565b840191505092915050565b5f60ff82169050919050565b610de681610dd1565b82525050565b5f8115159050919050565b610e0081610dec565b82525050565b5f61012082019050610e1a5f83018c610d38565b8181036020830152610e2c818b610d99565b9050610e3b604083018a610ddd565b610e486060830189610df7565b610e556080830188610d38565b610e6260a0830187610d38565b610e6f60c0830186610d38565b610e7c60e0830185610d38565b610e8a610100830184610d38565b9a9950505050505050505050565b610ea181610dd1565b8114610eab575f80fd5b50565b5f81359050610ebc81610e98565b92915050565b5f60208284031215610ed757610ed6610cd2565b5b5f610ee484828501610eae565b91505092915050565b5f8060408385031215610f0357610f02610cd2565b5b5f610f1085828601610eae565b9250506020610f2185828601610eae565b9150509250929050565b5f73ffffffffffffffffffffffffffffffffffffffff82169050919050565b5f610f5482610f2b565b9050919050565b610f6481610f4a565b82525050565b5f602082019050610f7d5f830184610f5b565b92915050565b5f80fd5b5f80fd5b7f4e487b71000000000000000000000000000000000000000000000000000000005f52604160045260245ffd5b610fc182610d89565b810181811067ffffffffffffffff82111715610fe057610fdf610f8b565b5b80604052505050565b5f610ff2610cc9565b9050610ffe8282610fb8565b919050565b5f67ffffffffffffffff82111561101d5761101c610f8b565b5b61102682610d89565b9050602081019050919050565b828183375f83830152505050565b5f61105361104e84611003565b610fe9565b90508281526020810184848401111561106f5761106e610f87565b5b61107a848285611033565b509392505050565b5f82601f83011261109657611095610f83565b5b81356110a6848260208601611041565b91505092915050565b5f80604083850312156110c5576110c4610cd2565b5b5f83013567ffffffffffffffff8111156110e2576110e1610cd6565b5b6110ee85828601611082565b92505060206110ff85828601610cf9565b9150509250929050565b7f4e487b71000000000000000000000000000000000000000000000000000000005f52602260045260245ffd5b5f600282049050600182168061114d57607f821691505b6020821081036111605761115f611109565b5b50919050565b7f4f6e6c7920746865206f776e65722063616e2063616c6c20746869732066756e5f8201527f6374696f6e000000000000000000000000000000000000000000000000000000602082015250565b5f6111c0602583610d51565b91506111cb82611166565b604082019050919050565b5f6020820190508181035f8301526111ed816111b4565b9050919050565b7f4e487b71000000000000000000000000000000000000000000000000000000005f52603260045260245ffd5b7f47616d65206973206f766572202d206e6f206265747320616c6c6f77656420615f8201527f6e796d6f72650000000000000000000000000000000000000000000000000000602082015250565b5f61127b602683610d51565b915061128682611221565b604082019050919050565b5f6020820190508181035f8301526112a88161126f565b9050919050565b7f596f7520616c726561647920626574202d206e6f206265747320616c6c6f77655f8201527f6420616e796d6f72650000000000000000000000000000000000000000000000602082015250565b5f611309602983610d51565b9150611314826112af565b604082019050919050565b5f6020820190508181035f830152611336816112fd565b9050919050565b7f42657420646f6573206e6f7420657175616c20746865207370656369666965645f8201527f2062657420616d6f756e7420666f7220746869732067616d6500000000000000602082015250565b5f611397603983610d51565b91506113a28261133d565b604082019050919050565b5f6020820190508181035f8301526113c48161138b565b9050919050565b7f4e487b71000000000000000000000000000000000000000000000000000000005f52601160045260245ffd5b5f61140282610cda565b91507fffffffffffffffffffffffffffffffffffffffffffffffffffffffffffffffff8203611434576114336113cb565b5b600182019050919050565b5f819050815f5260205f209050919050565b5f6020601f8301049050919050565b5f82821b905092915050565b5f6008830261149b7fffffffffffffffffffffffffffffffffffffffffffffffffffffffffffffffff82611460565b6114a58683611460565b95508019841693508086168417925050509392505050565b5f819050919050565b5f6114e06114db6114d684610cda565b6114bd565b610cda565b9050919050565b5f819050919050565b6114f9836114c6565b61150d611505826114e7565b84845461146c565b825550505050565b5f90565b611521611515565b61152c8184846114f0565b505050565b5b8181101561154f576115445f82611519565b600181019050611532565b5050565b601f821115611594576115658161143f565b61156e84611451565b8101602085101561157d578190505b61159161158985611451565b830182611531565b50505b505050565b5f82821c905092915050565b5f6115b45f1984600802611599565b1980831691505092915050565b5f6115cc83836115a5565b9150826002028217905092915050565b6115e582610d47565b67ffffffffffffffff8111156115fe576115fd610f8b565b5b6116088254611136565b611613828285611553565b5f60209050601f831160018114611644575f8415611632578287015190505b61163c85826115c1565b8655506116a3565b601f1984166116528661143f565b5f5b8281101561167957848901518255600182019150602085019450602081019050611654565b868310156116965784890151611692601f8916826115a5565b8355505b6001600288020188555050505b505050505050565b7f47616d65206973206e6f7420796574206f766572202d204265747320617265205f8201527f7374696c6c2070656e64696e6700000000000000000000000000000000000000602082015250565b5f611705602d83610d51565b9150611710826116ab565b604082019050919050565b5f6020820190508181035f830152611732816116f9565b9050919050565b7f536f727279202d20796f75206c6f7374207468652062657400000000000000005f82015250565b5f61176d601883610d51565b915061177882611739565b602082019050919050565b5f6020820190508181035f83015261179a81611761565b9050919050565b5f6117ab82610cda565b91506117b683610cda565b92508282026117c481610cda565b915082820484148315176117db576117da6113cb565b5b5092915050565b7f4e487b71000000000000000000000000000000000000000000000000000000005f52601260045260245ffd5b5f61181982610cda565b915061182483610cda565b925082611834576118336117e2565b5b82820490509291505056fea2646970667358221220b78938ea7a7686d1ee75aa090be7e3a1d7ab8dde7585248ba1f392a60c76800a64736f6c63430008160033",
					"opcodes": "PUSH1 0x80 PUSH1 0x40 MSTORE CALLVALUE DUP1 ISZERO PUSH2 0xF JUMPI PUSH0 DUP1 REVERT JUMPDEST POP CALLER PUSH0 DUP1 PUSH2 0x100 EXP DUP2 SLOAD DUP2 PUSH20 0xFFFFFFFFFFFFFFFFFFFFFFFFFFFFFFFFFFFFFFFF MUL NOT AND SWAP1 DUP4 PUSH20 0xFFFFFFFFFFFFFFFFFFFFFFFFFFFFFFFFFFFFFFFF AND MUL OR SWAP1 SSTORE POP PUSH2 0x1875 DUP1 PUSH2 0x5C PUSH0 CODECOPY PUSH0 RETURN INVALID PUSH1 0x80 PUSH1 0x40 MSTORE PUSH1 0x4 CALLDATASIZE LT PUSH2 0x6F JUMPI PUSH0 CALLDATALOAD PUSH1 0xE0 SHR DUP1 PUSH4 0x4AC22BC9 GT PUSH2 0x4D JUMPI DUP1 PUSH4 0x4AC22BC9 EQ PUSH2 0x107 JUMPI DUP1 PUSH4 0x8DA5CB5B EQ PUSH2 0x123 JUMPI DUP1 PUSH4 0xB3AA2FE1 EQ PUSH2 0x14D JUMPI DUP1 PUSH4 0xC22C57C7 EQ PUSH2 0x175 JUMPI PUSH2 0x6F JUMP JUMPDEST DUP1 PUSH4 0x117A5B90 EQ PUSH2 0x73 JUMPI DUP1 PUSH4 0x25C9E9B3 EQ PUSH2 0xB7 JUMPI DUP1 PUSH4 0x2C926479 EQ PUSH2 0xDF JUMPI JUMPDEST PUSH0 DUP1 REVERT JUMPDEST CALLVALUE DUP1 ISZERO PUSH2 0x7E JUMPI PUSH0 DUP1 REVERT JUMPDEST POP PUSH2 0x99 PUSH1 0x4 DUP1 CALLDATASIZE SUB DUP2 ADD SWAP1 PUSH2 0x94 SWAP2 SWAP1 PUSH2 0xD0D JUMP JUMPDEST PUSH2 0x19D JUMP JUMPDEST PUSH1 0x40 MLOAD PUSH2 0xAE SWAP10 SWAP9 SWAP8 SWAP7 SWAP6 SWAP5 SWAP4 SWAP3 SWAP2 SWAP1 PUSH2 0xE06 JUMP JUMPDEST PUSH1 0x40 MLOAD DUP1 SWAP2 SUB SWAP1 RETURN JUMPDEST CALLVALUE DUP1 ISZERO PUSH2 0xC2 JUMPI PUSH0 DUP1 REVERT JUMPDEST POP PUSH2 0xDD PUSH1 0x4 DUP1 CALLDATASIZE SUB DUP2 ADD SWAP1 PUSH2 0xD8 SWAP2 SWAP1 PUSH2 0xEC2 JUMP JUMPDEST PUSH2 0x295 JUMP JUMPDEST STOP JUMPDEST CALLVALUE DUP1 ISZERO PUSH2 0xEA JUMPI PUSH0 DUP1 REVERT JUMPDEST POP PUSH2 0x105 PUSH1 0x4 DUP1 CALLDATASIZE SUB DUP2 ADD SWAP1 PUSH2 0x100 SWAP2 SWAP1 PUSH2 0xEED JUMP JUMPDEST PUSH2 0x363 JUMP JUMPDEST STOP JUMPDEST PUSH2 0x121 PUSH1 0x4 DUP1 CALLDATASIZE SUB DUP2 ADD SWAP1 PUSH2 0x11C SWAP2 SWAP1 PUSH2 0xEED JUMP JUMPDEST PUSH2 0x432 JUMP JUMPDEST STOP JUMPDEST CALLVALUE DUP1 ISZERO PUSH2 0x12E JUMPI PUSH0 DUP1 REVERT JUMPDEST POP PUSH2 0x137 PUSH2 0x7EA JUMP JUMPDEST PUSH1 0x40 MLOAD PUSH2 0x144 SWAP2 SWAP1 PUSH2 0xF6A JUMP JUMPDEST PUSH1 0x40 MLOAD DUP1 SWAP2 SUB SWAP1 RETURN JUMPDEST CALLVALUE DUP1 ISZERO PUSH2 0x158 JUMPI PUSH0 DUP1 REVERT JUMPDEST POP PUSH2 0x173 PUSH1 0x4 DUP1 CALLDATASIZE SUB DUP2 ADD SWAP1 PUSH2 0x16E SWAP2 SWAP1 PUSH2 0x10AF JUMP JUMPDEST PUSH2 0x80D JUMP JUMPDEST STOP JUMPDEST CALLVALUE DUP1 ISZERO PUSH2 0x180 JUMPI PUSH0 DUP1 REVERT JUMPDEST POP PUSH2 0x19B PUSH1 0x4 DUP1 CALLDATASIZE SUB DUP2 ADD SWAP1 PUSH2 0x196 SWAP2 SWAP1 PUSH2 0xD0D JUMP JUMPDEST PUSH2 0x8EC JUMP JUMPDEST STOP JUMPDEST PUSH1 0x1 DUP2 DUP2 SLOAD DUP2 LT PUSH2 0x1AC JUMPI PUSH0 DUP1 REVERT JUMPDEST SWAP1 PUSH0 MSTORE PUSH1 0x20 PUSH0 KECCAK256 SWAP1 PUSH1 0x9 MUL ADD PUSH0 SWAP2 POP SWAP1 POP DUP1 PUSH0 ADD SLOAD SWAP1 DUP1 PUSH1 0x1 ADD DUP1 SLOAD PUSH2 0x1D1 SWAP1 PUSH2 0x1136 JUMP JUMPDEST DUP1 PUSH1 0x1F ADD PUSH1 0x20 DUP1 SWAP2 DIV MUL PUSH1 0x20 ADD PUSH1 0x40 MLOAD SWAP1 DUP2 ADD PUSH1 0x40 MSTORE DUP1 SWAP3 SWAP2 SWAP1 DUP2 DUP2 MSTORE PUSH1 0x20 ADD DUP3 DUP1 SLOAD PUSH2 0x1FD SWAP1 PUSH2 0x1136 JUMP JUMPDEST DUP1 ISZERO PUSH2 0x248 JUMPI DUP1 PUSH1 0x1F LT PUSH2 0x21F JUMPI PUSH2 0x100 DUP1 DUP4 SLOAD DIV MUL DUP4 MSTORE SWAP2 PUSH1 0x20 ADD SWAP2 PUSH2 0x248 JUMP JUMPDEST DUP3 ADD SWAP2 SWAP1 PUSH0 MSTORE PUSH1 0x20 PUSH0 KECCAK256 SWAP1 JUMPDEST DUP2 SLOAD DUP2 MSTORE SWAP1 PUSH1 0x1 ADD SWAP1 PUSH1 0x20 ADD DUP1 DUP4 GT PUSH2 0x22B JUMPI DUP3 SWAP1 SUB PUSH1 0x1F AND DUP3 ADD SWAP2 JUMPDEST POP POP POP POP POP SWAP1 DUP1 PUSH1 0x2 ADD PUSH0 SWAP1 SLOAD SWAP1 PUSH2 0x100 EXP SWAP1 DIV PUSH1 0xFF AND SWAP1 DUP1 PUSH1 0x2 ADD PUSH1 0x1 SWAP1 SLOAD SWAP1 PUSH2 0x100 EXP SWAP1 DIV PUSH1 0xFF AND SWAP1 DUP1 PUSH1 0x3 ADD SLOAD SWAP1 DUP1 PUSH1 0x4 ADD SLOAD SWAP1 DUP1 PUSH1 0x5 ADD SLOAD SWAP1 DUP1 PUSH1 0x6 ADD SLOAD SWAP1 DUP1 PUSH1 0x8 ADD SLOAD SWAP1 POP DUP10 JUMP JUMPDEST PUSH0 DUP1 SLOAD SWAP1 PUSH2 0x100 EXP SWAP1 DIV PUSH20 0xFFFFFFFFFFFFFFFFFFFFFFFFFFFFFFFFFFFFFFFF AND PUSH20 0xFFFFFFFFFFFFFFFFFFFFFFFFFFFFFFFFFFFFFFFF AND CALLER PUSH20 0xFFFFFFFFFFFFFFFFFFFFFFFFFFFFFFFFFFFFFFFF AND EQ PUSH2 0x322 JUMPI PUSH1 0x40 MLOAD PUSH32 0x8C379A000000000000000000000000000000000000000000000000000000000 DUP2 MSTORE PUSH1 0x4 ADD PUSH2 0x319 SWAP1 PUSH2 0x11D6 JUMP JUMPDEST PUSH1 0x40 MLOAD DUP1 SWAP2 SUB SWAP1 REVERT JUMPDEST PUSH1 0x1 DUP1 DUP3 PUSH1 0xFF AND DUP2 SLOAD DUP2 LT PUSH2 0x33A JUMPI PUSH2 0x339 PUSH2 0x11F4 JUMP JUMPDEST JUMPDEST SWAP1 PUSH0 MSTORE PUSH1 0x20 PUSH0 KECCAK256 SWAP1 PUSH1 0x9 MUL ADD PUSH1 0x2 ADD PUSH1 0x1 PUSH2 0x100 EXP DUP2 SLOAD DUP2 PUSH1 0xFF MUL NOT AND SWAP1 DUP4 ISZERO ISZERO MUL OR SWAP1 SSTORE POP POP JUMP JUMPDEST PUSH0 DUP1 SLOAD SWAP1 PUSH2 0x100 EXP SWAP1 DIV PUSH20 0xFFFFFFFFFFFFFFFFFFFFFFFFFFFFFFFFFFFFFFFF AND PUSH20 0xFFFFFFFFFFFFFFFFFFFFFFFFFFFFFFFFFFFFFFFF AND CALLER PUSH20 0xFFFFFFFFFFFFFFFFFFFFFFFFFFFFFFFFFFFFFFFF AND EQ PUSH2 0x3F0 JUMPI PUSH1 0x40 MLOAD PUSH32 0x8C379A000000000000000000000000000000000000000000000000000000000 DUP2 MSTORE PUSH1 0x4 ADD PUSH2 0x3E7 SWAP1 PUSH2 0x11D6 JUMP JUMPDEST PUSH1 0x40 MLOAD DUP1 SWAP2 SUB SWAP1 REVERT JUMPDEST DUP1 PUSH1 0x1 DUP4 PUSH1 0xFF AND DUP2 SLOAD DUP2 LT PUSH2 0x408 JUMPI PUSH2 0x407 PUSH2 0x11F4 JUMP JUMPDEST JUMPDEST SWAP1 PUSH0 MSTORE PUSH1 0x20 PUSH0 KECCAK256 SWAP1 PUSH1 0x9 MUL ADD PUSH1 0x2 ADD PUSH0 PUSH2 0x100 EXP DUP2 SLOAD DUP2 PUSH1 0xFF MUL NOT AND SWAP1 DUP4 PUSH1 0xFF AND MUL OR SWAP1 SSTORE POP POP POP JUMP JUMPDEST PUSH1 0x1 DUP3 PUSH1 0xFF AND DUP2 SLOAD DUP2 LT PUSH2 0x449 JUMPI PUSH2 0x448 PUSH2 0x11F4 JUMP JUMPDEST JUMPDEST SWAP1 PUSH0 MSTORE PUSH1 0x20 PUSH0 KECCAK256 SWAP1 PUSH1 0x9 MUL ADD PUSH1 0x2 ADD PUSH1 0x1 SWAP1 SLOAD SWAP1 PUSH2 0x100 EXP SWAP1 DIV PUSH1 0xFF AND ISZERO PUSH2 0x4A6 JUMPI PUSH1 0x40 MLOAD PUSH32 0x8C379A000000000000000000000000000000000000000000000000000000000 DUP2 MSTORE PUSH1 0x4 ADD PUSH2 0x49D SWAP1 PUSH2 0x1291 JUMP JUMPDEST PUSH1 0x40 MLOAD DUP1 SWAP2 SUB SWAP1 REVERT JUMPDEST PUSH0 PUSH1 0x1 DUP4 PUSH1 0xFF AND DUP2 SLOAD DUP2 LT PUSH2 0x4BE JUMPI PUSH2 0x4BD PUSH2 0x11F4 JUMP JUMPDEST JUMPDEST SWAP1 PUSH0 MSTORE PUSH1 0x20 PUSH0 KECCAK256 SWAP1 PUSH1 0x9 MUL ADD PUSH1 0x7 ADD PUSH0 CALLER PUSH20 0xFFFFFFFFFFFFFFFFFFFFFFFFFFFFFFFFFFFFFFFF AND PUSH20 0xFFFFFFFFFFFFFFFFFFFFFFFFFFFFFFFFFFFFFFFF AND DUP2 MSTORE PUSH1 0x20 ADD SWAP1 DUP2 MSTORE PUSH1 0x20 ADD PUSH0 KECCAK256 PUSH1 0x2 ADD PUSH0 SWAP1 SLOAD SWAP1 PUSH2 0x100 EXP SWAP1 DIV PUSH1 0xFF AND PUSH1 0xFF AND EQ PUSH2 0x55B JUMPI PUSH1 0x40 MLOAD PUSH32 0x8C379A000000000000000000000000000000000000000000000000000000000 DUP2 MSTORE PUSH1 0x4 ADD PUSH2 0x552 SWAP1 PUSH2 0x131F JUMP JUMPDEST PUSH1 0x40 MLOAD DUP1 SWAP2 SUB SWAP1 REVERT JUMPDEST PUSH1 0x1 DUP3 PUSH1 0xFF AND DUP2 SLOAD DUP2 LT PUSH2 0x572 JUMPI PUSH2 0x571 PUSH2 0x11F4 JUMP JUMPDEST JUMPDEST SWAP1 PUSH0 MSTORE PUSH1 0x20 PUSH0 KECCAK256 SWAP1 PUSH1 0x9 MUL ADD PUSH1 0x3 ADD SLOAD CALLVALUE EQ PUSH2 0x5C3 JUMPI PUSH1 0x40 MLOAD PUSH32 0x8C379A000000000000000000000000000000000000000000000000000000000 DUP2 MSTORE PUSH1 0x4 ADD PUSH2 0x5BA SWAP1 PUSH2 0x13AD JUMP JUMPDEST PUSH1 0x40 MLOAD DUP1 SWAP2 SUB SWAP1 REVERT JUMPDEST PUSH1 0x40 MLOAD DUP1 PUSH1 0x60 ADD PUSH1 0x40 MSTORE DUP1 CALLER PUSH20 0xFFFFFFFFFFFFFFFFFFFFFFFFFFFFFFFFFFFFFFFF AND DUP2 MSTORE PUSH1 0x20 ADD DUP4 PUSH1 0xFF AND DUP2 MSTORE PUSH1 0x20 ADD DUP3 PUSH1 0xFF AND DUP2 MSTORE POP PUSH1 0x1 DUP4 PUSH1 0xFF AND DUP2 SLOAD DUP2 LT PUSH2 0x611 JUMPI PUSH2 0x610 PUSH2 0x11F4 JUMP JUMPDEST JUMPDEST SWAP1 PUSH0 MSTORE PUSH1 0x20 PUSH0 KECCAK256 SWAP1 PUSH1 0x9 MUL ADD PUSH1 0x7 ADD PUSH0 CALLER PUSH20 0xFFFFFFFFFFFFFFFFFFFFFFFFFFFFFFFFFFFFFFFF AND PUSH20 0xFFFFFFFFFFFFFFFFFFFFFFFFFFFFFFFFFFFFFFFF AND DUP2 MSTORE PUSH1 0x20 ADD SWAP1 DUP2 MSTORE PUSH1 0x20 ADD PUSH0 KECCAK256 PUSH0 DUP3 ADD MLOAD DUP2 PUSH0 ADD PUSH0 PUSH2 0x100 EXP DUP2 SLOAD DUP2 PUSH20 0xFFFFFFFFFFFFFFFFFFFFFFFFFFFFFFFFFFFFFFFF MUL NOT AND SWAP1 DUP4 PUSH20 0xFFFFFFFFFFFFFFFFFFFFFFFFFFFFFFFFFFFFFFFF AND MUL OR SWAP1 SSTORE POP PUSH1 0x20 DUP3 ADD MLOAD DUP2 PUSH1 0x1 ADD SSTORE PUSH1 0x40 DUP3 ADD MLOAD DUP2 PUSH1 0x2 ADD PUSH0 PUSH2 0x100 EXP DUP2 SLOAD DUP2 PUSH1 0xFF MUL NOT AND SWAP1 DUP4 PUSH1 0xFF AND MUL OR SWAP1 SSTORE POP SWAP1 POP POP PUSH1 0x1 DUP3 PUSH1 0xFF AND DUP2 SLOAD DUP2 LT PUSH2 0x6E3 JUMPI PUSH2 0x6E2 PUSH2 0x11F4 JUMP JUMPDEST JUMPDEST SWAP1 PUSH0 MSTORE PUSH1 0x20 PUSH0 KECCAK256 SWAP1 PUSH1 0x9 MUL ADD PUSH1 0x8 ADD PUSH0 DUP2 SLOAD DUP1 SWAP3 SWAP2 SWAP1 PUSH2 0x702 SWAP1 PUSH2 0x13F8 JUMP JUMPDEST SWAP2 SWAP1 POP SSTORE POP PUSH1 0x1 DUP2 PUSH1 0xFF AND SUB PUSH2 0x752 JUMPI PUSH1 0x1 DUP3 PUSH1 0xFF AND DUP2 SLOAD DUP2 LT PUSH2 0x729 JUMPI PUSH2 0x728 PUSH2 0x11F4 JUMP JUMPDEST JUMPDEST SWAP1 PUSH0 MSTORE PUSH1 0x20 PUSH0 KECCAK256 SWAP1 PUSH1 0x9 MUL ADD PUSH1 0x4 ADD PUSH0 DUP2 SLOAD DUP1 SWAP3 SWAP2 SWAP1 PUSH2 0x748 SWAP1 PUSH2 0x13F8 JUMP JUMPDEST SWAP2 SWAP1 POP SSTORE POP PUSH2 0x7E6 JUMP JUMPDEST PUSH1 0x2 DUP2 PUSH1 0xFF AND SUB PUSH2 0x79D JUMPI PUSH1 0x1 DUP3 PUSH1 0xFF AND DUP2 SLOAD DUP2 LT PUSH2 0x774 JUMPI PUSH2 0x773 PUSH2 0x11F4 JUMP JUMPDEST JUMPDEST SWAP1 PUSH0 MSTORE PUSH1 0x20 PUSH0 KECCAK256 SWAP1 PUSH1 0x9 MUL ADD PUSH1 0x5 ADD PUSH0 DUP2 SLOAD DUP1 SWAP3 SWAP2 SWAP1 PUSH2 0x793 SWAP1 PUSH2 0x13F8 JUMP JUMPDEST SWAP2 SWAP1 POP SSTORE POP PUSH2 0x7E5 JUMP JUMPDEST PUSH1 0x3 DUP2 PUSH1 0xFF AND SUB PUSH2 0x7E4 JUMPI PUSH1 0x1 DUP3 PUSH1 0xFF AND DUP2 SLOAD DUP2 LT PUSH2 0x7BF JUMPI PUSH2 0x7BE PUSH2 0x11F4 JUMP JUMPDEST JUMPDEST SWAP1 PUSH0 MSTORE PUSH1 0x20 PUSH0 KECCAK256 SWAP1 PUSH1 0x9 MUL ADD PUSH1 0x6 ADD PUSH0 DUP2 SLOAD DUP1 SWAP3 SWAP2 SWAP1 PUSH2 0x7DE SWAP1 PUSH2 0x13F8 JUMP JUMPDEST SWAP2 SWAP1 POP SSTORE POP JUMPDEST JUMPDEST JUMPDEST POP POP JUMP JUMPDEST PUSH0 DUP1 SLOAD SWAP1 PUSH2 0x100 EXP SWAP1 DIV PUSH20 0xFFFFFFFFFFFFFFFFFFFFFFFFFFFFFFFFFFFFFFFF AND DUP2 JUMP JUMPDEST PUSH0 DUP1 SLOAD SWAP1 PUSH2 0x100 EXP SWAP1 DIV PUSH20 0xFFFFFFFFFFFFFFFFFFFFFFFFFFFFFFFFFFFFFFFF AND PUSH20 0xFFFFFFFFFFFFFFFFFFFFFFFFFFFFFFFFFFFFFFFF AND CALLER PUSH20 0xFFFFFFFFFFFFFFFFFFFFFFFFFFFFFFFFFFFFFFFF AND EQ PUSH2 0x89A JUMPI PUSH1 0x40 MLOAD PUSH32 0x8C379A000000000000000000000000000000000000000000000000000000000 DUP2 MSTORE PUSH1 0x4 ADD PUSH2 0x891 SWAP1 PUSH2 0x11D6 JUMP JUMPDEST PUSH1 0x40 MLOAD DUP1 SWAP2 SUB SWAP1 REVERT JUMPDEST PUSH0 PUSH1 0x1 DUP1 SLOAD SWAP1 POP SWAP1 POP PUSH0 PUSH1 0x1 DUP1 DUP2 PUSH1 0x1 DUP2 SLOAD ADD DUP1 DUP3 SSTORE DUP1 SWAP2 POP POP SUB SWAP1 PUSH0 MSTORE PUSH1 0x20 PUSH0 KECCAK256 SWAP1 PUSH1 0x9 MUL ADD SWAP1 POP DUP2 DUP2 PUSH0 ADD DUP2 SWAP1 SSTORE POP DUP4 DUP2 PUSH1 0x1 ADD SWAP1 DUP2 PUSH2 0x8DC SWAP2 SWAP1 PUSH2 0x15DC JUMP JUMPDEST POP DUP3 DUP2 PUSH1 0x3 ADD DUP2 SWAP1 SSTORE POP POP POP POP POP JUMP JUMPDEST PUSH1 0x1 DUP2 DUP2 SLOAD DUP2 LT PUSH2 0x900 JUMPI PUSH2 0x8FF PUSH2 0x11F4 JUMP JUMPDEST JUMPDEST SWAP1 PUSH0 MSTORE PUSH1 0x20 PUSH0 KECCAK256 SWAP1 PUSH1 0x9 MUL ADD PUSH1 0x2 ADD PUSH1 0x1 SWAP1 SLOAD SWAP1 PUSH2 0x100 EXP SWAP1 DIV PUSH1 0xFF AND PUSH2 0x95C JUMPI PUSH1 0x40 MLOAD PUSH32 0x8C379A000000000000000000000000000000000000000000000000000000000 DUP2 MSTORE PUSH1 0x4 ADD PUSH2 0x953 SWAP1 PUSH2 0x171B JUMP JUMPDEST PUSH1 0x40 MLOAD DUP1 SWAP2 SUB SWAP1 REVERT JUMPDEST PUSH1 0x1 DUP2 DUP2 SLOAD DUP2 LT PUSH2 0x970 JUMPI PUSH2 0x96F PUSH2 0x11F4 JUMP JUMPDEST JUMPDEST SWAP1 PUSH0 MSTORE PUSH1 0x20 PUSH0 KECCAK256 SWAP1 PUSH1 0x9 MUL ADD PUSH1 0x2 ADD PUSH0 SWAP1 SLOAD SWAP1 PUSH2 0x100 EXP SWAP1 DIV PUSH1 0xFF AND PUSH1 0xFF AND PUSH1 0x1 DUP3 DUP2 SLOAD DUP2 LT PUSH2 0x9A3 JUMPI PUSH2 0x9A2 PUSH2 0x11F4 JUMP JUMPDEST JUMPDEST SWAP1 PUSH0 MSTORE PUSH1 0x20 PUSH0 KECCAK256 SWAP1 PUSH1 0x9 MUL ADD PUSH1 0x7 ADD PUSH0 CALLER PUSH20 0xFFFFFFFFFFFFFFFFFFFFFFFFFFFFFFFFFFFFFFFF AND PUSH20 0xFFFFFFFFFFFFFFFFFFFFFFFFFFFFFFFFFFFFFFFF AND DUP2 MSTORE PUSH1 0x20 ADD SWAP1 DUP2 MSTORE PUSH1 0x20 ADD PUSH0 KECCAK256 PUSH1 0x2 ADD PUSH0 SWAP1 SLOAD SWAP1 PUSH2 0x100 EXP SWAP1 DIV PUSH1 0xFF AND PUSH1 0xFF AND EQ PUSH2 0xA40 JUMPI PUSH1 0x40 MLOAD PUSH32 0x8C379A000000000000000000000000000000000000000000000000000000000 DUP2 MSTORE PUSH1 0x4 ADD PUSH2 0xA37 SWAP1 PUSH2 0x1783 JUMP JUMPDEST PUSH1 0x40 MLOAD DUP1 SWAP2 SUB SWAP1 REVERT JUMPDEST PUSH0 PUSH1 0x1 DUP1 DUP4 DUP2 SLOAD DUP2 LT PUSH2 0xA56 JUMPI PUSH2 0xA55 PUSH2 0x11F4 JUMP JUMPDEST JUMPDEST SWAP1 PUSH0 MSTORE PUSH1 0x20 PUSH0 KECCAK256 SWAP1 PUSH1 0x9 MUL ADD PUSH1 0x2 ADD PUSH0 SWAP1 SLOAD SWAP1 PUSH2 0x100 EXP SWAP1 DIV PUSH1 0xFF AND PUSH1 0xFF AND SUB PUSH2 0xB01 JUMPI PUSH1 0x1 DUP3 DUP2 SLOAD DUP2 LT PUSH2 0xA8E JUMPI PUSH2 0xA8D PUSH2 0x11F4 JUMP JUMPDEST JUMPDEST SWAP1 PUSH0 MSTORE PUSH1 0x20 PUSH0 KECCAK256 SWAP1 PUSH1 0x9 MUL ADD PUSH1 0x4 ADD SLOAD PUSH1 0x1 DUP4 DUP2 SLOAD DUP2 LT PUSH2 0xAB2 JUMPI PUSH2 0xAB1 PUSH2 0x11F4 JUMP JUMPDEST JUMPDEST SWAP1 PUSH0 MSTORE PUSH1 0x20 PUSH0 KECCAK256 SWAP1 PUSH1 0x9 MUL ADD PUSH1 0x3 ADD SLOAD PUSH1 0x1 DUP5 DUP2 SLOAD DUP2 LT PUSH2 0xAD6 JUMPI PUSH2 0xAD5 PUSH2 0x11F4 JUMP JUMPDEST JUMPDEST SWAP1 PUSH0 MSTORE PUSH1 0x20 PUSH0 KECCAK256 SWAP1 PUSH1 0x9 MUL ADD PUSH1 0x8 ADD SLOAD PUSH2 0xAF0 SWAP2 SWAP1 PUSH2 0x17A1 JUMP JUMPDEST PUSH2 0xAFA SWAP2 SWAP1 PUSH2 0x180F JUMP JUMPDEST SWAP1 POP PUSH2 0xC81 JUMP JUMPDEST PUSH1 0x2 PUSH1 0x1 DUP4 DUP2 SLOAD DUP2 LT PUSH2 0xB17 JUMPI PUSH2 0xB16 PUSH2 0x11F4 JUMP JUMPDEST JUMPDEST SWAP1 PUSH0 MSTORE PUSH1 0x20 PUSH0 KECCAK256 SWAP1 PUSH1 0x9 MUL ADD PUSH1 0x2 ADD PUSH0 SWAP1 SLOAD SWAP1 PUSH2 0x100 EXP SWAP1 DIV PUSH1 0xFF AND PUSH1 0xFF AND SUB PUSH2 0xBC2 JUMPI PUSH1 0x1 DUP3 DUP2 SLOAD DUP2 LT PUSH2 0xB4F JUMPI PUSH2 0xB4E PUSH2 0x11F4 JUMP JUMPDEST JUMPDEST SWAP1 PUSH0 MSTORE PUSH1 0x20 PUSH0 KECCAK256 SWAP1 PUSH1 0x9 MUL ADD PUSH1 0x5 ADD SLOAD PUSH1 0x1 DUP4 DUP2 SLOAD DUP2 LT PUSH2 0xB73 JUMPI PUSH2 0xB72 PUSH2 0x11F4 JUMP JUMPDEST JUMPDEST SWAP1 PUSH0 MSTORE PUSH1 0x20 PUSH0 KECCAK256 SWAP1 PUSH1 0x9 MUL ADD PUSH1 0x3 ADD SLOAD PUSH1 0x1 DUP5 DUP2 SLOAD DUP2 LT PUSH2 0xB97 JUMPI PUSH2 0xB96 PUSH2 0x11F4 JUMP JUMPDEST JUMPDEST SWAP1 PUSH0 MSTORE PUSH1 0x20 PUSH0 KECCAK256 SWAP1 PUSH1 0x9 MUL ADD PUSH1 0x8 ADD SLOAD PUSH2 0xBB1 SWAP2 SWAP1 PUSH2 0x17A1 JUMP JUMPDEST PUSH2 0xBBB SWAP2 SWAP1 PUSH2 0x180F JUMP JUMPDEST SWAP1 POP PUSH2 0xC80 JUMP JUMPDEST PUSH1 0x3 PUSH1 0x1 DUP4 DUP2 SLOAD DUP2 LT PUSH2 0xBD8 JUMPI PUSH2 0xBD7 PUSH2 0x11F4 JUMP JUMPDEST JUMPDEST SWAP1 PUSH0 MSTORE PUSH1 0x20 PUSH0 KECCAK256 SWAP1 PUSH1 0x9 MUL ADD PUSH1 0x2 ADD PUSH0 SWAP1 SLOAD SWAP1 PUSH2 0x100 EXP SWAP1 DIV PUSH1 0xFF AND PUSH1 0xFF AND SUB PUSH2 0xC7F JUMPI PUSH1 0x1 DUP3 DUP2 SLOAD DUP2 LT PUSH2 0xC10 JUMPI PUSH2 0xC0F PUSH2 0x11F4 JUMP JUMPDEST JUMPDEST SWAP1 PUSH0 MSTORE PUSH1 0x20 PUSH0 KECCAK256 SWAP1 PUSH1 0x9 MUL ADD PUSH1 0x6 ADD SLOAD PUSH1 0x1 DUP4 DUP2 SLOAD DUP2 LT PUSH2 0xC34 JUMPI PUSH2 0xC33 PUSH2 0x11F4 JUMP JUMPDEST JUMPDEST SWAP1 PUSH0 MSTORE PUSH1 0x20 PUSH0 KECCAK256 SWAP1 PUSH1 0x9 MUL ADD PUSH1 0x3 ADD SLOAD PUSH1 0x1 DUP5 DUP2 SLOAD DUP2 LT PUSH2 0xC58 JUMPI PUSH2 0xC57 PUSH2 0x11F4 JUMP JUMPDEST JUMPDEST SWAP1 PUSH0 MSTORE PUSH1 0x20 PUSH0 KECCAK256 SWAP1 PUSH1 0x9 MUL ADD PUSH1 0x8 ADD SLOAD PUSH2 0xC72 SWAP2 SWAP1 PUSH2 0x17A1 JUMP JUMPDEST PUSH2 0xC7C SWAP2 SWAP1 PUSH2 0x180F JUMP JUMPDEST SWAP1 POP JUMPDEST JUMPDEST JUMPDEST CALLER PUSH20 0xFFFFFFFFFFFFFFFFFFFFFFFFFFFFFFFFFFFFFFFF AND PUSH2 0x8FC DUP3 SWAP1 DUP2 ISZERO MUL SWAP1 PUSH1 0x40 MLOAD PUSH0 PUSH1 0x40 MLOAD DUP1 DUP4 SUB DUP2 DUP6 DUP9 DUP9 CALL SWAP4 POP POP POP POP ISZERO DUP1 ISZERO PUSH2 0xCC4 JUMPI RETURNDATASIZE PUSH0 DUP1 RETURNDATACOPY RETURNDATASIZE PUSH0 REVERT JUMPDEST POP POP POP JUMP JUMPDEST PUSH0 PUSH1 0x40 MLOAD SWAP1 POP SWAP1 JUMP JUMPDEST PUSH0 DUP1 REVERT JUMPDEST PUSH0 DUP1 REVERT JUMPDEST PUSH0 DUP2 SWAP1 POP SWAP2 SWAP1 POP JUMP JUMPDEST PUSH2 0xCEC DUP2 PUSH2 0xCDA JUMP JUMPDEST DUP2 EQ PUSH2 0xCF6 JUMPI PUSH0 DUP1 REVERT JUMPDEST POP JUMP JUMPDEST PUSH0 DUP2 CALLDATALOAD SWAP1 POP PUSH2 0xD07 DUP2 PUSH2 0xCE3 JUMP JUMPDEST SWAP3 SWAP2 POP POP JUMP JUMPDEST PUSH0 PUSH1 0x20 DUP3 DUP5 SUB SLT ISZERO PUSH2 0xD22 JUMPI PUSH2 0xD21 PUSH2 0xCD2 JUMP JUMPDEST JUMPDEST PUSH0 PUSH2 0xD2F DUP5 DUP3 DUP6 ADD PUSH2 0xCF9 JUMP JUMPDEST SWAP2 POP POP SWAP3 SWAP2 POP POP JUMP JUMPDEST PUSH2 0xD41 DUP2 PUSH2 0xCDA JUMP JUMPDEST DUP3 MSTORE POP POP JUMP JUMPDEST PUSH0 DUP2 MLOAD SWAP1 POP SWAP2 SWAP1 POP JUMP JUMPDEST PUSH0 DUP3 DUP3 MSTORE PUSH1 0x20 DUP3 ADD SWAP1 POP SWAP3 SWAP2 POP POP JUMP JUMPDEST PUSH0 JUMPDEST DUP4 DUP2 LT ISZERO PUSH2 0xD7E JUMPI DUP1 DUP3 ADD MLOAD DUP2 DUP5 ADD MSTORE PUSH1 0x20 DUP2 ADD SWAP1 POP PUSH2 0xD63 JUMP JUMPDEST PUSH0 DUP5 DUP5 ADD MSTORE POP POP POP POP JUMP JUMPDEST PUSH0 PUSH1 0x1F NOT PUSH1 0x1F DUP4 ADD AND SWAP1 POP SWAP2 SWAP1 POP JUMP JUMPDEST PUSH0 PUSH2 0xDA3 DUP3 PUSH2 0xD47 JUMP JUMPDEST PUSH2 0xDAD DUP2 DUP6 PUSH2 0xD51 JUMP JUMPDEST SWAP4 POP PUSH2 0xDBD DUP2 DUP6 PUSH1 0x20 DUP7 ADD PUSH2 0xD61 JUMP JUMPDEST PUSH2 0xDC6 DUP2 PUSH2 0xD89 JUMP JUMPDEST DUP5 ADD SWAP2 POP POP SWAP3 SWAP2 POP POP JUMP JUMPDEST PUSH0 PUSH1 0xFF DUP3 AND SWAP1 POP SWAP2 SWAP1 POP JUMP JUMPDEST PUSH2 0xDE6 DUP2 PUSH2 0xDD1 JUMP JUMPDEST DUP3 MSTORE POP POP JUMP JUMPDEST PUSH0 DUP2 ISZERO ISZERO SWAP1 POP SWAP2 SWAP1 POP JUMP JUMPDEST PUSH2 0xE00 DUP2 PUSH2 0xDEC JUMP JUMPDEST DUP3 MSTORE POP POP JUMP JUMPDEST PUSH0 PUSH2 0x120 DUP3 ADD SWAP1 POP PUSH2 0xE1A PUSH0 DUP4 ADD DUP13 PUSH2 0xD38 JUMP JUMPDEST DUP2 DUP2 SUB PUSH1 0x20 DUP4 ADD MSTORE PUSH2 0xE2C DUP2 DUP12 PUSH2 0xD99 JUMP JUMPDEST SWAP1 POP PUSH2 0xE3B PUSH1 0x40 DUP4 ADD DUP11 PUSH2 0xDDD JUMP JUMPDEST PUSH2 0xE48 PUSH1 0x60 DUP4 ADD DUP10 PUSH2 0xDF7 JUMP JUMPDEST PUSH2 0xE55 PUSH1 0x80 DUP4 ADD DUP9 PUSH2 0xD38 JUMP JUMPDEST PUSH2 0xE62 PUSH1 0xA0 DUP4 ADD DUP8 PUSH2 0xD38 JUMP JUMPDEST PUSH2 0xE6F PUSH1 0xC0 DUP4 ADD DUP7 PUSH2 0xD38 JUMP JUMPDEST PUSH2 0xE7C PUSH1 0xE0 DUP4 ADD DUP6 PUSH2 0xD38 JUMP JUMPDEST PUSH2 0xE8A PUSH2 0x100 DUP4 ADD DUP5 PUSH2 0xD38 JUMP JUMPDEST SWAP11 SWAP10 POP POP POP POP POP POP POP POP POP POP JUMP JUMPDEST PUSH2 0xEA1 DUP2 PUSH2 0xDD1 JUMP JUMPDEST DUP2 EQ PUSH2 0xEAB JUMPI PUSH0 DUP1 REVERT JUMPDEST POP JUMP JUMPDEST PUSH0 DUP2 CALLDATALOAD SWAP1 POP PUSH2 0xEBC DUP2 PUSH2 0xE98 JUMP JUMPDEST SWAP3 SWAP2 POP POP JUMP JUMPDEST PUSH0 PUSH1 0x20 DUP3 DUP5 SUB SLT ISZERO PUSH2 0xED7 JUMPI PUSH2 0xED6 PUSH2 0xCD2 JUMP JUMPDEST JUMPDEST PUSH0 PUSH2 0xEE4 DUP5 DUP3 DUP6 ADD PUSH2 0xEAE JUMP JUMPDEST SWAP2 POP POP SWAP3 SWAP2 POP POP JUMP JUMPDEST PUSH0 DUP1 PUSH1 0x40 DUP4 DUP6 SUB SLT ISZERO PUSH2 0xF03 JUMPI PUSH2 0xF02 PUSH2 0xCD2 JUMP JUMPDEST JUMPDEST PUSH0 PUSH2 0xF10 DUP6 DUP3 DUP7 ADD PUSH2 0xEAE JUMP JUMPDEST SWAP3 POP POP PUSH1 0x20 PUSH2 0xF21 DUP6 DUP3 DUP7 ADD PUSH2 0xEAE JUMP JUMPDEST SWAP2 POP POP SWAP3 POP SWAP3 SWAP1 POP JUMP JUMPDEST PUSH0 PUSH20 0xFFFFFFFFFFFFFFFFFFFFFFFFFFFFFFFFFFFFFFFF DUP3 AND SWAP1 POP SWAP2 SWAP1 POP JUMP JUMPDEST PUSH0 PUSH2 0xF54 DUP3 PUSH2 0xF2B JUMP JUMPDEST SWAP1 POP SWAP2 SWAP1 POP JUMP JUMPDEST PUSH2 0xF64 DUP2 PUSH2 0xF4A JUMP JUMPDEST DUP3 MSTORE POP POP JUMP JUMPDEST PUSH0 PUSH1 0x20 DUP3 ADD SWAP1 POP PUSH2 0xF7D PUSH0 DUP4 ADD DUP5 PUSH2 0xF5B JUMP JUMPDEST SWAP3 SWAP2 POP POP JUMP JUMPDEST PUSH0 DUP1 REVERT JUMPDEST PUSH0 DUP1 REVERT JUMPDEST PUSH32 0x4E487B7100000000000000000000000000000000000000000000000000000000 PUSH0 MSTORE PUSH1 0x41 PUSH1 0x4 MSTORE PUSH1 0x24 PUSH0 REVERT JUMPDEST PUSH2 0xFC1 DUP3 PUSH2 0xD89 JUMP JUMPDEST DUP2 ADD DUP2 DUP2 LT PUSH8 0xFFFFFFFFFFFFFFFF DUP3 GT OR ISZERO PUSH2 0xFE0 JUMPI PUSH2 0xFDF PUSH2 0xF8B JUMP JUMPDEST JUMPDEST DUP1 PUSH1 0x40 MSTORE POP POP POP JUMP JUMPDEST PUSH0 PUSH2 0xFF2 PUSH2 0xCC9 JUMP JUMPDEST SWAP1 POP PUSH2 0xFFE DUP3 DUP3 PUSH2 0xFB8 JUMP JUMPDEST SWAP2 SWAP1 POP JUMP JUMPDEST PUSH0 PUSH8 0xFFFFFFFFFFFFFFFF DUP3 GT ISZERO PUSH2 0x101D JUMPI PUSH2 0x101C PUSH2 0xF8B JUMP JUMPDEST JUMPDEST PUSH2 0x1026 DUP3 PUSH2 0xD89 JUMP JUMPDEST SWAP1 POP PUSH1 0x20 DUP2 ADD SWAP1 POP SWAP2 SWAP1 POP JUMP JUMPDEST DUP3 DUP2 DUP4 CALLDATACOPY PUSH0 DUP4 DUP4 ADD MSTORE POP POP POP JUMP JUMPDEST PUSH0 PUSH2 0x1053 PUSH2 0x104E DUP5 PUSH2 0x1003 JUMP JUMPDEST PUSH2 0xFE9 JUMP JUMPDEST SWAP1 POP DUP3 DUP2 MSTORE PUSH1 0x20 DUP2 ADD DUP5 DUP5 DUP5 ADD GT ISZERO PUSH2 0x106F JUMPI PUSH2 0x106E PUSH2 0xF87 JUMP JUMPDEST JUMPDEST PUSH2 0x107A DUP5 DUP3 DUP6 PUSH2 0x1033 JUMP JUMPDEST POP SWAP4 SWAP3 POP POP POP JUMP JUMPDEST PUSH0 DUP3 PUSH1 0x1F DUP4 ADD SLT PUSH2 0x1096 JUMPI PUSH2 0x1095 PUSH2 0xF83 JUMP JUMPDEST JUMPDEST DUP2 CALLDATALOAD PUSH2 0x10A6 DUP5 DUP3 PUSH1 0x20 DUP7 ADD PUSH2 0x1041 JUMP JUMPDEST SWAP2 POP POP SWAP3 SWAP2 POP POP JUMP JUMPDEST PUSH0 DUP1 PUSH1 0x40 DUP4 DUP6 SUB SLT ISZERO PUSH2 0x10C5 JUMPI PUSH2 0x10C4 PUSH2 0xCD2 JUMP JUMPDEST JUMPDEST PUSH0 DUP4 ADD CALLDATALOAD PUSH8 0xFFFFFFFFFFFFFFFF DUP2 GT ISZERO PUSH2 0x10E2 JUMPI PUSH2 0x10E1 PUSH2 0xCD6 JUMP JUMPDEST JUMPDEST PUSH2 0x10EE DUP6 DUP3 DUP7 ADD PUSH2 0x1082 JUMP JUMPDEST SWAP3 POP POP PUSH1 0x20 PUSH2 0x10FF DUP6 DUP3 DUP7 ADD PUSH2 0xCF9 JUMP JUMPDEST SWAP2 POP POP SWAP3 POP SWAP3 SWAP1 POP JUMP JUMPDEST PUSH32 0x4E487B7100000000000000000000000000000000000000000000000000000000 PUSH0 MSTORE PUSH1 0x22 PUSH1 0x4 MSTORE PUSH1 0x24 PUSH0 REVERT JUMPDEST PUSH0 PUSH1 0x2 DUP3 DIV SWAP1 POP PUSH1 0x1 DUP3 AND DUP1 PUSH2 0x114D JUMPI PUSH1 0x7F DUP3 AND SWAP2 POP JUMPDEST PUSH1 0x20 DUP3 LT DUP2 SUB PUSH2 0x1160 JUMPI PUSH2 0x115F PUSH2 0x1109 JUMP JUMPDEST JUMPDEST POP SWAP2 SWAP1 POP JUMP JUMPDEST PUSH32 0x4F6E6C7920746865206F776E65722063616E2063616C6C20746869732066756E PUSH0 DUP3 ADD MSTORE PUSH32 0x6374696F6E000000000000000000000000000000000000000000000000000000 PUSH1 0x20 DUP3 ADD MSTORE POP JUMP JUMPDEST PUSH0 PUSH2 0x11C0 PUSH1 0x25 DUP4 PUSH2 0xD51 JUMP JUMPDEST SWAP2 POP PUSH2 0x11CB DUP3 PUSH2 0x1166 JUMP JUMPDEST PUSH1 0x40 DUP3 ADD SWAP1 POP SWAP2 SWAP1 POP JUMP JUMPDEST PUSH0 PUSH1 0x20 DUP3 ADD SWAP1 POP DUP2 DUP2 SUB PUSH0 DUP4 ADD MSTORE PUSH2 0x11ED DUP2 PUSH2 0x11B4 JUMP JUMPDEST SWAP1 POP SWAP2 SWAP1 POP JUMP JUMPDEST PUSH32 0x4E487B7100000000000000000000000000000000000000000000000000000000 PUSH0 MSTORE PUSH1 0x32 PUSH1 0x4 MSTORE PUSH1 0x24 PUSH0 REVERT JUMPDEST PUSH32 0x47616D65206973206F766572202D206E6F206265747320616C6C6F7765642061 PUSH0 DUP3 ADD MSTORE PUSH32 0x6E796D6F72650000000000000000000000000000000000000000000000000000 PUSH1 0x20 DUP3 ADD MSTORE POP JUMP JUMPDEST PUSH0 PUSH2 0x127B PUSH1 0x26 DUP4 PUSH2 0xD51 JUMP JUMPDEST SWAP2 POP PUSH2 0x1286 DUP3 PUSH2 0x1221 JUMP JUMPDEST PUSH1 0x40 DUP3 ADD SWAP1 POP SWAP2 SWAP1 POP JUMP JUMPDEST PUSH0 PUSH1 0x20 DUP3 ADD SWAP1 POP DUP2 DUP2 SUB PUSH0 DUP4 ADD MSTORE PUSH2 0x12A8 DUP2 PUSH2 0x126F JUMP JUMPDEST SWAP1 POP SWAP2 SWAP1 POP JUMP JUMPDEST PUSH32 0x596F7520616C726561647920626574202D206E6F206265747320616C6C6F7765 PUSH0 DUP3 ADD MSTORE PUSH32 0x6420616E796D6F72650000000000000000000000000000000000000000000000 PUSH1 0x20 DUP3 ADD MSTORE POP JUMP JUMPDEST PUSH0 PUSH2 0x1309 PUSH1 0x29 DUP4 PUSH2 0xD51 JUMP JUMPDEST SWAP2 POP PUSH2 0x1314 DUP3 PUSH2 0x12AF JUMP JUMPDEST PUSH1 0x40 DUP3 ADD SWAP1 POP SWAP2 SWAP1 POP JUMP JUMPDEST PUSH0 PUSH1 0x20 DUP3 ADD SWAP1 POP DUP2 DUP2 SUB PUSH0 DUP4 ADD MSTORE PUSH2 0x1336 DUP2 PUSH2 0x12FD JUMP JUMPDEST SWAP1 POP SWAP2 SWAP1 POP JUMP JUMPDEST PUSH32 0x42657420646F6573206E6F7420657175616C2074686520737065636966696564 PUSH0 DUP3 ADD MSTORE PUSH32 0x2062657420616D6F756E7420666F7220746869732067616D6500000000000000 PUSH1 0x20 DUP3 ADD MSTORE POP JUMP JUMPDEST PUSH0 PUSH2 0x1397 PUSH1 0x39 DUP4 PUSH2 0xD51 JUMP JUMPDEST SWAP2 POP PUSH2 0x13A2 DUP3 PUSH2 0x133D JUMP JUMPDEST PUSH1 0x40 DUP3 ADD SWAP1 POP SWAP2 SWAP1 POP JUMP JUMPDEST PUSH0 PUSH1 0x20 DUP3 ADD SWAP1 POP DUP2 DUP2 SUB PUSH0 DUP4 ADD MSTORE PUSH2 0x13C4 DUP2 PUSH2 0x138B JUMP JUMPDEST SWAP1 POP SWAP2 SWAP1 POP JUMP JUMPDEST PUSH32 0x4E487B7100000000000000000000000000000000000000000000000000000000 PUSH0 MSTORE PUSH1 0x11 PUSH1 0x4 MSTORE PUSH1 0x24 PUSH0 REVERT JUMPDEST PUSH0 PUSH2 0x1402 DUP3 PUSH2 0xCDA JUMP JUMPDEST SWAP2 POP PUSH32 0xFFFFFFFFFFFFFFFFFFFFFFFFFFFFFFFFFFFFFFFFFFFFFFFFFFFFFFFFFFFFFFFF DUP3 SUB PUSH2 0x1434 JUMPI PUSH2 0x1433 PUSH2 0x13CB JUMP JUMPDEST JUMPDEST PUSH1 0x1 DUP3 ADD SWAP1 POP SWAP2 SWAP1 POP JUMP JUMPDEST PUSH0 DUP2 SWAP1 POP DUP2 PUSH0 MSTORE PUSH1 0x20 PUSH0 KECCAK256 SWAP1 POP SWAP2 SWAP1 POP JUMP JUMPDEST PUSH0 PUSH1 0x20 PUSH1 0x1F DUP4 ADD DIV SWAP1 POP SWAP2 SWAP1 POP JUMP JUMPDEST PUSH0 DUP3 DUP3 SHL SWAP1 POP SWAP3 SWAP2 POP POP JUMP JUMPDEST PUSH0 PUSH1 0x8 DUP4 MUL PUSH2 0x149B PUSH32 0xFFFFFFFFFFFFFFFFFFFFFFFFFFFFFFFFFFFFFFFFFFFFFFFFFFFFFFFFFFFFFFFF DUP3 PUSH2 0x1460 JUMP JUMPDEST PUSH2 0x14A5 DUP7 DUP4 PUSH2 0x1460 JUMP JUMPDEST SWAP6 POP DUP1 NOT DUP5 AND SWAP4 POP DUP1 DUP7 AND DUP5 OR SWAP3 POP POP POP SWAP4 SWAP3 POP POP POP JUMP JUMPDEST PUSH0 DUP2 SWAP1 POP SWAP2 SWAP1 POP JUMP JUMPDEST PUSH0 PUSH2 0x14E0 PUSH2 0x14DB PUSH2 0x14D6 DUP5 PUSH2 0xCDA JUMP JUMPDEST PUSH2 0x14BD JUMP JUMPDEST PUSH2 0xCDA JUMP JUMPDEST SWAP1 POP SWAP2 SWAP1 POP JUMP JUMPDEST PUSH0 DUP2 SWAP1 POP SWAP2 SWAP1 POP JUMP JUMPDEST PUSH2 0x14F9 DUP4 PUSH2 0x14C6 JUMP JUMPDEST PUSH2 0x150D PUSH2 0x1505 DUP3 PUSH2 0x14E7 JUMP JUMPDEST DUP5 DUP5 SLOAD PUSH2 0x146C JUMP JUMPDEST DUP3 SSTORE POP POP POP POP JUMP JUMPDEST PUSH0 SWAP1 JUMP JUMPDEST PUSH2 0x1521 PUSH2 0x1515 JUMP JUMPDEST PUSH2 0x152C DUP2 DUP5 DUP5 PUSH2 0x14F0 JUMP JUMPDEST POP POP POP JUMP JUMPDEST JUMPDEST DUP2 DUP2 LT ISZERO PUSH2 0x154F JUMPI PUSH2 0x1544 PUSH0 DUP3 PUSH2 0x1519 JUMP JUMPDEST PUSH1 0x1 DUP2 ADD SWAP1 POP PUSH2 0x1532 JUMP JUMPDEST POP POP JUMP JUMPDEST PUSH1 0x1F DUP3 GT ISZERO PUSH2 0x1594 JUMPI PUSH2 0x1565 DUP2 PUSH2 0x143F JUMP JUMPDEST PUSH2 0x156E DUP5 PUSH2 0x1451 JUMP JUMPDEST DUP2 ADD PUSH1 0x20 DUP6 LT ISZERO PUSH2 0x157D JUMPI DUP2 SWAP1 POP JUMPDEST PUSH2 0x1591 PUSH2 0x1589 DUP6 PUSH2 0x1451 JUMP JUMPDEST DUP4 ADD DUP3 PUSH2 0x1531 JUMP JUMPDEST POP POP JUMPDEST POP POP POP JUMP JUMPDEST PUSH0 DUP3 DUP3 SHR SWAP1 POP SWAP3 SWAP2 POP POP JUMP JUMPDEST PUSH0 PUSH2 0x15B4 PUSH0 NOT DUP5 PUSH1 0x8 MUL PUSH2 0x1599 JUMP JUMPDEST NOT DUP1 DUP4 AND SWAP2 POP POP SWAP3 SWAP2 POP POP JUMP JUMPDEST PUSH0 PUSH2 0x15CC DUP4 DUP4 PUSH2 0x15A5 JUMP JUMPDEST SWAP2 POP DUP3 PUSH1 0x2 MUL DUP3 OR SWAP1 POP SWAP3 SWAP2 POP POP JUMP JUMPDEST PUSH2 0x15E5 DUP3 PUSH2 0xD47 JUMP JUMPDEST PUSH8 0xFFFFFFFFFFFFFFFF DUP2 GT ISZERO PUSH2 0x15FE JUMPI PUSH2 0x15FD PUSH2 0xF8B JUMP JUMPDEST JUMPDEST PUSH2 0x1608 DUP3 SLOAD PUSH2 0x1136 JUMP JUMPDEST PUSH2 0x1613 DUP3 DUP3 DUP6 PUSH2 0x1553 JUMP JUMPDEST PUSH0 PUSH1 0x20 SWAP1 POP PUSH1 0x1F DUP4 GT PUSH1 0x1 DUP2 EQ PUSH2 0x1644 JUMPI PUSH0 DUP5 ISZERO PUSH2 0x1632 JUMPI DUP3 DUP8 ADD MLOAD SWAP1 POP JUMPDEST PUSH2 0x163C DUP6 DUP3 PUSH2 0x15C1 JUMP JUMPDEST DUP7 SSTORE POP PUSH2 0x16A3 JUMP JUMPDEST PUSH1 0x1F NOT DUP5 AND PUSH2 0x1652 DUP7 PUSH2 0x143F JUMP JUMPDEST PUSH0 JUMPDEST DUP3 DUP2 LT ISZERO PUSH2 0x1679 JUMPI DUP5 DUP10 ADD MLOAD DUP3 SSTORE PUSH1 0x1 DUP3 ADD SWAP2 POP PUSH1 0x20 DUP6 ADD SWAP5 POP PUSH1 0x20 DUP2 ADD SWAP1 POP PUSH2 0x1654 JUMP JUMPDEST DUP7 DUP4 LT ISZERO PUSH2 0x1696 JUMPI DUP5 DUP10 ADD MLOAD PUSH2 0x1692 PUSH1 0x1F DUP10 AND DUP3 PUSH2 0x15A5 JUMP JUMPDEST DUP4 SSTORE POP JUMPDEST PUSH1 0x1 PUSH1 0x2 DUP9 MUL ADD DUP9 SSTORE POP POP POP JUMPDEST POP POP POP POP POP POP JUMP JUMPDEST PUSH32 0x47616D65206973206E6F7420796574206F766572202D20426574732061726520 PUSH0 DUP3 ADD MSTORE PUSH32 0x7374696C6C2070656E64696E6700000000000000000000000000000000000000 PUSH1 0x20 DUP3 ADD MSTORE POP JUMP JUMPDEST PUSH0 PUSH2 0x1705 PUSH1 0x2D DUP4 PUSH2 0xD51 JUMP JUMPDEST SWAP2 POP PUSH2 0x1710 DUP3 PUSH2 0x16AB JUMP JUMPDEST PUSH1 0x40 DUP3 ADD SWAP1 POP SWAP2 SWAP1 POP JUMP JUMPDEST PUSH0 PUSH1 0x20 DUP3 ADD SWAP1 POP DUP2 DUP2 SUB PUSH0 DUP4 ADD MSTORE PUSH2 0x1732 DUP2 PUSH2 0x16F9 JUMP JUMPDEST SWAP1 POP SWAP2 SWAP1 POP JUMP JUMPDEST PUSH32 0x536F727279202D20796F75206C6F737420746865206265740000000000000000 PUSH0 DUP3 ADD MSTORE POP JUMP JUMPDEST PUSH0 PUSH2 0x176D PUSH1 0x18 DUP4 PUSH2 0xD51 JUMP JUMPDEST SWAP2 POP PUSH2 0x1778 DUP3 PUSH2 0x1739 JUMP JUMPDEST PUSH1 0x20 DUP3 ADD SWAP1 POP SWAP2 SWAP1 POP JUMP JUMPDEST PUSH0 PUSH1 0x20 DUP3 ADD SWAP1 POP DUP2 DUP2 SUB PUSH0 DUP4 ADD MSTORE PUSH2 0x179A DUP2 PUSH2 0x1761 JUMP JUMPDEST SWAP1 POP SWAP2 SWAP1 POP JUMP JUMPDEST PUSH0 PUSH2 0x17AB DUP3 PUSH2 0xCDA JUMP JUMPDEST SWAP2 POP PUSH2 0x17B6 DUP4 PUSH2 0xCDA JUMP JUMPDEST SWAP3 POP DUP3 DUP3 MUL PUSH2 0x17C4 DUP2 PUSH2 0xCDA JUMP JUMPDEST SWAP2 POP DUP3 DUP3 DIV DUP5 EQ DUP4 ISZERO OR PUSH2 0x17DB JUMPI PUSH2 0x17DA PUSH2 0x13CB JUMP JUMPDEST JUMPDEST POP SWAP3 SWAP2 POP POP JUMP JUMPDEST PUSH32 0x4E487B7100000000000000000000000000000000000000000000000000000000 PUSH0 MSTORE PUSH1 0x12 PUSH1 0x4 MSTORE PUSH1 0x24 PUSH0 REVERT JUMPDEST PUSH0 PUSH2 0x1819 DUP3 PUSH2 0xCDA JUMP JUMPDEST SWAP2 POP PUSH2 0x1824 DUP4 PUSH2 0xCDA JUMP JUMPDEST SWAP3 POP DUP3 PUSH2 0x1834 JUMPI PUSH2 0x1833 PUSH2 0x17E2 JUMP JUMPDEST JUMPDEST DUP3 DUP3 DIV SWAP1 POP SWAP3 SWAP2 POP POP JUMP INVALID LOG2 PUSH5 0x6970667358 0x22 SLT KECCAK256 0xB7 DUP10 CODESIZE 0xEA PUSH27 0x7686D1EE75AA090BE7E3A1D7AB8DDE7585248BA1F392A60C76800A PUSH5 0x736F6C6343 STOP ADDMOD AND STOP CALLER "
				},
				"gasEstimates": {
					"creation": {
						"codeDepositCost": "1252200",
						"executionCost": "25565",
						"totalCost": "1277765"
					},
					"external": {
						"addBet(uint8,uint8)": "infinite",
						"addGame(string,uint256)": "infinite",
						"addGameWinner(uint8,uint8)": "infinite",
						"closeBets(uint8)": "29114",
						"collectWinnings(uint256)": "infinite",
						"games(uint256)": "infinite",
						"owner()": "2527"
					}
				},
				"methodIdentifiers": {
					"addBet(uint8,uint8)": "4ac22bc9",
					"addGame(string,uint256)": "b3aa2fe1",
					"addGameWinner(uint8,uint8)": "2c926479",
					"closeBets(uint8)": "25c9e9b3",
					"collectWinnings(uint256)": "c22c57c7",
					"games(uint256)": "117a5b90",
					"owner()": "8da5cb5b"
				}
			},
			"storageLayout": {
				"storage": [
					{
						"astId": 3,
						"contract": "contracts/BetContract.sol:BetContract",
						"label": "owner",
						"offset": 0,
						"slot": "0",
						"type": "t_address"
					},
					{
						"astId": 7,
						"contract": "contracts/BetContract.sol:BetContract",
						"label": "games",
						"offset": 0,
						"slot": "1",
						"type": "t_array(t_struct(Game)38_storage)dyn_storage"
					}
				],
				"types": {
					"t_address": {
						"encoding": "inplace",
						"label": "address",
						"numberOfBytes": "20"
					},
					"t_array(t_struct(Game)38_storage)dyn_storage": {
						"base": "t_struct(Game)38_storage",
						"encoding": "dynamic_array",
						"label": "struct BetContract.Game[]",
						"numberOfBytes": "32"
					},
					"t_bool": {
						"encoding": "inplace",
						"label": "bool",
						"numberOfBytes": "1"
					},
					"t_mapping(t_address,t_struct(Bet)14_storage)": {
						"encoding": "mapping",
						"key": "t_address",
						"label": "mapping(address => struct BetContract.Bet)",
						"numberOfBytes": "32",
						"value": "t_struct(Bet)14_storage"
					},
					"t_string_storage": {
						"encoding": "bytes",
						"label": "string",
						"numberOfBytes": "32"
					},
					"t_struct(Bet)14_storage": {
						"encoding": "inplace",
						"label": "struct BetContract.Bet",
						"members": [
							{
								"astId": 9,
								"contract": "contracts/BetContract.sol:BetContract",
								"label": "user",
								"offset": 0,
								"slot": "0",
								"type": "t_address"
							},
							{
								"astId": 11,
								"contract": "contracts/BetContract.sol:BetContract",
								"label": "gameId",
								"offset": 0,
								"slot": "1",
								"type": "t_uint256"
							},
							{
								"astId": 13,
								"contract": "contracts/BetContract.sol:BetContract",
								"label": "winPrediction",
								"offset": 0,
								"slot": "2",
								"type": "t_uint8"
							}
						],
						"numberOfBytes": "96"
					},
					"t_struct(Game)38_storage": {
						"encoding": "inplace",
						"label": "struct BetContract.Game",
						"members": [
							{
								"astId": 16,
								"contract": "contracts/BetContract.sol:BetContract",
								"label": "id",
								"offset": 0,
								"slot": "0",
								"type": "t_uint256"
							},
							{
								"astId": 18,
								"contract": "contracts/BetContract.sol:BetContract",
								"label": "name",
								"offset": 0,
								"slot": "1",
								"type": "t_string_storage"
							},
							{
								"astId": 20,
								"contract": "contracts/BetContract.sol:BetContract",
								"label": "winner",
								"offset": 0,
								"slot": "2",
								"type": "t_uint8"
							},
							{
								"astId": 22,
								"contract": "contracts/BetContract.sol:BetContract",
								"label": "isOver",
								"offset": 1,
								"slot": "2",
								"type": "t_bool"
							},
							{
								"astId": 24,
								"contract": "contracts/BetContract.sol:BetContract",
								"label": "betAmount",
								"offset": 0,
								"slot": "3",
								"type": "t_uint256"
							},
							{
								"astId": 26,
								"contract": "contracts/BetContract.sol:BetContract",
								"label": "counterTeamOne",
								"offset": 0,
								"slot": "4",
								"type": "t_uint256"
							},
							{
								"astId": 28,
								"contract": "contracts/BetContract.sol:BetContract",
								"label": "counterTeamTwo",
								"offset": 0,
								"slot": "5",
								"type": "t_uint256"
							},
							{
								"astId": 30,
								"contract": "contracts/BetContract.sol:BetContract",
								"label": "counterDraw",
								"offset": 0,
								"slot": "6",
								"type": "t_uint256"
							},
							{
								"astId": 35,
								"contract": "contracts/BetContract.sol:BetContract",
								"label": "bets",
								"offset": 0,
								"slot": "7",
								"type": "t_mapping(t_address,t_struct(Bet)14_storage)"
							},
							{
								"astId": 37,
								"contract": "contracts/BetContract.sol:BetContract",
								"label": "betCount",
								"offset": 0,
								"slot": "8",
								"type": "t_uint256"
							}
						],
						"numberOfBytes": "288"
					},
					"t_uint256": {
						"encoding": "inplace",
						"label": "uint256",
						"numberOfBytes": "32"
					},
					"t_uint8": {
						"encoding": "inplace",
						"label": "uint8",
						"numberOfBytes": "1"
					}
				}
			},
			"userdoc": {
				"kind": "user",
				"methods": {},
				"version": 1
			}
		}
	}
}