{
	"contracts/BetContract.sol": {
		"BetContract": {
			"abi": [
				{
					"inputs": [],
					"stateMutability": "nonpayable",
					"type": "constructor"
				},
				{
					"inputs": [
						{
							"internalType": "uint8",
							"name": "_winPrediction",
							"type": "uint8"
						}
					],
					"name": "addBet",
					"outputs": [],
					"stateMutability": "payable",
					"type": "function"
				},
				{
					"inputs": [
						{
							"internalType": "string",
							"name": "_name",
							"type": "string"
						}
					],
					"name": "addGame",
					"outputs": [],
					"stateMutability": "nonpayable",
					"type": "function"
				},
				{
					"inputs": [
						{
							"internalType": "uint8",
							"name": "_winner",
							"type": "uint8"
						}
					],
					"name": "addGameWinner",
					"outputs": [],
					"stateMutability": "nonpayable",
					"type": "function"
				},
				{
					"inputs": [],
					"name": "declareBetWinner",
					"outputs": [],
					"stateMutability": "payable",
					"type": "function"
				},
				{
					"inputs": [],
					"name": "game",
					"outputs": [
						{
							"internalType": "string",
							"name": "name",
							"type": "string"
						},
						{
							"internalType": "uint8",
							"name": "winner",
							"type": "uint8"
						},
						{
							"internalType": "bool",
							"name": "isOver",
							"type": "bool"
						}
					],
					"stateMutability": "view",
					"type": "function"
				},
				{
					"inputs": [],
					"name": "owner",
					"outputs": [
						{
							"internalType": "address",
							"name": "",
							"type": "address"
						}
					],
					"stateMutability": "view",
					"type": "function"
				},
				{
					"inputs": [],
					"name": "removeGame",
					"outputs": [],
					"stateMutability": "nonpayable",
					"type": "function"
				}
			],
			"devdoc": {
				"kind": "dev",
				"methods": {},
				"version": 1
			},
			"evm": {
				"assembly": "    /* \"contracts/BetContract.sol\":168:2468  contract BetContract {... */\n  mstore(0x40, 0x80)\n    /* \"contracts/BetContract.sol\":242:245  100 */\n  0x64\n    /* \"contracts/BetContract.sol\":223:245  uint maxBetCount = 100 */\n  0x01\n  sstore\n    /* \"contracts/BetContract.sol\":267:268  0 */\n  0x00\n    /* \"contracts/BetContract.sol\":252:268  uint allBets = 0 */\n  0x02\n  sstore\n    /* \"contracts/BetContract.sol\":910:961  constructor() {... */\n  callvalue\n  dup1\n  iszero\n  tag_1\n  jumpi\n  0x00\n  dup1\n  revert\ntag_1:\n  pop\n    /* \"contracts/BetContract.sol\":943:953  msg.sender */\n  caller\n    /* \"contracts/BetContract.sol\":935:940  owner */\n  0x00\n  dup1\n    /* \"contracts/BetContract.sol\":935:953  owner = msg.sender */\n  0x0100\n  exp\n  dup2\n  sload\n  dup2\n  0xffffffffffffffffffffffffffffffffffffffff\n  mul\n  not\n  and\n  swap1\n  dup4\n  0xffffffffffffffffffffffffffffffffffffffff\n  and\n  mul\n  or\n  swap1\n  sstore\n  pop\n    /* \"contracts/BetContract.sol\":168:2468  contract BetContract {... */\n  dataSize(sub_0)\n  dup1\n  dataOffset(sub_0)\n  0x00\n  codecopy\n  0x00\n  return\nstop\n\nsub_0: assembly {\n        /* \"contracts/BetContract.sol\":168:2468  contract BetContract {... */\n      mstore(0x40, 0x80)\n      jumpi(tag_1, lt(calldatasize, 0x04))\n      shr(0xe0, calldataload(0x00))\n      dup1\n      0x85c48207\n      gt\n      tag_9\n      jumpi\n      dup1\n      0x85c48207\n      eq\n      tag_5\n      jumpi\n      dup1\n      0x8da5cb5b\n      eq\n      tag_6\n      jumpi\n      dup1\n      0xc3fe3e28\n      eq\n      tag_7\n      jumpi\n      dup1\n      0xe89826ac\n      eq\n      tag_8\n      jumpi\n      jump(tag_1)\n    tag_9:\n      dup1\n      0x1a9a01fb\n      eq\n      tag_2\n      jumpi\n      dup1\n      0x57da244c\n      eq\n      tag_3\n      jumpi\n      dup1\n      0x74061a93\n      eq\n      tag_4\n      jumpi\n    tag_1:\n      0x00\n      dup1\n      revert\n        /* \"contracts/BetContract.sol\":1488:1557  function removeGame() public onlyOwner {... */\n    tag_2:\n      callvalue\n      dup1\n      iszero\n      tag_10\n      jumpi\n      0x00\n      dup1\n      revert\n    tag_10:\n      pop\n      tag_11\n      tag_12\n      jump\t// in\n    tag_11:\n      stop\n        /* \"contracts/BetContract.sol\":2013:2463  function declareBetWinner() public payable onlyOwner {... */\n    tag_3:\n      tag_13\n      tag_14\n      jump\t// in\n    tag_13:\n      stop\n        /* \"contracts/BetContract.sol\":1639:1961  function addBet(uint8 _winPrediction) public payable {... */\n    tag_4:\n      tag_15\n      0x04\n      dup1\n      calldatasize\n      sub\n      dup2\n      add\n      swap1\n      tag_16\n      swap2\n      swap1\n      tag_17\n      jump\t// in\n    tag_16:\n      tag_18\n      jump\t// in\n    tag_15:\n      stop\n        /* \"contracts/BetContract.sol\":1356:1480  function addGameWinner(uint8 _winner) public onlyOwner {... */\n    tag_5:\n      callvalue\n      dup1\n      iszero\n      tag_19\n      jumpi\n      0x00\n      dup1\n      revert\n    tag_19:\n      pop\n      tag_20\n      0x04\n      dup1\n      calldatasize\n      sub\n      dup2\n      add\n      swap1\n      tag_21\n      swap2\n      swap1\n      tag_17\n      jump\t// in\n    tag_21:\n      tag_22\n      jump\t// in\n    tag_20:\n      stop\n        /* \"contracts/BetContract.sol\":196:216  address public owner */\n    tag_6:\n      callvalue\n      dup1\n      iszero\n      tag_23\n      jumpi\n      0x00\n      dup1\n      revert\n    tag_23:\n      pop\n      tag_24\n      tag_25\n      jump\t// in\n    tag_24:\n      mload(0x40)\n      tag_26\n      swap2\n      swap1\n      tag_27\n      jump\t// in\n    tag_26:\n      mload(0x40)\n      dup1\n      swap2\n      sub\n      swap1\n      return\n        /* \"contracts/BetContract.sol\":818:834  Game public game */\n    tag_7:\n      callvalue\n      dup1\n      iszero\n      tag_28\n      jumpi\n      0x00\n      dup1\n      revert\n    tag_28:\n      pop\n      tag_29\n      tag_30\n      jump\t// in\n    tag_29:\n      mload(0x40)\n      tag_31\n      swap4\n      swap3\n      swap2\n      swap1\n      tag_32\n      jump\t// in\n    tag_31:\n      mload(0x40)\n      dup1\n      swap2\n      sub\n      swap1\n      return\n        /* \"contracts/BetContract.sol\":1145:1297  function addGame(string memory _name) public onlyOwner {... */\n    tag_8:\n      callvalue\n      dup1\n      iszero\n      tag_33\n      jumpi\n      0x00\n      dup1\n      revert\n    tag_33:\n      pop\n      tag_34\n      0x04\n      dup1\n      calldatasize\n      sub\n      dup2\n      add\n      swap1\n      tag_35\n      swap2\n      swap1\n      tag_36\n      jump\t// in\n    tag_35:\n      tag_37\n      jump\t// in\n    tag_34:\n      stop\n        /* \"contracts/BetContract.sol\":1488:1557  function removeGame() public onlyOwner {... */\n    tag_12:\n        /* \"contracts/BetContract.sol\":1023:1028  owner */\n      0x00\n      dup1\n      sload\n      swap1\n      0x0100\n      exp\n      swap1\n      div\n      0xffffffffffffffffffffffffffffffffffffffff\n      and\n        /* \"contracts/BetContract.sol\":1009:1028  msg.sender == owner */\n      0xffffffffffffffffffffffffffffffffffffffff\n      and\n        /* \"contracts/BetContract.sol\":1009:1019  msg.sender */\n      caller\n        /* \"contracts/BetContract.sol\":1009:1028  msg.sender == owner */\n      0xffffffffffffffffffffffffffffffffffffffff\n      and\n      eq\n        /* \"contracts/BetContract.sol\":1001:1070  require(msg.sender == owner, \"Only the owner can call this function\") */\n      tag_39\n      jumpi\n      mload(0x40)\n      0x08c379a000000000000000000000000000000000000000000000000000000000\n      dup2\n      mstore\n      0x04\n      add\n      tag_40\n      swap1\n      tag_41\n      jump\t// in\n    tag_40:\n      mload(0x40)\n      dup1\n      swap2\n      sub\n      swap1\n      revert\n    tag_39:\n        /* \"contracts/BetContract.sol\":1545:1549  game */\n      0x03\n      0x00\n        /* \"contracts/BetContract.sol\":1538:1549  delete game */\n      dup1\n      dup3\n      add\n      0x00\n      tag_43\n      swap2\n      swap1\n      tag_44\n      jump\t// in\n    tag_43:\n      0x01\n      dup3\n      add\n      exp(0x0100, 0x00)\n      dup2\n      sload\n      swap1\n      0xff\n      mul\n      not\n      and\n      swap1\n      sstore\n      0x01\n      dup3\n      add\n      exp(0x0100, 0x01)\n      dup2\n      sload\n      swap1\n      0xff\n      mul\n      not\n      and\n      swap1\n      sstore\n      pop\n      pop\n        /* \"contracts/BetContract.sol\":1488:1557  function removeGame() public onlyOwner {... */\n      jump\t// out\n        /* \"contracts/BetContract.sol\":2013:2463  function declareBetWinner() public payable onlyOwner {... */\n    tag_14:\n        /* \"contracts/BetContract.sol\":1023:1028  owner */\n      0x00\n      dup1\n      sload\n      swap1\n      0x0100\n      exp\n      swap1\n      div\n      0xffffffffffffffffffffffffffffffffffffffff\n      and\n        /* \"contracts/BetContract.sol\":1009:1028  msg.sender == owner */\n      0xffffffffffffffffffffffffffffffffffffffff\n      and\n        /* \"contracts/BetContract.sol\":1009:1019  msg.sender */\n      caller\n        /* \"contracts/BetContract.sol\":1009:1028  msg.sender == owner */\n      0xffffffffffffffffffffffffffffffffffffffff\n      and\n      eq\n        /* \"contracts/BetContract.sol\":1001:1070  require(msg.sender == owner, \"Only the owner can call this function\") */\n      tag_46\n      jumpi\n      mload(0x40)\n      0x08c379a000000000000000000000000000000000000000000000000000000000\n      dup2\n      mstore\n      0x04\n      add\n      tag_47\n      swap1\n      tag_41\n      jump\t// in\n    tag_47:\n      mload(0x40)\n      dup1\n      swap2\n      sub\n      swap1\n      revert\n    tag_46:\n        /* \"contracts/BetContract.sol\":2100:2104  true */\n      0x01\n        /* \"contracts/BetContract.sol\":2085:2104  game.isOver == true */\n      iszero\n      iszero\n        /* \"contracts/BetContract.sol\":2085:2089  game */\n      0x03\n        /* \"contracts/BetContract.sol\":2085:2096  game.isOver */\n      0x01\n      add\n      0x01\n      swap1\n      sload\n      swap1\n      0x0100\n      exp\n      swap1\n      div\n      0xff\n      and\n        /* \"contracts/BetContract.sol\":2085:2104  game.isOver == true */\n      iszero\n      iszero\n      eq\n        /* \"contracts/BetContract.sol\":2077:2129  require(game.isOver == true, \"Game is not yet over\") */\n      tag_49\n      jumpi\n      mload(0x40)\n      0x08c379a000000000000000000000000000000000000000000000000000000000\n      dup2\n      mstore\n      0x04\n      add\n      tag_50\n      swap1\n      tag_51\n      jump\t// in\n    tag_50:\n      mload(0x40)\n      dup1\n      swap2\n      sub\n      swap1\n      revert\n    tag_49:\n        /* \"contracts/BetContract.sol\":2201:2207  uint i */\n      0x00\n        /* \"contracts/BetContract.sol\":2196:2408  for (uint i = 0; i < bets.length; i++) {... */\n    tag_52:\n        /* \"contracts/BetContract.sol\":2217:2221  bets */\n      0x05\n        /* \"contracts/BetContract.sol\":2217:2228  bets.length */\n      dup1\n      sload\n      swap1\n      pop\n        /* \"contracts/BetContract.sol\":2213:2214  i */\n      dup2\n        /* \"contracts/BetContract.sol\":2213:2228  i < bets.length */\n      lt\n        /* \"contracts/BetContract.sol\":2196:2408  for (uint i = 0; i < bets.length; i++) {... */\n      iszero\n      tag_53\n      jumpi\n        /* \"contracts/BetContract.sol\":2250:2264  Bet memory bet */\n      0x00\n        /* \"contracts/BetContract.sol\":2267:2271  bets */\n      0x05\n        /* \"contracts/BetContract.sol\":2272:2273  i */\n      dup3\n        /* \"contracts/BetContract.sol\":2267:2274  bets[i] */\n      dup2\n      sload\n      dup2\n      lt\n      tag_55\n      jumpi\n      tag_56\n      tag_57\n      jump\t// in\n    tag_56:\n    tag_55:\n      swap1\n      0x00\n      mstore\n      keccak256(0x00, 0x20)\n      swap1\n      0x05\n      mul\n      add\n        /* \"contracts/BetContract.sol\":2250:2274  Bet memory bet = bets[i] */\n      mload(0x40)\n      dup1\n      0x80\n      add\n      0x40\n      mstore\n      swap1\n      dup2\n      0x00\n      dup3\n      add\n      0x00\n      swap1\n      sload\n      swap1\n      0x0100\n      exp\n      swap1\n      div\n      0xffffffffffffffffffffffffffffffffffffffff\n      and\n      0xffffffffffffffffffffffffffffffffffffffff\n      and\n      0xffffffffffffffffffffffffffffffffffffffff\n      and\n      dup2\n      mstore\n      0x20\n      add\n      0x01\n      dup3\n      add\n      mload(0x40)\n      dup1\n      0x60\n      add\n      0x40\n      mstore\n      swap1\n      dup2\n      0x00\n      dup3\n      add\n      dup1\n      sload\n      tag_59\n      swap1\n      tag_60\n      jump\t// in\n    tag_59:\n      dup1\n      0x1f\n      add\n      0x20\n      dup1\n      swap2\n      div\n      mul\n      0x20\n      add\n      mload(0x40)\n      swap1\n      dup2\n      add\n      0x40\n      mstore\n      dup1\n      swap3\n      swap2\n      swap1\n      dup2\n      dup2\n      mstore\n      0x20\n      add\n      dup3\n      dup1\n      sload\n      tag_61\n      swap1\n      tag_60\n      jump\t// in\n    tag_61:\n      dup1\n      iszero\n      tag_62\n      jumpi\n      dup1\n      0x1f\n      lt\n      tag_63\n      jumpi\n      0x0100\n      dup1\n      dup4\n      sload\n      div\n      mul\n      dup4\n      mstore\n      swap2\n      0x20\n      add\n      swap2\n      jump(tag_62)\n    tag_63:\n      dup3\n      add\n      swap2\n      swap1\n      0x00\n      mstore\n      keccak256(0x00, 0x20)\n      swap1\n    tag_64:\n      dup2\n      sload\n      dup2\n      mstore\n      swap1\n      0x01\n      add\n      swap1\n      0x20\n      add\n      dup1\n      dup4\n      gt\n      tag_64\n      jumpi\n      dup3\n      swap1\n      sub\n      0x1f\n      and\n      dup3\n      add\n      swap2\n    tag_62:\n      pop\n      pop\n      pop\n      pop\n      pop\n      dup2\n      mstore\n      0x20\n      add\n      0x01\n      dup3\n      add\n      0x00\n      swap1\n      sload\n      swap1\n      0x0100\n      exp\n      swap1\n      div\n      0xff\n      and\n      0xff\n      and\n      0xff\n      and\n      dup2\n      mstore\n      0x20\n      add\n      0x01\n      dup3\n      add\n      0x01\n      swap1\n      sload\n      swap1\n      0x0100\n      exp\n      swap1\n      div\n      0xff\n      and\n      iszero\n      iszero\n      iszero\n      iszero\n      dup2\n      mstore\n      pop\n      pop\n      dup2\n      mstore\n      0x20\n      add\n      0x03\n      dup3\n      add\n      0x00\n      swap1\n      sload\n      swap1\n      0x0100\n      exp\n      swap1\n      div\n      0xff\n      and\n      0xff\n      and\n      0xff\n      and\n      dup2\n      mstore\n      0x20\n      add\n      0x04\n      dup3\n      add\n      sload\n      dup2\n      mstore\n      pop\n      pop\n      swap1\n      pop\n        /* \"contracts/BetContract.sol\":2314:2318  game */\n      0x03\n        /* \"contracts/BetContract.sol\":2314:2325  game.winner */\n      0x01\n      add\n      0x00\n      swap1\n      sload\n      swap1\n      0x0100\n      exp\n      swap1\n      div\n      0xff\n      and\n        /* \"contracts/BetContract.sol\":2293:2325  bet.winPrediction == game.winner */\n      0xff\n      and\n        /* \"contracts/BetContract.sol\":2293:2296  bet */\n      dup2\n        /* \"contracts/BetContract.sol\":2293:2310  bet.winPrediction */\n      0x40\n      add\n      mload\n        /* \"contracts/BetContract.sol\":2293:2325  bet.winPrediction == game.winner */\n      0xff\n      and\n      sub\n        /* \"contracts/BetContract.sol\":2289:2397  if (bet.winPrediction == game.winner) {... */\n      tag_65\n      jumpi\n        /* \"contracts/BetContract.sol\":2354:2357  bet */\n      dup1\n        /* \"contracts/BetContract.sol\":2354:2362  bet.user */\n      0x00\n      add\n      mload\n        /* \"contracts/BetContract.sol\":2346:2372  payable(bet.user).transfer */\n      0xffffffffffffffffffffffffffffffffffffffff\n      and\n        /* \"contracts/BetContract.sol\":2346:2381  payable(bet.user).transfer(allBets) */\n      0x08fc\n        /* \"contracts/BetContract.sol\":2373:2380  allBets */\n      sload(0x02)\n        /* \"contracts/BetContract.sol\":2346:2381  payable(bet.user).transfer(allBets) */\n      swap1\n      dup2\n      iszero\n      mul\n      swap1\n      mload(0x40)\n      0x00\n      mload(0x40)\n      dup1\n      dup4\n      sub\n      dup2\n      dup6\n      dup9\n      dup9\n      call\n      swap4\n      pop\n      pop\n      pop\n      pop\n      iszero\n      dup1\n      iszero\n      tag_67\n      jumpi\n      returndatasize\n      0x00\n      dup1\n      returndatacopy\n      revert(0x00, returndatasize)\n    tag_67:\n      pop\n        /* \"contracts/BetContract.sol\":2289:2397  if (bet.winPrediction == game.winner) {... */\n    tag_65:\n        /* \"contracts/BetContract.sol\":2235:2408  {... */\n      pop\n        /* \"contracts/BetContract.sol\":2230:2233  i++ */\n      dup1\n      dup1\n      0x01\n      add\n      swap2\n      pop\n      pop\n        /* \"contracts/BetContract.sol\":2196:2408  for (uint i = 0; i < bets.length; i++) {... */\n      jump(tag_52)\n    tag_53:\n      pop\n        /* \"contracts/BetContract.sol\":2013:2463  function declareBetWinner() public payable onlyOwner {... */\n      jump\t// out\n        /* \"contracts/BetContract.sol\":1639:1961  function addBet(uint8 _winPrediction) public payable {... */\n    tag_18:\n        /* \"contracts/BetContract.sol\":1726:1731  false */\n      0x00\n        /* \"contracts/BetContract.sol\":1711:1731  game.isOver == false */\n      iszero\n      iszero\n        /* \"contracts/BetContract.sol\":1711:1715  game */\n      0x03\n        /* \"contracts/BetContract.sol\":1711:1722  game.isOver */\n      0x01\n      add\n      0x01\n      swap1\n      sload\n      swap1\n      0x0100\n      exp\n      swap1\n      div\n      0xff\n      and\n        /* \"contracts/BetContract.sol\":1711:1731  game.isOver == false */\n      iszero\n      iszero\n      eq\n        /* \"contracts/BetContract.sol\":1703:1766  require(game.isOver == false, \"Game is over - no bets allowed\") */\n      tag_69\n      jumpi\n      mload(0x40)\n      0x08c379a000000000000000000000000000000000000000000000000000000000\n      dup2\n      mstore\n      0x04\n      add\n      tag_70\n      swap1\n      tag_71\n      jump\t// in\n    tag_70:\n      mload(0x40)\n      dup1\n      swap2\n      sub\n      swap1\n      revert\n    tag_69:\n        /* \"contracts/BetContract.sol\":1872:1881  msg.value */\n      callvalue\n        /* \"contracts/BetContract.sol\":1861:1868  allBets */\n      0x02\n      0x00\n        /* \"contracts/BetContract.sol\":1861:1881  allBets += msg.value */\n      dup3\n      dup3\n      sload\n      tag_72\n      swap2\n      swap1\n      tag_73\n      jump\t// in\n    tag_72:\n      swap3\n      pop\n      pop\n      dup2\n      swap1\n      sstore\n      pop\n        /* \"contracts/BetContract.sol\":1894:1898  bets */\n      0x05\n        /* \"contracts/BetContract.sol\":1904:1952  Bet(msg.sender, game, _winPrediction, msg.value) */\n      mload(0x40)\n      dup1\n      0x80\n      add\n      0x40\n      mstore\n      dup1\n        /* \"contracts/BetContract.sol\":1908:1918  msg.sender */\n      caller\n        /* \"contracts/BetContract.sol\":1904:1952  Bet(msg.sender, game, _winPrediction, msg.value) */\n      0xffffffffffffffffffffffffffffffffffffffff\n      and\n      dup2\n      mstore\n      0x20\n      add\n        /* \"contracts/BetContract.sol\":1920:1924  game */\n      0x03\n        /* \"contracts/BetContract.sol\":1904:1952  Bet(msg.sender, game, _winPrediction, msg.value) */\n      mload(0x40)\n      dup1\n      0x60\n      add\n      0x40\n      mstore\n      swap1\n      dup2\n      0x00\n      dup3\n      add\n      dup1\n      sload\n      tag_74\n      swap1\n      tag_60\n      jump\t// in\n    tag_74:\n      dup1\n      0x1f\n      add\n      0x20\n      dup1\n      swap2\n      div\n      mul\n      0x20\n      add\n      mload(0x40)\n      swap1\n      dup2\n      add\n      0x40\n      mstore\n      dup1\n      swap3\n      swap2\n      swap1\n      dup2\n      dup2\n      mstore\n      0x20\n      add\n      dup3\n      dup1\n      sload\n      tag_75\n      swap1\n      tag_60\n      jump\t// in\n    tag_75:\n      dup1\n      iszero\n      tag_76\n      jumpi\n      dup1\n      0x1f\n      lt\n      tag_77\n      jumpi\n      0x0100\n      dup1\n      dup4\n      sload\n      div\n      mul\n      dup4\n      mstore\n      swap2\n      0x20\n      add\n      swap2\n      jump(tag_76)\n    tag_77:\n      dup3\n      add\n      swap2\n      swap1\n      0x00\n      mstore\n      keccak256(0x00, 0x20)\n      swap1\n    tag_78:\n      dup2\n      sload\n      dup2\n      mstore\n      swap1\n      0x01\n      add\n      swap1\n      0x20\n      add\n      dup1\n      dup4\n      gt\n      tag_78\n      jumpi\n      dup3\n      swap1\n      sub\n      0x1f\n      and\n      dup3\n      add\n      swap2\n    tag_76:\n      pop\n      pop\n      pop\n      pop\n      pop\n      dup2\n      mstore\n      0x20\n      add\n      0x01\n      dup3\n      add\n      0x00\n      swap1\n      sload\n      swap1\n      0x0100\n      exp\n      swap1\n      div\n      0xff\n      and\n      0xff\n      and\n      0xff\n      and\n      dup2\n      mstore\n      0x20\n      add\n      0x01\n      dup3\n      add\n      0x01\n      swap1\n      sload\n      swap1\n      0x0100\n      exp\n      swap1\n      div\n      0xff\n      and\n      iszero\n      iszero\n      iszero\n      iszero\n      dup2\n      mstore\n      pop\n      pop\n      dup2\n      mstore\n      0x20\n      add\n        /* \"contracts/BetContract.sol\":1926:1940  _winPrediction */\n      dup4\n        /* \"contracts/BetContract.sol\":1904:1952  Bet(msg.sender, game, _winPrediction, msg.value) */\n      0xff\n      and\n      dup2\n      mstore\n      0x20\n      add\n        /* \"contracts/BetContract.sol\":1942:1951  msg.value */\n      callvalue\n        /* \"contracts/BetContract.sol\":1904:1952  Bet(msg.sender, game, _winPrediction, msg.value) */\n      dup2\n      mstore\n      pop\n        /* \"contracts/BetContract.sol\":1894:1953  bets.push(Bet(msg.sender, game, _winPrediction, msg.value)) */\n      swap1\n      dup1\n      0x01\n      dup2\n      sload\n      add\n      dup1\n      dup3\n      sstore\n      dup1\n      swap2\n      pop\n      pop\n      0x01\n      swap1\n      sub\n      swap1\n      0x00\n      mstore\n      keccak256(0x00, 0x20)\n      swap1\n      0x05\n      mul\n      add\n      0x00\n      swap1\n      swap2\n      swap1\n      swap2\n      swap1\n      swap2\n      pop\n      0x00\n      dup3\n      add\n      mload\n      dup2\n      0x00\n      add\n      exp(0x0100, 0x00)\n      dup2\n      sload\n      dup2\n      0xffffffffffffffffffffffffffffffffffffffff\n      mul\n      not\n      and\n      swap1\n      dup4\n      0xffffffffffffffffffffffffffffffffffffffff\n      and\n      mul\n      or\n      swap1\n      sstore\n      pop\n      0x20\n      dup3\n      add\n      mload\n      dup2\n      0x01\n      add\n      0x00\n      dup3\n      add\n      mload\n      dup2\n      0x00\n      add\n      swap1\n      dup2\n      tag_80\n      swap2\n      swap1\n      tag_81\n      jump\t// in\n    tag_80:\n      pop\n      0x20\n      dup3\n      add\n      mload\n      dup2\n      0x01\n      add\n      exp(0x0100, 0x00)\n      dup2\n      sload\n      dup2\n      0xff\n      mul\n      not\n      and\n      swap1\n      dup4\n      0xff\n      and\n      mul\n      or\n      swap1\n      sstore\n      pop\n      0x40\n      dup3\n      add\n      mload\n      dup2\n      0x01\n      add\n      exp(0x0100, 0x01)\n      dup2\n      sload\n      dup2\n      0xff\n      mul\n      not\n      and\n      swap1\n      dup4\n      iszero\n      iszero\n      mul\n      or\n      swap1\n      sstore\n      pop\n      pop\n      pop\n      0x40\n      dup3\n      add\n      mload\n      dup2\n      0x03\n      add\n      exp(0x0100, 0x00)\n      dup2\n      sload\n      dup2\n      0xff\n      mul\n      not\n      and\n      swap1\n      dup4\n      0xff\n      and\n      mul\n      or\n      swap1\n      sstore\n      pop\n      0x60\n      dup3\n      add\n      mload\n      dup2\n      0x04\n      add\n      sstore\n      pop\n      pop\n        /* \"contracts/BetContract.sol\":1639:1961  function addBet(uint8 _winPrediction) public payable {... */\n      pop\n      jump\t// out\n        /* \"contracts/BetContract.sol\":1356:1480  function addGameWinner(uint8 _winner) public onlyOwner {... */\n    tag_22:\n        /* \"contracts/BetContract.sol\":1023:1028  owner */\n      0x00\n      dup1\n      sload\n      swap1\n      0x0100\n      exp\n      swap1\n      div\n      0xffffffffffffffffffffffffffffffffffffffff\n      and\n        /* \"contracts/BetContract.sol\":1009:1028  msg.sender == owner */\n      0xffffffffffffffffffffffffffffffffffffffff\n      and\n        /* \"contracts/BetContract.sol\":1009:1019  msg.sender */\n      caller\n        /* \"contracts/BetContract.sol\":1009:1028  msg.sender == owner */\n      0xffffffffffffffffffffffffffffffffffffffff\n      and\n      eq\n        /* \"contracts/BetContract.sol\":1001:1070  require(msg.sender == owner, \"Only the owner can call this function\") */\n      tag_83\n      jumpi\n      mload(0x40)\n      0x08c379a000000000000000000000000000000000000000000000000000000000\n      dup2\n      mstore\n      0x04\n      add\n      tag_84\n      swap1\n      tag_41\n      jump\t// in\n    tag_84:\n      mload(0x40)\n      dup1\n      swap2\n      sub\n      swap1\n      revert\n    tag_83:\n        /* \"contracts/BetContract.sol\":1436:1443  _winner */\n      dup1\n        /* \"contracts/BetContract.sol\":1422:1426  game */\n      0x03\n        /* \"contracts/BetContract.sol\":1422:1433  game.winner */\n      0x01\n      add\n      0x00\n        /* \"contracts/BetContract.sol\":1422:1443  game.winner = _winner */\n      0x0100\n      exp\n      dup2\n      sload\n      dup2\n      0xff\n      mul\n      not\n      and\n      swap1\n      dup4\n      0xff\n      and\n      mul\n      or\n      swap1\n      sstore\n      pop\n        /* \"contracts/BetContract.sol\":1468:1472  true */\n      0x01\n        /* \"contracts/BetContract.sol\":1454:1458  game */\n      0x03\n        /* \"contracts/BetContract.sol\":1454:1465  game.isOver */\n      0x01\n      add\n      0x01\n        /* \"contracts/BetContract.sol\":1454:1472  game.isOver = true */\n      0x0100\n      exp\n      dup2\n      sload\n      dup2\n      0xff\n      mul\n      not\n      and\n      swap1\n      dup4\n      iszero\n      iszero\n      mul\n      or\n      swap1\n      sstore\n      pop\n        /* \"contracts/BetContract.sol\":1356:1480  function addGameWinner(uint8 _winner) public onlyOwner {... */\n      pop\n      jump\t// out\n        /* \"contracts/BetContract.sol\":196:216  address public owner */\n    tag_25:\n      0x00\n      dup1\n      sload\n      swap1\n      0x0100\n      exp\n      swap1\n      div\n      0xffffffffffffffffffffffffffffffffffffffff\n      and\n      dup2\n      jump\t// out\n        /* \"contracts/BetContract.sol\":818:834  Game public game */\n    tag_30:\n      0x03\n      dup1\n      0x00\n      add\n      dup1\n      sload\n      tag_86\n      swap1\n      tag_60\n      jump\t// in\n    tag_86:\n      dup1\n      0x1f\n      add\n      0x20\n      dup1\n      swap2\n      div\n      mul\n      0x20\n      add\n      mload(0x40)\n      swap1\n      dup2\n      add\n      0x40\n      mstore\n      dup1\n      swap3\n      swap2\n      swap1\n      dup2\n      dup2\n      mstore\n      0x20\n      add\n      dup3\n      dup1\n      sload\n      tag_87\n      swap1\n      tag_60\n      jump\t// in\n    tag_87:\n      dup1\n      iszero\n      tag_88\n      jumpi\n      dup1\n      0x1f\n      lt\n      tag_89\n      jumpi\n      0x0100\n      dup1\n      dup4\n      sload\n      div\n      mul\n      dup4\n      mstore\n      swap2\n      0x20\n      add\n      swap2\n      jump(tag_88)\n    tag_89:\n      dup3\n      add\n      swap2\n      swap1\n      0x00\n      mstore\n      keccak256(0x00, 0x20)\n      swap1\n    tag_90:\n      dup2\n      sload\n      dup2\n      mstore\n      swap1\n      0x01\n      add\n      swap1\n      0x20\n      add\n      dup1\n      dup4\n      gt\n      tag_90\n      jumpi\n      dup3\n      swap1\n      sub\n      0x1f\n      and\n      dup3\n      add\n      swap2\n    tag_88:\n      pop\n      pop\n      pop\n      pop\n      pop\n      swap1\n      dup1\n      0x01\n      add\n      0x00\n      swap1\n      sload\n      swap1\n      0x0100\n      exp\n      swap1\n      div\n      0xff\n      and\n      swap1\n      dup1\n      0x01\n      add\n      0x01\n      swap1\n      sload\n      swap1\n      0x0100\n      exp\n      swap1\n      div\n      0xff\n      and\n      swap1\n      pop\n      dup4\n      jump\t// out\n        /* \"contracts/BetContract.sol\":1145:1297  function addGame(string memory _name) public onlyOwner {... */\n    tag_37:\n        /* \"contracts/BetContract.sol\":1023:1028  owner */\n      0x00\n      dup1\n      sload\n      swap1\n      0x0100\n      exp\n      swap1\n      div\n      0xffffffffffffffffffffffffffffffffffffffff\n      and\n        /* \"contracts/BetContract.sol\":1009:1028  msg.sender == owner */\n      0xffffffffffffffffffffffffffffffffffffffff\n      and\n        /* \"contracts/BetContract.sol\":1009:1019  msg.sender */\n      caller\n        /* \"contracts/BetContract.sol\":1009:1028  msg.sender == owner */\n      0xffffffffffffffffffffffffffffffffffffffff\n      and\n      eq\n        /* \"contracts/BetContract.sol\":1001:1070  require(msg.sender == owner, \"Only the owner can call this function\") */\n      tag_92\n      jumpi\n      mload(0x40)\n      0x08c379a000000000000000000000000000000000000000000000000000000000\n      dup2\n      mstore\n      0x04\n      add\n      tag_93\n      swap1\n      tag_41\n      jump\t// in\n    tag_93:\n      mload(0x40)\n      dup1\n      swap2\n      sub\n      swap1\n      revert\n    tag_92:\n        /* \"contracts/BetContract.sol\":1218:1239  Game(_name, 0, false) */\n      mload(0x40)\n      dup1\n      0x60\n      add\n      0x40\n      mstore\n      dup1\n        /* \"contracts/BetContract.sol\":1223:1228  _name */\n      dup3\n        /* \"contracts/BetContract.sol\":1218:1239  Game(_name, 0, false) */\n      dup2\n      mstore\n      0x20\n      add\n        /* \"contracts/BetContract.sol\":1230:1231  0 */\n      0x00\n        /* \"contracts/BetContract.sol\":1218:1239  Game(_name, 0, false) */\n      0xff\n      and\n      dup2\n      mstore\n      0x20\n      add\n        /* \"contracts/BetContract.sol\":1233:1238  false */\n      0x00\n        /* \"contracts/BetContract.sol\":1218:1239  Game(_name, 0, false) */\n      iszero\n      iszero\n      dup2\n      mstore\n      pop\n        /* \"contracts/BetContract.sol\":1211:1215  game */\n      0x03\n        /* \"contracts/BetContract.sol\":1211:1239  game = Game(_name, 0, false) */\n      0x00\n      dup3\n      add\n      mload\n      dup2\n      0x00\n      add\n      swap1\n      dup2\n      tag_95\n      swap2\n      swap1\n      tag_81\n      jump\t// in\n    tag_95:\n      pop\n      0x20\n      dup3\n      add\n      mload\n      dup2\n      0x01\n      add\n      exp(0x0100, 0x00)\n      dup2\n      sload\n      dup2\n      0xff\n      mul\n      not\n      and\n      swap1\n      dup4\n      0xff\n      and\n      mul\n      or\n      swap1\n      sstore\n      pop\n      0x40\n      dup3\n      add\n      mload\n      dup2\n      0x01\n      add\n      exp(0x0100, 0x01)\n      dup2\n      sload\n      dup2\n      0xff\n      mul\n      not\n      and\n      swap1\n      dup4\n      iszero\n      iszero\n      mul\n      or\n      swap1\n      sstore\n      pop\n      swap1\n      pop\n      pop\n        /* \"contracts/BetContract.sol\":1145:1297  function addGame(string memory _name) public onlyOwner {... */\n      pop\n      jump\t// out\n    tag_44:\n      pop\n      dup1\n      sload\n      tag_96\n      swap1\n      tag_60\n      jump\t// in\n    tag_96:\n      0x00\n      dup3\n      sstore\n      dup1\n      0x1f\n      lt\n      tag_98\n      jumpi\n      pop\n      jump(tag_97)\n    tag_98:\n      0x1f\n      add\n      0x20\n      swap1\n      div\n      swap1\n      0x00\n      mstore\n      keccak256(0x00, 0x20)\n      swap1\n      dup2\n      add\n      swap1\n      tag_99\n      swap2\n      swap1\n      tag_100\n      jump\t// in\n    tag_99:\n    tag_97:\n      pop\n      jump\t// out\n    tag_100:\n    tag_101:\n      dup1\n      dup3\n      gt\n      iszero\n      tag_102\n      jumpi\n      0x00\n      dup2\n      0x00\n      swap1\n      sstore\n      pop\n      0x01\n      add\n      jump(tag_101)\n    tag_102:\n      pop\n      swap1\n      jump\t// out\n        /* \"#utility.yul\":7:82   */\n    tag_103:\n        /* \"#utility.yul\":40:46   */\n      0x00\n        /* \"#utility.yul\":73:75   */\n      0x40\n        /* \"#utility.yul\":67:76   */\n      mload\n        /* \"#utility.yul\":57:76   */\n      swap1\n      pop\n        /* \"#utility.yul\":7:82   */\n      swap1\n      jump\t// out\n        /* \"#utility.yul\":88:205   */\n    tag_104:\n        /* \"#utility.yul\":197:198   */\n      0x00\n        /* \"#utility.yul\":194:195   */\n      dup1\n        /* \"#utility.yul\":187:199   */\n      revert\n        /* \"#utility.yul\":211:328   */\n    tag_105:\n        /* \"#utility.yul\":320:321   */\n      0x00\n        /* \"#utility.yul\":317:318   */\n      dup1\n        /* \"#utility.yul\":310:322   */\n      revert\n        /* \"#utility.yul\":334:420   */\n    tag_106:\n        /* \"#utility.yul\":369:376   */\n      0x00\n        /* \"#utility.yul\":409:413   */\n      0xff\n        /* \"#utility.yul\":402:407   */\n      dup3\n        /* \"#utility.yul\":398:414   */\n      and\n        /* \"#utility.yul\":387:414   */\n      swap1\n      pop\n        /* \"#utility.yul\":334:420   */\n      swap2\n      swap1\n      pop\n      jump\t// out\n        /* \"#utility.yul\":426:544   */\n    tag_107:\n        /* \"#utility.yul\":497:519   */\n      tag_159\n        /* \"#utility.yul\":513:518   */\n      dup2\n        /* \"#utility.yul\":497:519   */\n      tag_106\n      jump\t// in\n    tag_159:\n        /* \"#utility.yul\":490:495   */\n      dup2\n        /* \"#utility.yul\":487:520   */\n      eq\n        /* \"#utility.yul\":477:538   */\n      tag_160\n      jumpi\n        /* \"#utility.yul\":534:535   */\n      0x00\n        /* \"#utility.yul\":531:532   */\n      dup1\n        /* \"#utility.yul\":524:536   */\n      revert\n        /* \"#utility.yul\":477:538   */\n    tag_160:\n        /* \"#utility.yul\":426:544   */\n      pop\n      jump\t// out\n        /* \"#utility.yul\":550:685   */\n    tag_108:\n        /* \"#utility.yul\":594:599   */\n      0x00\n        /* \"#utility.yul\":632:638   */\n      dup2\n        /* \"#utility.yul\":619:639   */\n      calldataload\n        /* \"#utility.yul\":610:639   */\n      swap1\n      pop\n        /* \"#utility.yul\":648:679   */\n      tag_162\n        /* \"#utility.yul\":673:678   */\n      dup2\n        /* \"#utility.yul\":648:679   */\n      tag_107\n      jump\t// in\n    tag_162:\n        /* \"#utility.yul\":550:685   */\n      swap3\n      swap2\n      pop\n      pop\n      jump\t// out\n        /* \"#utility.yul\":691:1016   */\n    tag_17:\n        /* \"#utility.yul\":748:754   */\n      0x00\n        /* \"#utility.yul\":797:799   */\n      0x20\n        /* \"#utility.yul\":785:794   */\n      dup3\n        /* \"#utility.yul\":776:783   */\n      dup5\n        /* \"#utility.yul\":772:795   */\n      sub\n        /* \"#utility.yul\":768:800   */\n      slt\n        /* \"#utility.yul\":765:884   */\n      iszero\n      tag_164\n      jumpi\n        /* \"#utility.yul\":803:882   */\n      tag_165\n      tag_104\n      jump\t// in\n    tag_165:\n        /* \"#utility.yul\":765:884   */\n    tag_164:\n        /* \"#utility.yul\":923:924   */\n      0x00\n        /* \"#utility.yul\":948:999   */\n      tag_166\n        /* \"#utility.yul\":991:998   */\n      dup5\n        /* \"#utility.yul\":982:988   */\n      dup3\n        /* \"#utility.yul\":971:980   */\n      dup6\n        /* \"#utility.yul\":967:989   */\n      add\n        /* \"#utility.yul\":948:999   */\n      tag_108\n      jump\t// in\n    tag_166:\n        /* \"#utility.yul\":938:999   */\n      swap2\n      pop\n        /* \"#utility.yul\":894:1009   */\n      pop\n        /* \"#utility.yul\":691:1016   */\n      swap3\n      swap2\n      pop\n      pop\n      jump\t// out\n        /* \"#utility.yul\":1022:1148   */\n    tag_109:\n        /* \"#utility.yul\":1059:1066   */\n      0x00\n        /* \"#utility.yul\":1099:1141   */\n      0xffffffffffffffffffffffffffffffffffffffff\n        /* \"#utility.yul\":1092:1097   */\n      dup3\n        /* \"#utility.yul\":1088:1142   */\n      and\n        /* \"#utility.yul\":1077:1142   */\n      swap1\n      pop\n        /* \"#utility.yul\":1022:1148   */\n      swap2\n      swap1\n      pop\n      jump\t// out\n        /* \"#utility.yul\":1154:1250   */\n    tag_110:\n        /* \"#utility.yul\":1191:1198   */\n      0x00\n        /* \"#utility.yul\":1220:1244   */\n      tag_169\n        /* \"#utility.yul\":1238:1243   */\n      dup3\n        /* \"#utility.yul\":1220:1244   */\n      tag_109\n      jump\t// in\n    tag_169:\n        /* \"#utility.yul\":1209:1244   */\n      swap1\n      pop\n        /* \"#utility.yul\":1154:1250   */\n      swap2\n      swap1\n      pop\n      jump\t// out\n        /* \"#utility.yul\":1256:1374   */\n    tag_111:\n        /* \"#utility.yul\":1343:1367   */\n      tag_171\n        /* \"#utility.yul\":1361:1366   */\n      dup2\n        /* \"#utility.yul\":1343:1367   */\n      tag_110\n      jump\t// in\n    tag_171:\n        /* \"#utility.yul\":1338:1341   */\n      dup3\n        /* \"#utility.yul\":1331:1368   */\n      mstore\n        /* \"#utility.yul\":1256:1374   */\n      pop\n      pop\n      jump\t// out\n        /* \"#utility.yul\":1380:1602   */\n    tag_27:\n        /* \"#utility.yul\":1473:1477   */\n      0x00\n        /* \"#utility.yul\":1511:1513   */\n      0x20\n        /* \"#utility.yul\":1500:1509   */\n      dup3\n        /* \"#utility.yul\":1496:1514   */\n      add\n        /* \"#utility.yul\":1488:1514   */\n      swap1\n      pop\n        /* \"#utility.yul\":1524:1595   */\n      tag_173\n        /* \"#utility.yul\":1592:1593   */\n      0x00\n        /* \"#utility.yul\":1581:1590   */\n      dup4\n        /* \"#utility.yul\":1577:1594   */\n      add\n        /* \"#utility.yul\":1568:1574   */\n      dup5\n        /* \"#utility.yul\":1524:1595   */\n      tag_111\n      jump\t// in\n    tag_173:\n        /* \"#utility.yul\":1380:1602   */\n      swap3\n      swap2\n      pop\n      pop\n      jump\t// out\n        /* \"#utility.yul\":1608:1707   */\n    tag_112:\n        /* \"#utility.yul\":1660:1666   */\n      0x00\n        /* \"#utility.yul\":1694:1699   */\n      dup2\n        /* \"#utility.yul\":1688:1700   */\n      mload\n        /* \"#utility.yul\":1678:1700   */\n      swap1\n      pop\n        /* \"#utility.yul\":1608:1707   */\n      swap2\n      swap1\n      pop\n      jump\t// out\n        /* \"#utility.yul\":1713:1882   */\n    tag_113:\n        /* \"#utility.yul\":1797:1808   */\n      0x00\n        /* \"#utility.yul\":1831:1837   */\n      dup3\n        /* \"#utility.yul\":1826:1829   */\n      dup3\n        /* \"#utility.yul\":1819:1838   */\n      mstore\n        /* \"#utility.yul\":1871:1875   */\n      0x20\n        /* \"#utility.yul\":1866:1869   */\n      dup3\n        /* \"#utility.yul\":1862:1876   */\n      add\n        /* \"#utility.yul\":1847:1876   */\n      swap1\n      pop\n        /* \"#utility.yul\":1713:1882   */\n      swap3\n      swap2\n      pop\n      pop\n      jump\t// out\n        /* \"#utility.yul\":1888:2134   */\n    tag_114:\n        /* \"#utility.yul\":1969:1970   */\n      0x00\n        /* \"#utility.yul\":1979:2092   */\n    tag_177:\n        /* \"#utility.yul\":1993:1999   */\n      dup4\n        /* \"#utility.yul\":1990:1991   */\n      dup2\n        /* \"#utility.yul\":1987:2000   */\n      lt\n        /* \"#utility.yul\":1979:2092   */\n      iszero\n      tag_179\n      jumpi\n        /* \"#utility.yul\":2078:2079   */\n      dup1\n        /* \"#utility.yul\":2073:2076   */\n      dup3\n        /* \"#utility.yul\":2069:2080   */\n      add\n        /* \"#utility.yul\":2063:2081   */\n      mload\n        /* \"#utility.yul\":2059:2060   */\n      dup2\n        /* \"#utility.yul\":2054:2057   */\n      dup5\n        /* \"#utility.yul\":2050:2061   */\n      add\n        /* \"#utility.yul\":2043:2082   */\n      mstore\n        /* \"#utility.yul\":2015:2017   */\n      0x20\n        /* \"#utility.yul\":2012:2013   */\n      dup2\n        /* \"#utility.yul\":2008:2018   */\n      add\n        /* \"#utility.yul\":2003:2018   */\n      swap1\n      pop\n        /* \"#utility.yul\":1979:2092   */\n      jump(tag_177)\n    tag_179:\n        /* \"#utility.yul\":2126:2127   */\n      0x00\n        /* \"#utility.yul\":2117:2123   */\n      dup5\n        /* \"#utility.yul\":2112:2115   */\n      dup5\n        /* \"#utility.yul\":2108:2124   */\n      add\n        /* \"#utility.yul\":2101:2128   */\n      mstore\n        /* \"#utility.yul\":1950:2134   */\n      pop\n        /* \"#utility.yul\":1888:2134   */\n      pop\n      pop\n      pop\n      jump\t// out\n        /* \"#utility.yul\":2140:2242   */\n    tag_115:\n        /* \"#utility.yul\":2181:2187   */\n      0x00\n        /* \"#utility.yul\":2232:2234   */\n      0x1f\n        /* \"#utility.yul\":2228:2235   */\n      not\n        /* \"#utility.yul\":2223:2225   */\n      0x1f\n        /* \"#utility.yul\":2216:2221   */\n      dup4\n        /* \"#utility.yul\":2212:2226   */\n      add\n        /* \"#utility.yul\":2208:2236   */\n      and\n        /* \"#utility.yul\":2198:2236   */\n      swap1\n      pop\n        /* \"#utility.yul\":2140:2242   */\n      swap2\n      swap1\n      pop\n      jump\t// out\n        /* \"#utility.yul\":2248:2625   */\n    tag_116:\n        /* \"#utility.yul\":2336:2339   */\n      0x00\n        /* \"#utility.yul\":2364:2403   */\n      tag_182\n        /* \"#utility.yul\":2397:2402   */\n      dup3\n        /* \"#utility.yul\":2364:2403   */\n      tag_112\n      jump\t// in\n    tag_182:\n        /* \"#utility.yul\":2419:2490   */\n      tag_183\n        /* \"#utility.yul\":2483:2489   */\n      dup2\n        /* \"#utility.yul\":2478:2481   */\n      dup6\n        /* \"#utility.yul\":2419:2490   */\n      tag_113\n      jump\t// in\n    tag_183:\n        /* \"#utility.yul\":2412:2490   */\n      swap4\n      pop\n        /* \"#utility.yul\":2499:2564   */\n      tag_184\n        /* \"#utility.yul\":2557:2563   */\n      dup2\n        /* \"#utility.yul\":2552:2555   */\n      dup6\n        /* \"#utility.yul\":2545:2549   */\n      0x20\n        /* \"#utility.yul\":2538:2543   */\n      dup7\n        /* \"#utility.yul\":2534:2550   */\n      add\n        /* \"#utility.yul\":2499:2564   */\n      tag_114\n      jump\t// in\n    tag_184:\n        /* \"#utility.yul\":2589:2618   */\n      tag_185\n        /* \"#utility.yul\":2611:2617   */\n      dup2\n        /* \"#utility.yul\":2589:2618   */\n      tag_115\n      jump\t// in\n    tag_185:\n        /* \"#utility.yul\":2584:2587   */\n      dup5\n        /* \"#utility.yul\":2580:2619   */\n      add\n        /* \"#utility.yul\":2573:2619   */\n      swap2\n      pop\n        /* \"#utility.yul\":2340:2625   */\n      pop\n        /* \"#utility.yul\":2248:2625   */\n      swap3\n      swap2\n      pop\n      pop\n      jump\t// out\n        /* \"#utility.yul\":2631:2743   */\n    tag_117:\n        /* \"#utility.yul\":2714:2736   */\n      tag_187\n        /* \"#utility.yul\":2730:2735   */\n      dup2\n        /* \"#utility.yul\":2714:2736   */\n      tag_106\n      jump\t// in\n    tag_187:\n        /* \"#utility.yul\":2709:2712   */\n      dup3\n        /* \"#utility.yul\":2702:2737   */\n      mstore\n        /* \"#utility.yul\":2631:2743   */\n      pop\n      pop\n      jump\t// out\n        /* \"#utility.yul\":2749:2839   */\n    tag_118:\n        /* \"#utility.yul\":2783:2790   */\n      0x00\n        /* \"#utility.yul\":2826:2831   */\n      dup2\n        /* \"#utility.yul\":2819:2832   */\n      iszero\n        /* \"#utility.yul\":2812:2833   */\n      iszero\n        /* \"#utility.yul\":2801:2833   */\n      swap1\n      pop\n        /* \"#utility.yul\":2749:2839   */\n      swap2\n      swap1\n      pop\n      jump\t// out\n        /* \"#utility.yul\":2845:2954   */\n    tag_119:\n        /* \"#utility.yul\":2926:2947   */\n      tag_190\n        /* \"#utility.yul\":2941:2946   */\n      dup2\n        /* \"#utility.yul\":2926:2947   */\n      tag_118\n      jump\t// in\n    tag_190:\n        /* \"#utility.yul\":2921:2924   */\n      dup3\n        /* \"#utility.yul\":2914:2948   */\n      mstore\n        /* \"#utility.yul\":2845:2954   */\n      pop\n      pop\n      jump\t// out\n        /* \"#utility.yul\":2960:3473   */\n    tag_32:\n        /* \"#utility.yul\":3119:3123   */\n      0x00\n        /* \"#utility.yul\":3157:3159   */\n      0x60\n        /* \"#utility.yul\":3146:3155   */\n      dup3\n        /* \"#utility.yul\":3142:3160   */\n      add\n        /* \"#utility.yul\":3134:3160   */\n      swap1\n      pop\n        /* \"#utility.yul\":3206:3215   */\n      dup2\n        /* \"#utility.yul\":3200:3204   */\n      dup2\n        /* \"#utility.yul\":3196:3216   */\n      sub\n        /* \"#utility.yul\":3192:3193   */\n      0x00\n        /* \"#utility.yul\":3181:3190   */\n      dup4\n        /* \"#utility.yul\":3177:3194   */\n      add\n        /* \"#utility.yul\":3170:3217   */\n      mstore\n        /* \"#utility.yul\":3234:3312   */\n      tag_192\n        /* \"#utility.yul\":3307:3311   */\n      dup2\n        /* \"#utility.yul\":3298:3304   */\n      dup7\n        /* \"#utility.yul\":3234:3312   */\n      tag_116\n      jump\t// in\n    tag_192:\n        /* \"#utility.yul\":3226:3312   */\n      swap1\n      pop\n        /* \"#utility.yul\":3322:3390   */\n      tag_193\n        /* \"#utility.yul\":3386:3388   */\n      0x20\n        /* \"#utility.yul\":3375:3384   */\n      dup4\n        /* \"#utility.yul\":3371:3389   */\n      add\n        /* \"#utility.yul\":3362:3368   */\n      dup6\n        /* \"#utility.yul\":3322:3390   */\n      tag_117\n      jump\t// in\n    tag_193:\n        /* \"#utility.yul\":3400:3466   */\n      tag_194\n        /* \"#utility.yul\":3462:3464   */\n      0x40\n        /* \"#utility.yul\":3451:3460   */\n      dup4\n        /* \"#utility.yul\":3447:3465   */\n      add\n        /* \"#utility.yul\":3438:3444   */\n      dup5\n        /* \"#utility.yul\":3400:3466   */\n      tag_119\n      jump\t// in\n    tag_194:\n        /* \"#utility.yul\":2960:3473   */\n      swap5\n      swap4\n      pop\n      pop\n      pop\n      pop\n      jump\t// out\n        /* \"#utility.yul\":3479:3596   */\n    tag_120:\n        /* \"#utility.yul\":3588:3589   */\n      0x00\n        /* \"#utility.yul\":3585:3586   */\n      dup1\n        /* \"#utility.yul\":3578:3590   */\n      revert\n        /* \"#utility.yul\":3602:3719   */\n    tag_121:\n        /* \"#utility.yul\":3711:3712   */\n      0x00\n        /* \"#utility.yul\":3708:3709   */\n      dup1\n        /* \"#utility.yul\":3701:3713   */\n      revert\n        /* \"#utility.yul\":3725:3905   */\n    tag_122:\n        /* \"#utility.yul\":3773:3850   */\n      0x4e487b7100000000000000000000000000000000000000000000000000000000\n        /* \"#utility.yul\":3770:3771   */\n      0x00\n        /* \"#utility.yul\":3763:3851   */\n      mstore\n        /* \"#utility.yul\":3870:3874   */\n      0x41\n        /* \"#utility.yul\":3867:3868   */\n      0x04\n        /* \"#utility.yul\":3860:3875   */\n      mstore\n        /* \"#utility.yul\":3894:3898   */\n      0x24\n        /* \"#utility.yul\":3891:3892   */\n      0x00\n        /* \"#utility.yul\":3884:3899   */\n      revert\n        /* \"#utility.yul\":3911:4192   */\n    tag_123:\n        /* \"#utility.yul\":3994:4021   */\n      tag_199\n        /* \"#utility.yul\":4016:4020   */\n      dup3\n        /* \"#utility.yul\":3994:4021   */\n      tag_115\n      jump\t// in\n    tag_199:\n        /* \"#utility.yul\":3986:3992   */\n      dup2\n        /* \"#utility.yul\":3982:4022   */\n      add\n        /* \"#utility.yul\":4124:4130   */\n      dup2\n        /* \"#utility.yul\":4112:4122   */\n      dup2\n        /* \"#utility.yul\":4109:4131   */\n      lt\n        /* \"#utility.yul\":4088:4106   */\n      0xffffffffffffffff\n        /* \"#utility.yul\":4076:4086   */\n      dup3\n        /* \"#utility.yul\":4073:4107   */\n      gt\n        /* \"#utility.yul\":4070:4132   */\n      or\n        /* \"#utility.yul\":4067:4155   */\n      iszero\n      tag_200\n      jumpi\n        /* \"#utility.yul\":4135:4153   */\n      tag_201\n      tag_122\n      jump\t// in\n    tag_201:\n        /* \"#utility.yul\":4067:4155   */\n    tag_200:\n        /* \"#utility.yul\":4175:4185   */\n      dup1\n        /* \"#utility.yul\":4171:4173   */\n      0x40\n        /* \"#utility.yul\":4164:4186   */\n      mstore\n        /* \"#utility.yul\":3954:4192   */\n      pop\n        /* \"#utility.yul\":3911:4192   */\n      pop\n      pop\n      jump\t// out\n        /* \"#utility.yul\":4198:4327   */\n    tag_124:\n        /* \"#utility.yul\":4232:4238   */\n      0x00\n        /* \"#utility.yul\":4259:4279   */\n      tag_203\n      tag_103\n      jump\t// in\n    tag_203:\n        /* \"#utility.yul\":4249:4279   */\n      swap1\n      pop\n        /* \"#utility.yul\":4288:4321   */\n      tag_204\n        /* \"#utility.yul\":4316:4320   */\n      dup3\n        /* \"#utility.yul\":4308:4314   */\n      dup3\n        /* \"#utility.yul\":4288:4321   */\n      tag_123\n      jump\t// in\n    tag_204:\n        /* \"#utility.yul\":4198:4327   */\n      swap2\n      swap1\n      pop\n      jump\t// out\n        /* \"#utility.yul\":4333:4641   */\n    tag_125:\n        /* \"#utility.yul\":4395:4399   */\n      0x00\n        /* \"#utility.yul\":4485:4503   */\n      0xffffffffffffffff\n        /* \"#utility.yul\":4477:4483   */\n      dup3\n        /* \"#utility.yul\":4474:4504   */\n      gt\n        /* \"#utility.yul\":4471:4527   */\n      iszero\n      tag_206\n      jumpi\n        /* \"#utility.yul\":4507:4525   */\n      tag_207\n      tag_122\n      jump\t// in\n    tag_207:\n        /* \"#utility.yul\":4471:4527   */\n    tag_206:\n        /* \"#utility.yul\":4545:4574   */\n      tag_208\n        /* \"#utility.yul\":4567:4573   */\n      dup3\n        /* \"#utility.yul\":4545:4574   */\n      tag_115\n      jump\t// in\n    tag_208:\n        /* \"#utility.yul\":4537:4574   */\n      swap1\n      pop\n        /* \"#utility.yul\":4629:4633   */\n      0x20\n        /* \"#utility.yul\":4623:4627   */\n      dup2\n        /* \"#utility.yul\":4619:4634   */\n      add\n        /* \"#utility.yul\":4611:4634   */\n      swap1\n      pop\n        /* \"#utility.yul\":4333:4641   */\n      swap2\n      swap1\n      pop\n      jump\t// out\n        /* \"#utility.yul\":4647:4793   */\n    tag_126:\n        /* \"#utility.yul\":4744:4750   */\n      dup3\n        /* \"#utility.yul\":4739:4742   */\n      dup2\n        /* \"#utility.yul\":4734:4737   */\n      dup4\n        /* \"#utility.yul\":4721:4751   */\n      calldatacopy\n        /* \"#utility.yul\":4785:4786   */\n      0x00\n        /* \"#utility.yul\":4776:4782   */\n      dup4\n        /* \"#utility.yul\":4771:4774   */\n      dup4\n        /* \"#utility.yul\":4767:4783   */\n      add\n        /* \"#utility.yul\":4760:4787   */\n      mstore\n        /* \"#utility.yul\":4647:4793   */\n      pop\n      pop\n      pop\n      jump\t// out\n        /* \"#utility.yul\":4799:5224   */\n    tag_127:\n        /* \"#utility.yul\":4877:4882   */\n      0x00\n        /* \"#utility.yul\":4902:4968   */\n      tag_211\n        /* \"#utility.yul\":4918:4967   */\n      tag_212\n        /* \"#utility.yul\":4960:4966   */\n      dup5\n        /* \"#utility.yul\":4918:4967   */\n      tag_125\n      jump\t// in\n    tag_212:\n        /* \"#utility.yul\":4902:4968   */\n      tag_124\n      jump\t// in\n    tag_211:\n        /* \"#utility.yul\":4893:4968   */\n      swap1\n      pop\n        /* \"#utility.yul\":4991:4997   */\n      dup3\n        /* \"#utility.yul\":4984:4989   */\n      dup2\n        /* \"#utility.yul\":4977:4998   */\n      mstore\n        /* \"#utility.yul\":5029:5033   */\n      0x20\n        /* \"#utility.yul\":5022:5027   */\n      dup2\n        /* \"#utility.yul\":5018:5034   */\n      add\n        /* \"#utility.yul\":5067:5070   */\n      dup5\n        /* \"#utility.yul\":5058:5064   */\n      dup5\n        /* \"#utility.yul\":5053:5056   */\n      dup5\n        /* \"#utility.yul\":5049:5065   */\n      add\n        /* \"#utility.yul\":5046:5071   */\n      gt\n        /* \"#utility.yul\":5043:5155   */\n      iszero\n      tag_213\n      jumpi\n        /* \"#utility.yul\":5074:5153   */\n      tag_214\n      tag_121\n      jump\t// in\n    tag_214:\n        /* \"#utility.yul\":5043:5155   */\n    tag_213:\n        /* \"#utility.yul\":5164:5218   */\n      tag_215\n        /* \"#utility.yul\":5211:5217   */\n      dup5\n        /* \"#utility.yul\":5206:5209   */\n      dup3\n        /* \"#utility.yul\":5201:5204   */\n      dup6\n        /* \"#utility.yul\":5164:5218   */\n      tag_126\n      jump\t// in\n    tag_215:\n        /* \"#utility.yul\":4883:5224   */\n      pop\n        /* \"#utility.yul\":4799:5224   */\n      swap4\n      swap3\n      pop\n      pop\n      pop\n      jump\t// out\n        /* \"#utility.yul\":5244:5584   */\n    tag_128:\n        /* \"#utility.yul\":5300:5305   */\n      0x00\n        /* \"#utility.yul\":5349:5352   */\n      dup3\n        /* \"#utility.yul\":5342:5346   */\n      0x1f\n        /* \"#utility.yul\":5334:5340   */\n      dup4\n        /* \"#utility.yul\":5330:5347   */\n      add\n        /* \"#utility.yul\":5326:5353   */\n      slt\n        /* \"#utility.yul\":5316:5438   */\n      tag_217\n      jumpi\n        /* \"#utility.yul\":5357:5436   */\n      tag_218\n      tag_120\n      jump\t// in\n    tag_218:\n        /* \"#utility.yul\":5316:5438   */\n    tag_217:\n        /* \"#utility.yul\":5474:5480   */\n      dup2\n        /* \"#utility.yul\":5461:5481   */\n      calldataload\n        /* \"#utility.yul\":5499:5578   */\n      tag_219\n        /* \"#utility.yul\":5574:5577   */\n      dup5\n        /* \"#utility.yul\":5566:5572   */\n      dup3\n        /* \"#utility.yul\":5559:5563   */\n      0x20\n        /* \"#utility.yul\":5551:5557   */\n      dup7\n        /* \"#utility.yul\":5547:5564   */\n      add\n        /* \"#utility.yul\":5499:5578   */\n      tag_127\n      jump\t// in\n    tag_219:\n        /* \"#utility.yul\":5490:5578   */\n      swap2\n      pop\n        /* \"#utility.yul\":5306:5584   */\n      pop\n        /* \"#utility.yul\":5244:5584   */\n      swap3\n      swap2\n      pop\n      pop\n      jump\t// out\n        /* \"#utility.yul\":5590:6099   */\n    tag_36:\n        /* \"#utility.yul\":5659:5665   */\n      0x00\n        /* \"#utility.yul\":5708:5710   */\n      0x20\n        /* \"#utility.yul\":5696:5705   */\n      dup3\n        /* \"#utility.yul\":5687:5694   */\n      dup5\n        /* \"#utility.yul\":5683:5706   */\n      sub\n        /* \"#utility.yul\":5679:5711   */\n      slt\n        /* \"#utility.yul\":5676:5795   */\n      iszero\n      tag_221\n      jumpi\n        /* \"#utility.yul\":5714:5793   */\n      tag_222\n      tag_104\n      jump\t// in\n    tag_222:\n        /* \"#utility.yul\":5676:5795   */\n    tag_221:\n        /* \"#utility.yul\":5862:5863   */\n      0x00\n        /* \"#utility.yul\":5851:5860   */\n      dup3\n        /* \"#utility.yul\":5847:5864   */\n      add\n        /* \"#utility.yul\":5834:5865   */\n      calldataload\n        /* \"#utility.yul\":5892:5910   */\n      0xffffffffffffffff\n        /* \"#utility.yul\":5884:5890   */\n      dup2\n        /* \"#utility.yul\":5881:5911   */\n      gt\n        /* \"#utility.yul\":5878:5995   */\n      iszero\n      tag_223\n      jumpi\n        /* \"#utility.yul\":5914:5993   */\n      tag_224\n      tag_105\n      jump\t// in\n    tag_224:\n        /* \"#utility.yul\":5878:5995   */\n    tag_223:\n        /* \"#utility.yul\":6019:6082   */\n      tag_225\n        /* \"#utility.yul\":6074:6081   */\n      dup5\n        /* \"#utility.yul\":6065:6071   */\n      dup3\n        /* \"#utility.yul\":6054:6063   */\n      dup6\n        /* \"#utility.yul\":6050:6072   */\n      add\n        /* \"#utility.yul\":6019:6082   */\n      tag_128\n      jump\t// in\n    tag_225:\n        /* \"#utility.yul\":6009:6082   */\n      swap2\n      pop\n        /* \"#utility.yul\":5805:6092   */\n      pop\n        /* \"#utility.yul\":5590:6099   */\n      swap3\n      swap2\n      pop\n      pop\n      jump\t// out\n        /* \"#utility.yul\":6105:6329   */\n    tag_129:\n        /* \"#utility.yul\":6245:6279   */\n      0x4f6e6c7920746865206f776e65722063616e2063616c6c20746869732066756e\n        /* \"#utility.yul\":6241:6242   */\n      0x00\n        /* \"#utility.yul\":6233:6239   */\n      dup3\n        /* \"#utility.yul\":6229:6243   */\n      add\n        /* \"#utility.yul\":6222:6280   */\n      mstore\n        /* \"#utility.yul\":6314:6321   */\n      0x6374696f6e000000000000000000000000000000000000000000000000000000\n        /* \"#utility.yul\":6309:6311   */\n      0x20\n        /* \"#utility.yul\":6301:6307   */\n      dup3\n        /* \"#utility.yul\":6297:6312   */\n      add\n        /* \"#utility.yul\":6290:6322   */\n      mstore\n        /* \"#utility.yul\":6105:6329   */\n      pop\n      jump\t// out\n        /* \"#utility.yul\":6335:6701   */\n    tag_130:\n        /* \"#utility.yul\":6477:6480   */\n      0x00\n        /* \"#utility.yul\":6498:6565   */\n      tag_228\n        /* \"#utility.yul\":6562:6564   */\n      0x25\n        /* \"#utility.yul\":6557:6560   */\n      dup4\n        /* \"#utility.yul\":6498:6565   */\n      tag_113\n      jump\t// in\n    tag_228:\n        /* \"#utility.yul\":6491:6565   */\n      swap2\n      pop\n        /* \"#utility.yul\":6574:6667   */\n      tag_229\n        /* \"#utility.yul\":6663:6666   */\n      dup3\n        /* \"#utility.yul\":6574:6667   */\n      tag_129\n      jump\t// in\n    tag_229:\n        /* \"#utility.yul\":6692:6694   */\n      0x40\n        /* \"#utility.yul\":6687:6690   */\n      dup3\n        /* \"#utility.yul\":6683:6695   */\n      add\n        /* \"#utility.yul\":6676:6695   */\n      swap1\n      pop\n        /* \"#utility.yul\":6335:6701   */\n      swap2\n      swap1\n      pop\n      jump\t// out\n        /* \"#utility.yul\":6707:7126   */\n    tag_41:\n        /* \"#utility.yul\":6873:6877   */\n      0x00\n        /* \"#utility.yul\":6911:6913   */\n      0x20\n        /* \"#utility.yul\":6900:6909   */\n      dup3\n        /* \"#utility.yul\":6896:6914   */\n      add\n        /* \"#utility.yul\":6888:6914   */\n      swap1\n      pop\n        /* \"#utility.yul\":6960:6969   */\n      dup2\n        /* \"#utility.yul\":6954:6958   */\n      dup2\n        /* \"#utility.yul\":6950:6970   */\n      sub\n        /* \"#utility.yul\":6946:6947   */\n      0x00\n        /* \"#utility.yul\":6935:6944   */\n      dup4\n        /* \"#utility.yul\":6931:6948   */\n      add\n        /* \"#utility.yul\":6924:6971   */\n      mstore\n        /* \"#utility.yul\":6988:7119   */\n      tag_231\n        /* \"#utility.yul\":7114:7118   */\n      dup2\n        /* \"#utility.yul\":6988:7119   */\n      tag_130\n      jump\t// in\n    tag_231:\n        /* \"#utility.yul\":6980:7119   */\n      swap1\n      pop\n        /* \"#utility.yul\":6707:7126   */\n      swap2\n      swap1\n      pop\n      jump\t// out\n        /* \"#utility.yul\":7132:7302   */\n    tag_131:\n        /* \"#utility.yul\":7272:7294   */\n      0x47616d65206973206e6f7420796574206f766572000000000000000000000000\n        /* \"#utility.yul\":7268:7269   */\n      0x00\n        /* \"#utility.yul\":7260:7266   */\n      dup3\n        /* \"#utility.yul\":7256:7270   */\n      add\n        /* \"#utility.yul\":7249:7295   */\n      mstore\n        /* \"#utility.yul\":7132:7302   */\n      pop\n      jump\t// out\n        /* \"#utility.yul\":7308:7674   */\n    tag_132:\n        /* \"#utility.yul\":7450:7453   */\n      0x00\n        /* \"#utility.yul\":7471:7538   */\n      tag_234\n        /* \"#utility.yul\":7535:7537   */\n      0x14\n        /* \"#utility.yul\":7530:7533   */\n      dup4\n        /* \"#utility.yul\":7471:7538   */\n      tag_113\n      jump\t// in\n    tag_234:\n        /* \"#utility.yul\":7464:7538   */\n      swap2\n      pop\n        /* \"#utility.yul\":7547:7640   */\n      tag_235\n        /* \"#utility.yul\":7636:7639   */\n      dup3\n        /* \"#utility.yul\":7547:7640   */\n      tag_131\n      jump\t// in\n    tag_235:\n        /* \"#utility.yul\":7665:7667   */\n      0x20\n        /* \"#utility.yul\":7660:7663   */\n      dup3\n        /* \"#utility.yul\":7656:7668   */\n      add\n        /* \"#utility.yul\":7649:7668   */\n      swap1\n      pop\n        /* \"#utility.yul\":7308:7674   */\n      swap2\n      swap1\n      pop\n      jump\t// out\n        /* \"#utility.yul\":7680:8099   */\n    tag_51:\n        /* \"#utility.yul\":7846:7850   */\n      0x00\n        /* \"#utility.yul\":7884:7886   */\n      0x20\n        /* \"#utility.yul\":7873:7882   */\n      dup3\n        /* \"#utility.yul\":7869:7887   */\n      add\n        /* \"#utility.yul\":7861:7887   */\n      swap1\n      pop\n        /* \"#utility.yul\":7933:7942   */\n      dup2\n        /* \"#utility.yul\":7927:7931   */\n      dup2\n        /* \"#utility.yul\":7923:7943   */\n      sub\n        /* \"#utility.yul\":7919:7920   */\n      0x00\n        /* \"#utility.yul\":7908:7917   */\n      dup4\n        /* \"#utility.yul\":7904:7921   */\n      add\n        /* \"#utility.yul\":7897:7944   */\n      mstore\n        /* \"#utility.yul\":7961:8092   */\n      tag_237\n        /* \"#utility.yul\":8087:8091   */\n      dup2\n        /* \"#utility.yul\":7961:8092   */\n      tag_132\n      jump\t// in\n    tag_237:\n        /* \"#utility.yul\":7953:8092   */\n      swap1\n      pop\n        /* \"#utility.yul\":7680:8099   */\n      swap2\n      swap1\n      pop\n      jump\t// out\n        /* \"#utility.yul\":8105:8285   */\n    tag_57:\n        /* \"#utility.yul\":8153:8230   */\n      0x4e487b7100000000000000000000000000000000000000000000000000000000\n        /* \"#utility.yul\":8150:8151   */\n      0x00\n        /* \"#utility.yul\":8143:8231   */\n      mstore\n        /* \"#utility.yul\":8250:8254   */\n      0x32\n        /* \"#utility.yul\":8247:8248   */\n      0x04\n        /* \"#utility.yul\":8240:8255   */\n      mstore\n        /* \"#utility.yul\":8274:8278   */\n      0x24\n        /* \"#utility.yul\":8271:8272   */\n      0x00\n        /* \"#utility.yul\":8264:8279   */\n      revert\n        /* \"#utility.yul\":8291:8471   */\n    tag_133:\n        /* \"#utility.yul\":8339:8416   */\n      0x4e487b7100000000000000000000000000000000000000000000000000000000\n        /* \"#utility.yul\":8336:8337   */\n      0x00\n        /* \"#utility.yul\":8329:8417   */\n      mstore\n        /* \"#utility.yul\":8436:8440   */\n      0x22\n        /* \"#utility.yul\":8433:8434   */\n      0x04\n        /* \"#utility.yul\":8426:8441   */\n      mstore\n        /* \"#utility.yul\":8460:8464   */\n      0x24\n        /* \"#utility.yul\":8457:8458   */\n      0x00\n        /* \"#utility.yul\":8450:8465   */\n      revert\n        /* \"#utility.yul\":8477:8797   */\n    tag_60:\n        /* \"#utility.yul\":8521:8527   */\n      0x00\n        /* \"#utility.yul\":8558:8559   */\n      0x02\n        /* \"#utility.yul\":8552:8556   */\n      dup3\n        /* \"#utility.yul\":8548:8560   */\n      div\n        /* \"#utility.yul\":8538:8560   */\n      swap1\n      pop\n        /* \"#utility.yul\":8605:8606   */\n      0x01\n        /* \"#utility.yul\":8599:8603   */\n      dup3\n        /* \"#utility.yul\":8595:8607   */\n      and\n        /* \"#utility.yul\":8626:8644   */\n      dup1\n        /* \"#utility.yul\":8616:8697   */\n      tag_241\n      jumpi\n        /* \"#utility.yul\":8682:8686   */\n      0x7f\n        /* \"#utility.yul\":8674:8680   */\n      dup3\n        /* \"#utility.yul\":8670:8687   */\n      and\n        /* \"#utility.yul\":8660:8687   */\n      swap2\n      pop\n        /* \"#utility.yul\":8616:8697   */\n    tag_241:\n        /* \"#utility.yul\":8744:8746   */\n      0x20\n        /* \"#utility.yul\":8736:8742   */\n      dup3\n        /* \"#utility.yul\":8733:8747   */\n      lt\n        /* \"#utility.yul\":8713:8731   */\n      dup2\n        /* \"#utility.yul\":8710:8748   */\n      sub\n        /* \"#utility.yul\":8707:8791   */\n      tag_242\n      jumpi\n        /* \"#utility.yul\":8763:8781   */\n      tag_243\n      tag_133\n      jump\t// in\n    tag_243:\n        /* \"#utility.yul\":8707:8791   */\n    tag_242:\n        /* \"#utility.yul\":8528:8797   */\n      pop\n        /* \"#utility.yul\":8477:8797   */\n      swap2\n      swap1\n      pop\n      jump\t// out\n        /* \"#utility.yul\":8803:8983   */\n    tag_134:\n        /* \"#utility.yul\":8943:8975   */\n      0x47616d65206973206f766572202d206e6f206265747320616c6c6f7765640000\n        /* \"#utility.yul\":8939:8940   */\n      0x00\n        /* \"#utility.yul\":8931:8937   */\n      dup3\n        /* \"#utility.yul\":8927:8941   */\n      add\n        /* \"#utility.yul\":8920:8976   */\n      mstore\n        /* \"#utility.yul\":8803:8983   */\n      pop\n      jump\t// out\n        /* \"#utility.yul\":8989:9355   */\n    tag_135:\n        /* \"#utility.yul\":9131:9134   */\n      0x00\n        /* \"#utility.yul\":9152:9219   */\n      tag_246\n        /* \"#utility.yul\":9216:9218   */\n      0x1e\n        /* \"#utility.yul\":9211:9214   */\n      dup4\n        /* \"#utility.yul\":9152:9219   */\n      tag_113\n      jump\t// in\n    tag_246:\n        /* \"#utility.yul\":9145:9219   */\n      swap2\n      pop\n        /* \"#utility.yul\":9228:9321   */\n      tag_247\n        /* \"#utility.yul\":9317:9320   */\n      dup3\n        /* \"#utility.yul\":9228:9321   */\n      tag_134\n      jump\t// in\n    tag_247:\n        /* \"#utility.yul\":9346:9348   */\n      0x20\n        /* \"#utility.yul\":9341:9344   */\n      dup3\n        /* \"#utility.yul\":9337:9349   */\n      add\n        /* \"#utility.yul\":9330:9349   */\n      swap1\n      pop\n        /* \"#utility.yul\":8989:9355   */\n      swap2\n      swap1\n      pop\n      jump\t// out\n        /* \"#utility.yul\":9361:9780   */\n    tag_71:\n        /* \"#utility.yul\":9527:9531   */\n      0x00\n        /* \"#utility.yul\":9565:9567   */\n      0x20\n        /* \"#utility.yul\":9554:9563   */\n      dup3\n        /* \"#utility.yul\":9550:9568   */\n      add\n        /* \"#utility.yul\":9542:9568   */\n      swap1\n      pop\n        /* \"#utility.yul\":9614:9623   */\n      dup2\n        /* \"#utility.yul\":9608:9612   */\n      dup2\n        /* \"#utility.yul\":9604:9624   */\n      sub\n        /* \"#utility.yul\":9600:9601   */\n      0x00\n        /* \"#utility.yul\":9589:9598   */\n      dup4\n        /* \"#utility.yul\":9585:9602   */\n      add\n        /* \"#utility.yul\":9578:9625   */\n      mstore\n        /* \"#utility.yul\":9642:9773   */\n      tag_249\n        /* \"#utility.yul\":9768:9772   */\n      dup2\n        /* \"#utility.yul\":9642:9773   */\n      tag_135\n      jump\t// in\n    tag_249:\n        /* \"#utility.yul\":9634:9773   */\n      swap1\n      pop\n        /* \"#utility.yul\":9361:9780   */\n      swap2\n      swap1\n      pop\n      jump\t// out\n        /* \"#utility.yul\":9786:9863   */\n    tag_136:\n        /* \"#utility.yul\":9823:9830   */\n      0x00\n        /* \"#utility.yul\":9852:9857   */\n      dup2\n        /* \"#utility.yul\":9841:9857   */\n      swap1\n      pop\n        /* \"#utility.yul\":9786:9863   */\n      swap2\n      swap1\n      pop\n      jump\t// out\n        /* \"#utility.yul\":9869:10049   */\n    tag_137:\n        /* \"#utility.yul\":9917:9994   */\n      0x4e487b7100000000000000000000000000000000000000000000000000000000\n        /* \"#utility.yul\":9914:9915   */\n      0x00\n        /* \"#utility.yul\":9907:9995   */\n      mstore\n        /* \"#utility.yul\":10014:10018   */\n      0x11\n        /* \"#utility.yul\":10011:10012   */\n      0x04\n        /* \"#utility.yul\":10004:10019   */\n      mstore\n        /* \"#utility.yul\":10038:10042   */\n      0x24\n        /* \"#utility.yul\":10035:10036   */\n      0x00\n        /* \"#utility.yul\":10028:10043   */\n      revert\n        /* \"#utility.yul\":10055:10246   */\n    tag_73:\n        /* \"#utility.yul\":10095:10098   */\n      0x00\n        /* \"#utility.yul\":10114:10134   */\n      tag_253\n        /* \"#utility.yul\":10132:10133   */\n      dup3\n        /* \"#utility.yul\":10114:10134   */\n      tag_136\n      jump\t// in\n    tag_253:\n        /* \"#utility.yul\":10109:10134   */\n      swap2\n      pop\n        /* \"#utility.yul\":10148:10168   */\n      tag_254\n        /* \"#utility.yul\":10166:10167   */\n      dup4\n        /* \"#utility.yul\":10148:10168   */\n      tag_136\n      jump\t// in\n    tag_254:\n        /* \"#utility.yul\":10143:10168   */\n      swap3\n      pop\n        /* \"#utility.yul\":10191:10192   */\n      dup3\n        /* \"#utility.yul\":10188:10189   */\n      dup3\n        /* \"#utility.yul\":10184:10193   */\n      add\n        /* \"#utility.yul\":10177:10193   */\n      swap1\n      pop\n        /* \"#utility.yul\":10212:10215   */\n      dup1\n        /* \"#utility.yul\":10209:10210   */\n      dup3\n        /* \"#utility.yul\":10206:10216   */\n      gt\n        /* \"#utility.yul\":10203:10239   */\n      iszero\n      tag_255\n      jumpi\n        /* \"#utility.yul\":10219:10237   */\n      tag_256\n      tag_137\n      jump\t// in\n    tag_256:\n        /* \"#utility.yul\":10203:10239   */\n    tag_255:\n        /* \"#utility.yul\":10055:10246   */\n      swap3\n      swap2\n      pop\n      pop\n      jump\t// out\n        /* \"#utility.yul\":10252:10393   */\n    tag_138:\n        /* \"#utility.yul\":10301:10305   */\n      0x00\n        /* \"#utility.yul\":10324:10327   */\n      dup2\n        /* \"#utility.yul\":10316:10327   */\n      swap1\n      pop\n        /* \"#utility.yul\":10347:10350   */\n      dup2\n        /* \"#utility.yul\":10344:10345   */\n      0x00\n        /* \"#utility.yul\":10337:10351   */\n      mstore\n        /* \"#utility.yul\":10381:10385   */\n      0x20\n        /* \"#utility.yul\":10378:10379   */\n      0x00\n        /* \"#utility.yul\":10368:10386   */\n      keccak256\n        /* \"#utility.yul\":10360:10386   */\n      swap1\n      pop\n        /* \"#utility.yul\":10252:10393   */\n      swap2\n      swap1\n      pop\n      jump\t// out\n        /* \"#utility.yul\":10399:10492   */\n    tag_139:\n        /* \"#utility.yul\":10436:10442   */\n      0x00\n        /* \"#utility.yul\":10483:10485   */\n      0x20\n        /* \"#utility.yul\":10478:10480   */\n      0x1f\n        /* \"#utility.yul\":10471:10476   */\n      dup4\n        /* \"#utility.yul\":10467:10481   */\n      add\n        /* \"#utility.yul\":10463:10486   */\n      div\n        /* \"#utility.yul\":10453:10486   */\n      swap1\n      pop\n        /* \"#utility.yul\":10399:10492   */\n      swap2\n      swap1\n      pop\n      jump\t// out\n        /* \"#utility.yul\":10498:10605   */\n    tag_140:\n        /* \"#utility.yul\":10542:10550   */\n      0x00\n        /* \"#utility.yul\":10592:10597   */\n      dup3\n        /* \"#utility.yul\":10586:10590   */\n      dup3\n        /* \"#utility.yul\":10582:10598   */\n      shl\n        /* \"#utility.yul\":10561:10598   */\n      swap1\n      pop\n        /* \"#utility.yul\":10498:10605   */\n      swap3\n      swap2\n      pop\n      pop\n      jump\t// out\n        /* \"#utility.yul\":10611:11004   */\n    tag_141:\n        /* \"#utility.yul\":10680:10686   */\n      0x00\n        /* \"#utility.yul\":10730:10731   */\n      0x08\n        /* \"#utility.yul\":10718:10728   */\n      dup4\n        /* \"#utility.yul\":10714:10732   */\n      mul\n        /* \"#utility.yul\":10753:10850   */\n      tag_261\n        /* \"#utility.yul\":10783:10849   */\n      0xffffffffffffffffffffffffffffffffffffffffffffffffffffffffffffffff\n        /* \"#utility.yul\":10772:10781   */\n      dup3\n        /* \"#utility.yul\":10753:10850   */\n      tag_140\n      jump\t// in\n    tag_261:\n        /* \"#utility.yul\":10871:10910   */\n      tag_262\n        /* \"#utility.yul\":10901:10909   */\n      dup7\n        /* \"#utility.yul\":10890:10899   */\n      dup4\n        /* \"#utility.yul\":10871:10910   */\n      tag_140\n      jump\t// in\n    tag_262:\n        /* \"#utility.yul\":10859:10910   */\n      swap6\n      pop\n        /* \"#utility.yul\":10943:10947   */\n      dup1\n        /* \"#utility.yul\":10939:10948   */\n      not\n        /* \"#utility.yul\":10932:10937   */\n      dup5\n        /* \"#utility.yul\":10928:10949   */\n      and\n        /* \"#utility.yul\":10919:10949   */\n      swap4\n      pop\n        /* \"#utility.yul\":10992:10996   */\n      dup1\n        /* \"#utility.yul\":10982:10990   */\n      dup7\n        /* \"#utility.yul\":10978:10997   */\n      and\n        /* \"#utility.yul\":10971:10976   */\n      dup5\n        /* \"#utility.yul\":10968:10998   */\n      or\n        /* \"#utility.yul\":10958:10998   */\n      swap3\n      pop\n        /* \"#utility.yul\":10687:11004   */\n      pop\n      pop\n        /* \"#utility.yul\":10611:11004   */\n      swap4\n      swap3\n      pop\n      pop\n      pop\n      jump\t// out\n        /* \"#utility.yul\":11010:11070   */\n    tag_142:\n        /* \"#utility.yul\":11038:11041   */\n      0x00\n        /* \"#utility.yul\":11059:11064   */\n      dup2\n        /* \"#utility.yul\":11052:11064   */\n      swap1\n      pop\n        /* \"#utility.yul\":11010:11070   */\n      swap2\n      swap1\n      pop\n      jump\t// out\n        /* \"#utility.yul\":11076:11218   */\n    tag_143:\n        /* \"#utility.yul\":11126:11135   */\n      0x00\n        /* \"#utility.yul\":11159:11212   */\n      tag_265\n        /* \"#utility.yul\":11177:11211   */\n      tag_266\n        /* \"#utility.yul\":11186:11210   */\n      tag_267\n        /* \"#utility.yul\":11204:11209   */\n      dup5\n        /* \"#utility.yul\":11186:11210   */\n      tag_136\n      jump\t// in\n    tag_267:\n        /* \"#utility.yul\":11177:11211   */\n      tag_142\n      jump\t// in\n    tag_266:\n        /* \"#utility.yul\":11159:11212   */\n      tag_136\n      jump\t// in\n    tag_265:\n        /* \"#utility.yul\":11146:11212   */\n      swap1\n      pop\n        /* \"#utility.yul\":11076:11218   */\n      swap2\n      swap1\n      pop\n      jump\t// out\n        /* \"#utility.yul\":11224:11299   */\n    tag_144:\n        /* \"#utility.yul\":11267:11270   */\n      0x00\n        /* \"#utility.yul\":11288:11293   */\n      dup2\n        /* \"#utility.yul\":11281:11293   */\n      swap1\n      pop\n        /* \"#utility.yul\":11224:11299   */\n      swap2\n      swap1\n      pop\n      jump\t// out\n        /* \"#utility.yul\":11305:11574   */\n    tag_145:\n        /* \"#utility.yul\":11415:11454   */\n      tag_270\n        /* \"#utility.yul\":11446:11453   */\n      dup4\n        /* \"#utility.yul\":11415:11454   */\n      tag_143\n      jump\t// in\n    tag_270:\n        /* \"#utility.yul\":11476:11567   */\n      tag_271\n        /* \"#utility.yul\":11525:11566   */\n      tag_272\n        /* \"#utility.yul\":11549:11565   */\n      dup3\n        /* \"#utility.yul\":11525:11566   */\n      tag_144\n      jump\t// in\n    tag_272:\n        /* \"#utility.yul\":11517:11523   */\n      dup5\n        /* \"#utility.yul\":11510:11514   */\n      dup5\n        /* \"#utility.yul\":11504:11515   */\n      sload\n        /* \"#utility.yul\":11476:11567   */\n      tag_141\n      jump\t// in\n    tag_271:\n        /* \"#utility.yul\":11470:11474   */\n      dup3\n        /* \"#utility.yul\":11463:11568   */\n      sstore\n        /* \"#utility.yul\":11381:11574   */\n      pop\n        /* \"#utility.yul\":11305:11574   */\n      pop\n      pop\n      pop\n      jump\t// out\n        /* \"#utility.yul\":11580:11653   */\n    tag_146:\n        /* \"#utility.yul\":11625:11628   */\n      0x00\n        /* \"#utility.yul\":11580:11653   */\n      swap1\n      jump\t// out\n        /* \"#utility.yul\":11659:11848   */\n    tag_147:\n        /* \"#utility.yul\":11736:11768   */\n      tag_275\n      tag_146\n      jump\t// in\n    tag_275:\n        /* \"#utility.yul\":11777:11842   */\n      tag_276\n        /* \"#utility.yul\":11835:11841   */\n      dup2\n        /* \"#utility.yul\":11827:11833   */\n      dup5\n        /* \"#utility.yul\":11821:11825   */\n      dup5\n        /* \"#utility.yul\":11777:11842   */\n      tag_145\n      jump\t// in\n    tag_276:\n        /* \"#utility.yul\":11712:11848   */\n      pop\n        /* \"#utility.yul\":11659:11848   */\n      pop\n      pop\n      jump\t// out\n        /* \"#utility.yul\":11854:12040   */\n    tag_148:\n        /* \"#utility.yul\":11914:12034   */\n    tag_278:\n        /* \"#utility.yul\":11931:11934   */\n      dup2\n        /* \"#utility.yul\":11924:11929   */\n      dup2\n        /* \"#utility.yul\":11921:11935   */\n      lt\n        /* \"#utility.yul\":11914:12034   */\n      iszero\n      tag_280\n      jumpi\n        /* \"#utility.yul\":11985:12024   */\n      tag_281\n        /* \"#utility.yul\":12022:12023   */\n      0x00\n        /* \"#utility.yul\":12015:12020   */\n      dup3\n        /* \"#utility.yul\":11985:12024   */\n      tag_147\n      jump\t// in\n    tag_281:\n        /* \"#utility.yul\":11958:11959   */\n      0x01\n        /* \"#utility.yul\":11951:11956   */\n      dup2\n        /* \"#utility.yul\":11947:11960   */\n      add\n        /* \"#utility.yul\":11938:11960   */\n      swap1\n      pop\n        /* \"#utility.yul\":11914:12034   */\n      jump(tag_278)\n    tag_280:\n        /* \"#utility.yul\":11854:12040   */\n      pop\n      pop\n      jump\t// out\n        /* \"#utility.yul\":12046:12589   */\n    tag_149:\n        /* \"#utility.yul\":12147:12149   */\n      0x1f\n        /* \"#utility.yul\":12142:12145   */\n      dup3\n        /* \"#utility.yul\":12139:12150   */\n      gt\n        /* \"#utility.yul\":12136:12582   */\n      iszero\n      tag_283\n      jumpi\n        /* \"#utility.yul\":12181:12219   */\n      tag_284\n        /* \"#utility.yul\":12213:12218   */\n      dup2\n        /* \"#utility.yul\":12181:12219   */\n      tag_138\n      jump\t// in\n    tag_284:\n        /* \"#utility.yul\":12265:12294   */\n      tag_285\n        /* \"#utility.yul\":12283:12293   */\n      dup5\n        /* \"#utility.yul\":12265:12294   */\n      tag_139\n      jump\t// in\n    tag_285:\n        /* \"#utility.yul\":12255:12263   */\n      dup2\n        /* \"#utility.yul\":12251:12295   */\n      add\n        /* \"#utility.yul\":12448:12450   */\n      0x20\n        /* \"#utility.yul\":12436:12446   */\n      dup6\n        /* \"#utility.yul\":12433:12451   */\n      lt\n        /* \"#utility.yul\":12430:12479   */\n      iszero\n      tag_286\n      jumpi\n        /* \"#utility.yul\":12469:12477   */\n      dup2\n        /* \"#utility.yul\":12454:12477   */\n      swap1\n      pop\n        /* \"#utility.yul\":12430:12479   */\n    tag_286:\n        /* \"#utility.yul\":12492:12572   */\n      tag_287\n        /* \"#utility.yul\":12548:12570   */\n      tag_288\n        /* \"#utility.yul\":12566:12569   */\n      dup6\n        /* \"#utility.yul\":12548:12570   */\n      tag_139\n      jump\t// in\n    tag_288:\n        /* \"#utility.yul\":12538:12546   */\n      dup4\n        /* \"#utility.yul\":12534:12571   */\n      add\n        /* \"#utility.yul\":12521:12532   */\n      dup3\n        /* \"#utility.yul\":12492:12572   */\n      tag_148\n      jump\t// in\n    tag_287:\n        /* \"#utility.yul\":12151:12582   */\n      pop\n      pop\n        /* \"#utility.yul\":12136:12582   */\n    tag_283:\n        /* \"#utility.yul\":12046:12589   */\n      pop\n      pop\n      pop\n      jump\t// out\n        /* \"#utility.yul\":12595:12712   */\n    tag_150:\n        /* \"#utility.yul\":12649:12657   */\n      0x00\n        /* \"#utility.yul\":12699:12704   */\n      dup3\n        /* \"#utility.yul\":12693:12697   */\n      dup3\n        /* \"#utility.yul\":12689:12705   */\n      shr\n        /* \"#utility.yul\":12668:12705   */\n      swap1\n      pop\n        /* \"#utility.yul\":12595:12712   */\n      swap3\n      swap2\n      pop\n      pop\n      jump\t// out\n        /* \"#utility.yul\":12718:12887   */\n    tag_151:\n        /* \"#utility.yul\":12762:12768   */\n      0x00\n        /* \"#utility.yul\":12795:12846   */\n      tag_291\n        /* \"#utility.yul\":12843:12844   */\n      0x00\n        /* \"#utility.yul\":12839:12845   */\n      not\n        /* \"#utility.yul\":12831:12836   */\n      dup5\n        /* \"#utility.yul\":12828:12829   */\n      0x08\n        /* \"#utility.yul\":12824:12837   */\n      mul\n        /* \"#utility.yul\":12795:12846   */\n      tag_150\n      jump\t// in\n    tag_291:\n        /* \"#utility.yul\":12791:12847   */\n      not\n        /* \"#utility.yul\":12876:12880   */\n      dup1\n        /* \"#utility.yul\":12870:12874   */\n      dup4\n        /* \"#utility.yul\":12866:12881   */\n      and\n        /* \"#utility.yul\":12856:12881   */\n      swap2\n      pop\n        /* \"#utility.yul\":12769:12887   */\n      pop\n        /* \"#utility.yul\":12718:12887   */\n      swap3\n      swap2\n      pop\n      pop\n      jump\t// out\n        /* \"#utility.yul\":12892:13187   */\n    tag_152:\n        /* \"#utility.yul\":12968:12972   */\n      0x00\n        /* \"#utility.yul\":13114:13143   */\n      tag_293\n        /* \"#utility.yul\":13139:13142   */\n      dup4\n        /* \"#utility.yul\":13133:13137   */\n      dup4\n        /* \"#utility.yul\":13114:13143   */\n      tag_151\n      jump\t// in\n    tag_293:\n        /* \"#utility.yul\":13106:13143   */\n      swap2\n      pop\n        /* \"#utility.yul\":13176:13179   */\n      dup3\n        /* \"#utility.yul\":13173:13174   */\n      0x02\n        /* \"#utility.yul\":13169:13180   */\n      mul\n        /* \"#utility.yul\":13163:13167   */\n      dup3\n        /* \"#utility.yul\":13160:13181   */\n      or\n        /* \"#utility.yul\":13152:13181   */\n      swap1\n      pop\n        /* \"#utility.yul\":12892:13187   */\n      swap3\n      swap2\n      pop\n      pop\n      jump\t// out\n        /* \"#utility.yul\":13192:14587   */\n    tag_81:\n        /* \"#utility.yul\":13309:13346   */\n      tag_295\n        /* \"#utility.yul\":13342:13345   */\n      dup3\n        /* \"#utility.yul\":13309:13346   */\n      tag_112\n      jump\t// in\n    tag_295:\n        /* \"#utility.yul\":13411:13429   */\n      0xffffffffffffffff\n        /* \"#utility.yul\":13403:13409   */\n      dup2\n        /* \"#utility.yul\":13400:13430   */\n      gt\n        /* \"#utility.yul\":13397:13453   */\n      iszero\n      tag_296\n      jumpi\n        /* \"#utility.yul\":13433:13451   */\n      tag_297\n      tag_122\n      jump\t// in\n    tag_297:\n        /* \"#utility.yul\":13397:13453   */\n    tag_296:\n        /* \"#utility.yul\":13477:13515   */\n      tag_298\n        /* \"#utility.yul\":13509:13513   */\n      dup3\n        /* \"#utility.yul\":13503:13514   */\n      sload\n        /* \"#utility.yul\":13477:13515   */\n      tag_60\n      jump\t// in\n    tag_298:\n        /* \"#utility.yul\":13562:13629   */\n      tag_299\n        /* \"#utility.yul\":13622:13628   */\n      dup3\n        /* \"#utility.yul\":13614:13620   */\n      dup3\n        /* \"#utility.yul\":13608:13612   */\n      dup6\n        /* \"#utility.yul\":13562:13629   */\n      tag_149\n      jump\t// in\n    tag_299:\n        /* \"#utility.yul\":13656:13657   */\n      0x00\n        /* \"#utility.yul\":13680:13684   */\n      0x20\n        /* \"#utility.yul\":13667:13684   */\n      swap1\n      pop\n        /* \"#utility.yul\":13712:13714   */\n      0x1f\n        /* \"#utility.yul\":13704:13710   */\n      dup4\n        /* \"#utility.yul\":13701:13715   */\n      gt\n        /* \"#utility.yul\":13729:13730   */\n      0x01\n        /* \"#utility.yul\":13724:14342   */\n      dup2\n      eq\n      tag_301\n      jumpi\n        /* \"#utility.yul\":14386:14387   */\n      0x00\n        /* \"#utility.yul\":14403:14409   */\n      dup5\n        /* \"#utility.yul\":14400:14477   */\n      iszero\n      tag_302\n      jumpi\n        /* \"#utility.yul\":14452:14461   */\n      dup3\n        /* \"#utility.yul\":14447:14450   */\n      dup8\n        /* \"#utility.yul\":14443:14462   */\n      add\n        /* \"#utility.yul\":14437:14463   */\n      mload\n        /* \"#utility.yul\":14428:14463   */\n      swap1\n      pop\n        /* \"#utility.yul\":14400:14477   */\n    tag_302:\n        /* \"#utility.yul\":14503:14570   */\n      tag_303\n        /* \"#utility.yul\":14563:14569   */\n      dup6\n        /* \"#utility.yul\":14556:14561   */\n      dup3\n        /* \"#utility.yul\":14503:14570   */\n      tag_152\n      jump\t// in\n    tag_303:\n        /* \"#utility.yul\":14497:14501   */\n      dup7\n        /* \"#utility.yul\":14490:14571   */\n      sstore\n        /* \"#utility.yul\":14359:14581   */\n      pop\n        /* \"#utility.yul\":13694:14581   */\n      jump(tag_300)\n        /* \"#utility.yul\":13724:14342   */\n    tag_301:\n        /* \"#utility.yul\":13776:13780   */\n      0x1f\n        /* \"#utility.yul\":13772:13781   */\n      not\n        /* \"#utility.yul\":13764:13770   */\n      dup5\n        /* \"#utility.yul\":13760:13782   */\n      and\n        /* \"#utility.yul\":13810:13847   */\n      tag_304\n        /* \"#utility.yul\":13842:13846   */\n      dup7\n        /* \"#utility.yul\":13810:13847   */\n      tag_138\n      jump\t// in\n    tag_304:\n        /* \"#utility.yul\":13869:13870   */\n      0x00\n        /* \"#utility.yul\":13883:14091   */\n    tag_305:\n        /* \"#utility.yul\":13897:13904   */\n      dup3\n        /* \"#utility.yul\":13894:13895   */\n      dup2\n        /* \"#utility.yul\":13891:13905   */\n      lt\n        /* \"#utility.yul\":13883:14091   */\n      iszero\n      tag_307\n      jumpi\n        /* \"#utility.yul\":13976:13985   */\n      dup5\n        /* \"#utility.yul\":13971:13974   */\n      dup10\n        /* \"#utility.yul\":13967:13986   */\n      add\n        /* \"#utility.yul\":13961:13987   */\n      mload\n        /* \"#utility.yul\":13953:13959   */\n      dup3\n        /* \"#utility.yul\":13946:13988   */\n      sstore\n        /* \"#utility.yul\":14027:14028   */\n      0x01\n        /* \"#utility.yul\":14019:14025   */\n      dup3\n        /* \"#utility.yul\":14015:14029   */\n      add\n        /* \"#utility.yul\":14005:14029   */\n      swap2\n      pop\n        /* \"#utility.yul\":14074:14076   */\n      0x20\n        /* \"#utility.yul\":14063:14072   */\n      dup6\n        /* \"#utility.yul\":14059:14077   */\n      add\n        /* \"#utility.yul\":14046:14077   */\n      swap5\n      pop\n        /* \"#utility.yul\":13920:13924   */\n      0x20\n        /* \"#utility.yul\":13917:13918   */\n      dup2\n        /* \"#utility.yul\":13913:13925   */\n      add\n        /* \"#utility.yul\":13908:13925   */\n      swap1\n      pop\n        /* \"#utility.yul\":13883:14091   */\n      jump(tag_305)\n    tag_307:\n        /* \"#utility.yul\":14119:14125   */\n      dup7\n        /* \"#utility.yul\":14110:14117   */\n      dup4\n        /* \"#utility.yul\":14107:14126   */\n      lt\n        /* \"#utility.yul\":14104:14283   */\n      iszero\n      tag_308\n      jumpi\n        /* \"#utility.yul\":14177:14186   */\n      dup5\n        /* \"#utility.yul\":14172:14175   */\n      dup10\n        /* \"#utility.yul\":14168:14187   */\n      add\n        /* \"#utility.yul\":14162:14188   */\n      mload\n        /* \"#utility.yul\":14220:14268   */\n      tag_309\n        /* \"#utility.yul\":14262:14266   */\n      0x1f\n        /* \"#utility.yul\":14254:14260   */\n      dup10\n        /* \"#utility.yul\":14250:14267   */\n      and\n        /* \"#utility.yul\":14239:14248   */\n      dup3\n        /* \"#utility.yul\":14220:14268   */\n      tag_151\n      jump\t// in\n    tag_309:\n        /* \"#utility.yul\":14212:14218   */\n      dup4\n        /* \"#utility.yul\":14205:14269   */\n      sstore\n        /* \"#utility.yul\":14127:14283   */\n      pop\n        /* \"#utility.yul\":14104:14283   */\n    tag_308:\n        /* \"#utility.yul\":14329:14330   */\n      0x01\n        /* \"#utility.yul\":14325:14326   */\n      0x02\n        /* \"#utility.yul\":14317:14323   */\n      dup9\n        /* \"#utility.yul\":14313:14327   */\n      mul\n        /* \"#utility.yul\":14309:14331   */\n      add\n        /* \"#utility.yul\":14303:14307   */\n      dup9\n        /* \"#utility.yul\":14296:14332   */\n      sstore\n        /* \"#utility.yul\":13731:14342   */\n      pop\n      pop\n      pop\n        /* \"#utility.yul\":13694:14581   */\n    tag_300:\n      pop\n        /* \"#utility.yul\":13284:14587   */\n      pop\n      pop\n      pop\n        /* \"#utility.yul\":13192:14587   */\n      pop\n      pop\n      jump\t// out\n\n    auxdata: 0xa26469706673582212208250f2c907b7bf4585b0141f2fe92d1aefa8e42b8a6489ec1f0ceb34b5bc627c64736f6c63430008160033\n}\n",
				"bytecode": {
					"linkReferences": {},
					"object": "608060405260646001555f600255348015610018575f80fd5b50335f806101000a81548173ffffffffffffffffffffffffffffffffffffffff021916908373ffffffffffffffffffffffffffffffffffffffff1602179055506112ac806100655f395ff3fe60806040526004361061006f575f3560e01c806385c482071161004d57806385c48207146100af5780638da5cb5b146100d7578063c3fe3e2814610101578063e89826ac1461012d5761006f565b80631a9a01fb1461007357806357da244c1461008957806374061a9314610093575b5f80fd5b34801561007e575f80fd5b50610087610155565b005b61009161021e565b005b6100ad60048036038101906100a89190610ad4565b610512565b005b3480156100ba575f80fd5b506100d560048036038101906100d09190610ad4565b610788565b005b3480156100e2575f80fd5b506100eb610853565b6040516100f89190610b3e565b60405180910390f35b34801561010c575f80fd5b50610115610876565b60405161012493929190610c0a565b60405180910390f35b348015610138575f80fd5b50610153600480360381019061014e9190610d72565b61092c565b005b5f8054906101000a900473ffffffffffffffffffffffffffffffffffffffff1673ffffffffffffffffffffffffffffffffffffffff163373ffffffffffffffffffffffffffffffffffffffff16146101e2576040517f08c379a00000000000000000000000000000000000000000000000000000000081526004016101d990610e29565b60405180910390fd5b60035f8082015f6101f39190610a35565b600182015f6101000a81549060ff02191690556001820160016101000a81549060ff02191690555050565b5f8054906101000a900473ffffffffffffffffffffffffffffffffffffffff1673ffffffffffffffffffffffffffffffffffffffff163373ffffffffffffffffffffffffffffffffffffffff16146102ab576040517f08c379a00000000000000000000000000000000000000000000000000000000081526004016102a290610e29565b60405180910390fd5b60011515600360010160019054906101000a900460ff16151514610304576040517f08c379a00000000000000000000000000000000000000000000000000000000081526004016102fb90610e91565b60405180910390fd5b5f5b60058054905081101561050f575f6005828154811061032857610327610eaf565b5b905f5260205f2090600502016040518060800160405290815f82015f9054906101000a900473ffffffffffffffffffffffffffffffffffffffff1673ffffffffffffffffffffffffffffffffffffffff1673ffffffffffffffffffffffffffffffffffffffff168152602001600182016040518060600160405290815f820180546103b290610f09565b80601f01602080910402602001604051908101604052809291908181526020018280546103de90610f09565b80156104295780601f1061040057610100808354040283529160200191610429565b820191905f5260205f20905b81548152906001019060200180831161040c57829003601f168201915b50505050508152602001600182015f9054906101000a900460ff1660ff1660ff1681526020016001820160019054906101000a900460ff1615151515815250508152602001600382015f9054906101000a900460ff1660ff1660ff168152602001600482015481525050905060036001015f9054906101000a900460ff1660ff16816040015160ff160361050157805f015173ffffffffffffffffffffffffffffffffffffffff166108fc60025490811502906040515f60405180830381858888f193505050501580156104ff573d5f803e3d5ffd5b505b508080600101915050610306565b50565b5f1515600360010160019054906101000a900460ff1615151461056a576040517f08c379a000000000000000000000000000000000000000000000000000000000815260040161056190610f83565b60405180910390fd5b3460025f82825461057b9190610fd7565b92505081905550600560405180608001604052803373ffffffffffffffffffffffffffffffffffffffff16815260200160036040518060600160405290815f820180546105c790610f09565b80601f01602080910402602001604051908101604052809291908181526020018280546105f390610f09565b801561063e5780601f106106155761010080835404028352916020019161063e565b820191905f5260205f20905b81548152906001019060200180831161062157829003601f168201915b50505050508152602001600182015f9054906101000a900460ff1660ff1660ff1681526020016001820160019054906101000a900460ff16151515158152505081526020018360ff16815260200134815250908060018154018082558091505060019003905f5260205f2090600502015f909190919091505f820151815f015f6101000a81548173ffffffffffffffffffffffffffffffffffffffff021916908373ffffffffffffffffffffffffffffffffffffffff1602179055506020820151816001015f820151815f01908161071691906111a7565b506020820151816001015f6101000a81548160ff021916908360ff16021790555060408201518160010160016101000a81548160ff02191690831515021790555050506040820151816003015f6101000a81548160ff021916908360ff16021790555060608201518160040155505050565b5f8054906101000a900473ffffffffffffffffffffffffffffffffffffffff1673ffffffffffffffffffffffffffffffffffffffff163373ffffffffffffffffffffffffffffffffffffffff1614610815576040517f08c379a000000000000000000000000000000000000000000000000000000000815260040161080c90610e29565b60405180910390fd5b8060036001015f6101000a81548160ff021916908360ff1602179055506001600360010160016101000a81548160ff02191690831515021790555050565b5f8054906101000a900473ffffffffffffffffffffffffffffffffffffffff1681565b6003805f01805461088690610f09565b80601f01602080910402602001604051908101604052809291908181526020018280546108b290610f09565b80156108fd5780601f106108d4576101008083540402835291602001916108fd565b820191905f5260205f20905b8154815290600101906020018083116108e057829003601f168201915b505050505090806001015f9054906101000a900460ff16908060010160019054906101000a900460ff16905083565b5f8054906101000a900473ffffffffffffffffffffffffffffffffffffffff1673ffffffffffffffffffffffffffffffffffffffff163373ffffffffffffffffffffffffffffffffffffffff16146109b9576040517f08c379a00000000000000000000000000000000000000000000000000000000081526004016109b090610e29565b60405180910390fd5b60405180606001604052808281526020015f60ff1681526020015f151581525060035f820151815f0190816109ee91906111a7565b506020820151816001015f6101000a81548160ff021916908360ff16021790555060408201518160010160016101000a81548160ff02191690831515021790555090505050565b508054610a4190610f09565b5f825580601f10610a525750610a6f565b601f0160209004905f5260205f2090810190610a6e9190610a72565b5b50565b5b80821115610a89575f815f905550600101610a73565b5090565b5f604051905090565b5f80fd5b5f80fd5b5f60ff82169050919050565b610ab381610a9e565b8114610abd575f80fd5b50565b5f81359050610ace81610aaa565b92915050565b5f60208284031215610ae957610ae8610a96565b5b5f610af684828501610ac0565b91505092915050565b5f73ffffffffffffffffffffffffffffffffffffffff82169050919050565b5f610b2882610aff565b9050919050565b610b3881610b1e565b82525050565b5f602082019050610b515f830184610b2f565b92915050565b5f81519050919050565b5f82825260208201905092915050565b5f5b83811015610b8e578082015181840152602081019050610b73565b5f8484015250505050565b5f601f19601f8301169050919050565b5f610bb382610b57565b610bbd8185610b61565b9350610bcd818560208601610b71565b610bd681610b99565b840191505092915050565b610bea81610a9e565b82525050565b5f8115159050919050565b610c0481610bf0565b82525050565b5f6060820190508181035f830152610c228186610ba9565b9050610c316020830185610be1565b610c3e6040830184610bfb565b949350505050565b5f80fd5b5f80fd5b7f4e487b71000000000000000000000000000000000000000000000000000000005f52604160045260245ffd5b610c8482610b99565b810181811067ffffffffffffffff82111715610ca357610ca2610c4e565b5b80604052505050565b5f610cb5610a8d565b9050610cc18282610c7b565b919050565b5f67ffffffffffffffff821115610ce057610cdf610c4e565b5b610ce982610b99565b9050602081019050919050565b828183375f83830152505050565b5f610d16610d1184610cc6565b610cac565b905082815260208101848484011115610d3257610d31610c4a565b5b610d3d848285610cf6565b509392505050565b5f82601f830112610d5957610d58610c46565b5b8135610d69848260208601610d04565b91505092915050565b5f60208284031215610d8757610d86610a96565b5b5f82013567ffffffffffffffff811115610da457610da3610a9a565b5b610db084828501610d45565b91505092915050565b7f4f6e6c7920746865206f776e65722063616e2063616c6c20746869732066756e5f8201527f6374696f6e000000000000000000000000000000000000000000000000000000602082015250565b5f610e13602583610b61565b9150610e1e82610db9565b604082019050919050565b5f6020820190508181035f830152610e4081610e07565b9050919050565b7f47616d65206973206e6f7420796574206f7665720000000000000000000000005f82015250565b5f610e7b601483610b61565b9150610e8682610e47565b602082019050919050565b5f6020820190508181035f830152610ea881610e6f565b9050919050565b7f4e487b71000000000000000000000000000000000000000000000000000000005f52603260045260245ffd5b7f4e487b71000000000000000000000000000000000000000000000000000000005f52602260045260245ffd5b5f6002820490506001821680610f2057607f821691505b602082108103610f3357610f32610edc565b5b50919050565b7f47616d65206973206f766572202d206e6f206265747320616c6c6f77656400005f82015250565b5f610f6d601e83610b61565b9150610f7882610f39565b602082019050919050565b5f6020820190508181035f830152610f9a81610f61565b9050919050565b5f819050919050565b7f4e487b71000000000000000000000000000000000000000000000000000000005f52601160045260245ffd5b5f610fe182610fa1565b9150610fec83610fa1565b925082820190508082111561100457611003610faa565b5b92915050565b5f819050815f5260205f209050919050565b5f6020601f8301049050919050565b5f82821b905092915050565b5f600883026110667fffffffffffffffffffffffffffffffffffffffffffffffffffffffffffffffff8261102b565b611070868361102b565b95508019841693508086168417925050509392505050565b5f819050919050565b5f6110ab6110a66110a184610fa1565b611088565b610fa1565b9050919050565b5f819050919050565b6110c483611091565b6110d86110d0826110b2565b848454611037565b825550505050565b5f90565b6110ec6110e0565b6110f78184846110bb565b505050565b5b8181101561111a5761110f5f826110e4565b6001810190506110fd565b5050565b601f82111561115f576111308161100a565b6111398461101c565b81016020851015611148578190505b61115c6111548561101c565b8301826110fc565b50505b505050565b5f82821c905092915050565b5f61117f5f1984600802611164565b1980831691505092915050565b5f6111978383611170565b9150826002028217905092915050565b6111b082610b57565b67ffffffffffffffff8111156111c9576111c8610c4e565b5b6111d38254610f09565b6111de82828561111e565b5f60209050601f83116001811461120f575f84156111fd578287015190505b611207858261118c565b86555061126e565b601f19841661121d8661100a565b5f5b828110156112445784890151825560018201915060208501945060208101905061121f565b86831015611261578489015161125d601f891682611170565b8355505b6001600288020188555050505b50505050505056fea26469706673582212208250f2c907b7bf4585b0141f2fe92d1aefa8e42b8a6489ec1f0ceb34b5bc627c64736f6c63430008160033",
					"opcodes": "PUSH1 0x80 PUSH1 0x40 MSTORE PUSH1 0x64 PUSH1 0x1 SSTORE PUSH0 PUSH1 0x2 SSTORE CALLVALUE DUP1 ISZERO PUSH2 0x18 JUMPI PUSH0 DUP1 REVERT JUMPDEST POP CALLER PUSH0 DUP1 PUSH2 0x100 EXP DUP2 SLOAD DUP2 PUSH20 0xFFFFFFFFFFFFFFFFFFFFFFFFFFFFFFFFFFFFFFFF MUL NOT AND SWAP1 DUP4 PUSH20 0xFFFFFFFFFFFFFFFFFFFFFFFFFFFFFFFFFFFFFFFF AND MUL OR SWAP1 SSTORE POP PUSH2 0x12AC DUP1 PUSH2 0x65 PUSH0 CODECOPY PUSH0 RETURN INVALID PUSH1 0x80 PUSH1 0x40 MSTORE PUSH1 0x4 CALLDATASIZE LT PUSH2 0x6F JUMPI PUSH0 CALLDATALOAD PUSH1 0xE0 SHR DUP1 PUSH4 0x85C48207 GT PUSH2 0x4D JUMPI DUP1 PUSH4 0x85C48207 EQ PUSH2 0xAF JUMPI DUP1 PUSH4 0x8DA5CB5B EQ PUSH2 0xD7 JUMPI DUP1 PUSH4 0xC3FE3E28 EQ PUSH2 0x101 JUMPI DUP1 PUSH4 0xE89826AC EQ PUSH2 0x12D JUMPI PUSH2 0x6F JUMP JUMPDEST DUP1 PUSH4 0x1A9A01FB EQ PUSH2 0x73 JUMPI DUP1 PUSH4 0x57DA244C EQ PUSH2 0x89 JUMPI DUP1 PUSH4 0x74061A93 EQ PUSH2 0x93 JUMPI JUMPDEST PUSH0 DUP1 REVERT JUMPDEST CALLVALUE DUP1 ISZERO PUSH2 0x7E JUMPI PUSH0 DUP1 REVERT JUMPDEST POP PUSH2 0x87 PUSH2 0x155 JUMP JUMPDEST STOP JUMPDEST PUSH2 0x91 PUSH2 0x21E JUMP JUMPDEST STOP JUMPDEST PUSH2 0xAD PUSH1 0x4 DUP1 CALLDATASIZE SUB DUP2 ADD SWAP1 PUSH2 0xA8 SWAP2 SWAP1 PUSH2 0xAD4 JUMP JUMPDEST PUSH2 0x512 JUMP JUMPDEST STOP JUMPDEST CALLVALUE DUP1 ISZERO PUSH2 0xBA JUMPI PUSH0 DUP1 REVERT JUMPDEST POP PUSH2 0xD5 PUSH1 0x4 DUP1 CALLDATASIZE SUB DUP2 ADD SWAP1 PUSH2 0xD0 SWAP2 SWAP1 PUSH2 0xAD4 JUMP JUMPDEST PUSH2 0x788 JUMP JUMPDEST STOP JUMPDEST CALLVALUE DUP1 ISZERO PUSH2 0xE2 JUMPI PUSH0 DUP1 REVERT JUMPDEST POP PUSH2 0xEB PUSH2 0x853 JUMP JUMPDEST PUSH1 0x40 MLOAD PUSH2 0xF8 SWAP2 SWAP1 PUSH2 0xB3E JUMP JUMPDEST PUSH1 0x40 MLOAD DUP1 SWAP2 SUB SWAP1 RETURN JUMPDEST CALLVALUE DUP1 ISZERO PUSH2 0x10C JUMPI PUSH0 DUP1 REVERT JUMPDEST POP PUSH2 0x115 PUSH2 0x876 JUMP JUMPDEST PUSH1 0x40 MLOAD PUSH2 0x124 SWAP4 SWAP3 SWAP2 SWAP1 PUSH2 0xC0A JUMP JUMPDEST PUSH1 0x40 MLOAD DUP1 SWAP2 SUB SWAP1 RETURN JUMPDEST CALLVALUE DUP1 ISZERO PUSH2 0x138 JUMPI PUSH0 DUP1 REVERT JUMPDEST POP PUSH2 0x153 PUSH1 0x4 DUP1 CALLDATASIZE SUB DUP2 ADD SWAP1 PUSH2 0x14E SWAP2 SWAP1 PUSH2 0xD72 JUMP JUMPDEST PUSH2 0x92C JUMP JUMPDEST STOP JUMPDEST PUSH0 DUP1 SLOAD SWAP1 PUSH2 0x100 EXP SWAP1 DIV PUSH20 0xFFFFFFFFFFFFFFFFFFFFFFFFFFFFFFFFFFFFFFFF AND PUSH20 0xFFFFFFFFFFFFFFFFFFFFFFFFFFFFFFFFFFFFFFFF AND CALLER PUSH20 0xFFFFFFFFFFFFFFFFFFFFFFFFFFFFFFFFFFFFFFFF AND EQ PUSH2 0x1E2 JUMPI PUSH1 0x40 MLOAD PUSH32 0x8C379A000000000000000000000000000000000000000000000000000000000 DUP2 MSTORE PUSH1 0x4 ADD PUSH2 0x1D9 SWAP1 PUSH2 0xE29 JUMP JUMPDEST PUSH1 0x40 MLOAD DUP1 SWAP2 SUB SWAP1 REVERT JUMPDEST PUSH1 0x3 PUSH0 DUP1 DUP3 ADD PUSH0 PUSH2 0x1F3 SWAP2 SWAP1 PUSH2 0xA35 JUMP JUMPDEST PUSH1 0x1 DUP3 ADD PUSH0 PUSH2 0x100 EXP DUP2 SLOAD SWAP1 PUSH1 0xFF MUL NOT AND SWAP1 SSTORE PUSH1 0x1 DUP3 ADD PUSH1 0x1 PUSH2 0x100 EXP DUP2 SLOAD SWAP1 PUSH1 0xFF MUL NOT AND SWAP1 SSTORE POP POP JUMP JUMPDEST PUSH0 DUP1 SLOAD SWAP1 PUSH2 0x100 EXP SWAP1 DIV PUSH20 0xFFFFFFFFFFFFFFFFFFFFFFFFFFFFFFFFFFFFFFFF AND PUSH20 0xFFFFFFFFFFFFFFFFFFFFFFFFFFFFFFFFFFFFFFFF AND CALLER PUSH20 0xFFFFFFFFFFFFFFFFFFFFFFFFFFFFFFFFFFFFFFFF AND EQ PUSH2 0x2AB JUMPI PUSH1 0x40 MLOAD PUSH32 0x8C379A000000000000000000000000000000000000000000000000000000000 DUP2 MSTORE PUSH1 0x4 ADD PUSH2 0x2A2 SWAP1 PUSH2 0xE29 JUMP JUMPDEST PUSH1 0x40 MLOAD DUP1 SWAP2 SUB SWAP1 REVERT JUMPDEST PUSH1 0x1 ISZERO ISZERO PUSH1 0x3 PUSH1 0x1 ADD PUSH1 0x1 SWAP1 SLOAD SWAP1 PUSH2 0x100 EXP SWAP1 DIV PUSH1 0xFF AND ISZERO ISZERO EQ PUSH2 0x304 JUMPI PUSH1 0x40 MLOAD PUSH32 0x8C379A000000000000000000000000000000000000000000000000000000000 DUP2 MSTORE PUSH1 0x4 ADD PUSH2 0x2FB SWAP1 PUSH2 0xE91 JUMP JUMPDEST PUSH1 0x40 MLOAD DUP1 SWAP2 SUB SWAP1 REVERT JUMPDEST PUSH0 JUMPDEST PUSH1 0x5 DUP1 SLOAD SWAP1 POP DUP2 LT ISZERO PUSH2 0x50F JUMPI PUSH0 PUSH1 0x5 DUP3 DUP2 SLOAD DUP2 LT PUSH2 0x328 JUMPI PUSH2 0x327 PUSH2 0xEAF JUMP JUMPDEST JUMPDEST SWAP1 PUSH0 MSTORE PUSH1 0x20 PUSH0 KECCAK256 SWAP1 PUSH1 0x5 MUL ADD PUSH1 0x40 MLOAD DUP1 PUSH1 0x80 ADD PUSH1 0x40 MSTORE SWAP1 DUP2 PUSH0 DUP3 ADD PUSH0 SWAP1 SLOAD SWAP1 PUSH2 0x100 EXP SWAP1 DIV PUSH20 0xFFFFFFFFFFFFFFFFFFFFFFFFFFFFFFFFFFFFFFFF AND PUSH20 0xFFFFFFFFFFFFFFFFFFFFFFFFFFFFFFFFFFFFFFFF AND PUSH20 0xFFFFFFFFFFFFFFFFFFFFFFFFFFFFFFFFFFFFFFFF AND DUP2 MSTORE PUSH1 0x20 ADD PUSH1 0x1 DUP3 ADD PUSH1 0x40 MLOAD DUP1 PUSH1 0x60 ADD PUSH1 0x40 MSTORE SWAP1 DUP2 PUSH0 DUP3 ADD DUP1 SLOAD PUSH2 0x3B2 SWAP1 PUSH2 0xF09 JUMP JUMPDEST DUP1 PUSH1 0x1F ADD PUSH1 0x20 DUP1 SWAP2 DIV MUL PUSH1 0x20 ADD PUSH1 0x40 MLOAD SWAP1 DUP2 ADD PUSH1 0x40 MSTORE DUP1 SWAP3 SWAP2 SWAP1 DUP2 DUP2 MSTORE PUSH1 0x20 ADD DUP3 DUP1 SLOAD PUSH2 0x3DE SWAP1 PUSH2 0xF09 JUMP JUMPDEST DUP1 ISZERO PUSH2 0x429 JUMPI DUP1 PUSH1 0x1F LT PUSH2 0x400 JUMPI PUSH2 0x100 DUP1 DUP4 SLOAD DIV MUL DUP4 MSTORE SWAP2 PUSH1 0x20 ADD SWAP2 PUSH2 0x429 JUMP JUMPDEST DUP3 ADD SWAP2 SWAP1 PUSH0 MSTORE PUSH1 0x20 PUSH0 KECCAK256 SWAP1 JUMPDEST DUP2 SLOAD DUP2 MSTORE SWAP1 PUSH1 0x1 ADD SWAP1 PUSH1 0x20 ADD DUP1 DUP4 GT PUSH2 0x40C JUMPI DUP3 SWAP1 SUB PUSH1 0x1F AND DUP3 ADD SWAP2 JUMPDEST POP POP POP POP POP DUP2 MSTORE PUSH1 0x20 ADD PUSH1 0x1 DUP3 ADD PUSH0 SWAP1 SLOAD SWAP1 PUSH2 0x100 EXP SWAP1 DIV PUSH1 0xFF AND PUSH1 0xFF AND PUSH1 0xFF AND DUP2 MSTORE PUSH1 0x20 ADD PUSH1 0x1 DUP3 ADD PUSH1 0x1 SWAP1 SLOAD SWAP1 PUSH2 0x100 EXP SWAP1 DIV PUSH1 0xFF AND ISZERO ISZERO ISZERO ISZERO DUP2 MSTORE POP POP DUP2 MSTORE PUSH1 0x20 ADD PUSH1 0x3 DUP3 ADD PUSH0 SWAP1 SLOAD SWAP1 PUSH2 0x100 EXP SWAP1 DIV PUSH1 0xFF AND PUSH1 0xFF AND PUSH1 0xFF AND DUP2 MSTORE PUSH1 0x20 ADD PUSH1 0x4 DUP3 ADD SLOAD DUP2 MSTORE POP POP SWAP1 POP PUSH1 0x3 PUSH1 0x1 ADD PUSH0 SWAP1 SLOAD SWAP1 PUSH2 0x100 EXP SWAP1 DIV PUSH1 0xFF AND PUSH1 0xFF AND DUP2 PUSH1 0x40 ADD MLOAD PUSH1 0xFF AND SUB PUSH2 0x501 JUMPI DUP1 PUSH0 ADD MLOAD PUSH20 0xFFFFFFFFFFFFFFFFFFFFFFFFFFFFFFFFFFFFFFFF AND PUSH2 0x8FC PUSH1 0x2 SLOAD SWAP1 DUP2 ISZERO MUL SWAP1 PUSH1 0x40 MLOAD PUSH0 PUSH1 0x40 MLOAD DUP1 DUP4 SUB DUP2 DUP6 DUP9 DUP9 CALL SWAP4 POP POP POP POP ISZERO DUP1 ISZERO PUSH2 0x4FF JUMPI RETURNDATASIZE PUSH0 DUP1 RETURNDATACOPY RETURNDATASIZE PUSH0 REVERT JUMPDEST POP JUMPDEST POP DUP1 DUP1 PUSH1 0x1 ADD SWAP2 POP POP PUSH2 0x306 JUMP JUMPDEST POP JUMP JUMPDEST PUSH0 ISZERO ISZERO PUSH1 0x3 PUSH1 0x1 ADD PUSH1 0x1 SWAP1 SLOAD SWAP1 PUSH2 0x100 EXP SWAP1 DIV PUSH1 0xFF AND ISZERO ISZERO EQ PUSH2 0x56A JUMPI PUSH1 0x40 MLOAD PUSH32 0x8C379A000000000000000000000000000000000000000000000000000000000 DUP2 MSTORE PUSH1 0x4 ADD PUSH2 0x561 SWAP1 PUSH2 0xF83 JUMP JUMPDEST PUSH1 0x40 MLOAD DUP1 SWAP2 SUB SWAP1 REVERT JUMPDEST CALLVALUE PUSH1 0x2 PUSH0 DUP3 DUP3 SLOAD PUSH2 0x57B SWAP2 SWAP1 PUSH2 0xFD7 JUMP JUMPDEST SWAP3 POP POP DUP2 SWAP1 SSTORE POP PUSH1 0x5 PUSH1 0x40 MLOAD DUP1 PUSH1 0x80 ADD PUSH1 0x40 MSTORE DUP1 CALLER PUSH20 0xFFFFFFFFFFFFFFFFFFFFFFFFFFFFFFFFFFFFFFFF AND DUP2 MSTORE PUSH1 0x20 ADD PUSH1 0x3 PUSH1 0x40 MLOAD DUP1 PUSH1 0x60 ADD PUSH1 0x40 MSTORE SWAP1 DUP2 PUSH0 DUP3 ADD DUP1 SLOAD PUSH2 0x5C7 SWAP1 PUSH2 0xF09 JUMP JUMPDEST DUP1 PUSH1 0x1F ADD PUSH1 0x20 DUP1 SWAP2 DIV MUL PUSH1 0x20 ADD PUSH1 0x40 MLOAD SWAP1 DUP2 ADD PUSH1 0x40 MSTORE DUP1 SWAP3 SWAP2 SWAP1 DUP2 DUP2 MSTORE PUSH1 0x20 ADD DUP3 DUP1 SLOAD PUSH2 0x5F3 SWAP1 PUSH2 0xF09 JUMP JUMPDEST DUP1 ISZERO PUSH2 0x63E JUMPI DUP1 PUSH1 0x1F LT PUSH2 0x615 JUMPI PUSH2 0x100 DUP1 DUP4 SLOAD DIV MUL DUP4 MSTORE SWAP2 PUSH1 0x20 ADD SWAP2 PUSH2 0x63E JUMP JUMPDEST DUP3 ADD SWAP2 SWAP1 PUSH0 MSTORE PUSH1 0x20 PUSH0 KECCAK256 SWAP1 JUMPDEST DUP2 SLOAD DUP2 MSTORE SWAP1 PUSH1 0x1 ADD SWAP1 PUSH1 0x20 ADD DUP1 DUP4 GT PUSH2 0x621 JUMPI DUP3 SWAP1 SUB PUSH1 0x1F AND DUP3 ADD SWAP2 JUMPDEST POP POP POP POP POP DUP2 MSTORE PUSH1 0x20 ADD PUSH1 0x1 DUP3 ADD PUSH0 SWAP1 SLOAD SWAP1 PUSH2 0x100 EXP SWAP1 DIV PUSH1 0xFF AND PUSH1 0xFF AND PUSH1 0xFF AND DUP2 MSTORE PUSH1 0x20 ADD PUSH1 0x1 DUP3 ADD PUSH1 0x1 SWAP1 SLOAD SWAP1 PUSH2 0x100 EXP SWAP1 DIV PUSH1 0xFF AND ISZERO ISZERO ISZERO ISZERO DUP2 MSTORE POP POP DUP2 MSTORE PUSH1 0x20 ADD DUP4 PUSH1 0xFF AND DUP2 MSTORE PUSH1 0x20 ADD CALLVALUE DUP2 MSTORE POP SWAP1 DUP1 PUSH1 0x1 DUP2 SLOAD ADD DUP1 DUP3 SSTORE DUP1 SWAP2 POP POP PUSH1 0x1 SWAP1 SUB SWAP1 PUSH0 MSTORE PUSH1 0x20 PUSH0 KECCAK256 SWAP1 PUSH1 0x5 MUL ADD PUSH0 SWAP1 SWAP2 SWAP1 SWAP2 SWAP1 SWAP2 POP PUSH0 DUP3 ADD MLOAD DUP2 PUSH0 ADD PUSH0 PUSH2 0x100 EXP DUP2 SLOAD DUP2 PUSH20 0xFFFFFFFFFFFFFFFFFFFFFFFFFFFFFFFFFFFFFFFF MUL NOT AND SWAP1 DUP4 PUSH20 0xFFFFFFFFFFFFFFFFFFFFFFFFFFFFFFFFFFFFFFFF AND MUL OR SWAP1 SSTORE POP PUSH1 0x20 DUP3 ADD MLOAD DUP2 PUSH1 0x1 ADD PUSH0 DUP3 ADD MLOAD DUP2 PUSH0 ADD SWAP1 DUP2 PUSH2 0x716 SWAP2 SWAP1 PUSH2 0x11A7 JUMP JUMPDEST POP PUSH1 0x20 DUP3 ADD MLOAD DUP2 PUSH1 0x1 ADD PUSH0 PUSH2 0x100 EXP DUP2 SLOAD DUP2 PUSH1 0xFF MUL NOT AND SWAP1 DUP4 PUSH1 0xFF AND MUL OR SWAP1 SSTORE POP PUSH1 0x40 DUP3 ADD MLOAD DUP2 PUSH1 0x1 ADD PUSH1 0x1 PUSH2 0x100 EXP DUP2 SLOAD DUP2 PUSH1 0xFF MUL NOT AND SWAP1 DUP4 ISZERO ISZERO MUL OR SWAP1 SSTORE POP POP POP PUSH1 0x40 DUP3 ADD MLOAD DUP2 PUSH1 0x3 ADD PUSH0 PUSH2 0x100 EXP DUP2 SLOAD DUP2 PUSH1 0xFF MUL NOT AND SWAP1 DUP4 PUSH1 0xFF AND MUL OR SWAP1 SSTORE POP PUSH1 0x60 DUP3 ADD MLOAD DUP2 PUSH1 0x4 ADD SSTORE POP POP POP JUMP JUMPDEST PUSH0 DUP1 SLOAD SWAP1 PUSH2 0x100 EXP SWAP1 DIV PUSH20 0xFFFFFFFFFFFFFFFFFFFFFFFFFFFFFFFFFFFFFFFF AND PUSH20 0xFFFFFFFFFFFFFFFFFFFFFFFFFFFFFFFFFFFFFFFF AND CALLER PUSH20 0xFFFFFFFFFFFFFFFFFFFFFFFFFFFFFFFFFFFFFFFF AND EQ PUSH2 0x815 JUMPI PUSH1 0x40 MLOAD PUSH32 0x8C379A000000000000000000000000000000000000000000000000000000000 DUP2 MSTORE PUSH1 0x4 ADD PUSH2 0x80C SWAP1 PUSH2 0xE29 JUMP JUMPDEST PUSH1 0x40 MLOAD DUP1 SWAP2 SUB SWAP1 REVERT JUMPDEST DUP1 PUSH1 0x3 PUSH1 0x1 ADD PUSH0 PUSH2 0x100 EXP DUP2 SLOAD DUP2 PUSH1 0xFF MUL NOT AND SWAP1 DUP4 PUSH1 0xFF AND MUL OR SWAP1 SSTORE POP PUSH1 0x1 PUSH1 0x3 PUSH1 0x1 ADD PUSH1 0x1 PUSH2 0x100 EXP DUP2 SLOAD DUP2 PUSH1 0xFF MUL NOT AND SWAP1 DUP4 ISZERO ISZERO MUL OR SWAP1 SSTORE POP POP JUMP JUMPDEST PUSH0 DUP1 SLOAD SWAP1 PUSH2 0x100 EXP SWAP1 DIV PUSH20 0xFFFFFFFFFFFFFFFFFFFFFFFFFFFFFFFFFFFFFFFF AND DUP2 JUMP JUMPDEST PUSH1 0x3 DUP1 PUSH0 ADD DUP1 SLOAD PUSH2 0x886 SWAP1 PUSH2 0xF09 JUMP JUMPDEST DUP1 PUSH1 0x1F ADD PUSH1 0x20 DUP1 SWAP2 DIV MUL PUSH1 0x20 ADD PUSH1 0x40 MLOAD SWAP1 DUP2 ADD PUSH1 0x40 MSTORE DUP1 SWAP3 SWAP2 SWAP1 DUP2 DUP2 MSTORE PUSH1 0x20 ADD DUP3 DUP1 SLOAD PUSH2 0x8B2 SWAP1 PUSH2 0xF09 JUMP JUMPDEST DUP1 ISZERO PUSH2 0x8FD JUMPI DUP1 PUSH1 0x1F LT PUSH2 0x8D4 JUMPI PUSH2 0x100 DUP1 DUP4 SLOAD DIV MUL DUP4 MSTORE SWAP2 PUSH1 0x20 ADD SWAP2 PUSH2 0x8FD JUMP JUMPDEST DUP3 ADD SWAP2 SWAP1 PUSH0 MSTORE PUSH1 0x20 PUSH0 KECCAK256 SWAP1 JUMPDEST DUP2 SLOAD DUP2 MSTORE SWAP1 PUSH1 0x1 ADD SWAP1 PUSH1 0x20 ADD DUP1 DUP4 GT PUSH2 0x8E0 JUMPI DUP3 SWAP1 SUB PUSH1 0x1F AND DUP3 ADD SWAP2 JUMPDEST POP POP POP POP POP SWAP1 DUP1 PUSH1 0x1 ADD PUSH0 SWAP1 SLOAD SWAP1 PUSH2 0x100 EXP SWAP1 DIV PUSH1 0xFF AND SWAP1 DUP1 PUSH1 0x1 ADD PUSH1 0x1 SWAP1 SLOAD SWAP1 PUSH2 0x100 EXP SWAP1 DIV PUSH1 0xFF AND SWAP1 POP DUP4 JUMP JUMPDEST PUSH0 DUP1 SLOAD SWAP1 PUSH2 0x100 EXP SWAP1 DIV PUSH20 0xFFFFFFFFFFFFFFFFFFFFFFFFFFFFFFFFFFFFFFFF AND PUSH20 0xFFFFFFFFFFFFFFFFFFFFFFFFFFFFFFFFFFFFFFFF AND CALLER PUSH20 0xFFFFFFFFFFFFFFFFFFFFFFFFFFFFFFFFFFFFFFFF AND EQ PUSH2 0x9B9 JUMPI PUSH1 0x40 MLOAD PUSH32 0x8C379A000000000000000000000000000000000000000000000000000000000 DUP2 MSTORE PUSH1 0x4 ADD PUSH2 0x9B0 SWAP1 PUSH2 0xE29 JUMP JUMPDEST PUSH1 0x40 MLOAD DUP1 SWAP2 SUB SWAP1 REVERT JUMPDEST PUSH1 0x40 MLOAD DUP1 PUSH1 0x60 ADD PUSH1 0x40 MSTORE DUP1 DUP3 DUP2 MSTORE PUSH1 0x20 ADD PUSH0 PUSH1 0xFF AND DUP2 MSTORE PUSH1 0x20 ADD PUSH0 ISZERO ISZERO DUP2 MSTORE POP PUSH1 0x3 PUSH0 DUP3 ADD MLOAD DUP2 PUSH0 ADD SWAP1 DUP2 PUSH2 0x9EE SWAP2 SWAP1 PUSH2 0x11A7 JUMP JUMPDEST POP PUSH1 0x20 DUP3 ADD MLOAD DUP2 PUSH1 0x1 ADD PUSH0 PUSH2 0x100 EXP DUP2 SLOAD DUP2 PUSH1 0xFF MUL NOT AND SWAP1 DUP4 PUSH1 0xFF AND MUL OR SWAP1 SSTORE POP PUSH1 0x40 DUP3 ADD MLOAD DUP2 PUSH1 0x1 ADD PUSH1 0x1 PUSH2 0x100 EXP DUP2 SLOAD DUP2 PUSH1 0xFF MUL NOT AND SWAP1 DUP4 ISZERO ISZERO MUL OR SWAP1 SSTORE POP SWAP1 POP POP POP JUMP JUMPDEST POP DUP1 SLOAD PUSH2 0xA41 SWAP1 PUSH2 0xF09 JUMP JUMPDEST PUSH0 DUP3 SSTORE DUP1 PUSH1 0x1F LT PUSH2 0xA52 JUMPI POP PUSH2 0xA6F JUMP JUMPDEST PUSH1 0x1F ADD PUSH1 0x20 SWAP1 DIV SWAP1 PUSH0 MSTORE PUSH1 0x20 PUSH0 KECCAK256 SWAP1 DUP2 ADD SWAP1 PUSH2 0xA6E SWAP2 SWAP1 PUSH2 0xA72 JUMP JUMPDEST JUMPDEST POP JUMP JUMPDEST JUMPDEST DUP1 DUP3 GT ISZERO PUSH2 0xA89 JUMPI PUSH0 DUP2 PUSH0 SWAP1 SSTORE POP PUSH1 0x1 ADD PUSH2 0xA73 JUMP JUMPDEST POP SWAP1 JUMP JUMPDEST PUSH0 PUSH1 0x40 MLOAD SWAP1 POP SWAP1 JUMP JUMPDEST PUSH0 DUP1 REVERT JUMPDEST PUSH0 DUP1 REVERT JUMPDEST PUSH0 PUSH1 0xFF DUP3 AND SWAP1 POP SWAP2 SWAP1 POP JUMP JUMPDEST PUSH2 0xAB3 DUP2 PUSH2 0xA9E JUMP JUMPDEST DUP2 EQ PUSH2 0xABD JUMPI PUSH0 DUP1 REVERT JUMPDEST POP JUMP JUMPDEST PUSH0 DUP2 CALLDATALOAD SWAP1 POP PUSH2 0xACE DUP2 PUSH2 0xAAA JUMP JUMPDEST SWAP3 SWAP2 POP POP JUMP JUMPDEST PUSH0 PUSH1 0x20 DUP3 DUP5 SUB SLT ISZERO PUSH2 0xAE9 JUMPI PUSH2 0xAE8 PUSH2 0xA96 JUMP JUMPDEST JUMPDEST PUSH0 PUSH2 0xAF6 DUP5 DUP3 DUP6 ADD PUSH2 0xAC0 JUMP JUMPDEST SWAP2 POP POP SWAP3 SWAP2 POP POP JUMP JUMPDEST PUSH0 PUSH20 0xFFFFFFFFFFFFFFFFFFFFFFFFFFFFFFFFFFFFFFFF DUP3 AND SWAP1 POP SWAP2 SWAP1 POP JUMP JUMPDEST PUSH0 PUSH2 0xB28 DUP3 PUSH2 0xAFF JUMP JUMPDEST SWAP1 POP SWAP2 SWAP1 POP JUMP JUMPDEST PUSH2 0xB38 DUP2 PUSH2 0xB1E JUMP JUMPDEST DUP3 MSTORE POP POP JUMP JUMPDEST PUSH0 PUSH1 0x20 DUP3 ADD SWAP1 POP PUSH2 0xB51 PUSH0 DUP4 ADD DUP5 PUSH2 0xB2F JUMP JUMPDEST SWAP3 SWAP2 POP POP JUMP JUMPDEST PUSH0 DUP2 MLOAD SWAP1 POP SWAP2 SWAP1 POP JUMP JUMPDEST PUSH0 DUP3 DUP3 MSTORE PUSH1 0x20 DUP3 ADD SWAP1 POP SWAP3 SWAP2 POP POP JUMP JUMPDEST PUSH0 JUMPDEST DUP4 DUP2 LT ISZERO PUSH2 0xB8E JUMPI DUP1 DUP3 ADD MLOAD DUP2 DUP5 ADD MSTORE PUSH1 0x20 DUP2 ADD SWAP1 POP PUSH2 0xB73 JUMP JUMPDEST PUSH0 DUP5 DUP5 ADD MSTORE POP POP POP POP JUMP JUMPDEST PUSH0 PUSH1 0x1F NOT PUSH1 0x1F DUP4 ADD AND SWAP1 POP SWAP2 SWAP1 POP JUMP JUMPDEST PUSH0 PUSH2 0xBB3 DUP3 PUSH2 0xB57 JUMP JUMPDEST PUSH2 0xBBD DUP2 DUP6 PUSH2 0xB61 JUMP JUMPDEST SWAP4 POP PUSH2 0xBCD DUP2 DUP6 PUSH1 0x20 DUP7 ADD PUSH2 0xB71 JUMP JUMPDEST PUSH2 0xBD6 DUP2 PUSH2 0xB99 JUMP JUMPDEST DUP5 ADD SWAP2 POP POP SWAP3 SWAP2 POP POP JUMP JUMPDEST PUSH2 0xBEA DUP2 PUSH2 0xA9E JUMP JUMPDEST DUP3 MSTORE POP POP JUMP JUMPDEST PUSH0 DUP2 ISZERO ISZERO SWAP1 POP SWAP2 SWAP1 POP JUMP JUMPDEST PUSH2 0xC04 DUP2 PUSH2 0xBF0 JUMP JUMPDEST DUP3 MSTORE POP POP JUMP JUMPDEST PUSH0 PUSH1 0x60 DUP3 ADD SWAP1 POP DUP2 DUP2 SUB PUSH0 DUP4 ADD MSTORE PUSH2 0xC22 DUP2 DUP7 PUSH2 0xBA9 JUMP JUMPDEST SWAP1 POP PUSH2 0xC31 PUSH1 0x20 DUP4 ADD DUP6 PUSH2 0xBE1 JUMP JUMPDEST PUSH2 0xC3E PUSH1 0x40 DUP4 ADD DUP5 PUSH2 0xBFB JUMP JUMPDEST SWAP5 SWAP4 POP POP POP POP JUMP JUMPDEST PUSH0 DUP1 REVERT JUMPDEST PUSH0 DUP1 REVERT JUMPDEST PUSH32 0x4E487B7100000000000000000000000000000000000000000000000000000000 PUSH0 MSTORE PUSH1 0x41 PUSH1 0x4 MSTORE PUSH1 0x24 PUSH0 REVERT JUMPDEST PUSH2 0xC84 DUP3 PUSH2 0xB99 JUMP JUMPDEST DUP2 ADD DUP2 DUP2 LT PUSH8 0xFFFFFFFFFFFFFFFF DUP3 GT OR ISZERO PUSH2 0xCA3 JUMPI PUSH2 0xCA2 PUSH2 0xC4E JUMP JUMPDEST JUMPDEST DUP1 PUSH1 0x40 MSTORE POP POP POP JUMP JUMPDEST PUSH0 PUSH2 0xCB5 PUSH2 0xA8D JUMP JUMPDEST SWAP1 POP PUSH2 0xCC1 DUP3 DUP3 PUSH2 0xC7B JUMP JUMPDEST SWAP2 SWAP1 POP JUMP JUMPDEST PUSH0 PUSH8 0xFFFFFFFFFFFFFFFF DUP3 GT ISZERO PUSH2 0xCE0 JUMPI PUSH2 0xCDF PUSH2 0xC4E JUMP JUMPDEST JUMPDEST PUSH2 0xCE9 DUP3 PUSH2 0xB99 JUMP JUMPDEST SWAP1 POP PUSH1 0x20 DUP2 ADD SWAP1 POP SWAP2 SWAP1 POP JUMP JUMPDEST DUP3 DUP2 DUP4 CALLDATACOPY PUSH0 DUP4 DUP4 ADD MSTORE POP POP POP JUMP JUMPDEST PUSH0 PUSH2 0xD16 PUSH2 0xD11 DUP5 PUSH2 0xCC6 JUMP JUMPDEST PUSH2 0xCAC JUMP JUMPDEST SWAP1 POP DUP3 DUP2 MSTORE PUSH1 0x20 DUP2 ADD DUP5 DUP5 DUP5 ADD GT ISZERO PUSH2 0xD32 JUMPI PUSH2 0xD31 PUSH2 0xC4A JUMP JUMPDEST JUMPDEST PUSH2 0xD3D DUP5 DUP3 DUP6 PUSH2 0xCF6 JUMP JUMPDEST POP SWAP4 SWAP3 POP POP POP JUMP JUMPDEST PUSH0 DUP3 PUSH1 0x1F DUP4 ADD SLT PUSH2 0xD59 JUMPI PUSH2 0xD58 PUSH2 0xC46 JUMP JUMPDEST JUMPDEST DUP2 CALLDATALOAD PUSH2 0xD69 DUP5 DUP3 PUSH1 0x20 DUP7 ADD PUSH2 0xD04 JUMP JUMPDEST SWAP2 POP POP SWAP3 SWAP2 POP POP JUMP JUMPDEST PUSH0 PUSH1 0x20 DUP3 DUP5 SUB SLT ISZERO PUSH2 0xD87 JUMPI PUSH2 0xD86 PUSH2 0xA96 JUMP JUMPDEST JUMPDEST PUSH0 DUP3 ADD CALLDATALOAD PUSH8 0xFFFFFFFFFFFFFFFF DUP2 GT ISZERO PUSH2 0xDA4 JUMPI PUSH2 0xDA3 PUSH2 0xA9A JUMP JUMPDEST JUMPDEST PUSH2 0xDB0 DUP5 DUP3 DUP6 ADD PUSH2 0xD45 JUMP JUMPDEST SWAP2 POP POP SWAP3 SWAP2 POP POP JUMP JUMPDEST PUSH32 0x4F6E6C7920746865206F776E65722063616E2063616C6C20746869732066756E PUSH0 DUP3 ADD MSTORE PUSH32 0x6374696F6E000000000000000000000000000000000000000000000000000000 PUSH1 0x20 DUP3 ADD MSTORE POP JUMP JUMPDEST PUSH0 PUSH2 0xE13 PUSH1 0x25 DUP4 PUSH2 0xB61 JUMP JUMPDEST SWAP2 POP PUSH2 0xE1E DUP3 PUSH2 0xDB9 JUMP JUMPDEST PUSH1 0x40 DUP3 ADD SWAP1 POP SWAP2 SWAP1 POP JUMP JUMPDEST PUSH0 PUSH1 0x20 DUP3 ADD SWAP1 POP DUP2 DUP2 SUB PUSH0 DUP4 ADD MSTORE PUSH2 0xE40 DUP2 PUSH2 0xE07 JUMP JUMPDEST SWAP1 POP SWAP2 SWAP1 POP JUMP JUMPDEST PUSH32 0x47616D65206973206E6F7420796574206F766572000000000000000000000000 PUSH0 DUP3 ADD MSTORE POP JUMP JUMPDEST PUSH0 PUSH2 0xE7B PUSH1 0x14 DUP4 PUSH2 0xB61 JUMP JUMPDEST SWAP2 POP PUSH2 0xE86 DUP3 PUSH2 0xE47 JUMP JUMPDEST PUSH1 0x20 DUP3 ADD SWAP1 POP SWAP2 SWAP1 POP JUMP JUMPDEST PUSH0 PUSH1 0x20 DUP3 ADD SWAP1 POP DUP2 DUP2 SUB PUSH0 DUP4 ADD MSTORE PUSH2 0xEA8 DUP2 PUSH2 0xE6F JUMP JUMPDEST SWAP1 POP SWAP2 SWAP1 POP JUMP JUMPDEST PUSH32 0x4E487B7100000000000000000000000000000000000000000000000000000000 PUSH0 MSTORE PUSH1 0x32 PUSH1 0x4 MSTORE PUSH1 0x24 PUSH0 REVERT JUMPDEST PUSH32 0x4E487B7100000000000000000000000000000000000000000000000000000000 PUSH0 MSTORE PUSH1 0x22 PUSH1 0x4 MSTORE PUSH1 0x24 PUSH0 REVERT JUMPDEST PUSH0 PUSH1 0x2 DUP3 DIV SWAP1 POP PUSH1 0x1 DUP3 AND DUP1 PUSH2 0xF20 JUMPI PUSH1 0x7F DUP3 AND SWAP2 POP JUMPDEST PUSH1 0x20 DUP3 LT DUP2 SUB PUSH2 0xF33 JUMPI PUSH2 0xF32 PUSH2 0xEDC JUMP JUMPDEST JUMPDEST POP SWAP2 SWAP1 POP JUMP JUMPDEST PUSH32 0x47616D65206973206F766572202D206E6F206265747320616C6C6F7765640000 PUSH0 DUP3 ADD MSTORE POP JUMP JUMPDEST PUSH0 PUSH2 0xF6D PUSH1 0x1E DUP4 PUSH2 0xB61 JUMP JUMPDEST SWAP2 POP PUSH2 0xF78 DUP3 PUSH2 0xF39 JUMP JUMPDEST PUSH1 0x20 DUP3 ADD SWAP1 POP SWAP2 SWAP1 POP JUMP JUMPDEST PUSH0 PUSH1 0x20 DUP3 ADD SWAP1 POP DUP2 DUP2 SUB PUSH0 DUP4 ADD MSTORE PUSH2 0xF9A DUP2 PUSH2 0xF61 JUMP JUMPDEST SWAP1 POP SWAP2 SWAP1 POP JUMP JUMPDEST PUSH0 DUP2 SWAP1 POP SWAP2 SWAP1 POP JUMP JUMPDEST PUSH32 0x4E487B7100000000000000000000000000000000000000000000000000000000 PUSH0 MSTORE PUSH1 0x11 PUSH1 0x4 MSTORE PUSH1 0x24 PUSH0 REVERT JUMPDEST PUSH0 PUSH2 0xFE1 DUP3 PUSH2 0xFA1 JUMP JUMPDEST SWAP2 POP PUSH2 0xFEC DUP4 PUSH2 0xFA1 JUMP JUMPDEST SWAP3 POP DUP3 DUP3 ADD SWAP1 POP DUP1 DUP3 GT ISZERO PUSH2 0x1004 JUMPI PUSH2 0x1003 PUSH2 0xFAA JUMP JUMPDEST JUMPDEST SWAP3 SWAP2 POP POP JUMP JUMPDEST PUSH0 DUP2 SWAP1 POP DUP2 PUSH0 MSTORE PUSH1 0x20 PUSH0 KECCAK256 SWAP1 POP SWAP2 SWAP1 POP JUMP JUMPDEST PUSH0 PUSH1 0x20 PUSH1 0x1F DUP4 ADD DIV SWAP1 POP SWAP2 SWAP1 POP JUMP JUMPDEST PUSH0 DUP3 DUP3 SHL SWAP1 POP SWAP3 SWAP2 POP POP JUMP JUMPDEST PUSH0 PUSH1 0x8 DUP4 MUL PUSH2 0x1066 PUSH32 0xFFFFFFFFFFFFFFFFFFFFFFFFFFFFFFFFFFFFFFFFFFFFFFFFFFFFFFFFFFFFFFFF DUP3 PUSH2 0x102B JUMP JUMPDEST PUSH2 0x1070 DUP7 DUP4 PUSH2 0x102B JUMP JUMPDEST SWAP6 POP DUP1 NOT DUP5 AND SWAP4 POP DUP1 DUP7 AND DUP5 OR SWAP3 POP POP POP SWAP4 SWAP3 POP POP POP JUMP JUMPDEST PUSH0 DUP2 SWAP1 POP SWAP2 SWAP1 POP JUMP JUMPDEST PUSH0 PUSH2 0x10AB PUSH2 0x10A6 PUSH2 0x10A1 DUP5 PUSH2 0xFA1 JUMP JUMPDEST PUSH2 0x1088 JUMP JUMPDEST PUSH2 0xFA1 JUMP JUMPDEST SWAP1 POP SWAP2 SWAP1 POP JUMP JUMPDEST PUSH0 DUP2 SWAP1 POP SWAP2 SWAP1 POP JUMP JUMPDEST PUSH2 0x10C4 DUP4 PUSH2 0x1091 JUMP JUMPDEST PUSH2 0x10D8 PUSH2 0x10D0 DUP3 PUSH2 0x10B2 JUMP JUMPDEST DUP5 DUP5 SLOAD PUSH2 0x1037 JUMP JUMPDEST DUP3 SSTORE POP POP POP POP JUMP JUMPDEST PUSH0 SWAP1 JUMP JUMPDEST PUSH2 0x10EC PUSH2 0x10E0 JUMP JUMPDEST PUSH2 0x10F7 DUP2 DUP5 DUP5 PUSH2 0x10BB JUMP JUMPDEST POP POP POP JUMP JUMPDEST JUMPDEST DUP2 DUP2 LT ISZERO PUSH2 0x111A JUMPI PUSH2 0x110F PUSH0 DUP3 PUSH2 0x10E4 JUMP JUMPDEST PUSH1 0x1 DUP2 ADD SWAP1 POP PUSH2 0x10FD JUMP JUMPDEST POP POP JUMP JUMPDEST PUSH1 0x1F DUP3 GT ISZERO PUSH2 0x115F JUMPI PUSH2 0x1130 DUP2 PUSH2 0x100A JUMP JUMPDEST PUSH2 0x1139 DUP5 PUSH2 0x101C JUMP JUMPDEST DUP2 ADD PUSH1 0x20 DUP6 LT ISZERO PUSH2 0x1148 JUMPI DUP2 SWAP1 POP JUMPDEST PUSH2 0x115C PUSH2 0x1154 DUP6 PUSH2 0x101C JUMP JUMPDEST DUP4 ADD DUP3 PUSH2 0x10FC JUMP JUMPDEST POP POP JUMPDEST POP POP POP JUMP JUMPDEST PUSH0 DUP3 DUP3 SHR SWAP1 POP SWAP3 SWAP2 POP POP JUMP JUMPDEST PUSH0 PUSH2 0x117F PUSH0 NOT DUP5 PUSH1 0x8 MUL PUSH2 0x1164 JUMP JUMPDEST NOT DUP1 DUP4 AND SWAP2 POP POP SWAP3 SWAP2 POP POP JUMP JUMPDEST PUSH0 PUSH2 0x1197 DUP4 DUP4 PUSH2 0x1170 JUMP JUMPDEST SWAP2 POP DUP3 PUSH1 0x2 MUL DUP3 OR SWAP1 POP SWAP3 SWAP2 POP POP JUMP JUMPDEST PUSH2 0x11B0 DUP3 PUSH2 0xB57 JUMP JUMPDEST PUSH8 0xFFFFFFFFFFFFFFFF DUP2 GT ISZERO PUSH2 0x11C9 JUMPI PUSH2 0x11C8 PUSH2 0xC4E JUMP JUMPDEST JUMPDEST PUSH2 0x11D3 DUP3 SLOAD PUSH2 0xF09 JUMP JUMPDEST PUSH2 0x11DE DUP3 DUP3 DUP6 PUSH2 0x111E JUMP JUMPDEST PUSH0 PUSH1 0x20 SWAP1 POP PUSH1 0x1F DUP4 GT PUSH1 0x1 DUP2 EQ PUSH2 0x120F JUMPI PUSH0 DUP5 ISZERO PUSH2 0x11FD JUMPI DUP3 DUP8 ADD MLOAD SWAP1 POP JUMPDEST PUSH2 0x1207 DUP6 DUP3 PUSH2 0x118C JUMP JUMPDEST DUP7 SSTORE POP PUSH2 0x126E JUMP JUMPDEST PUSH1 0x1F NOT DUP5 AND PUSH2 0x121D DUP7 PUSH2 0x100A JUMP JUMPDEST PUSH0 JUMPDEST DUP3 DUP2 LT ISZERO PUSH2 0x1244 JUMPI DUP5 DUP10 ADD MLOAD DUP3 SSTORE PUSH1 0x1 DUP3 ADD SWAP2 POP PUSH1 0x20 DUP6 ADD SWAP5 POP PUSH1 0x20 DUP2 ADD SWAP1 POP PUSH2 0x121F JUMP JUMPDEST DUP7 DUP4 LT ISZERO PUSH2 0x1261 JUMPI DUP5 DUP10 ADD MLOAD PUSH2 0x125D PUSH1 0x1F DUP10 AND DUP3 PUSH2 0x1170 JUMP JUMPDEST DUP4 SSTORE POP JUMPDEST PUSH1 0x1 PUSH1 0x2 DUP9 MUL ADD DUP9 SSTORE POP POP POP JUMPDEST POP POP POP POP POP POP JUMP INVALID LOG2 PUSH5 0x6970667358 0x22 SLT KECCAK256 DUP3 POP CALLCODE 0xC9 SMOD 0xB7 0xBF GASLIMIT DUP6 0xB0 EQ 0x1F 0x2F 0xE9 0x2D BYTE 0xEF 0xA8 0xE4 0x2B DUP11 PUSH5 0x89EC1F0CEB CALLVALUE 0xB5 0xBC PUSH3 0x7C6473 PUSH16 0x6C634300081600330000000000000000 "
				},
				"gasEstimates": {
					"creation": {
						"codeDepositCost": "956000",
						"executionCost": "52368",
						"totalCost": "1008368"
					},
					"external": {
						"addBet(uint8)": "infinite",
						"addGame(string)": "infinite",
						"addGameWinner(uint8)": "51168",
						"declareBetWinner()": "infinite",
						"game()": "infinite",
						"owner()": "2527",
						"removeGame()": "infinite"
					}
				},
				"methodIdentifiers": {
					"addBet(uint8)": "74061a93",
					"addGame(string)": "e89826ac",
					"addGameWinner(uint8)": "85c48207",
					"declareBetWinner()": "57da244c",
					"game()": "c3fe3e28",
					"owner()": "8da5cb5b",
					"removeGame()": "1a9a01fb"
				}
			},
			"storageLayout": {
				"storage": [
					{
						"astId": 3,
						"contract": "contracts/BetContract.sol:BetContract",
						"label": "owner",
						"offset": 0,
						"slot": "0",
						"type": "t_address"
					},
					{
						"astId": 6,
						"contract": "contracts/BetContract.sol:BetContract",
						"label": "maxBetCount",
						"offset": 0,
						"slot": "1",
						"type": "t_uint256"
					},
					{
						"astId": 9,
						"contract": "contracts/BetContract.sol:BetContract",
						"label": "allBets",
						"offset": 0,
						"slot": "2",
						"type": "t_uint256"
					},
					{
						"astId": 29,
						"contract": "contracts/BetContract.sol:BetContract",
						"label": "game",
						"offset": 0,
						"slot": "3",
						"type": "t_struct(Game)26_storage"
					},
					{
						"astId": 33,
						"contract": "contracts/BetContract.sol:BetContract",
						"label": "bets",
						"offset": 0,
						"slot": "5",
						"type": "t_array(t_struct(Bet)19_storage)dyn_storage"
					}
				],
				"types": {
					"t_address": {
						"encoding": "inplace",
						"label": "address",
						"numberOfBytes": "20"
					},
					"t_array(t_struct(Bet)19_storage)dyn_storage": {
						"base": "t_struct(Bet)19_storage",
						"encoding": "dynamic_array",
						"label": "struct BetContract.Bet[]",
						"numberOfBytes": "32"
					},
					"t_bool": {
						"encoding": "inplace",
						"label": "bool",
						"numberOfBytes": "1"
					},
					"t_string_storage": {
						"encoding": "bytes",
						"label": "string",
						"numberOfBytes": "32"
					},
					"t_struct(Bet)19_storage": {
						"encoding": "inplace",
						"label": "struct BetContract.Bet",
						"members": [
							{
								"astId": 11,
								"contract": "contracts/BetContract.sol:BetContract",
								"label": "user",
								"offset": 0,
								"slot": "0",
								"type": "t_address"
							},
							{
								"astId": 14,
								"contract": "contracts/BetContract.sol:BetContract",
								"label": "game",
								"offset": 0,
								"slot": "1",
								"type": "t_struct(Game)26_storage"
							},
							{
								"astId": 16,
								"contract": "contracts/BetContract.sol:BetContract",
								"label": "winPrediction",
								"offset": 0,
								"slot": "3",
								"type": "t_uint8"
							},
							{
								"astId": 18,
								"contract": "contracts/BetContract.sol:BetContract",
								"label": "amount",
								"offset": 0,
								"slot": "4",
								"type": "t_uint256"
							}
						],
						"numberOfBytes": "160"
					},
					"t_struct(Game)26_storage": {
						"encoding": "inplace",
						"label": "struct BetContract.Game",
						"members": [
							{
								"astId": 21,
								"contract": "contracts/BetContract.sol:BetContract",
								"label": "name",
								"offset": 0,
								"slot": "0",
								"type": "t_string_storage"
							},
							{
								"astId": 23,
								"contract": "contracts/BetContract.sol:BetContract",
								"label": "winner",
								"offset": 0,
								"slot": "1",
								"type": "t_uint8"
							},
							{
								"astId": 25,
								"contract": "contracts/BetContract.sol:BetContract",
								"label": "isOver",
								"offset": 1,
								"slot": "1",
								"type": "t_bool"
							}
						],
						"numberOfBytes": "64"
					},
					"t_uint256": {
						"encoding": "inplace",
						"label": "uint256",
						"numberOfBytes": "32"
					},
					"t_uint8": {
						"encoding": "inplace",
						"label": "uint8",
						"numberOfBytes": "1"
					}
				}
			},
			"userdoc": {
				"kind": "user",
				"methods": {},
				"version": 1
			}
		}
	}
}