{
	"contracts/Betting.sol": {
		"Betting": {
			"abi": [
				{
					"inputs": [],
					"stateMutability": "nonpayable",
					"type": "constructor"
				},
				{
					"inputs": [
						{
							"internalType": "uint8",
							"name": "_teamSelected",
							"type": "uint8"
						}
					],
					"name": "bet",
					"outputs": [],
					"stateMutability": "payable",
					"type": "function"
				},
				{
					"inputs": [
						{
							"internalType": "address",
							"name": "player",
							"type": "address"
						}
					],
					"name": "checkPlayerExists",
					"outputs": [
						{
							"internalType": "bool",
							"name": "",
							"type": "bool"
						}
					],
					"stateMutability": "view",
					"type": "function"
				},
				{
					"inputs": [],
					"name": "minimumBet",
					"outputs": [
						{
							"internalType": "uint256",
							"name": "",
							"type": "uint256"
						}
					],
					"stateMutability": "view",
					"type": "function"
				},
				{
					"inputs": [],
					"name": "numberOfBets",
					"outputs": [
						{
							"internalType": "uint256",
							"name": "",
							"type": "uint256"
						}
					],
					"stateMutability": "view",
					"type": "function"
				},
				{
					"inputs": [
						{
							"internalType": "address",
							"name": "",
							"type": "address"
						}
					],
					"name": "playerInfo",
					"outputs": [
						{
							"internalType": "uint256",
							"name": "amountBet",
							"type": "uint256"
						},
						{
							"internalType": "uint16",
							"name": "teamSelected",
							"type": "uint16"
						}
					],
					"stateMutability": "view",
					"type": "function"
				},
				{
					"inputs": [
						{
							"internalType": "uint256",
							"name": "",
							"type": "uint256"
						}
					],
					"name": "players",
					"outputs": [
						{
							"internalType": "address payable",
							"name": "",
							"type": "address"
						}
					],
					"stateMutability": "view",
					"type": "function"
				},
				{
					"inputs": [],
					"name": "totalBetOne",
					"outputs": [
						{
							"internalType": "uint256",
							"name": "",
							"type": "uint256"
						}
					],
					"stateMutability": "view",
					"type": "function"
				},
				{
					"inputs": [],
					"name": "totalBetTwo",
					"outputs": [
						{
							"internalType": "uint256",
							"name": "",
							"type": "uint256"
						}
					],
					"stateMutability": "view",
					"type": "function"
				}
			],
			"devdoc": {
				"kind": "dev",
				"methods": {},
				"version": 1
			},
			"evm": {
				"assembly": "    /* \"contracts/Betting.sol\":70:1516  contract Betting {... */\n  mstore(0x40, 0x80)\n    /* \"contracts/Betting.sol\":448:512  constructor() {... */\n  callvalue\n  dup1\n  iszero\n  tag_1\n  jumpi\n  0x00\n  dup1\n  revert\ntag_1:\n  pop\n    /* \"contracts/Betting.sol\":485:486  1 */\n  0x01\n    /* \"contracts/Betting.sol\":472:482  minimumBet */\n  0x00\n    /* \"contracts/Betting.sol\":472:486  minimumBet = 1 */\n  dup2\n  swap1\n  sstore\n  pop\n    /* \"contracts/Betting.sol\":70:1516  contract Betting {... */\n  dataSize(sub_0)\n  dup1\n  dataOffset(sub_0)\n  0x00\n  codecopy\n  0x00\n  return\nstop\n\nsub_0: assembly {\n        /* \"contracts/Betting.sol\":70:1516  contract Betting {... */\n      mstore(0x40, 0x80)\n      jumpi(tag_1, lt(calldatasize, 0x04))\n      shr(0xe0, calldataload(0x00))\n      dup1\n      0xc2b5a504\n      gt\n      tag_10\n      jumpi\n      dup1\n      0xc2b5a504\n      eq\n      tag_6\n      jumpi\n      dup1\n      0xc38a8afd\n      eq\n      tag_7\n      jumpi\n      dup1\n      0xd0821b0e\n      eq\n      tag_8\n      jumpi\n      dup1\n      0xf71d96cb\n      eq\n      tag_9\n      jumpi\n      jump(tag_1)\n    tag_10:\n      dup1\n      0x2ca8c6d3\n      eq\n      tag_2\n      jumpi\n      dup1\n      0x4081d916\n      eq\n      tag_3\n      jumpi\n      dup1\n      0x4b114691\n      eq\n      tag_4\n      jumpi\n      dup1\n      0x7863117e\n      eq\n      tag_5\n      jumpi\n    tag_1:\n      0x00\n      dup1\n      revert\n        /* \"contracts/Betting.sol\":188:215  uint256 public numberOfBets */\n    tag_2:\n      callvalue\n      dup1\n      iszero\n      tag_11\n      jumpi\n      0x00\n      dup1\n      revert\n    tag_11:\n      pop\n      tag_12\n      tag_13\n      jump\t// in\n    tag_12:\n      mload(0x40)\n      tag_14\n      swap2\n      swap1\n      tag_15\n      jump\t// in\n    tag_14:\n      mload(0x40)\n      dup1\n      swap2\n      sub\n      swap1\n      return\n        /* \"contracts/Betting.sol\":556:766  function checkPlayerExists(address player) public view returns(bool){... */\n    tag_3:\n      callvalue\n      dup1\n      iszero\n      tag_16\n      jumpi\n      0x00\n      dup1\n      revert\n    tag_16:\n      pop\n      tag_17\n      0x04\n      dup1\n      calldatasize\n      sub\n      dup2\n      add\n      swap1\n      tag_18\n      swap2\n      swap1\n      tag_19\n      jump\t// in\n    tag_18:\n      tag_20\n      jump\t// in\n    tag_17:\n      mload(0x40)\n      tag_21\n      swap2\n      swap1\n      tag_22\n      jump\t// in\n    tag_21:\n      mload(0x40)\n      dup1\n      swap2\n      sub\n      swap1\n      return\n        /* \"contracts/Betting.sol\":397:441  mapping(address => Player) public playerInfo */\n    tag_4:\n      callvalue\n      dup1\n      iszero\n      tag_23\n      jumpi\n      0x00\n      dup1\n      revert\n    tag_23:\n      pop\n      tag_24\n      0x04\n      dup1\n      calldatasize\n      sub\n      dup2\n      add\n      swap1\n      tag_25\n      swap2\n      swap1\n      tag_19\n      jump\t// in\n    tag_25:\n      tag_26\n      jump\t// in\n    tag_24:\n      mload(0x40)\n      tag_27\n      swap3\n      swap2\n      swap1\n      tag_28\n      jump\t// in\n    tag_27:\n      mload(0x40)\n      dup1\n      swap2\n      sub\n      swap1\n      return\n        /* \"contracts/Betting.sol\":124:150  uint256 public totalBetOne */\n    tag_5:\n      callvalue\n      dup1\n      iszero\n      tag_29\n      jumpi\n      0x00\n      dup1\n      revert\n    tag_29:\n      pop\n      tag_30\n      tag_31\n      jump\t// in\n    tag_30:\n      mload(0x40)\n      tag_32\n      swap2\n      swap1\n      tag_15\n      jump\t// in\n    tag_32:\n      mload(0x40)\n      dup1\n      swap2\n      sub\n      swap1\n      return\n        /* \"contracts/Betting.sol\":156:182  uint256 public totalBetTwo */\n    tag_6:\n      callvalue\n      dup1\n      iszero\n      tag_33\n      jumpi\n      0x00\n      dup1\n      revert\n    tag_33:\n      pop\n      tag_34\n      tag_35\n      jump\t// in\n    tag_34:\n      mload(0x40)\n      tag_36\n      swap2\n      swap1\n      tag_15\n      jump\t// in\n    tag_36:\n      mload(0x40)\n      dup1\n      swap2\n      sub\n      swap1\n      return\n        /* \"contracts/Betting.sol\":93:118  uint256 public minimumBet */\n    tag_7:\n      callvalue\n      dup1\n      iszero\n      tag_37\n      jumpi\n      0x00\n      dup1\n      revert\n    tag_37:\n      pop\n      tag_38\n      tag_39\n      jump\t// in\n    tag_38:\n      mload(0x40)\n      tag_40\n      swap2\n      swap1\n      tag_15\n      jump\t// in\n    tag_40:\n      mload(0x40)\n      dup1\n      swap2\n      sub\n      swap1\n      return\n        /* \"contracts/Betting.sol\":772:1513  function bet(uint8 _teamSelected) public payable {... */\n    tag_8:\n      tag_41\n      0x04\n      dup1\n      calldatasize\n      sub\n      dup2\n      add\n      swap1\n      tag_42\n      swap2\n      swap1\n      tag_43\n      jump\t// in\n    tag_42:\n      tag_44\n      jump\t// in\n    tag_41:\n      stop\n        /* \"contracts/Betting.sol\":222:254  address payable[] public players */\n    tag_9:\n      callvalue\n      dup1\n      iszero\n      tag_45\n      jumpi\n      0x00\n      dup1\n      revert\n    tag_45:\n      pop\n      tag_46\n      0x04\n      dup1\n      calldatasize\n      sub\n      dup2\n      add\n      swap1\n      tag_47\n      swap2\n      swap1\n      tag_48\n      jump\t// in\n    tag_47:\n      tag_49\n      jump\t// in\n    tag_46:\n      mload(0x40)\n      tag_50\n      swap2\n      swap1\n      tag_51\n      jump\t// in\n    tag_50:\n      mload(0x40)\n      dup1\n      swap2\n      sub\n      swap1\n      return\n        /* \"contracts/Betting.sol\":188:215  uint256 public numberOfBets */\n    tag_13:\n      sload(0x03)\n      dup2\n      jump\t// out\n        /* \"contracts/Betting.sol\":556:766  function checkPlayerExists(address player) public view returns(bool){... */\n    tag_20:\n        /* \"contracts/Betting.sol\":619:623  bool */\n      0x00\n        /* \"contracts/Betting.sol\":638:647  uint256 i */\n      dup1\n        /* \"contracts/Betting.sol\":650:651  0 */\n      0x00\n        /* \"contracts/Betting.sol\":638:651  uint256 i = 0 */\n      swap1\n      pop\n        /* \"contracts/Betting.sol\":634:738  for(uint256 i = 0; i < players.length; i++){... */\n    tag_53:\n        /* \"contracts/Betting.sol\":657:664  players */\n      0x04\n        /* \"contracts/Betting.sol\":657:671  players.length */\n      dup1\n      sload\n      swap1\n      pop\n        /* \"contracts/Betting.sol\":653:654  i */\n      dup2\n        /* \"contracts/Betting.sol\":653:671  i < players.length */\n      lt\n        /* \"contracts/Betting.sol\":634:738  for(uint256 i = 0; i < players.length; i++){... */\n      iszero\n      tag_54\n      jumpi\n        /* \"contracts/Betting.sol\":708:714  player */\n      dup3\n        /* \"contracts/Betting.sol\":694:714  players[i] == player */\n      0xffffffffffffffffffffffffffffffffffffffff\n      and\n        /* \"contracts/Betting.sol\":694:701  players */\n      0x04\n        /* \"contracts/Betting.sol\":702:703  i */\n      dup3\n        /* \"contracts/Betting.sol\":694:704  players[i] */\n      dup2\n      sload\n      dup2\n      lt\n      tag_56\n      jumpi\n      tag_57\n      tag_58\n      jump\t// in\n    tag_57:\n    tag_56:\n      swap1\n      0x00\n      mstore\n      keccak256(0x00, 0x20)\n      add\n      0x00\n      swap1\n      sload\n      swap1\n      0x0100\n      exp\n      swap1\n      div\n      0xffffffffffffffffffffffffffffffffffffffff\n      and\n        /* \"contracts/Betting.sol\":694:714  players[i] == player */\n      0xffffffffffffffffffffffffffffffffffffffff\n      and\n      sub\n        /* \"contracts/Betting.sol\":691:727  if(players[i] == player) return true */\n      tag_60\n      jumpi\n        /* \"contracts/Betting.sol\":723:727  true */\n      0x01\n        /* \"contracts/Betting.sol\":716:727  return true */\n      swap2\n      pop\n      pop\n      jump(tag_52)\n        /* \"contracts/Betting.sol\":691:727  if(players[i] == player) return true */\n    tag_60:\n        /* \"contracts/Betting.sol\":673:676  i++ */\n      dup1\n      dup1\n      0x01\n      add\n      swap2\n      pop\n      pop\n        /* \"contracts/Betting.sol\":634:738  for(uint256 i = 0; i < players.length; i++){... */\n      jump(tag_53)\n    tag_54:\n      pop\n        /* \"contracts/Betting.sol\":754:759  false */\n      0x00\n        /* \"contracts/Betting.sol\":747:759  return false */\n      swap1\n      pop\n        /* \"contracts/Betting.sol\":556:766  function checkPlayerExists(address player) public view returns(bool){... */\n    tag_52:\n      swap2\n      swap1\n      pop\n      jump\t// out\n        /* \"contracts/Betting.sol\":397:441  mapping(address => Player) public playerInfo */\n    tag_26:\n      mstore(0x20, 0x05)\n      dup1\n      0x00\n      mstore\n      keccak256(0x00, 0x40)\n      0x00\n      swap2\n      pop\n      swap1\n      pop\n      dup1\n      0x00\n      add\n      sload\n      swap1\n      dup1\n      0x01\n      add\n      0x00\n      swap1\n      sload\n      swap1\n      0x0100\n      exp\n      swap1\n      div\n      0xffff\n      and\n      swap1\n      pop\n      dup3\n      jump\t// out\n        /* \"contracts/Betting.sol\":124:150  uint256 public totalBetOne */\n    tag_31:\n      sload(0x01)\n      dup2\n      jump\t// out\n        /* \"contracts/Betting.sol\":156:182  uint256 public totalBetTwo */\n    tag_35:\n      sload(0x02)\n      dup2\n      jump\t// out\n        /* \"contracts/Betting.sol\":93:118  uint256 public minimumBet */\n    tag_39:\n      sload(0x00)\n      dup2\n      jump\t// out\n        /* \"contracts/Betting.sol\":772:1513  function bet(uint8 _teamSelected) public payable {... */\n    tag_44:\n        /* \"contracts/Betting.sol\":884:913  checkPlayerExists(msg.sender) */\n      tag_62\n        /* \"contracts/Betting.sol\":902:912  msg.sender */\n      caller\n        /* \"contracts/Betting.sol\":884:901  checkPlayerExists */\n      tag_20\n        /* \"contracts/Betting.sol\":884:913  checkPlayerExists(msg.sender) */\n      jump\t// in\n    tag_62:\n        /* \"contracts/Betting.sol\":883:913  !checkPlayerExists(msg.sender) */\n      iszero\n        /* \"contracts/Betting.sol\":875:914  require(!checkPlayerExists(msg.sender)) */\n      tag_63\n      jumpi\n      0x00\n      dup1\n      revert\n    tag_63:\n        /* \"contracts/Betting.sol\":986:996  minimumBet */\n      sload(0x00)\n        /* \"contracts/Betting.sol\":973:982  msg.value */\n      callvalue\n        /* \"contracts/Betting.sol\":973:996  msg.value >= minimumBet */\n      lt\n      iszero\n        /* \"contracts/Betting.sol\":965:997  require(msg.value >= minimumBet) */\n      tag_64\n      jumpi\n      0x00\n      dup1\n      revert\n    tag_64:\n        /* \"contracts/Betting.sol\":1123:1132  msg.value */\n      callvalue\n        /* \"contracts/Betting.sol\":1088:1098  playerInfo */\n      0x05\n        /* \"contracts/Betting.sol\":1088:1110  playerInfo[msg.sender] */\n      0x00\n        /* \"contracts/Betting.sol\":1099:1109  msg.sender */\n      caller\n        /* \"contracts/Betting.sol\":1088:1110  playerInfo[msg.sender] */\n      0xffffffffffffffffffffffffffffffffffffffff\n      and\n      0xffffffffffffffffffffffffffffffffffffffff\n      and\n      dup2\n      mstore\n      0x20\n      add\n      swap1\n      dup2\n      mstore\n      0x20\n      add\n      0x00\n      keccak256\n        /* \"contracts/Betting.sol\":1088:1120  playerInfo[msg.sender].amountBet */\n      0x00\n      add\n        /* \"contracts/Betting.sol\":1088:1132  playerInfo[msg.sender].amountBet = msg.value */\n      dup2\n      swap1\n      sstore\n      pop\n        /* \"contracts/Betting.sol\":1180:1193  _teamSelected */\n      dup1\n        /* \"contracts/Betting.sol\":1142:1193  playerInfo[msg.sender].teamSelected = _teamSelected */\n      0xff\n      and\n        /* \"contracts/Betting.sol\":1142:1152  playerInfo */\n      0x05\n        /* \"contracts/Betting.sol\":1142:1164  playerInfo[msg.sender] */\n      0x00\n        /* \"contracts/Betting.sol\":1153:1163  msg.sender */\n      caller\n        /* \"contracts/Betting.sol\":1142:1164  playerInfo[msg.sender] */\n      0xffffffffffffffffffffffffffffffffffffffff\n      and\n      0xffffffffffffffffffffffffffffffffffffffff\n      and\n      dup2\n      mstore\n      0x20\n      add\n      swap1\n      dup2\n      mstore\n      0x20\n      add\n      0x00\n      keccak256\n        /* \"contracts/Betting.sol\":1142:1177  playerInfo[msg.sender].teamSelected */\n      0x01\n      add\n      0x00\n        /* \"contracts/Betting.sol\":1142:1193  playerInfo[msg.sender].teamSelected = _teamSelected */\n      0x0100\n      exp\n      dup2\n      sload\n      dup2\n      0xffff\n      mul\n      not\n      and\n      swap1\n      dup4\n      0xffff\n      and\n      mul\n      or\n      swap1\n      sstore\n      pop\n        /* \"contracts/Betting.sol\":1394:1395  1 */\n      0x01\n        /* \"contracts/Betting.sol\":1377:1390  _teamSelected */\n      dup2\n        /* \"contracts/Betting.sol\":1377:1395  _teamSelected == 1 */\n      0xff\n      and\n      sub\n        /* \"contracts/Betting.sol\":1372:1508  if ( _teamSelected == 1){... */\n      tag_65\n      jumpi\n        /* \"contracts/Betting.sol\":1425:1434  msg.value */\n      callvalue\n        /* \"contracts/Betting.sol\":1410:1421  totalBetOne */\n      0x01\n      0x00\n        /* \"contracts/Betting.sol\":1410:1434  totalBetOne += msg.value */\n      dup3\n      dup3\n      sload\n      tag_66\n      swap2\n      swap1\n      tag_67\n      jump\t// in\n    tag_66:\n      swap3\n      pop\n      pop\n      dup2\n      swap1\n      sstore\n      pop\n        /* \"contracts/Betting.sol\":1372:1508  if ( _teamSelected == 1){... */\n      jump(tag_68)\n    tag_65:\n        /* \"contracts/Betting.sol\":1488:1497  msg.value */\n      callvalue\n        /* \"contracts/Betting.sol\":1473:1484  totalBetTwo */\n      0x02\n      0x00\n        /* \"contracts/Betting.sol\":1473:1497  totalBetTwo += msg.value */\n      dup3\n      dup3\n      sload\n      tag_69\n      swap2\n      swap1\n      tag_67\n      jump\t// in\n    tag_69:\n      swap3\n      pop\n      pop\n      dup2\n      swap1\n      sstore\n      pop\n        /* \"contracts/Betting.sol\":1372:1508  if ( _teamSelected == 1){... */\n    tag_68:\n        /* \"contracts/Betting.sol\":772:1513  function bet(uint8 _teamSelected) public payable {... */\n      pop\n      jump\t// out\n        /* \"contracts/Betting.sol\":222:254  address payable[] public players */\n    tag_49:\n      0x04\n      dup2\n      dup2\n      sload\n      dup2\n      lt\n      tag_70\n      jumpi\n      0x00\n      dup1\n      revert\n    tag_70:\n      swap1\n      0x00\n      mstore\n      keccak256(0x00, 0x20)\n      add\n      0x00\n      swap2\n      pop\n      sload\n      swap1\n      0x0100\n      exp\n      swap1\n      div\n      0xffffffffffffffffffffffffffffffffffffffff\n      and\n      dup2\n      jump\t// out\n        /* \"#utility.yul\":7:84   */\n    tag_72:\n        /* \"#utility.yul\":44:51   */\n      0x00\n        /* \"#utility.yul\":73:78   */\n      dup2\n        /* \"#utility.yul\":62:78   */\n      swap1\n      pop\n        /* \"#utility.yul\":7:84   */\n      swap2\n      swap1\n      pop\n      jump\t// out\n        /* \"#utility.yul\":90:208   */\n    tag_73:\n        /* \"#utility.yul\":177:201   */\n      tag_96\n        /* \"#utility.yul\":195:200   */\n      dup2\n        /* \"#utility.yul\":177:201   */\n      tag_72\n      jump\t// in\n    tag_96:\n        /* \"#utility.yul\":172:175   */\n      dup3\n        /* \"#utility.yul\":165:202   */\n      mstore\n        /* \"#utility.yul\":90:208   */\n      pop\n      pop\n      jump\t// out\n        /* \"#utility.yul\":214:436   */\n    tag_15:\n        /* \"#utility.yul\":307:311   */\n      0x00\n        /* \"#utility.yul\":345:347   */\n      0x20\n        /* \"#utility.yul\":334:343   */\n      dup3\n        /* \"#utility.yul\":330:348   */\n      add\n        /* \"#utility.yul\":322:348   */\n      swap1\n      pop\n        /* \"#utility.yul\":358:429   */\n      tag_98\n        /* \"#utility.yul\":426:427   */\n      0x00\n        /* \"#utility.yul\":415:424   */\n      dup4\n        /* \"#utility.yul\":411:428   */\n      add\n        /* \"#utility.yul\":402:408   */\n      dup5\n        /* \"#utility.yul\":358:429   */\n      tag_73\n      jump\t// in\n    tag_98:\n        /* \"#utility.yul\":214:436   */\n      swap3\n      swap2\n      pop\n      pop\n      jump\t// out\n        /* \"#utility.yul\":523:640   */\n    tag_75:\n        /* \"#utility.yul\":632:633   */\n      0x00\n        /* \"#utility.yul\":629:630   */\n      dup1\n        /* \"#utility.yul\":622:634   */\n      revert\n        /* \"#utility.yul\":769:895   */\n    tag_77:\n        /* \"#utility.yul\":806:813   */\n      0x00\n        /* \"#utility.yul\":846:888   */\n      0xffffffffffffffffffffffffffffffffffffffff\n        /* \"#utility.yul\":839:844   */\n      dup3\n        /* \"#utility.yul\":835:889   */\n      and\n        /* \"#utility.yul\":824:889   */\n      swap1\n      pop\n        /* \"#utility.yul\":769:895   */\n      swap2\n      swap1\n      pop\n      jump\t// out\n        /* \"#utility.yul\":901:997   */\n    tag_78:\n        /* \"#utility.yul\":938:945   */\n      0x00\n        /* \"#utility.yul\":967:991   */\n      tag_104\n        /* \"#utility.yul\":985:990   */\n      dup3\n        /* \"#utility.yul\":967:991   */\n      tag_77\n      jump\t// in\n    tag_104:\n        /* \"#utility.yul\":956:991   */\n      swap1\n      pop\n        /* \"#utility.yul\":901:997   */\n      swap2\n      swap1\n      pop\n      jump\t// out\n        /* \"#utility.yul\":1003:1125   */\n    tag_79:\n        /* \"#utility.yul\":1076:1100   */\n      tag_106\n        /* \"#utility.yul\":1094:1099   */\n      dup2\n        /* \"#utility.yul\":1076:1100   */\n      tag_78\n      jump\t// in\n    tag_106:\n        /* \"#utility.yul\":1069:1074   */\n      dup2\n        /* \"#utility.yul\":1066:1101   */\n      eq\n        /* \"#utility.yul\":1056:1119   */\n      tag_107\n      jumpi\n        /* \"#utility.yul\":1115:1116   */\n      0x00\n        /* \"#utility.yul\":1112:1113   */\n      dup1\n        /* \"#utility.yul\":1105:1117   */\n      revert\n        /* \"#utility.yul\":1056:1119   */\n    tag_107:\n        /* \"#utility.yul\":1003:1125   */\n      pop\n      jump\t// out\n        /* \"#utility.yul\":1131:1270   */\n    tag_80:\n        /* \"#utility.yul\":1177:1182   */\n      0x00\n        /* \"#utility.yul\":1215:1221   */\n      dup2\n        /* \"#utility.yul\":1202:1222   */\n      calldataload\n        /* \"#utility.yul\":1193:1222   */\n      swap1\n      pop\n        /* \"#utility.yul\":1231:1264   */\n      tag_109\n        /* \"#utility.yul\":1258:1263   */\n      dup2\n        /* \"#utility.yul\":1231:1264   */\n      tag_79\n      jump\t// in\n    tag_109:\n        /* \"#utility.yul\":1131:1270   */\n      swap3\n      swap2\n      pop\n      pop\n      jump\t// out\n        /* \"#utility.yul\":1276:1605   */\n    tag_19:\n        /* \"#utility.yul\":1335:1341   */\n      0x00\n        /* \"#utility.yul\":1384:1386   */\n      0x20\n        /* \"#utility.yul\":1372:1381   */\n      dup3\n        /* \"#utility.yul\":1363:1370   */\n      dup5\n        /* \"#utility.yul\":1359:1382   */\n      sub\n        /* \"#utility.yul\":1355:1387   */\n      slt\n        /* \"#utility.yul\":1352:1471   */\n      iszero\n      tag_111\n      jumpi\n        /* \"#utility.yul\":1390:1469   */\n      tag_112\n      tag_75\n      jump\t// in\n    tag_112:\n        /* \"#utility.yul\":1352:1471   */\n    tag_111:\n        /* \"#utility.yul\":1510:1511   */\n      0x00\n        /* \"#utility.yul\":1535:1588   */\n      tag_113\n        /* \"#utility.yul\":1580:1587   */\n      dup5\n        /* \"#utility.yul\":1571:1577   */\n      dup3\n        /* \"#utility.yul\":1560:1569   */\n      dup6\n        /* \"#utility.yul\":1556:1578   */\n      add\n        /* \"#utility.yul\":1535:1588   */\n      tag_80\n      jump\t// in\n    tag_113:\n        /* \"#utility.yul\":1525:1588   */\n      swap2\n      pop\n        /* \"#utility.yul\":1481:1598   */\n      pop\n        /* \"#utility.yul\":1276:1605   */\n      swap3\n      swap2\n      pop\n      pop\n      jump\t// out\n        /* \"#utility.yul\":1611:1701   */\n    tag_81:\n        /* \"#utility.yul\":1645:1652   */\n      0x00\n        /* \"#utility.yul\":1688:1693   */\n      dup2\n        /* \"#utility.yul\":1681:1694   */\n      iszero\n        /* \"#utility.yul\":1674:1695   */\n      iszero\n        /* \"#utility.yul\":1663:1695   */\n      swap1\n      pop\n        /* \"#utility.yul\":1611:1701   */\n      swap2\n      swap1\n      pop\n      jump\t// out\n        /* \"#utility.yul\":1707:1816   */\n    tag_82:\n        /* \"#utility.yul\":1788:1809   */\n      tag_116\n        /* \"#utility.yul\":1803:1808   */\n      dup2\n        /* \"#utility.yul\":1788:1809   */\n      tag_81\n      jump\t// in\n    tag_116:\n        /* \"#utility.yul\":1783:1786   */\n      dup3\n        /* \"#utility.yul\":1776:1810   */\n      mstore\n        /* \"#utility.yul\":1707:1816   */\n      pop\n      pop\n      jump\t// out\n        /* \"#utility.yul\":1822:2032   */\n    tag_22:\n        /* \"#utility.yul\":1909:1913   */\n      0x00\n        /* \"#utility.yul\":1947:1949   */\n      0x20\n        /* \"#utility.yul\":1936:1945   */\n      dup3\n        /* \"#utility.yul\":1932:1950   */\n      add\n        /* \"#utility.yul\":1924:1950   */\n      swap1\n      pop\n        /* \"#utility.yul\":1960:2025   */\n      tag_118\n        /* \"#utility.yul\":2022:2023   */\n      0x00\n        /* \"#utility.yul\":2011:2020   */\n      dup4\n        /* \"#utility.yul\":2007:2024   */\n      add\n        /* \"#utility.yul\":1998:2004   */\n      dup5\n        /* \"#utility.yul\":1960:2025   */\n      tag_82\n      jump\t// in\n    tag_118:\n        /* \"#utility.yul\":1822:2032   */\n      swap3\n      swap2\n      pop\n      pop\n      jump\t// out\n        /* \"#utility.yul\":2038:2127   */\n    tag_83:\n        /* \"#utility.yul\":2074:2081   */\n      0x00\n        /* \"#utility.yul\":2114:2120   */\n      0xffff\n        /* \"#utility.yul\":2107:2112   */\n      dup3\n        /* \"#utility.yul\":2103:2121   */\n      and\n        /* \"#utility.yul\":2092:2121   */\n      swap1\n      pop\n        /* \"#utility.yul\":2038:2127   */\n      swap2\n      swap1\n      pop\n      jump\t// out\n        /* \"#utility.yul\":2133:2248   */\n    tag_84:\n        /* \"#utility.yul\":2218:2241   */\n      tag_121\n        /* \"#utility.yul\":2235:2240   */\n      dup2\n        /* \"#utility.yul\":2218:2241   */\n      tag_83\n      jump\t// in\n    tag_121:\n        /* \"#utility.yul\":2213:2216   */\n      dup3\n        /* \"#utility.yul\":2206:2242   */\n      mstore\n        /* \"#utility.yul\":2133:2248   */\n      pop\n      pop\n      jump\t// out\n        /* \"#utility.yul\":2254:2582   */\n    tag_28:\n        /* \"#utility.yul\":2373:2377   */\n      0x00\n        /* \"#utility.yul\":2411:2413   */\n      0x40\n        /* \"#utility.yul\":2400:2409   */\n      dup3\n        /* \"#utility.yul\":2396:2414   */\n      add\n        /* \"#utility.yul\":2388:2414   */\n      swap1\n      pop\n        /* \"#utility.yul\":2424:2495   */\n      tag_123\n        /* \"#utility.yul\":2492:2493   */\n      0x00\n        /* \"#utility.yul\":2481:2490   */\n      dup4\n        /* \"#utility.yul\":2477:2494   */\n      add\n        /* \"#utility.yul\":2468:2474   */\n      dup6\n        /* \"#utility.yul\":2424:2495   */\n      tag_73\n      jump\t// in\n    tag_123:\n        /* \"#utility.yul\":2505:2575   */\n      tag_124\n        /* \"#utility.yul\":2571:2573   */\n      0x20\n        /* \"#utility.yul\":2560:2569   */\n      dup4\n        /* \"#utility.yul\":2556:2574   */\n      add\n        /* \"#utility.yul\":2547:2553   */\n      dup5\n        /* \"#utility.yul\":2505:2575   */\n      tag_84\n      jump\t// in\n    tag_124:\n        /* \"#utility.yul\":2254:2582   */\n      swap4\n      swap3\n      pop\n      pop\n      pop\n      jump\t// out\n        /* \"#utility.yul\":2588:2674   */\n    tag_85:\n        /* \"#utility.yul\":2623:2630   */\n      0x00\n        /* \"#utility.yul\":2663:2667   */\n      0xff\n        /* \"#utility.yul\":2656:2661   */\n      dup3\n        /* \"#utility.yul\":2652:2668   */\n      and\n        /* \"#utility.yul\":2641:2668   */\n      swap1\n      pop\n        /* \"#utility.yul\":2588:2674   */\n      swap2\n      swap1\n      pop\n      jump\t// out\n        /* \"#utility.yul\":2680:2798   */\n    tag_86:\n        /* \"#utility.yul\":2751:2773   */\n      tag_127\n        /* \"#utility.yul\":2767:2772   */\n      dup2\n        /* \"#utility.yul\":2751:2773   */\n      tag_85\n      jump\t// in\n    tag_127:\n        /* \"#utility.yul\":2744:2749   */\n      dup2\n        /* \"#utility.yul\":2741:2774   */\n      eq\n        /* \"#utility.yul\":2731:2792   */\n      tag_128\n      jumpi\n        /* \"#utility.yul\":2788:2789   */\n      0x00\n        /* \"#utility.yul\":2785:2786   */\n      dup1\n        /* \"#utility.yul\":2778:2790   */\n      revert\n        /* \"#utility.yul\":2731:2792   */\n    tag_128:\n        /* \"#utility.yul\":2680:2798   */\n      pop\n      jump\t// out\n        /* \"#utility.yul\":2804:2939   */\n    tag_87:\n        /* \"#utility.yul\":2848:2853   */\n      0x00\n        /* \"#utility.yul\":2886:2892   */\n      dup2\n        /* \"#utility.yul\":2873:2893   */\n      calldataload\n        /* \"#utility.yul\":2864:2893   */\n      swap1\n      pop\n        /* \"#utility.yul\":2902:2933   */\n      tag_130\n        /* \"#utility.yul\":2927:2932   */\n      dup2\n        /* \"#utility.yul\":2902:2933   */\n      tag_86\n      jump\t// in\n    tag_130:\n        /* \"#utility.yul\":2804:2939   */\n      swap3\n      swap2\n      pop\n      pop\n      jump\t// out\n        /* \"#utility.yul\":2945:3270   */\n    tag_43:\n        /* \"#utility.yul\":3002:3008   */\n      0x00\n        /* \"#utility.yul\":3051:3053   */\n      0x20\n        /* \"#utility.yul\":3039:3048   */\n      dup3\n        /* \"#utility.yul\":3030:3037   */\n      dup5\n        /* \"#utility.yul\":3026:3049   */\n      sub\n        /* \"#utility.yul\":3022:3054   */\n      slt\n        /* \"#utility.yul\":3019:3138   */\n      iszero\n      tag_132\n      jumpi\n        /* \"#utility.yul\":3057:3136   */\n      tag_133\n      tag_75\n      jump\t// in\n    tag_133:\n        /* \"#utility.yul\":3019:3138   */\n    tag_132:\n        /* \"#utility.yul\":3177:3178   */\n      0x00\n        /* \"#utility.yul\":3202:3253   */\n      tag_134\n        /* \"#utility.yul\":3245:3252   */\n      dup5\n        /* \"#utility.yul\":3236:3242   */\n      dup3\n        /* \"#utility.yul\":3225:3234   */\n      dup6\n        /* \"#utility.yul\":3221:3243   */\n      add\n        /* \"#utility.yul\":3202:3253   */\n      tag_87\n      jump\t// in\n    tag_134:\n        /* \"#utility.yul\":3192:3253   */\n      swap2\n      pop\n        /* \"#utility.yul\":3148:3263   */\n      pop\n        /* \"#utility.yul\":2945:3270   */\n      swap3\n      swap2\n      pop\n      pop\n      jump\t// out\n        /* \"#utility.yul\":3276:3398   */\n    tag_88:\n        /* \"#utility.yul\":3349:3373   */\n      tag_136\n        /* \"#utility.yul\":3367:3372   */\n      dup2\n        /* \"#utility.yul\":3349:3373   */\n      tag_72\n      jump\t// in\n    tag_136:\n        /* \"#utility.yul\":3342:3347   */\n      dup2\n        /* \"#utility.yul\":3339:3374   */\n      eq\n        /* \"#utility.yul\":3329:3392   */\n      tag_137\n      jumpi\n        /* \"#utility.yul\":3388:3389   */\n      0x00\n        /* \"#utility.yul\":3385:3386   */\n      dup1\n        /* \"#utility.yul\":3378:3390   */\n      revert\n        /* \"#utility.yul\":3329:3392   */\n    tag_137:\n        /* \"#utility.yul\":3276:3398   */\n      pop\n      jump\t// out\n        /* \"#utility.yul\":3404:3543   */\n    tag_89:\n        /* \"#utility.yul\":3450:3455   */\n      0x00\n        /* \"#utility.yul\":3488:3494   */\n      dup2\n        /* \"#utility.yul\":3475:3495   */\n      calldataload\n        /* \"#utility.yul\":3466:3495   */\n      swap1\n      pop\n        /* \"#utility.yul\":3504:3537   */\n      tag_139\n        /* \"#utility.yul\":3531:3536   */\n      dup2\n        /* \"#utility.yul\":3504:3537   */\n      tag_88\n      jump\t// in\n    tag_139:\n        /* \"#utility.yul\":3404:3543   */\n      swap3\n      swap2\n      pop\n      pop\n      jump\t// out\n        /* \"#utility.yul\":3549:3878   */\n    tag_48:\n        /* \"#utility.yul\":3608:3614   */\n      0x00\n        /* \"#utility.yul\":3657:3659   */\n      0x20\n        /* \"#utility.yul\":3645:3654   */\n      dup3\n        /* \"#utility.yul\":3636:3643   */\n      dup5\n        /* \"#utility.yul\":3632:3655   */\n      sub\n        /* \"#utility.yul\":3628:3660   */\n      slt\n        /* \"#utility.yul\":3625:3744   */\n      iszero\n      tag_141\n      jumpi\n        /* \"#utility.yul\":3663:3742   */\n      tag_142\n      tag_75\n      jump\t// in\n    tag_142:\n        /* \"#utility.yul\":3625:3744   */\n    tag_141:\n        /* \"#utility.yul\":3783:3784   */\n      0x00\n        /* \"#utility.yul\":3808:3861   */\n      tag_143\n        /* \"#utility.yul\":3853:3860   */\n      dup5\n        /* \"#utility.yul\":3844:3850   */\n      dup3\n        /* \"#utility.yul\":3833:3842   */\n      dup6\n        /* \"#utility.yul\":3829:3851   */\n      add\n        /* \"#utility.yul\":3808:3861   */\n      tag_89\n      jump\t// in\n    tag_143:\n        /* \"#utility.yul\":3798:3861   */\n      swap2\n      pop\n        /* \"#utility.yul\":3754:3871   */\n      pop\n        /* \"#utility.yul\":3549:3878   */\n      swap3\n      swap2\n      pop\n      pop\n      jump\t// out\n        /* \"#utility.yul\":3884:3988   */\n    tag_90:\n        /* \"#utility.yul\":3929:3936   */\n      0x00\n        /* \"#utility.yul\":3958:3982   */\n      tag_145\n        /* \"#utility.yul\":3976:3981   */\n      dup3\n        /* \"#utility.yul\":3958:3982   */\n      tag_77\n      jump\t// in\n    tag_145:\n        /* \"#utility.yul\":3947:3982   */\n      swap1\n      pop\n        /* \"#utility.yul\":3884:3988   */\n      swap2\n      swap1\n      pop\n      jump\t// out\n        /* \"#utility.yul\":3994:4136   */\n    tag_91:\n        /* \"#utility.yul\":4097:4129   */\n      tag_147\n        /* \"#utility.yul\":4123:4128   */\n      dup2\n        /* \"#utility.yul\":4097:4129   */\n      tag_90\n      jump\t// in\n    tag_147:\n        /* \"#utility.yul\":4092:4095   */\n      dup3\n        /* \"#utility.yul\":4085:4130   */\n      mstore\n        /* \"#utility.yul\":3994:4136   */\n      pop\n      pop\n      jump\t// out\n        /* \"#utility.yul\":4142:4396   */\n    tag_51:\n        /* \"#utility.yul\":4251:4255   */\n      0x00\n        /* \"#utility.yul\":4289:4291   */\n      0x20\n        /* \"#utility.yul\":4278:4287   */\n      dup3\n        /* \"#utility.yul\":4274:4292   */\n      add\n        /* \"#utility.yul\":4266:4292   */\n      swap1\n      pop\n        /* \"#utility.yul\":4302:4389   */\n      tag_149\n        /* \"#utility.yul\":4386:4387   */\n      0x00\n        /* \"#utility.yul\":4375:4384   */\n      dup4\n        /* \"#utility.yul\":4371:4388   */\n      add\n        /* \"#utility.yul\":4362:4368   */\n      dup5\n        /* \"#utility.yul\":4302:4389   */\n      tag_91\n      jump\t// in\n    tag_149:\n        /* \"#utility.yul\":4142:4396   */\n      swap3\n      swap2\n      pop\n      pop\n      jump\t// out\n        /* \"#utility.yul\":4402:4582   */\n    tag_58:\n        /* \"#utility.yul\":4450:4527   */\n      0x4e487b7100000000000000000000000000000000000000000000000000000000\n        /* \"#utility.yul\":4447:4448   */\n      0x00\n        /* \"#utility.yul\":4440:4528   */\n      mstore\n        /* \"#utility.yul\":4547:4551   */\n      0x32\n        /* \"#utility.yul\":4544:4545   */\n      0x04\n        /* \"#utility.yul\":4537:4552   */\n      mstore\n        /* \"#utility.yul\":4571:4575   */\n      0x24\n        /* \"#utility.yul\":4568:4569   */\n      0x00\n        /* \"#utility.yul\":4561:4576   */\n      revert\n        /* \"#utility.yul\":4588:4768   */\n    tag_92:\n        /* \"#utility.yul\":4636:4713   */\n      0x4e487b7100000000000000000000000000000000000000000000000000000000\n        /* \"#utility.yul\":4633:4634   */\n      0x00\n        /* \"#utility.yul\":4626:4714   */\n      mstore\n        /* \"#utility.yul\":4733:4737   */\n      0x11\n        /* \"#utility.yul\":4730:4731   */\n      0x04\n        /* \"#utility.yul\":4723:4738   */\n      mstore\n        /* \"#utility.yul\":4757:4761   */\n      0x24\n        /* \"#utility.yul\":4754:4755   */\n      0x00\n        /* \"#utility.yul\":4747:4762   */\n      revert\n        /* \"#utility.yul\":4774:4965   */\n    tag_67:\n        /* \"#utility.yul\":4814:4817   */\n      0x00\n        /* \"#utility.yul\":4833:4853   */\n      tag_153\n        /* \"#utility.yul\":4851:4852   */\n      dup3\n        /* \"#utility.yul\":4833:4853   */\n      tag_72\n      jump\t// in\n    tag_153:\n        /* \"#utility.yul\":4828:4853   */\n      swap2\n      pop\n        /* \"#utility.yul\":4867:4887   */\n      tag_154\n        /* \"#utility.yul\":4885:4886   */\n      dup4\n        /* \"#utility.yul\":4867:4887   */\n      tag_72\n      jump\t// in\n    tag_154:\n        /* \"#utility.yul\":4862:4887   */\n      swap3\n      pop\n        /* \"#utility.yul\":4910:4911   */\n      dup3\n        /* \"#utility.yul\":4907:4908   */\n      dup3\n        /* \"#utility.yul\":4903:4912   */\n      add\n        /* \"#utility.yul\":4896:4912   */\n      swap1\n      pop\n        /* \"#utility.yul\":4931:4934   */\n      dup1\n        /* \"#utility.yul\":4928:4929   */\n      dup3\n        /* \"#utility.yul\":4925:4935   */\n      gt\n        /* \"#utility.yul\":4922:4958   */\n      iszero\n      tag_155\n      jumpi\n        /* \"#utility.yul\":4938:4956   */\n      tag_156\n      tag_92\n      jump\t// in\n    tag_156:\n        /* \"#utility.yul\":4922:4958   */\n    tag_155:\n        /* \"#utility.yul\":4774:4965   */\n      swap3\n      swap2\n      pop\n      pop\n      jump\t// out\n\n    auxdata: 0xa264697066735822122057c1f7e52c95345d5217ed7690210582269e57a914ea8e86047f97ad012df53264736f6c63430008160033\n}\n",
				"bytecode": {
					"linkReferences": {},
					"object": "608060405234801561000f575f80fd5b5060015f819055506106fe806100245f395ff3fe60806040526004361061007a575f3560e01c8063c2b5a5041161004d578063c2b5a5041461014b578063c38a8afd14610175578063d0821b0e1461019f578063f71d96cb146101bb5761007a565b80632ca8c6d31461007e5780634081d916146100a85780634b114691146100e45780637863117e14610121575b5f80fd5b348015610089575f80fd5b506100926101f7565b60405161009f9190610434565b60405180910390f35b3480156100b3575f80fd5b506100ce60048036038101906100c991906104ab565b6101fd565b6040516100db91906104f0565b60405180910390f35b3480156100ef575f80fd5b5061010a600480360381019061010591906104ab565b61029f565b604051610118929190610525565b60405180910390f35b34801561012c575f80fd5b506101356102cc565b6040516101429190610434565b60405180910390f35b348015610156575f80fd5b5061015f6102d2565b60405161016c9190610434565b60405180910390f35b348015610180575f80fd5b506101896102d8565b6040516101969190610434565b60405180910390f35b6101b960048036038101906101b49190610582565b6102dd565b005b3480156101c6575f80fd5b506101e160048036038101906101dc91906105d7565b6103e1565b6040516101ee9190610622565b60405180910390f35b60035481565b5f805f90505b600480549050811015610295578273ffffffffffffffffffffffffffffffffffffffff166004828154811061023b5761023a61063b565b5b905f5260205f20015f9054906101000a900473ffffffffffffffffffffffffffffffffffffffff1673ffffffffffffffffffffffffffffffffffffffff160361028857600191505061029a565b8080600101915050610203565b505f90505b919050565b6005602052805f5260405f205f91509050805f015490806001015f9054906101000a900461ffff16905082565b60015481565b60025481565b5f5481565b6102e6336101fd565b156102ef575f80fd5b5f543410156102fc575f80fd5b3460055f3373ffffffffffffffffffffffffffffffffffffffff1673ffffffffffffffffffffffffffffffffffffffff1681526020019081526020015f205f01819055508060ff1660055f3373ffffffffffffffffffffffffffffffffffffffff1673ffffffffffffffffffffffffffffffffffffffff1681526020019081526020015f206001015f6101000a81548161ffff021916908361ffff16021790555060018160ff16036103c5573460015f8282546103b99190610695565b925050819055506103de565b3460025f8282546103d69190610695565b925050819055505b50565b600481815481106103f0575f80fd5b905f5260205f20015f915054906101000a900473ffffffffffffffffffffffffffffffffffffffff1681565b5f819050919050565b61042e8161041c565b82525050565b5f6020820190506104475f830184610425565b92915050565b5f80fd5b5f73ffffffffffffffffffffffffffffffffffffffff82169050919050565b5f61047a82610451565b9050919050565b61048a81610470565b8114610494575f80fd5b50565b5f813590506104a581610481565b92915050565b5f602082840312156104c0576104bf61044d565b5b5f6104cd84828501610497565b91505092915050565b5f8115159050919050565b6104ea816104d6565b82525050565b5f6020820190506105035f8301846104e1565b92915050565b5f61ffff82169050919050565b61051f81610509565b82525050565b5f6040820190506105385f830185610425565b6105456020830184610516565b9392505050565b5f60ff82169050919050565b6105618161054c565b811461056b575f80fd5b50565b5f8135905061057c81610558565b92915050565b5f602082840312156105975761059661044d565b5b5f6105a48482850161056e565b91505092915050565b6105b68161041c565b81146105c0575f80fd5b50565b5f813590506105d1816105ad565b92915050565b5f602082840312156105ec576105eb61044d565b5b5f6105f9848285016105c3565b91505092915050565b5f61060c82610451565b9050919050565b61061c81610602565b82525050565b5f6020820190506106355f830184610613565b92915050565b7f4e487b71000000000000000000000000000000000000000000000000000000005f52603260045260245ffd5b7f4e487b71000000000000000000000000000000000000000000000000000000005f52601160045260245ffd5b5f61069f8261041c565b91506106aa8361041c565b92508282019050808211156106c2576106c1610668565b5b9291505056fea264697066735822122057c1f7e52c95345d5217ed7690210582269e57a914ea8e86047f97ad012df53264736f6c63430008160033",
					"opcodes": "PUSH1 0x80 PUSH1 0x40 MSTORE CALLVALUE DUP1 ISZERO PUSH2 0xF JUMPI PUSH0 DUP1 REVERT JUMPDEST POP PUSH1 0x1 PUSH0 DUP2 SWAP1 SSTORE POP PUSH2 0x6FE DUP1 PUSH2 0x24 PUSH0 CODECOPY PUSH0 RETURN INVALID PUSH1 0x80 PUSH1 0x40 MSTORE PUSH1 0x4 CALLDATASIZE LT PUSH2 0x7A JUMPI PUSH0 CALLDATALOAD PUSH1 0xE0 SHR DUP1 PUSH4 0xC2B5A504 GT PUSH2 0x4D JUMPI DUP1 PUSH4 0xC2B5A504 EQ PUSH2 0x14B JUMPI DUP1 PUSH4 0xC38A8AFD EQ PUSH2 0x175 JUMPI DUP1 PUSH4 0xD0821B0E EQ PUSH2 0x19F JUMPI DUP1 PUSH4 0xF71D96CB EQ PUSH2 0x1BB JUMPI PUSH2 0x7A JUMP JUMPDEST DUP1 PUSH4 0x2CA8C6D3 EQ PUSH2 0x7E JUMPI DUP1 PUSH4 0x4081D916 EQ PUSH2 0xA8 JUMPI DUP1 PUSH4 0x4B114691 EQ PUSH2 0xE4 JUMPI DUP1 PUSH4 0x7863117E EQ PUSH2 0x121 JUMPI JUMPDEST PUSH0 DUP1 REVERT JUMPDEST CALLVALUE DUP1 ISZERO PUSH2 0x89 JUMPI PUSH0 DUP1 REVERT JUMPDEST POP PUSH2 0x92 PUSH2 0x1F7 JUMP JUMPDEST PUSH1 0x40 MLOAD PUSH2 0x9F SWAP2 SWAP1 PUSH2 0x434 JUMP JUMPDEST PUSH1 0x40 MLOAD DUP1 SWAP2 SUB SWAP1 RETURN JUMPDEST CALLVALUE DUP1 ISZERO PUSH2 0xB3 JUMPI PUSH0 DUP1 REVERT JUMPDEST POP PUSH2 0xCE PUSH1 0x4 DUP1 CALLDATASIZE SUB DUP2 ADD SWAP1 PUSH2 0xC9 SWAP2 SWAP1 PUSH2 0x4AB JUMP JUMPDEST PUSH2 0x1FD JUMP JUMPDEST PUSH1 0x40 MLOAD PUSH2 0xDB SWAP2 SWAP1 PUSH2 0x4F0 JUMP JUMPDEST PUSH1 0x40 MLOAD DUP1 SWAP2 SUB SWAP1 RETURN JUMPDEST CALLVALUE DUP1 ISZERO PUSH2 0xEF JUMPI PUSH0 DUP1 REVERT JUMPDEST POP PUSH2 0x10A PUSH1 0x4 DUP1 CALLDATASIZE SUB DUP2 ADD SWAP1 PUSH2 0x105 SWAP2 SWAP1 PUSH2 0x4AB JUMP JUMPDEST PUSH2 0x29F JUMP JUMPDEST PUSH1 0x40 MLOAD PUSH2 0x118 SWAP3 SWAP2 SWAP1 PUSH2 0x525 JUMP JUMPDEST PUSH1 0x40 MLOAD DUP1 SWAP2 SUB SWAP1 RETURN JUMPDEST CALLVALUE DUP1 ISZERO PUSH2 0x12C JUMPI PUSH0 DUP1 REVERT JUMPDEST POP PUSH2 0x135 PUSH2 0x2CC JUMP JUMPDEST PUSH1 0x40 MLOAD PUSH2 0x142 SWAP2 SWAP1 PUSH2 0x434 JUMP JUMPDEST PUSH1 0x40 MLOAD DUP1 SWAP2 SUB SWAP1 RETURN JUMPDEST CALLVALUE DUP1 ISZERO PUSH2 0x156 JUMPI PUSH0 DUP1 REVERT JUMPDEST POP PUSH2 0x15F PUSH2 0x2D2 JUMP JUMPDEST PUSH1 0x40 MLOAD PUSH2 0x16C SWAP2 SWAP1 PUSH2 0x434 JUMP JUMPDEST PUSH1 0x40 MLOAD DUP1 SWAP2 SUB SWAP1 RETURN JUMPDEST CALLVALUE DUP1 ISZERO PUSH2 0x180 JUMPI PUSH0 DUP1 REVERT JUMPDEST POP PUSH2 0x189 PUSH2 0x2D8 JUMP JUMPDEST PUSH1 0x40 MLOAD PUSH2 0x196 SWAP2 SWAP1 PUSH2 0x434 JUMP JUMPDEST PUSH1 0x40 MLOAD DUP1 SWAP2 SUB SWAP1 RETURN JUMPDEST PUSH2 0x1B9 PUSH1 0x4 DUP1 CALLDATASIZE SUB DUP2 ADD SWAP1 PUSH2 0x1B4 SWAP2 SWAP1 PUSH2 0x582 JUMP JUMPDEST PUSH2 0x2DD JUMP JUMPDEST STOP JUMPDEST CALLVALUE DUP1 ISZERO PUSH2 0x1C6 JUMPI PUSH0 DUP1 REVERT JUMPDEST POP PUSH2 0x1E1 PUSH1 0x4 DUP1 CALLDATASIZE SUB DUP2 ADD SWAP1 PUSH2 0x1DC SWAP2 SWAP1 PUSH2 0x5D7 JUMP JUMPDEST PUSH2 0x3E1 JUMP JUMPDEST PUSH1 0x40 MLOAD PUSH2 0x1EE SWAP2 SWAP1 PUSH2 0x622 JUMP JUMPDEST PUSH1 0x40 MLOAD DUP1 SWAP2 SUB SWAP1 RETURN JUMPDEST PUSH1 0x3 SLOAD DUP2 JUMP JUMPDEST PUSH0 DUP1 PUSH0 SWAP1 POP JUMPDEST PUSH1 0x4 DUP1 SLOAD SWAP1 POP DUP2 LT ISZERO PUSH2 0x295 JUMPI DUP3 PUSH20 0xFFFFFFFFFFFFFFFFFFFFFFFFFFFFFFFFFFFFFFFF AND PUSH1 0x4 DUP3 DUP2 SLOAD DUP2 LT PUSH2 0x23B JUMPI PUSH2 0x23A PUSH2 0x63B JUMP JUMPDEST JUMPDEST SWAP1 PUSH0 MSTORE PUSH1 0x20 PUSH0 KECCAK256 ADD PUSH0 SWAP1 SLOAD SWAP1 PUSH2 0x100 EXP SWAP1 DIV PUSH20 0xFFFFFFFFFFFFFFFFFFFFFFFFFFFFFFFFFFFFFFFF AND PUSH20 0xFFFFFFFFFFFFFFFFFFFFFFFFFFFFFFFFFFFFFFFF AND SUB PUSH2 0x288 JUMPI PUSH1 0x1 SWAP2 POP POP PUSH2 0x29A JUMP JUMPDEST DUP1 DUP1 PUSH1 0x1 ADD SWAP2 POP POP PUSH2 0x203 JUMP JUMPDEST POP PUSH0 SWAP1 POP JUMPDEST SWAP2 SWAP1 POP JUMP JUMPDEST PUSH1 0x5 PUSH1 0x20 MSTORE DUP1 PUSH0 MSTORE PUSH1 0x40 PUSH0 KECCAK256 PUSH0 SWAP2 POP SWAP1 POP DUP1 PUSH0 ADD SLOAD SWAP1 DUP1 PUSH1 0x1 ADD PUSH0 SWAP1 SLOAD SWAP1 PUSH2 0x100 EXP SWAP1 DIV PUSH2 0xFFFF AND SWAP1 POP DUP3 JUMP JUMPDEST PUSH1 0x1 SLOAD DUP2 JUMP JUMPDEST PUSH1 0x2 SLOAD DUP2 JUMP JUMPDEST PUSH0 SLOAD DUP2 JUMP JUMPDEST PUSH2 0x2E6 CALLER PUSH2 0x1FD JUMP JUMPDEST ISZERO PUSH2 0x2EF JUMPI PUSH0 DUP1 REVERT JUMPDEST PUSH0 SLOAD CALLVALUE LT ISZERO PUSH2 0x2FC JUMPI PUSH0 DUP1 REVERT JUMPDEST CALLVALUE PUSH1 0x5 PUSH0 CALLER PUSH20 0xFFFFFFFFFFFFFFFFFFFFFFFFFFFFFFFFFFFFFFFF AND PUSH20 0xFFFFFFFFFFFFFFFFFFFFFFFFFFFFFFFFFFFFFFFF AND DUP2 MSTORE PUSH1 0x20 ADD SWAP1 DUP2 MSTORE PUSH1 0x20 ADD PUSH0 KECCAK256 PUSH0 ADD DUP2 SWAP1 SSTORE POP DUP1 PUSH1 0xFF AND PUSH1 0x5 PUSH0 CALLER PUSH20 0xFFFFFFFFFFFFFFFFFFFFFFFFFFFFFFFFFFFFFFFF AND PUSH20 0xFFFFFFFFFFFFFFFFFFFFFFFFFFFFFFFFFFFFFFFF AND DUP2 MSTORE PUSH1 0x20 ADD SWAP1 DUP2 MSTORE PUSH1 0x20 ADD PUSH0 KECCAK256 PUSH1 0x1 ADD PUSH0 PUSH2 0x100 EXP DUP2 SLOAD DUP2 PUSH2 0xFFFF MUL NOT AND SWAP1 DUP4 PUSH2 0xFFFF AND MUL OR SWAP1 SSTORE POP PUSH1 0x1 DUP2 PUSH1 0xFF AND SUB PUSH2 0x3C5 JUMPI CALLVALUE PUSH1 0x1 PUSH0 DUP3 DUP3 SLOAD PUSH2 0x3B9 SWAP2 SWAP1 PUSH2 0x695 JUMP JUMPDEST SWAP3 POP POP DUP2 SWAP1 SSTORE POP PUSH2 0x3DE JUMP JUMPDEST CALLVALUE PUSH1 0x2 PUSH0 DUP3 DUP3 SLOAD PUSH2 0x3D6 SWAP2 SWAP1 PUSH2 0x695 JUMP JUMPDEST SWAP3 POP POP DUP2 SWAP1 SSTORE POP JUMPDEST POP JUMP JUMPDEST PUSH1 0x4 DUP2 DUP2 SLOAD DUP2 LT PUSH2 0x3F0 JUMPI PUSH0 DUP1 REVERT JUMPDEST SWAP1 PUSH0 MSTORE PUSH1 0x20 PUSH0 KECCAK256 ADD PUSH0 SWAP2 POP SLOAD SWAP1 PUSH2 0x100 EXP SWAP1 DIV PUSH20 0xFFFFFFFFFFFFFFFFFFFFFFFFFFFFFFFFFFFFFFFF AND DUP2 JUMP JUMPDEST PUSH0 DUP2 SWAP1 POP SWAP2 SWAP1 POP JUMP JUMPDEST PUSH2 0x42E DUP2 PUSH2 0x41C JUMP JUMPDEST DUP3 MSTORE POP POP JUMP JUMPDEST PUSH0 PUSH1 0x20 DUP3 ADD SWAP1 POP PUSH2 0x447 PUSH0 DUP4 ADD DUP5 PUSH2 0x425 JUMP JUMPDEST SWAP3 SWAP2 POP POP JUMP JUMPDEST PUSH0 DUP1 REVERT JUMPDEST PUSH0 PUSH20 0xFFFFFFFFFFFFFFFFFFFFFFFFFFFFFFFFFFFFFFFF DUP3 AND SWAP1 POP SWAP2 SWAP1 POP JUMP JUMPDEST PUSH0 PUSH2 0x47A DUP3 PUSH2 0x451 JUMP JUMPDEST SWAP1 POP SWAP2 SWAP1 POP JUMP JUMPDEST PUSH2 0x48A DUP2 PUSH2 0x470 JUMP JUMPDEST DUP2 EQ PUSH2 0x494 JUMPI PUSH0 DUP1 REVERT JUMPDEST POP JUMP JUMPDEST PUSH0 DUP2 CALLDATALOAD SWAP1 POP PUSH2 0x4A5 DUP2 PUSH2 0x481 JUMP JUMPDEST SWAP3 SWAP2 POP POP JUMP JUMPDEST PUSH0 PUSH1 0x20 DUP3 DUP5 SUB SLT ISZERO PUSH2 0x4C0 JUMPI PUSH2 0x4BF PUSH2 0x44D JUMP JUMPDEST JUMPDEST PUSH0 PUSH2 0x4CD DUP5 DUP3 DUP6 ADD PUSH2 0x497 JUMP JUMPDEST SWAP2 POP POP SWAP3 SWAP2 POP POP JUMP JUMPDEST PUSH0 DUP2 ISZERO ISZERO SWAP1 POP SWAP2 SWAP1 POP JUMP JUMPDEST PUSH2 0x4EA DUP2 PUSH2 0x4D6 JUMP JUMPDEST DUP3 MSTORE POP POP JUMP JUMPDEST PUSH0 PUSH1 0x20 DUP3 ADD SWAP1 POP PUSH2 0x503 PUSH0 DUP4 ADD DUP5 PUSH2 0x4E1 JUMP JUMPDEST SWAP3 SWAP2 POP POP JUMP JUMPDEST PUSH0 PUSH2 0xFFFF DUP3 AND SWAP1 POP SWAP2 SWAP1 POP JUMP JUMPDEST PUSH2 0x51F DUP2 PUSH2 0x509 JUMP JUMPDEST DUP3 MSTORE POP POP JUMP JUMPDEST PUSH0 PUSH1 0x40 DUP3 ADD SWAP1 POP PUSH2 0x538 PUSH0 DUP4 ADD DUP6 PUSH2 0x425 JUMP JUMPDEST PUSH2 0x545 PUSH1 0x20 DUP4 ADD DUP5 PUSH2 0x516 JUMP JUMPDEST SWAP4 SWAP3 POP POP POP JUMP JUMPDEST PUSH0 PUSH1 0xFF DUP3 AND SWAP1 POP SWAP2 SWAP1 POP JUMP JUMPDEST PUSH2 0x561 DUP2 PUSH2 0x54C JUMP JUMPDEST DUP2 EQ PUSH2 0x56B JUMPI PUSH0 DUP1 REVERT JUMPDEST POP JUMP JUMPDEST PUSH0 DUP2 CALLDATALOAD SWAP1 POP PUSH2 0x57C DUP2 PUSH2 0x558 JUMP JUMPDEST SWAP3 SWAP2 POP POP JUMP JUMPDEST PUSH0 PUSH1 0x20 DUP3 DUP5 SUB SLT ISZERO PUSH2 0x597 JUMPI PUSH2 0x596 PUSH2 0x44D JUMP JUMPDEST JUMPDEST PUSH0 PUSH2 0x5A4 DUP5 DUP3 DUP6 ADD PUSH2 0x56E JUMP JUMPDEST SWAP2 POP POP SWAP3 SWAP2 POP POP JUMP JUMPDEST PUSH2 0x5B6 DUP2 PUSH2 0x41C JUMP JUMPDEST DUP2 EQ PUSH2 0x5C0 JUMPI PUSH0 DUP1 REVERT JUMPDEST POP JUMP JUMPDEST PUSH0 DUP2 CALLDATALOAD SWAP1 POP PUSH2 0x5D1 DUP2 PUSH2 0x5AD JUMP JUMPDEST SWAP3 SWAP2 POP POP JUMP JUMPDEST PUSH0 PUSH1 0x20 DUP3 DUP5 SUB SLT ISZERO PUSH2 0x5EC JUMPI PUSH2 0x5EB PUSH2 0x44D JUMP JUMPDEST JUMPDEST PUSH0 PUSH2 0x5F9 DUP5 DUP3 DUP6 ADD PUSH2 0x5C3 JUMP JUMPDEST SWAP2 POP POP SWAP3 SWAP2 POP POP JUMP JUMPDEST PUSH0 PUSH2 0x60C DUP3 PUSH2 0x451 JUMP JUMPDEST SWAP1 POP SWAP2 SWAP1 POP JUMP JUMPDEST PUSH2 0x61C DUP2 PUSH2 0x602 JUMP JUMPDEST DUP3 MSTORE POP POP JUMP JUMPDEST PUSH0 PUSH1 0x20 DUP3 ADD SWAP1 POP PUSH2 0x635 PUSH0 DUP4 ADD DUP5 PUSH2 0x613 JUMP JUMPDEST SWAP3 SWAP2 POP POP JUMP JUMPDEST PUSH32 0x4E487B7100000000000000000000000000000000000000000000000000000000 PUSH0 MSTORE PUSH1 0x32 PUSH1 0x4 MSTORE PUSH1 0x24 PUSH0 REVERT JUMPDEST PUSH32 0x4E487B7100000000000000000000000000000000000000000000000000000000 PUSH0 MSTORE PUSH1 0x11 PUSH1 0x4 MSTORE PUSH1 0x24 PUSH0 REVERT JUMPDEST PUSH0 PUSH2 0x69F DUP3 PUSH2 0x41C JUMP JUMPDEST SWAP2 POP PUSH2 0x6AA DUP4 PUSH2 0x41C JUMP JUMPDEST SWAP3 POP DUP3 DUP3 ADD SWAP1 POP DUP1 DUP3 GT ISZERO PUSH2 0x6C2 JUMPI PUSH2 0x6C1 PUSH2 0x668 JUMP JUMPDEST JUMPDEST SWAP3 SWAP2 POP POP JUMP INVALID LOG2 PUSH5 0x6970667358 0x22 SLT KECCAK256 JUMPI 0xC1 0xF7 0xE5 0x2C SWAP6 CALLVALUE 0x5D MSTORE OR 0xED PUSH23 0x90210582269E57A914EA8E86047F97AD012DF53264736F PUSH13 0x63430008160033000000000000 "
				},
				"gasEstimates": {
					"creation": {
						"codeDepositCost": "358000",
						"executionCost": "22504",
						"totalCost": "380504"
					},
					"external": {
						"bet(uint8)": "infinite",
						"checkPlayerExists(address)": "infinite",
						"minimumBet()": "2446",
						"numberOfBets()": "2426",
						"playerInfo(address)": "5112",
						"players(uint256)": "5010",
						"totalBetOne()": "2492",
						"totalBetTwo()": "2425"
					}
				},
				"methodIdentifiers": {
					"bet(uint8)": "d0821b0e",
					"checkPlayerExists(address)": "4081d916",
					"minimumBet()": "c38a8afd",
					"numberOfBets()": "2ca8c6d3",
					"playerInfo(address)": "4b114691",
					"players(uint256)": "f71d96cb",
					"totalBetOne()": "7863117e",
					"totalBetTwo()": "c2b5a504"
				}
			},
			"storageLayout": {
				"storage": [
					{
						"astId": 3,
						"contract": "contracts/Betting.sol:Betting",
						"label": "minimumBet",
						"offset": 0,
						"slot": "0",
						"type": "t_uint256"
					},
					{
						"astId": 5,
						"contract": "contracts/Betting.sol:Betting",
						"label": "totalBetOne",
						"offset": 0,
						"slot": "1",
						"type": "t_uint256"
					},
					{
						"astId": 7,
						"contract": "contracts/Betting.sol:Betting",
						"label": "totalBetTwo",
						"offset": 0,
						"slot": "2",
						"type": "t_uint256"
					},
					{
						"astId": 9,
						"contract": "contracts/Betting.sol:Betting",
						"label": "numberOfBets",
						"offset": 0,
						"slot": "3",
						"type": "t_uint256"
					},
					{
						"astId": 12,
						"contract": "contracts/Betting.sol:Betting",
						"label": "players",
						"offset": 0,
						"slot": "4",
						"type": "t_array(t_address_payable)dyn_storage"
					},
					{
						"astId": 22,
						"contract": "contracts/Betting.sol:Betting",
						"label": "playerInfo",
						"offset": 0,
						"slot": "5",
						"type": "t_mapping(t_address,t_struct(Player)17_storage)"
					}
				],
				"types": {
					"t_address": {
						"encoding": "inplace",
						"label": "address",
						"numberOfBytes": "20"
					},
					"t_address_payable": {
						"encoding": "inplace",
						"label": "address payable",
						"numberOfBytes": "20"
					},
					"t_array(t_address_payable)dyn_storage": {
						"base": "t_address_payable",
						"encoding": "dynamic_array",
						"label": "address payable[]",
						"numberOfBytes": "32"
					},
					"t_mapping(t_address,t_struct(Player)17_storage)": {
						"encoding": "mapping",
						"key": "t_address",
						"label": "mapping(address => struct Betting.Player)",
						"numberOfBytes": "32",
						"value": "t_struct(Player)17_storage"
					},
					"t_struct(Player)17_storage": {
						"encoding": "inplace",
						"label": "struct Betting.Player",
						"members": [
							{
								"astId": 14,
								"contract": "contracts/Betting.sol:Betting",
								"label": "amountBet",
								"offset": 0,
								"slot": "0",
								"type": "t_uint256"
							},
							{
								"astId": 16,
								"contract": "contracts/Betting.sol:Betting",
								"label": "teamSelected",
								"offset": 0,
								"slot": "1",
								"type": "t_uint16"
							}
						],
						"numberOfBytes": "64"
					},
					"t_uint16": {
						"encoding": "inplace",
						"label": "uint16",
						"numberOfBytes": "2"
					},
					"t_uint256": {
						"encoding": "inplace",
						"label": "uint256",
						"numberOfBytes": "32"
					}
				}
			},
			"userdoc": {
				"kind": "user",
				"methods": {},
				"version": 1
			}
		}
	}
}