{
	"data": {
		"bytecode": {
			"linkReferences": {},
			"object": "60806040523360035f6101000a81548173ffffffffffffffffffffffffffffffffffffffff021916908373ffffffffffffffffffffffffffffffffffffffff16021790555034600481905550610f24806100585f395ff3fe60806040526004361061003e575f3560e01c806314034bd2146100425780633fa4f245146100585780634afe62b5146100825780638da5cb5b1461009e575b5f80fd5b34801561004d575f80fd5b506100566100c8565b005b348015610063575f80fd5b5061006c6102d1565b604051610079919061069b565b60405180910390f35b61009c600480360381019061009791906106e2565b6102d7565b005b3480156100a9575f80fd5b506100b2610443565b6040516100bf919061075f565b60405180910390f35b60035f9054906101000a900473ffffffffffffffffffffffffffffffffffffffff1673ffffffffffffffffffffffffffffffffffffffff163373ffffffffffffffffffffffffffffffffffffffff1614610157576040517f08c379a000000000000000000000000000000000000000000000000000000000815260040161014e906107f8565b60405180910390fd5b5f60015410158061016b5750600260015411155b6101aa576040517f08c379a00000000000000000000000000000000000000000000000000000000081526004016101a190610860565b60405180910390fd5b5f600290505f811015806101bf575060028111155b6101fe576040517f08c379a00000000000000000000000000000000000000000000000000000000081526004016101f5906108c8565b60405180910390fd5b600280819055508060015403610296575f60025460045461021f9190610913565b905060035f9054906101000a900473ffffffffffffffffffffffffffffffffffffffff1673ffffffffffffffffffffffffffffffffffffffff167f3cf1af53e79884a92609ce59db1ec9f584d88e2d14c8eaba43a21db81318301e82604051610288919061069b565b60405180910390a2506102ce565b7fe0f0c8f1b95df0e042d153efd204eb64eb6054e6b6cdb251f3a43dc1a3b9392d5f6040516102c59190610996565b60405180910390a15b50565b60045481565b5f8203610319576040517f08c379a0000000000000000000000000000000000000000000000000000000008152600401610310906109f9565b60405180910390fd5b5f6004541161035d576040517f08c379a000000000000000000000000000000000000000000000000000000000815260040161035490610a87565b60405180910390fd5b5f8110158061036d575060028111155b6103ac576040517f08c379a00000000000000000000000000000000000000000000000000000000081526004016103a390610aef565b60405180910390fd5b6103b582610468565b5f90816103c29190610d35565b508060018190555060035f9054906101000a900473ffffffffffffffffffffffffffffffffffffffff1673ffffffffffffffffffffffffffffffffffffffff167f4d20e64082ede6f8ef4a1d21be42a765e21266033fdf138a7e23ea9854300b55826004545f60405161043793929190610e85565b60405180910390a25050565b60035f9054906101000a900473ffffffffffffffffffffffffffffffffffffffff1681565b60605f600161047684610532565b0190505f8167ffffffffffffffff81111561049457610493610b17565b5b6040519080825280601f01601f1916602001820160405280156104c65781602001600182028036833780820191505090505b5090505f82602001820190505b600115610527578080600190039150507f3031323334353637383961626364656600000000000000000000000000000000600a86061a8153600a858161051c5761051b610ec1565b5b0494505f85036104d3575b819350505050919050565b5f805f90507a184f03e93ff9f4daa797ed6e38ed64bf6a1f010000000000000000831061058e577a184f03e93ff9f4daa797ed6e38ed64bf6a1f010000000000000000838161058457610583610ec1565b5b0492506040810190505b6d04ee2d6d415b85acef810000000083106105cb576d04ee2d6d415b85acef810000000083816105c1576105c0610ec1565b5b0492506020810190505b662386f26fc1000083106105fa57662386f26fc1000083816105f0576105ef610ec1565b5b0492506010810190505b6305f5e1008310610623576305f5e100838161061957610618610ec1565b5b0492506008810190505b612710831061064857612710838161063e5761063d610ec1565b5b0492506004810190505b6064831061066b576064838161066157610660610ec1565b5b0492506002810190505b600a831061067a576001810190505b80915050919050565b5f819050919050565b61069581610683565b82525050565b5f6020820190506106ae5f83018461068c565b92915050565b5f80fd5b6106c181610683565b81146106cb575f80fd5b50565b5f813590506106dc816106b8565b92915050565b5f80604083850312156106f8576106f76106b4565b5b5f610705858286016106ce565b9250506020610716858286016106ce565b9150509250929050565b5f73ffffffffffffffffffffffffffffffffffffffff82169050919050565b5f61074982610720565b9050919050565b6107598161073f565b82525050565b5f6020820190506107725f830184610750565b92915050565b5f82825260208201905092915050565b7f4f6e6c7920746865206f776e65722063616e2063616c6c20746869732066756e5f8201527f6374696f6e000000000000000000000000000000000000000000000000000000602082015250565b5f6107e2602583610778565b91506107ed82610788565b604082019050919050565b5f6020820190508181035f83015261080f816107d6565b9050919050565b7f496e76616c696420726573756c740000000000000000000000000000000000005f82015250565b5f61084a600e83610778565b915061085582610816565b602082019050919050565b5f6020820190508181035f8301526108778161083e565b9050919050565b7f47616d65206973206e6f74206f766572207965740000000000000000000000005f82015250565b5f6108b2601483610778565b91506108bd8261087e565b602082019050919050565b5f6020820190508181035f8301526108df816108a6565b9050919050565b7f4e487b71000000000000000000000000000000000000000000000000000000005f52601160045260245ffd5b5f61091d82610683565b915061092883610683565b925082820261093681610683565b9150828204841483151761094d5761094c6108e6565b5b5092915050565b5f819050919050565b5f819050919050565b5f61098061097b61097684610954565b61095d565b610683565b9050919050565b61099081610966565b82525050565b5f6020820190506109a95f830184610987565b92915050565b7f47616d652063616e6e6f7420626520656d7074790000000000000000000000005f82015250565b5f6109e3601483610778565b91506109ee826109af565b602082019050919050565b5f6020820190508181035f830152610a10816109d7565b9050919050565b7f42657420616d6f756e742073686f756c642062652067726561746572207468615f8201527f6e20300000000000000000000000000000000000000000000000000000000000602082015250565b5f610a71602383610778565b9150610a7c82610a17565b604082019050919050565b5f6020820190508181035f830152610a9e81610a65565b9050919050565b7f496e76616c69642063686f6963650000000000000000000000000000000000005f82015250565b5f610ad9600e83610778565b9150610ae482610aa5565b602082019050919050565b5f6020820190508181035f830152610b0681610acd565b9050919050565b5f81519050919050565b7f4e487b71000000000000000000000000000000000000000000000000000000005f52604160045260245ffd5b7f4e487b71000000000000000000000000000000000000000000000000000000005f52602260045260245ffd5b5f6002820490506001821680610b8857607f821691505b602082108103610b9b57610b9a610b44565b5b50919050565b5f819050815f5260205f209050919050565b5f6020601f8301049050919050565b5f82821b905092915050565b5f60088302610bfd7fffffffffffffffffffffffffffffffffffffffffffffffffffffffffffffffff82610bc2565b610c078683610bc2565b95508019841693508086168417925050509392505050565b5f610c39610c34610c2f84610683565b61095d565b610683565b9050919050565b5f819050919050565b610c5283610c1f565b610c66610c5e82610c40565b848454610bce565b825550505050565b5f90565b610c7a610c6e565b610c85818484610c49565b505050565b5b81811015610ca857610c9d5f82610c72565b600181019050610c8b565b5050565b601f821115610ced57610cbe81610ba1565b610cc784610bb3565b81016020851015610cd6578190505b610cea610ce285610bb3565b830182610c8a565b50505b505050565b5f82821c905092915050565b5f610d0d5f1984600802610cf2565b1980831691505092915050565b5f610d258383610cfe565b9150826002028217905092915050565b610d3e82610b0d565b67ffffffffffffffff811115610d5757610d56610b17565b5b610d618254610b71565b610d6c828285610cac565b5f60209050601f831160018114610d9d575f8415610d8b578287015190505b610d958582610d1a565b865550610dfc565b601f198416610dab86610ba1565b5f5b82811015610dd257848901518255600182019150602085019450602081019050610dad565b86831015610def5784890151610deb601f891682610cfe565b8355505b6001600288020188555050505b505050505050565b5f8154610e1081610b71565b610e1a8186610778565b9450600182165f8114610e345760018114610e4a57610e7c565b60ff198316865281151560200286019350610e7c565b610e5385610ba1565b5f5b83811015610e7457815481890152600182019150602081019050610e55565b808801955050505b50505092915050565b5f606082019050610e985f83018661068c565b610ea5602083018561068c565b8181036040830152610eb78184610e04565b9050949350505050565b7f4e487b71000000000000000000000000000000000000000000000000000000005f52601260045260245ffdfea2646970667358221220de0cbe81e0e218f21be1f6ebf8ca1a9df93a5fde26d829e461145a302666744264736f6c63430008160033",
			"opcodes": "PUSH1 0x80 PUSH1 0x40 MSTORE CALLER PUSH1 0x3 PUSH0 PUSH2 0x100 EXP DUP2 SLOAD DUP2 PUSH20 0xFFFFFFFFFFFFFFFFFFFFFFFFFFFFFFFFFFFFFFFF MUL NOT AND SWAP1 DUP4 PUSH20 0xFFFFFFFFFFFFFFFFFFFFFFFFFFFFFFFFFFFFFFFF AND MUL OR SWAP1 SSTORE POP CALLVALUE PUSH1 0x4 DUP2 SWAP1 SSTORE POP PUSH2 0xF24 DUP1 PUSH2 0x58 PUSH0 CODECOPY PUSH0 RETURN INVALID PUSH1 0x80 PUSH1 0x40 MSTORE PUSH1 0x4 CALLDATASIZE LT PUSH2 0x3E JUMPI PUSH0 CALLDATALOAD PUSH1 0xE0 SHR DUP1 PUSH4 0x14034BD2 EQ PUSH2 0x42 JUMPI DUP1 PUSH4 0x3FA4F245 EQ PUSH2 0x58 JUMPI DUP1 PUSH4 0x4AFE62B5 EQ PUSH2 0x82 JUMPI DUP1 PUSH4 0x8DA5CB5B EQ PUSH2 0x9E JUMPI JUMPDEST PUSH0 DUP1 REVERT JUMPDEST CALLVALUE DUP1 ISZERO PUSH2 0x4D JUMPI PUSH0 DUP1 REVERT JUMPDEST POP PUSH2 0x56 PUSH2 0xC8 JUMP JUMPDEST STOP JUMPDEST CALLVALUE DUP1 ISZERO PUSH2 0x63 JUMPI PUSH0 DUP1 REVERT JUMPDEST POP PUSH2 0x6C PUSH2 0x2D1 JUMP JUMPDEST PUSH1 0x40 MLOAD PUSH2 0x79 SWAP2 SWAP1 PUSH2 0x69B JUMP JUMPDEST PUSH1 0x40 MLOAD DUP1 SWAP2 SUB SWAP1 RETURN JUMPDEST PUSH2 0x9C PUSH1 0x4 DUP1 CALLDATASIZE SUB DUP2 ADD SWAP1 PUSH2 0x97 SWAP2 SWAP1 PUSH2 0x6E2 JUMP JUMPDEST PUSH2 0x2D7 JUMP JUMPDEST STOP JUMPDEST CALLVALUE DUP1 ISZERO PUSH2 0xA9 JUMPI PUSH0 DUP1 REVERT JUMPDEST POP PUSH2 0xB2 PUSH2 0x443 JUMP JUMPDEST PUSH1 0x40 MLOAD PUSH2 0xBF SWAP2 SWAP1 PUSH2 0x75F JUMP JUMPDEST PUSH1 0x40 MLOAD DUP1 SWAP2 SUB SWAP1 RETURN JUMPDEST PUSH1 0x3 PUSH0 SWAP1 SLOAD SWAP1 PUSH2 0x100 EXP SWAP1 DIV PUSH20 0xFFFFFFFFFFFFFFFFFFFFFFFFFFFFFFFFFFFFFFFF AND PUSH20 0xFFFFFFFFFFFFFFFFFFFFFFFFFFFFFFFFFFFFFFFF AND CALLER PUSH20 0xFFFFFFFFFFFFFFFFFFFFFFFFFFFFFFFFFFFFFFFF AND EQ PUSH2 0x157 JUMPI PUSH1 0x40 MLOAD PUSH32 0x8C379A000000000000000000000000000000000000000000000000000000000 DUP2 MSTORE PUSH1 0x4 ADD PUSH2 0x14E SWAP1 PUSH2 0x7F8 JUMP JUMPDEST PUSH1 0x40 MLOAD DUP1 SWAP2 SUB SWAP1 REVERT JUMPDEST PUSH0 PUSH1 0x1 SLOAD LT ISZERO DUP1 PUSH2 0x16B JUMPI POP PUSH1 0x2 PUSH1 0x1 SLOAD GT ISZERO JUMPDEST PUSH2 0x1AA JUMPI PUSH1 0x40 MLOAD PUSH32 0x8C379A000000000000000000000000000000000000000000000000000000000 DUP2 MSTORE PUSH1 0x4 ADD PUSH2 0x1A1 SWAP1 PUSH2 0x860 JUMP JUMPDEST PUSH1 0x40 MLOAD DUP1 SWAP2 SUB SWAP1 REVERT JUMPDEST PUSH0 PUSH1 0x2 SWAP1 POP PUSH0 DUP2 LT ISZERO DUP1 PUSH2 0x1BF JUMPI POP PUSH1 0x2 DUP2 GT ISZERO JUMPDEST PUSH2 0x1FE JUMPI PUSH1 0x40 MLOAD PUSH32 0x8C379A000000000000000000000000000000000000000000000000000000000 DUP2 MSTORE PUSH1 0x4 ADD PUSH2 0x1F5 SWAP1 PUSH2 0x8C8 JUMP JUMPDEST PUSH1 0x40 MLOAD DUP1 SWAP2 SUB SWAP1 REVERT JUMPDEST PUSH1 0x2 DUP1 DUP2 SWAP1 SSTORE POP DUP1 PUSH1 0x1 SLOAD SUB PUSH2 0x296 JUMPI PUSH0 PUSH1 0x2 SLOAD PUSH1 0x4 SLOAD PUSH2 0x21F SWAP2 SWAP1 PUSH2 0x913 JUMP JUMPDEST SWAP1 POP PUSH1 0x3 PUSH0 SWAP1 SLOAD SWAP1 PUSH2 0x100 EXP SWAP1 DIV PUSH20 0xFFFFFFFFFFFFFFFFFFFFFFFFFFFFFFFFFFFFFFFF AND PUSH20 0xFFFFFFFFFFFFFFFFFFFFFFFFFFFFFFFFFFFFFFFF AND PUSH32 0x3CF1AF53E79884A92609CE59DB1EC9F584D88E2D14C8EABA43A21DB81318301E DUP3 PUSH1 0x40 MLOAD PUSH2 0x288 SWAP2 SWAP1 PUSH2 0x69B JUMP JUMPDEST PUSH1 0x40 MLOAD DUP1 SWAP2 SUB SWAP1 LOG2 POP PUSH2 0x2CE JUMP JUMPDEST PUSH32 0xE0F0C8F1B95DF0E042D153EFD204EB64EB6054E6B6CDB251F3A43DC1A3B9392D PUSH0 PUSH1 0x40 MLOAD PUSH2 0x2C5 SWAP2 SWAP1 PUSH2 0x996 JUMP JUMPDEST PUSH1 0x40 MLOAD DUP1 SWAP2 SUB SWAP1 LOG1 JUMPDEST POP JUMP JUMPDEST PUSH1 0x4 SLOAD DUP2 JUMP JUMPDEST PUSH0 DUP3 SUB PUSH2 0x319 JUMPI PUSH1 0x40 MLOAD PUSH32 0x8C379A000000000000000000000000000000000000000000000000000000000 DUP2 MSTORE PUSH1 0x4 ADD PUSH2 0x310 SWAP1 PUSH2 0x9F9 JUMP JUMPDEST PUSH1 0x40 MLOAD DUP1 SWAP2 SUB SWAP1 REVERT JUMPDEST PUSH0 PUSH1 0x4 SLOAD GT PUSH2 0x35D JUMPI PUSH1 0x40 MLOAD PUSH32 0x8C379A000000000000000000000000000000000000000000000000000000000 DUP2 MSTORE PUSH1 0x4 ADD PUSH2 0x354 SWAP1 PUSH2 0xA87 JUMP JUMPDEST PUSH1 0x40 MLOAD DUP1 SWAP2 SUB SWAP1 REVERT JUMPDEST PUSH0 DUP2 LT ISZERO DUP1 PUSH2 0x36D JUMPI POP PUSH1 0x2 DUP2 GT ISZERO JUMPDEST PUSH2 0x3AC JUMPI PUSH1 0x40 MLOAD PUSH32 0x8C379A000000000000000000000000000000000000000000000000000000000 DUP2 MSTORE PUSH1 0x4 ADD PUSH2 0x3A3 SWAP1 PUSH2 0xAEF JUMP JUMPDEST PUSH1 0x40 MLOAD DUP1 SWAP2 SUB SWAP1 REVERT JUMPDEST PUSH2 0x3B5 DUP3 PUSH2 0x468 JUMP JUMPDEST PUSH0 SWAP1 DUP2 PUSH2 0x3C2 SWAP2 SWAP1 PUSH2 0xD35 JUMP JUMPDEST POP DUP1 PUSH1 0x1 DUP2 SWAP1 SSTORE POP PUSH1 0x3 PUSH0 SWAP1 SLOAD SWAP1 PUSH2 0x100 EXP SWAP1 DIV PUSH20 0xFFFFFFFFFFFFFFFFFFFFFFFFFFFFFFFFFFFFFFFF AND PUSH20 0xFFFFFFFFFFFFFFFFFFFFFFFFFFFFFFFFFFFFFFFF AND PUSH32 0x4D20E64082EDE6F8EF4A1D21BE42A765E21266033FDF138A7E23EA9854300B55 DUP3 PUSH1 0x4 SLOAD PUSH0 PUSH1 0x40 MLOAD PUSH2 0x437 SWAP4 SWAP3 SWAP2 SWAP1 PUSH2 0xE85 JUMP JUMPDEST PUSH1 0x40 MLOAD DUP1 SWAP2 SUB SWAP1 LOG2 POP POP JUMP JUMPDEST PUSH1 0x3 PUSH0 SWAP1 SLOAD SWAP1 PUSH2 0x100 EXP SWAP1 DIV PUSH20 0xFFFFFFFFFFFFFFFFFFFFFFFFFFFFFFFFFFFFFFFF AND DUP2 JUMP JUMPDEST PUSH1 0x60 PUSH0 PUSH1 0x1 PUSH2 0x476 DUP5 PUSH2 0x532 JUMP JUMPDEST ADD SWAP1 POP PUSH0 DUP2 PUSH8 0xFFFFFFFFFFFFFFFF DUP2 GT ISZERO PUSH2 0x494 JUMPI PUSH2 0x493 PUSH2 0xB17 JUMP JUMPDEST JUMPDEST PUSH1 0x40 MLOAD SWAP1 DUP1 DUP3 MSTORE DUP1 PUSH1 0x1F ADD PUSH1 0x1F NOT AND PUSH1 0x20 ADD DUP3 ADD PUSH1 0x40 MSTORE DUP1 ISZERO PUSH2 0x4C6 JUMPI DUP2 PUSH1 0x20 ADD PUSH1 0x1 DUP3 MUL DUP1 CALLDATASIZE DUP4 CALLDATACOPY DUP1 DUP3 ADD SWAP2 POP POP SWAP1 POP JUMPDEST POP SWAP1 POP PUSH0 DUP3 PUSH1 0x20 ADD DUP3 ADD SWAP1 POP JUMPDEST PUSH1 0x1 ISZERO PUSH2 0x527 JUMPI DUP1 DUP1 PUSH1 0x1 SWAP1 SUB SWAP2 POP POP PUSH32 0x3031323334353637383961626364656600000000000000000000000000000000 PUSH1 0xA DUP7 MOD BYTE DUP2 MSTORE8 PUSH1 0xA DUP6 DUP2 PUSH2 0x51C JUMPI PUSH2 0x51B PUSH2 0xEC1 JUMP JUMPDEST JUMPDEST DIV SWAP5 POP PUSH0 DUP6 SUB PUSH2 0x4D3 JUMPI JUMPDEST DUP2 SWAP4 POP POP POP POP SWAP2 SWAP1 POP JUMP JUMPDEST PUSH0 DUP1 PUSH0 SWAP1 POP PUSH27 0x184F03E93FF9F4DAA797ED6E38ED64BF6A1F010000000000000000 DUP4 LT PUSH2 0x58E JUMPI PUSH27 0x184F03E93FF9F4DAA797ED6E38ED64BF6A1F010000000000000000 DUP4 DUP2 PUSH2 0x584 JUMPI PUSH2 0x583 PUSH2 0xEC1 JUMP JUMPDEST JUMPDEST DIV SWAP3 POP PUSH1 0x40 DUP2 ADD SWAP1 POP JUMPDEST PUSH14 0x4EE2D6D415B85ACEF8100000000 DUP4 LT PUSH2 0x5CB JUMPI PUSH14 0x4EE2D6D415B85ACEF8100000000 DUP4 DUP2 PUSH2 0x5C1 JUMPI PUSH2 0x5C0 PUSH2 0xEC1 JUMP JUMPDEST JUMPDEST DIV SWAP3 POP PUSH1 0x20 DUP2 ADD SWAP1 POP JUMPDEST PUSH7 0x2386F26FC10000 DUP4 LT PUSH2 0x5FA JUMPI PUSH7 0x2386F26FC10000 DUP4 DUP2 PUSH2 0x5F0 JUMPI PUSH2 0x5EF PUSH2 0xEC1 JUMP JUMPDEST JUMPDEST DIV SWAP3 POP PUSH1 0x10 DUP2 ADD SWAP1 POP JUMPDEST PUSH4 0x5F5E100 DUP4 LT PUSH2 0x623 JUMPI PUSH4 0x5F5E100 DUP4 DUP2 PUSH2 0x619 JUMPI PUSH2 0x618 PUSH2 0xEC1 JUMP JUMPDEST JUMPDEST DIV SWAP3 POP PUSH1 0x8 DUP2 ADD SWAP1 POP JUMPDEST PUSH2 0x2710 DUP4 LT PUSH2 0x648 JUMPI PUSH2 0x2710 DUP4 DUP2 PUSH2 0x63E JUMPI PUSH2 0x63D PUSH2 0xEC1 JUMP JUMPDEST JUMPDEST DIV SWAP3 POP PUSH1 0x4 DUP2 ADD SWAP1 POP JUMPDEST PUSH1 0x64 DUP4 LT PUSH2 0x66B JUMPI PUSH1 0x64 DUP4 DUP2 PUSH2 0x661 JUMPI PUSH2 0x660 PUSH2 0xEC1 JUMP JUMPDEST JUMPDEST DIV SWAP3 POP PUSH1 0x2 DUP2 ADD SWAP1 POP JUMPDEST PUSH1 0xA DUP4 LT PUSH2 0x67A JUMPI PUSH1 0x1 DUP2 ADD SWAP1 POP JUMPDEST DUP1 SWAP2 POP POP SWAP2 SWAP1 POP JUMP JUMPDEST PUSH0 DUP2 SWAP1 POP SWAP2 SWAP1 POP JUMP JUMPDEST PUSH2 0x695 DUP2 PUSH2 0x683 JUMP JUMPDEST DUP3 MSTORE POP POP JUMP JUMPDEST PUSH0 PUSH1 0x20 DUP3 ADD SWAP1 POP PUSH2 0x6AE PUSH0 DUP4 ADD DUP5 PUSH2 0x68C JUMP JUMPDEST SWAP3 SWAP2 POP POP JUMP JUMPDEST PUSH0 DUP1 REVERT JUMPDEST PUSH2 0x6C1 DUP2 PUSH2 0x683 JUMP JUMPDEST DUP2 EQ PUSH2 0x6CB JUMPI PUSH0 DUP1 REVERT JUMPDEST POP JUMP JUMPDEST PUSH0 DUP2 CALLDATALOAD SWAP1 POP PUSH2 0x6DC DUP2 PUSH2 0x6B8 JUMP JUMPDEST SWAP3 SWAP2 POP POP JUMP JUMPDEST PUSH0 DUP1 PUSH1 0x40 DUP4 DUP6 SUB SLT ISZERO PUSH2 0x6F8 JUMPI PUSH2 0x6F7 PUSH2 0x6B4 JUMP JUMPDEST JUMPDEST PUSH0 PUSH2 0x705 DUP6 DUP3 DUP7 ADD PUSH2 0x6CE JUMP JUMPDEST SWAP3 POP POP PUSH1 0x20 PUSH2 0x716 DUP6 DUP3 DUP7 ADD PUSH2 0x6CE JUMP JUMPDEST SWAP2 POP POP SWAP3 POP SWAP3 SWAP1 POP JUMP JUMPDEST PUSH0 PUSH20 0xFFFFFFFFFFFFFFFFFFFFFFFFFFFFFFFFFFFFFFFF DUP3 AND SWAP1 POP SWAP2 SWAP1 POP JUMP JUMPDEST PUSH0 PUSH2 0x749 DUP3 PUSH2 0x720 JUMP JUMPDEST SWAP1 POP SWAP2 SWAP1 POP JUMP JUMPDEST PUSH2 0x759 DUP2 PUSH2 0x73F JUMP JUMPDEST DUP3 MSTORE POP POP JUMP JUMPDEST PUSH0 PUSH1 0x20 DUP3 ADD SWAP1 POP PUSH2 0x772 PUSH0 DUP4 ADD DUP5 PUSH2 0x750 JUMP JUMPDEST SWAP3 SWAP2 POP POP JUMP JUMPDEST PUSH0 DUP3 DUP3 MSTORE PUSH1 0x20 DUP3 ADD SWAP1 POP SWAP3 SWAP2 POP POP JUMP JUMPDEST PUSH32 0x4F6E6C7920746865206F776E65722063616E2063616C6C20746869732066756E PUSH0 DUP3 ADD MSTORE PUSH32 0x6374696F6E000000000000000000000000000000000000000000000000000000 PUSH1 0x20 DUP3 ADD MSTORE POP JUMP JUMPDEST PUSH0 PUSH2 0x7E2 PUSH1 0x25 DUP4 PUSH2 0x778 JUMP JUMPDEST SWAP2 POP PUSH2 0x7ED DUP3 PUSH2 0x788 JUMP JUMPDEST PUSH1 0x40 DUP3 ADD SWAP1 POP SWAP2 SWAP1 POP JUMP JUMPDEST PUSH0 PUSH1 0x20 DUP3 ADD SWAP1 POP DUP2 DUP2 SUB PUSH0 DUP4 ADD MSTORE PUSH2 0x80F DUP2 PUSH2 0x7D6 JUMP JUMPDEST SWAP1 POP SWAP2 SWAP1 POP JUMP JUMPDEST PUSH32 0x496E76616C696420726573756C74000000000000000000000000000000000000 PUSH0 DUP3 ADD MSTORE POP JUMP JUMPDEST PUSH0 PUSH2 0x84A PUSH1 0xE DUP4 PUSH2 0x778 JUMP JUMPDEST SWAP2 POP PUSH2 0x855 DUP3 PUSH2 0x816 JUMP JUMPDEST PUSH1 0x20 DUP3 ADD SWAP1 POP SWAP2 SWAP1 POP JUMP JUMPDEST PUSH0 PUSH1 0x20 DUP3 ADD SWAP1 POP DUP2 DUP2 SUB PUSH0 DUP4 ADD MSTORE PUSH2 0x877 DUP2 PUSH2 0x83E JUMP JUMPDEST SWAP1 POP SWAP2 SWAP1 POP JUMP JUMPDEST PUSH32 0x47616D65206973206E6F74206F76657220796574000000000000000000000000 PUSH0 DUP3 ADD MSTORE POP JUMP JUMPDEST PUSH0 PUSH2 0x8B2 PUSH1 0x14 DUP4 PUSH2 0x778 JUMP JUMPDEST SWAP2 POP PUSH2 0x8BD DUP3 PUSH2 0x87E JUMP JUMPDEST PUSH1 0x20 DUP3 ADD SWAP1 POP SWAP2 SWAP1 POP JUMP JUMPDEST PUSH0 PUSH1 0x20 DUP3 ADD SWAP1 POP DUP2 DUP2 SUB PUSH0 DUP4 ADD MSTORE PUSH2 0x8DF DUP2 PUSH2 0x8A6 JUMP JUMPDEST SWAP1 POP SWAP2 SWAP1 POP JUMP JUMPDEST PUSH32 0x4E487B7100000000000000000000000000000000000000000000000000000000 PUSH0 MSTORE PUSH1 0x11 PUSH1 0x4 MSTORE PUSH1 0x24 PUSH0 REVERT JUMPDEST PUSH0 PUSH2 0x91D DUP3 PUSH2 0x683 JUMP JUMPDEST SWAP2 POP PUSH2 0x928 DUP4 PUSH2 0x683 JUMP JUMPDEST SWAP3 POP DUP3 DUP3 MUL PUSH2 0x936 DUP2 PUSH2 0x683 JUMP JUMPDEST SWAP2 POP DUP3 DUP3 DIV DUP5 EQ DUP4 ISZERO OR PUSH2 0x94D JUMPI PUSH2 0x94C PUSH2 0x8E6 JUMP JUMPDEST JUMPDEST POP SWAP3 SWAP2 POP POP JUMP JUMPDEST PUSH0 DUP2 SWAP1 POP SWAP2 SWAP1 POP JUMP JUMPDEST PUSH0 DUP2 SWAP1 POP SWAP2 SWAP1 POP JUMP JUMPDEST PUSH0 PUSH2 0x980 PUSH2 0x97B PUSH2 0x976 DUP5 PUSH2 0x954 JUMP JUMPDEST PUSH2 0x95D JUMP JUMPDEST PUSH2 0x683 JUMP JUMPDEST SWAP1 POP SWAP2 SWAP1 POP JUMP JUMPDEST PUSH2 0x990 DUP2 PUSH2 0x966 JUMP JUMPDEST DUP3 MSTORE POP POP JUMP JUMPDEST PUSH0 PUSH1 0x20 DUP3 ADD SWAP1 POP PUSH2 0x9A9 PUSH0 DUP4 ADD DUP5 PUSH2 0x987 JUMP JUMPDEST SWAP3 SWAP2 POP POP JUMP JUMPDEST PUSH32 0x47616D652063616E6E6F7420626520656D707479000000000000000000000000 PUSH0 DUP3 ADD MSTORE POP JUMP JUMPDEST PUSH0 PUSH2 0x9E3 PUSH1 0x14 DUP4 PUSH2 0x778 JUMP JUMPDEST SWAP2 POP PUSH2 0x9EE DUP3 PUSH2 0x9AF JUMP JUMPDEST PUSH1 0x20 DUP3 ADD SWAP1 POP SWAP2 SWAP1 POP JUMP JUMPDEST PUSH0 PUSH1 0x20 DUP3 ADD SWAP1 POP DUP2 DUP2 SUB PUSH0 DUP4 ADD MSTORE PUSH2 0xA10 DUP2 PUSH2 0x9D7 JUMP JUMPDEST SWAP1 POP SWAP2 SWAP1 POP JUMP JUMPDEST PUSH32 0x42657420616D6F756E742073686F756C64206265206772656174657220746861 PUSH0 DUP3 ADD MSTORE PUSH32 0x6E20300000000000000000000000000000000000000000000000000000000000 PUSH1 0x20 DUP3 ADD MSTORE POP JUMP JUMPDEST PUSH0 PUSH2 0xA71 PUSH1 0x23 DUP4 PUSH2 0x778 JUMP JUMPDEST SWAP2 POP PUSH2 0xA7C DUP3 PUSH2 0xA17 JUMP JUMPDEST PUSH1 0x40 DUP3 ADD SWAP1 POP SWAP2 SWAP1 POP JUMP JUMPDEST PUSH0 PUSH1 0x20 DUP3 ADD SWAP1 POP DUP2 DUP2 SUB PUSH0 DUP4 ADD MSTORE PUSH2 0xA9E DUP2 PUSH2 0xA65 JUMP JUMPDEST SWAP1 POP SWAP2 SWAP1 POP JUMP JUMPDEST PUSH32 0x496E76616C69642063686F696365000000000000000000000000000000000000 PUSH0 DUP3 ADD MSTORE POP JUMP JUMPDEST PUSH0 PUSH2 0xAD9 PUSH1 0xE DUP4 PUSH2 0x778 JUMP JUMPDEST SWAP2 POP PUSH2 0xAE4 DUP3 PUSH2 0xAA5 JUMP JUMPDEST PUSH1 0x20 DUP3 ADD SWAP1 POP SWAP2 SWAP1 POP JUMP JUMPDEST PUSH0 PUSH1 0x20 DUP3 ADD SWAP1 POP DUP2 DUP2 SUB PUSH0 DUP4 ADD MSTORE PUSH2 0xB06 DUP2 PUSH2 0xACD JUMP JUMPDEST SWAP1 POP SWAP2 SWAP1 POP JUMP JUMPDEST PUSH0 DUP2 MLOAD SWAP1 POP SWAP2 SWAP1 POP JUMP JUMPDEST PUSH32 0x4E487B7100000000000000000000000000000000000000000000000000000000 PUSH0 MSTORE PUSH1 0x41 PUSH1 0x4 MSTORE PUSH1 0x24 PUSH0 REVERT JUMPDEST PUSH32 0x4E487B7100000000000000000000000000000000000000000000000000000000 PUSH0 MSTORE PUSH1 0x22 PUSH1 0x4 MSTORE PUSH1 0x24 PUSH0 REVERT JUMPDEST PUSH0 PUSH1 0x2 DUP3 DIV SWAP1 POP PUSH1 0x1 DUP3 AND DUP1 PUSH2 0xB88 JUMPI PUSH1 0x7F DUP3 AND SWAP2 POP JUMPDEST PUSH1 0x20 DUP3 LT DUP2 SUB PUSH2 0xB9B JUMPI PUSH2 0xB9A PUSH2 0xB44 JUMP JUMPDEST JUMPDEST POP SWAP2 SWAP1 POP JUMP JUMPDEST PUSH0 DUP2 SWAP1 POP DUP2 PUSH0 MSTORE PUSH1 0x20 PUSH0 KECCAK256 SWAP1 POP SWAP2 SWAP1 POP JUMP JUMPDEST PUSH0 PUSH1 0x20 PUSH1 0x1F DUP4 ADD DIV SWAP1 POP SWAP2 SWAP1 POP JUMP JUMPDEST PUSH0 DUP3 DUP3 SHL SWAP1 POP SWAP3 SWAP2 POP POP JUMP JUMPDEST PUSH0 PUSH1 0x8 DUP4 MUL PUSH2 0xBFD PUSH32 0xFFFFFFFFFFFFFFFFFFFFFFFFFFFFFFFFFFFFFFFFFFFFFFFFFFFFFFFFFFFFFFFF DUP3 PUSH2 0xBC2 JUMP JUMPDEST PUSH2 0xC07 DUP7 DUP4 PUSH2 0xBC2 JUMP JUMPDEST SWAP6 POP DUP1 NOT DUP5 AND SWAP4 POP DUP1 DUP7 AND DUP5 OR SWAP3 POP POP POP SWAP4 SWAP3 POP POP POP JUMP JUMPDEST PUSH0 PUSH2 0xC39 PUSH2 0xC34 PUSH2 0xC2F DUP5 PUSH2 0x683 JUMP JUMPDEST PUSH2 0x95D JUMP JUMPDEST PUSH2 0x683 JUMP JUMPDEST SWAP1 POP SWAP2 SWAP1 POP JUMP JUMPDEST PUSH0 DUP2 SWAP1 POP SWAP2 SWAP1 POP JUMP JUMPDEST PUSH2 0xC52 DUP4 PUSH2 0xC1F JUMP JUMPDEST PUSH2 0xC66 PUSH2 0xC5E DUP3 PUSH2 0xC40 JUMP JUMPDEST DUP5 DUP5 SLOAD PUSH2 0xBCE JUMP JUMPDEST DUP3 SSTORE POP POP POP POP JUMP JUMPDEST PUSH0 SWAP1 JUMP JUMPDEST PUSH2 0xC7A PUSH2 0xC6E JUMP JUMPDEST PUSH2 0xC85 DUP2 DUP5 DUP5 PUSH2 0xC49 JUMP JUMPDEST POP POP POP JUMP JUMPDEST JUMPDEST DUP2 DUP2 LT ISZERO PUSH2 0xCA8 JUMPI PUSH2 0xC9D PUSH0 DUP3 PUSH2 0xC72 JUMP JUMPDEST PUSH1 0x1 DUP2 ADD SWAP1 POP PUSH2 0xC8B JUMP JUMPDEST POP POP JUMP JUMPDEST PUSH1 0x1F DUP3 GT ISZERO PUSH2 0xCED JUMPI PUSH2 0xCBE DUP2 PUSH2 0xBA1 JUMP JUMPDEST PUSH2 0xCC7 DUP5 PUSH2 0xBB3 JUMP JUMPDEST DUP2 ADD PUSH1 0x20 DUP6 LT ISZERO PUSH2 0xCD6 JUMPI DUP2 SWAP1 POP JUMPDEST PUSH2 0xCEA PUSH2 0xCE2 DUP6 PUSH2 0xBB3 JUMP JUMPDEST DUP4 ADD DUP3 PUSH2 0xC8A JUMP JUMPDEST POP POP JUMPDEST POP POP POP JUMP JUMPDEST PUSH0 DUP3 DUP3 SHR SWAP1 POP SWAP3 SWAP2 POP POP JUMP JUMPDEST PUSH0 PUSH2 0xD0D PUSH0 NOT DUP5 PUSH1 0x8 MUL PUSH2 0xCF2 JUMP JUMPDEST NOT DUP1 DUP4 AND SWAP2 POP POP SWAP3 SWAP2 POP POP JUMP JUMPDEST PUSH0 PUSH2 0xD25 DUP4 DUP4 PUSH2 0xCFE JUMP JUMPDEST SWAP2 POP DUP3 PUSH1 0x2 MUL DUP3 OR SWAP1 POP SWAP3 SWAP2 POP POP JUMP JUMPDEST PUSH2 0xD3E DUP3 PUSH2 0xB0D JUMP JUMPDEST PUSH8 0xFFFFFFFFFFFFFFFF DUP2 GT ISZERO PUSH2 0xD57 JUMPI PUSH2 0xD56 PUSH2 0xB17 JUMP JUMPDEST JUMPDEST PUSH2 0xD61 DUP3 SLOAD PUSH2 0xB71 JUMP JUMPDEST PUSH2 0xD6C DUP3 DUP3 DUP6 PUSH2 0xCAC JUMP JUMPDEST PUSH0 PUSH1 0x20 SWAP1 POP PUSH1 0x1F DUP4 GT PUSH1 0x1 DUP2 EQ PUSH2 0xD9D JUMPI PUSH0 DUP5 ISZERO PUSH2 0xD8B JUMPI DUP3 DUP8 ADD MLOAD SWAP1 POP JUMPDEST PUSH2 0xD95 DUP6 DUP3 PUSH2 0xD1A JUMP JUMPDEST DUP7 SSTORE POP PUSH2 0xDFC JUMP JUMPDEST PUSH1 0x1F NOT DUP5 AND PUSH2 0xDAB DUP7 PUSH2 0xBA1 JUMP JUMPDEST PUSH0 JUMPDEST DUP3 DUP2 LT ISZERO PUSH2 0xDD2 JUMPI DUP5 DUP10 ADD MLOAD DUP3 SSTORE PUSH1 0x1 DUP3 ADD SWAP2 POP PUSH1 0x20 DUP6 ADD SWAP5 POP PUSH1 0x20 DUP2 ADD SWAP1 POP PUSH2 0xDAD JUMP JUMPDEST DUP7 DUP4 LT ISZERO PUSH2 0xDEF JUMPI DUP5 DUP10 ADD MLOAD PUSH2 0xDEB PUSH1 0x1F DUP10 AND DUP3 PUSH2 0xCFE JUMP JUMPDEST DUP4 SSTORE POP JUMPDEST PUSH1 0x1 PUSH1 0x2 DUP9 MUL ADD DUP9 SSTORE POP POP POP JUMPDEST POP POP POP POP POP POP JUMP JUMPDEST PUSH0 DUP2 SLOAD PUSH2 0xE10 DUP2 PUSH2 0xB71 JUMP JUMPDEST PUSH2 0xE1A DUP2 DUP7 PUSH2 0x778 JUMP JUMPDEST SWAP5 POP PUSH1 0x1 DUP3 AND PUSH0 DUP2 EQ PUSH2 0xE34 JUMPI PUSH1 0x1 DUP2 EQ PUSH2 0xE4A JUMPI PUSH2 0xE7C JUMP JUMPDEST PUSH1 0xFF NOT DUP4 AND DUP7 MSTORE DUP2 ISZERO ISZERO PUSH1 0x20 MUL DUP7 ADD SWAP4 POP PUSH2 0xE7C JUMP JUMPDEST PUSH2 0xE53 DUP6 PUSH2 0xBA1 JUMP JUMPDEST PUSH0 JUMPDEST DUP4 DUP2 LT ISZERO PUSH2 0xE74 JUMPI DUP2 SLOAD DUP2 DUP10 ADD MSTORE PUSH1 0x1 DUP3 ADD SWAP2 POP PUSH1 0x20 DUP2 ADD SWAP1 POP PUSH2 0xE55 JUMP JUMPDEST DUP1 DUP9 ADD SWAP6 POP POP POP JUMPDEST POP POP POP SWAP3 SWAP2 POP POP JUMP JUMPDEST PUSH0 PUSH1 0x60 DUP3 ADD SWAP1 POP PUSH2 0xE98 PUSH0 DUP4 ADD DUP7 PUSH2 0x68C JUMP JUMPDEST PUSH2 0xEA5 PUSH1 0x20 DUP4 ADD DUP6 PUSH2 0x68C JUMP JUMPDEST DUP2 DUP2 SUB PUSH1 0x40 DUP4 ADD MSTORE PUSH2 0xEB7 DUP2 DUP5 PUSH2 0xE04 JUMP JUMPDEST SWAP1 POP SWAP5 SWAP4 POP POP POP POP JUMP JUMPDEST PUSH32 0x4E487B7100000000000000000000000000000000000000000000000000000000 PUSH0 MSTORE PUSH1 0x12 PUSH1 0x4 MSTORE PUSH1 0x24 PUSH0 REVERT INVALID LOG2 PUSH5 0x6970667358 0x22 SLT KECCAK256 0xDE 0xC 0xBE DUP2 0xE0 0xE2 XOR CALLCODE SHL 0xE1 0xF6 0xEB 0xF8 0xCA BYTE SWAP14 0xF9 GASPRICE PUSH0 0xDE 0x26 0xD8 0x29 0xE4 PUSH2 0x145A ADDRESS 0x26 PUSH7 0x744264736F6C63 NUMBER STOP ADDMOD AND STOP CALLER "
		},
		"gasEstimates": {
			"creation": {
				"codeDepositCost": "775200",
				"executionCost": "47164",
				"totalCost": "822364"
			},
			"external": {
				"declareWinner()": "infinite",
				"owner()": "2552",
				"placeBet(uint256,uint256)": "infinite",
				"value()": "2425"
			}
		},
		"methodIdentifiers": {
			"declareWinner()": "14034bd2",
			"owner()": "8da5cb5b",
			"placeBet(uint256,uint256)": "4afe62b5",
			"value()": "3fa4f245"
		}
	},
	"abi": [
		{
			"inputs": [],
			"stateMutability": "payable",
			"type": "constructor"
		},
		{
			"anonymous": false,
			"inputs": [
				{
					"indexed": true,
					"internalType": "address",
					"name": "better",
					"type": "address"
				},
				{
					"indexed": false,
					"internalType": "uint256",
					"name": "choice",
					"type": "uint256"
				},
				{
					"indexed": false,
					"internalType": "uint256",
					"name": "amount",
					"type": "uint256"
				},
				{
					"indexed": false,
					"internalType": "string",
					"name": "sportsMatch",
					"type": "string"
				}
			],
			"name": "BetPlaced",
			"type": "event"
		},
		{
			"anonymous": false,
			"inputs": [
				{
					"indexed": false,
					"internalType": "uint256",
					"name": "test",
					"type": "uint256"
				}
			],
			"name": "LoserDeclared",
			"type": "event"
		},
		{
			"anonymous": false,
			"inputs": [
				{
					"indexed": true,
					"internalType": "address",
					"name": "winner",
					"type": "address"
				},
				{
					"indexed": false,
					"internalType": "uint256",
					"name": "amount",
					"type": "uint256"
				}
			],
			"name": "WinnerDeclared",
			"type": "event"
		},
		{
			"inputs": [],
			"name": "declareWinner",
			"outputs": [],
			"stateMutability": "nonpayable",
			"type": "function"
		},
		{
			"inputs": [],
			"name": "owner",
			"outputs": [
				{
					"internalType": "address",
					"name": "",
					"type": "address"
				}
			],
			"stateMutability": "view",
			"type": "function"
		},
		{
			"inputs": [
				{
					"internalType": "uint256",
					"name": "game",
					"type": "uint256"
				},
				{
					"internalType": "uint256",
					"name": "choice",
					"type": "uint256"
				}
			],
			"name": "placeBet",
			"outputs": [],
			"stateMutability": "payable",
			"type": "function"
		},
		{
			"inputs": [],
			"name": "value",
			"outputs": [
				{
					"internalType": "uint256",
					"name": "",
					"type": "uint256"
				}
			],
			"stateMutability": "view",
			"type": "function"
		}
	]
}