{
	"data": {
		"bytecode": {
			"linkReferences": {},
			"object": "608060405234801561000f575f80fd5b5060015f55610385806100215f395ff3fe608060405260043610610079575f3560e01c8063c2b5a5041161004c578063c2b5a50414610137578063c38a8afd1461014c578063d0821b0e14610160578063f71d96cb14610175575f80fd5b80632ca8c6d31461007d5780634081d916146100a55780634b114691146100d45780637863117e14610122575b5f80fd5b348015610088575f80fd5b5061009260035481565b6040519081526020015b60405180910390f35b3480156100b0575f80fd5b506100c46100bf3660046102b2565b6101ac565b604051901515815260200161009c565b3480156100df575f80fd5b5061010a6100ee3660046102b2565b60056020525f90815260409020805460019091015461ffff1682565b6040805192835261ffff90911660208301520161009c565b34801561012d575f80fd5b5061009260015481565b348015610142575f80fd5b5061009260025481565b348015610157575f80fd5b506100925f5481565b61017361016e3660046102df565b610208565b005b348015610180575f80fd5b5061019461018f3660046102ff565b61028a565b6040516001600160a01b03909116815260200161009c565b5f805b60045481101561020057826001600160a01b0316600482815481106101d6576101d6610316565b5f918252602090912001546001600160a01b0316036101f85750600192915050565b6001016101af565b505f92915050565b610211336101ac565b1561021a575f80fd5b5f54341015610227575f80fd5b335f9081526005602052604090203481556001908101805461ffff191660ff84169081179091559003610270573460015f828254610265919061032a565b909155506102879050565b3460025f828254610281919061032a565b90915550505b50565b60048181548110610299575f80fd5b5f918252602090912001546001600160a01b0316905081565b5f602082840312156102c2575f80fd5b81356001600160a01b03811681146102d8575f80fd5b9392505050565b5f602082840312156102ef575f80fd5b813560ff811681146102d8575f80fd5b5f6020828403121561030f575f80fd5b5035919050565b634e487b7160e01b5f52603260045260245ffd5b8082018082111561034957634e487b7160e01b5f52601160045260245ffd5b9291505056fea2646970667358221220ca2e41e717bba651b523f8614514ff7b73101ced1908d944a3253398a5ba5cc864736f6c63430008170033",
			"opcodes": "PUSH1 0x80 PUSH1 0x40 MSTORE CALLVALUE DUP1 ISZERO PUSH2 0xF JUMPI PUSH0 DUP1 REVERT JUMPDEST POP PUSH1 0x1 PUSH0 SSTORE PUSH2 0x385 DUP1 PUSH2 0x21 PUSH0 CODECOPY PUSH0 RETURN INVALID PUSH1 0x80 PUSH1 0x40 MSTORE PUSH1 0x4 CALLDATASIZE LT PUSH2 0x79 JUMPI PUSH0 CALLDATALOAD PUSH1 0xE0 SHR DUP1 PUSH4 0xC2B5A504 GT PUSH2 0x4C JUMPI DUP1 PUSH4 0xC2B5A504 EQ PUSH2 0x137 JUMPI DUP1 PUSH4 0xC38A8AFD EQ PUSH2 0x14C JUMPI DUP1 PUSH4 0xD0821B0E EQ PUSH2 0x160 JUMPI DUP1 PUSH4 0xF71D96CB EQ PUSH2 0x175 JUMPI PUSH0 DUP1 REVERT JUMPDEST DUP1 PUSH4 0x2CA8C6D3 EQ PUSH2 0x7D JUMPI DUP1 PUSH4 0x4081D916 EQ PUSH2 0xA5 JUMPI DUP1 PUSH4 0x4B114691 EQ PUSH2 0xD4 JUMPI DUP1 PUSH4 0x7863117E EQ PUSH2 0x122 JUMPI JUMPDEST PUSH0 DUP1 REVERT JUMPDEST CALLVALUE DUP1 ISZERO PUSH2 0x88 JUMPI PUSH0 DUP1 REVERT JUMPDEST POP PUSH2 0x92 PUSH1 0x3 SLOAD DUP2 JUMP JUMPDEST PUSH1 0x40 MLOAD SWAP1 DUP2 MSTORE PUSH1 0x20 ADD JUMPDEST PUSH1 0x40 MLOAD DUP1 SWAP2 SUB SWAP1 RETURN JUMPDEST CALLVALUE DUP1 ISZERO PUSH2 0xB0 JUMPI PUSH0 DUP1 REVERT JUMPDEST POP PUSH2 0xC4 PUSH2 0xBF CALLDATASIZE PUSH1 0x4 PUSH2 0x2B2 JUMP JUMPDEST PUSH2 0x1AC JUMP JUMPDEST PUSH1 0x40 MLOAD SWAP1 ISZERO ISZERO DUP2 MSTORE PUSH1 0x20 ADD PUSH2 0x9C JUMP JUMPDEST CALLVALUE DUP1 ISZERO PUSH2 0xDF JUMPI PUSH0 DUP1 REVERT JUMPDEST POP PUSH2 0x10A PUSH2 0xEE CALLDATASIZE PUSH1 0x4 PUSH2 0x2B2 JUMP JUMPDEST PUSH1 0x5 PUSH1 0x20 MSTORE PUSH0 SWAP1 DUP2 MSTORE PUSH1 0x40 SWAP1 KECCAK256 DUP1 SLOAD PUSH1 0x1 SWAP1 SWAP2 ADD SLOAD PUSH2 0xFFFF AND DUP3 JUMP JUMPDEST PUSH1 0x40 DUP1 MLOAD SWAP3 DUP4 MSTORE PUSH2 0xFFFF SWAP1 SWAP2 AND PUSH1 0x20 DUP4 ADD MSTORE ADD PUSH2 0x9C JUMP JUMPDEST CALLVALUE DUP1 ISZERO PUSH2 0x12D JUMPI PUSH0 DUP1 REVERT JUMPDEST POP PUSH2 0x92 PUSH1 0x1 SLOAD DUP2 JUMP JUMPDEST CALLVALUE DUP1 ISZERO PUSH2 0x142 JUMPI PUSH0 DUP1 REVERT JUMPDEST POP PUSH2 0x92 PUSH1 0x2 SLOAD DUP2 JUMP JUMPDEST CALLVALUE DUP1 ISZERO PUSH2 0x157 JUMPI PUSH0 DUP1 REVERT JUMPDEST POP PUSH2 0x92 PUSH0 SLOAD DUP2 JUMP JUMPDEST PUSH2 0x173 PUSH2 0x16E CALLDATASIZE PUSH1 0x4 PUSH2 0x2DF JUMP JUMPDEST PUSH2 0x208 JUMP JUMPDEST STOP JUMPDEST CALLVALUE DUP1 ISZERO PUSH2 0x180 JUMPI PUSH0 DUP1 REVERT JUMPDEST POP PUSH2 0x194 PUSH2 0x18F CALLDATASIZE PUSH1 0x4 PUSH2 0x2FF JUMP JUMPDEST PUSH2 0x28A JUMP JUMPDEST PUSH1 0x40 MLOAD PUSH1 0x1 PUSH1 0x1 PUSH1 0xA0 SHL SUB SWAP1 SWAP2 AND DUP2 MSTORE PUSH1 0x20 ADD PUSH2 0x9C JUMP JUMPDEST PUSH0 DUP1 JUMPDEST PUSH1 0x4 SLOAD DUP2 LT ISZERO PUSH2 0x200 JUMPI DUP3 PUSH1 0x1 PUSH1 0x1 PUSH1 0xA0 SHL SUB AND PUSH1 0x4 DUP3 DUP2 SLOAD DUP2 LT PUSH2 0x1D6 JUMPI PUSH2 0x1D6 PUSH2 0x316 JUMP JUMPDEST PUSH0 SWAP2 DUP3 MSTORE PUSH1 0x20 SWAP1 SWAP2 KECCAK256 ADD SLOAD PUSH1 0x1 PUSH1 0x1 PUSH1 0xA0 SHL SUB AND SUB PUSH2 0x1F8 JUMPI POP PUSH1 0x1 SWAP3 SWAP2 POP POP JUMP JUMPDEST PUSH1 0x1 ADD PUSH2 0x1AF JUMP JUMPDEST POP PUSH0 SWAP3 SWAP2 POP POP JUMP JUMPDEST PUSH2 0x211 CALLER PUSH2 0x1AC JUMP JUMPDEST ISZERO PUSH2 0x21A JUMPI PUSH0 DUP1 REVERT JUMPDEST PUSH0 SLOAD CALLVALUE LT ISZERO PUSH2 0x227 JUMPI PUSH0 DUP1 REVERT JUMPDEST CALLER PUSH0 SWAP1 DUP2 MSTORE PUSH1 0x5 PUSH1 0x20 MSTORE PUSH1 0x40 SWAP1 KECCAK256 CALLVALUE DUP2 SSTORE PUSH1 0x1 SWAP1 DUP2 ADD DUP1 SLOAD PUSH2 0xFFFF NOT AND PUSH1 0xFF DUP5 AND SWAP1 DUP2 OR SWAP1 SWAP2 SSTORE SWAP1 SUB PUSH2 0x270 JUMPI CALLVALUE PUSH1 0x1 PUSH0 DUP3 DUP3 SLOAD PUSH2 0x265 SWAP2 SWAP1 PUSH2 0x32A JUMP JUMPDEST SWAP1 SWAP2 SSTORE POP PUSH2 0x287 SWAP1 POP JUMP JUMPDEST CALLVALUE PUSH1 0x2 PUSH0 DUP3 DUP3 SLOAD PUSH2 0x281 SWAP2 SWAP1 PUSH2 0x32A JUMP JUMPDEST SWAP1 SWAP2 SSTORE POP POP JUMPDEST POP JUMP JUMPDEST PUSH1 0x4 DUP2 DUP2 SLOAD DUP2 LT PUSH2 0x299 JUMPI PUSH0 DUP1 REVERT JUMPDEST PUSH0 SWAP2 DUP3 MSTORE PUSH1 0x20 SWAP1 SWAP2 KECCAK256 ADD SLOAD PUSH1 0x1 PUSH1 0x1 PUSH1 0xA0 SHL SUB AND SWAP1 POP DUP2 JUMP JUMPDEST PUSH0 PUSH1 0x20 DUP3 DUP5 SUB SLT ISZERO PUSH2 0x2C2 JUMPI PUSH0 DUP1 REVERT JUMPDEST DUP2 CALLDATALOAD PUSH1 0x1 PUSH1 0x1 PUSH1 0xA0 SHL SUB DUP2 AND DUP2 EQ PUSH2 0x2D8 JUMPI PUSH0 DUP1 REVERT JUMPDEST SWAP4 SWAP3 POP POP POP JUMP JUMPDEST PUSH0 PUSH1 0x20 DUP3 DUP5 SUB SLT ISZERO PUSH2 0x2EF JUMPI PUSH0 DUP1 REVERT JUMPDEST DUP2 CALLDATALOAD PUSH1 0xFF DUP2 AND DUP2 EQ PUSH2 0x2D8 JUMPI PUSH0 DUP1 REVERT JUMPDEST PUSH0 PUSH1 0x20 DUP3 DUP5 SUB SLT ISZERO PUSH2 0x30F JUMPI PUSH0 DUP1 REVERT JUMPDEST POP CALLDATALOAD SWAP2 SWAP1 POP JUMP JUMPDEST PUSH4 0x4E487B71 PUSH1 0xE0 SHL PUSH0 MSTORE PUSH1 0x32 PUSH1 0x4 MSTORE PUSH1 0x24 PUSH0 REVERT JUMPDEST DUP1 DUP3 ADD DUP1 DUP3 GT ISZERO PUSH2 0x349 JUMPI PUSH4 0x4E487B71 PUSH1 0xE0 SHL PUSH0 MSTORE PUSH1 0x11 PUSH1 0x4 MSTORE PUSH1 0x24 PUSH0 REVERT JUMPDEST SWAP3 SWAP2 POP POP JUMP INVALID LOG2 PUSH5 0x6970667358 0x22 SLT KECCAK256 0xCA 0x2E COINBASE 0xE7 OR 0xBB 0xA6 MLOAD 0xB5 0x23 0xF8 PUSH2 0x4514 SELFDESTRUCT PUSH28 0x73101CED1908D944A3253398A5BA5CC864736F6C6343000817003300 "
		},
		"gasEstimates": {
			"creation": {
				"codeDepositCost": "180200",
				"executionCost": "22329",
				"totalCost": "202529"
			},
			"external": {
				"bet(uint8)": "infinite",
				"checkPlayerExists(address)": "infinite",
				"minimumBet()": "2304",
				"numberOfBets()": "2284",
				"playerInfo(address)": "4674",
				"players(uint256)": "4677",
				"totalBetOne()": "2350",
				"totalBetTwo()": "2283"
			}
		},
		"methodIdentifiers": {
			"bet(uint8)": "d0821b0e",
			"checkPlayerExists(address)": "4081d916",
			"minimumBet()": "c38a8afd",
			"numberOfBets()": "2ca8c6d3",
			"playerInfo(address)": "4b114691",
			"players(uint256)": "f71d96cb",
			"totalBetOne()": "7863117e",
			"totalBetTwo()": "c2b5a504"
		}
	},
	"abi": [
		{
			"inputs": [],
			"stateMutability": "nonpayable",
			"type": "constructor"
		},
		{
			"inputs": [
				{
					"internalType": "uint8",
					"name": "_teamSelected",
					"type": "uint8"
				}
			],
			"name": "bet",
			"outputs": [],
			"stateMutability": "payable",
			"type": "function"
		},
		{
			"inputs": [
				{
					"internalType": "address",
					"name": "player",
					"type": "address"
				}
			],
			"name": "checkPlayerExists",
			"outputs": [
				{
					"internalType": "bool",
					"name": "",
					"type": "bool"
				}
			],
			"stateMutability": "view",
			"type": "function"
		},
		{
			"inputs": [],
			"name": "minimumBet",
			"outputs": [
				{
					"internalType": "uint256",
					"name": "",
					"type": "uint256"
				}
			],
			"stateMutability": "view",
			"type": "function"
		},
		{
			"inputs": [],
			"name": "numberOfBets",
			"outputs": [
				{
					"internalType": "uint256",
					"name": "",
					"type": "uint256"
				}
			],
			"stateMutability": "view",
			"type": "function"
		},
		{
			"inputs": [
				{
					"internalType": "address",
					"name": "",
					"type": "address"
				}
			],
			"name": "playerInfo",
			"outputs": [
				{
					"internalType": "uint256",
					"name": "amountBet",
					"type": "uint256"
				},
				{
					"internalType": "uint16",
					"name": "teamSelected",
					"type": "uint16"
				}
			],
			"stateMutability": "view",
			"type": "function"
		},
		{
			"inputs": [
				{
					"internalType": "uint256",
					"name": "",
					"type": "uint256"
				}
			],
			"name": "players",
			"outputs": [
				{
					"internalType": "address payable",
					"name": "",
					"type": "address"
				}
			],
			"stateMutability": "view",
			"type": "function"
		},
		{
			"inputs": [],
			"name": "totalBetOne",
			"outputs": [
				{
					"internalType": "uint256",
					"name": "",
					"type": "uint256"
				}
			],
			"stateMutability": "view",
			"type": "function"
		},
		{
			"inputs": [],
			"name": "totalBetTwo",
			"outputs": [
				{
					"internalType": "uint256",
					"name": "",
					"type": "uint256"
				}
			],
			"stateMutability": "view",
			"type": "function"
		}
	]
}